{
  "_format": "hh-sol-artifact-1",
  "contractName": "AroundMarket",
  "sourceName": "contracts/core/AroundMarket.sol",
  "abi": [
    {
      "inputs": [],
      "name": "AlreadyInitialize",
      "type": "error"
    },
    {
      "inputs": [],
      "name": "AlreadyWithdraw",
      "type": "error"
    },
    {
      "inputs": [],
      "name": "InsufficientBalance",
      "type": "error"
    },
    {
      "inputs": [],
      "name": "InvalidLpShare",
      "type": "error"
    },
    {
      "inputs": [],
      "name": "InvalidMarketId",
      "type": "error"
    },
    {
      "inputs": [],
      "name": "InvalidOutput",
      "type": "error"
    },
    {
      "inputs": [],
      "name": "InvalidPeriod",
      "type": "error"
    },
    {
      "inputs": [],
      "name": "InvalidRandomNumber",
      "type": "error"
    },
    {
      "inputs": [],
      "name": "InvalidState",
      "type": "error"
    },
    {
      "inputs": [],
      "name": "InvalidVirtualAmount",
      "type": "error"
    },
    {
      "inputs": [],
      "name": "LiquidityWayClosed",
      "type": "error"
    },
    {
      "inputs": [],
      "name": "MarketClosed",
      "type": "error"
    },
    {
      "inputs": [],
      "name": "NonMultiSig",
      "type": "error"
    },
    {
      "inputs": [],
      "name": "NotTimeYet",
      "type": "error"
    },
    {
      "inputs": [],
      "name": "NotWithdrawTime",
      "type": "error"
    },
    {
      "inputs": [
        {
          "internalType": "address",
          "name": "token",
          "type": "address"
        }
      ],
      "name": "SafeERC20FailedOperation",
      "type": "error"
    },
    {
      "inputs": [],
      "name": "TouchAroundErr",
      "type": "error"
    },
    {
      "inputs": [],
      "name": "TouchOracleErr",
      "type": "error"
    },
    {
      "inputs": [],
      "name": "ZeroAddress",
      "type": "error"
    },
    {
      "inputs": [],
      "name": "ZeroAmount",
      "type": "error"
    },
    {
      "inputs": [],
      "name": "ZeroParticipant",
      "type": "error"
    },
    {
      "anonymous": false,
      "inputs": [
        {
          "indexed": false,
          "internalType": "uint256",
          "name": "thisMarketId",
          "type": "uint256"
        },
        {
          "indexed": false,
          "internalType": "address",
          "name": "lpProvider",
          "type": "address"
        },
        {
          "indexed": false,
          "internalType": "uint256",
          "name": "value",
          "type": "uint256"
        }
      ],
      "name": "AddLiqudity",
      "type": "event"
    },
    {
      "anonymous": false,
      "inputs": [
        {
          "indexed": false,
          "internalType": "uint256",
          "name": "thisMarketId",
          "type": "uint256"
        },
        {
          "indexed": false,
          "internalType": "address",
          "name": "buyer",
          "type": "address"
        },
        {
          "indexed": false,
          "internalType": "enum IAroundMarket.Result",
          "name": "bet",
          "type": "uint8"
        },
        {
          "indexed": false,
          "internalType": "uint256",
          "name": "value",
          "type": "uint256"
        }
      ],
      "name": "Buy",
      "type": "event"
    },
    {
      "anonymous": false,
      "inputs": [
        {
          "indexed": false,
          "internalType": "uint256",
          "name": "thisNewMarketId",
          "type": "uint256"
        }
      ],
      "name": "CreateNewMarket",
      "type": "event"
    },
    {
      "anonymous": false,
      "inputs": [
        {
          "indexed": false,
          "internalType": "uint256",
          "name": "thisMarketId",
          "type": "uint256"
        },
        {
          "indexed": false,
          "internalType": "address",
          "name": "user",
          "type": "address"
        },
        {
          "indexed": false,
          "internalType": "uint256",
          "name": "value",
          "type": "uint256"
        }
      ],
      "name": "Release",
      "type": "event"
    },
    {
      "anonymous": false,
      "inputs": [
        {
          "indexed": false,
          "internalType": "uint256",
          "name": "thisMarketId",
          "type": "uint256"
        },
        {
          "indexed": false,
          "internalType": "address",
          "name": "lpProvider",
          "type": "address"
        },
        {
          "indexed": false,
          "internalType": "uint256",
          "name": "lpAmount",
          "type": "uint256"
        }
      ],
      "name": "RemoveLiqudity",
      "type": "event"
    },
    {
      "anonymous": false,
      "inputs": [
        {
          "indexed": false,
          "internalType": "uint256",
          "name": "thisMarketId",
          "type": "uint256"
        },
        {
          "indexed": false,
          "internalType": "address",
          "name": "seller",
          "type": "address"
        },
        {
          "indexed": false,
          "internalType": "enum IAroundMarket.Result",
          "name": "bet",
          "type": "uint8"
        },
        {
          "indexed": false,
          "internalType": "uint256",
          "name": "amount",
          "type": "uint256"
        }
      ],
      "name": "Sell",
      "type": "event"
    },
    {
      "inputs": [],
      "name": "DefaultVirtualLiquidity",
      "outputs": [
        {
          "internalType": "uint32",
          "name": "",
          "type": "uint32"
        }
      ],
      "stateMutability": "view",
      "type": "function"
    },
    {
      "inputs": [
        {
          "internalType": "uint256",
          "name": "thisMarketId",
          "type": "uint256"
        },
        {
          "internalType": "uint128",
          "name": "amount",
          "type": "uint128"
        }
      ],
      "name": "addLiquidity",
      "outputs": [],
      "stateMutability": "nonpayable",
      "type": "function"
    },
    {
      "inputs": [],
      "name": "aroundPoolFactory",
      "outputs": [
        {
          "internalType": "address",
          "name": "",
          "type": "address"
        }
      ],
      "stateMutability": "view",
      "type": "function"
    },
    {
      "inputs": [
        {
          "internalType": "enum IAroundMarket.Result",
          "name": "bet",
          "type": "uint8"
        },
        {
          "internalType": "uint128",
          "name": "amount",
          "type": "uint128"
        },
        {
          "internalType": "uint256",
          "name": "thisMarketId",
          "type": "uint256"
        }
      ],
      "name": "buy",
      "outputs": [],
      "stateMutability": "nonpayable",
      "type": "function"
    },
    {
      "inputs": [
        {
          "internalType": "address",
          "name": "newFeeReceiver",
          "type": "address"
        }
      ],
      "name": "changeFeeReceiver",
      "outputs": [],
      "stateMutability": "nonpayable",
      "type": "function"
    },
    {
      "inputs": [
        {
          "internalType": "uint32",
          "name": "period",
          "type": "uint32"
        },
        {
          "internalType": "uint128",
          "name": "expectVirtualLiquidity",
          "type": "uint128"
        },
        {
          "internalType": "uint256",
          "name": "thisMarketId",
          "type": "uint256"
        },
        {
          "internalType": "uint256",
          "name": "amount",
          "type": "uint256"
        }
      ],
      "name": "createMarket",
      "outputs": [],
      "stateMutability": "nonpayable",
      "type": "function"
    },
    {
      "inputs": [],
      "name": "feeReceiver",
      "outputs": [
        {
          "internalType": "address",
          "name": "",
          "type": "address"
        }
      ],
      "stateMutability": "view",
      "type": "function"
    },
    {
      "inputs": [
        {
          "internalType": "uint256",
          "name": "thisMarketId",
          "type": "uint256"
        }
      ],
      "name": "getFeeInfo",
      "outputs": [
        {
          "components": [
            {
              "internalType": "uint16",
              "name": "officialFee",
              "type": "uint16"
            },
            {
              "internalType": "uint16",
              "name": "luckyFee",
              "type": "uint16"
            },
            {
              "internalType": "uint16",
              "name": "oracleFee",
              "type": "uint16"
            },
            {
              "internalType": "uint16",
              "name": "creatorFee",
              "type": "uint16"
            },
            {
              "internalType": "uint16",
              "name": "liquidityFee",
              "type": "uint16"
            },
            {
              "internalType": "uint16",
              "name": "totalFee",
              "type": "uint16"
            }
          ],
          "internalType": "struct IAroundPoolFactory.FeeInfo",
          "name": "thisFeeInfo",
          "type": "tuple"
        }
      ],
      "stateMutability": "view",
      "type": "function"
    },
    {
      "inputs": [
        {
          "internalType": "uint256",
          "name": "thisMarketId",
          "type": "uint256"
        }
      ],
      "name": "getLiqudityInfo",
      "outputs": [
        {
          "components": [
            {
              "internalType": "uint128",
              "name": "virtualLiquidity",
              "type": "uint128"
            },
            {
              "internalType": "uint128",
              "name": "tradeCollateralAmount",
              "type": "uint128"
            },
            {
              "internalType": "uint128",
              "name": "lpCollateralAmount",
              "type": "uint128"
            },
            {
              "internalType": "uint128",
              "name": "liquidityFeeAmount",
              "type": "uint128"
            },
            {
              "internalType": "uint256",
              "name": "totalLp",
              "type": "uint256"
            },
            {
              "internalType": "uint256",
              "name": "yesAmount",
              "type": "uint256"
            },
            {
              "internalType": "uint256",
              "name": "noAmount",
              "type": "uint256"
            },
            {
              "internalType": "uint256",
              "name": "volume",
              "type": "uint256"
            }
          ],
          "internalType": "struct IAroundMarket.LiqudityInfo",
          "name": "thisLiqudityInfo",
          "type": "tuple"
        }
      ],
      "stateMutability": "view",
      "type": "function"
    },
    {
      "inputs": [
        {
          "internalType": "uint256",
          "name": "thisMarketId",
          "type": "uint256"
        }
      ],
      "name": "getMarketInfo",
      "outputs": [
        {
          "components": [
            {
              "internalType": "enum IAroundMarket.Result",
              "name": "result",
              "type": "uint8"
            },
            {
              "internalType": "bool",
              "name": "ifOpenAave",
              "type": "bool"
            },
            {
              "internalType": "bool",
              "name": "ifUpdateFinallyAmount",
              "type": "bool"
            },
            {
              "internalType": "uint16",
              "name": "participants",
              "type": "uint16"
            },
            {
              "internalType": "uint64",
              "name": "startTime",
              "type": "uint64"
            },
            {
              "internalType": "uint64",
              "name": "endTime",
              "type": "uint64"
            },
            {
              "internalType": "address",
              "name": "collateral",
              "type": "address"
            },
            {
              "internalType": "uint64",
              "name": "totalRaffleTicket",
              "type": "uint64"
            }
          ],
          "internalType": "struct IAroundMarket.MarketInfo",
          "name": "thisMarketInfo",
          "type": "tuple"
        }
      ],
      "stateMutability": "view",
      "type": "function"
    },
    {
      "inputs": [
        {
          "internalType": "address",
          "name": "user",
          "type": "address"
        }
      ],
      "name": "getUserParticipateIdsLen",
      "outputs": [
        {
          "internalType": "uint256",
          "name": "",
          "type": "uint256"
        }
      ],
      "stateMutability": "view",
      "type": "function"
    },
    {
      "inputs": [
        {
          "internalType": "address",
          "name": "user",
          "type": "address"
        },
        {
          "internalType": "uint256",
          "name": "thisMarketId",
          "type": "uint256"
        }
      ],
      "name": "getUserPosition",
      "outputs": [
        {
          "components": [
            {
              "internalType": "uint64",
              "name": "raffleTicketNumber",
              "type": "uint64"
            },
            {
              "internalType": "uint128",
              "name": "collateralAmount",
              "type": "uint128"
            },
            {
              "internalType": "uint256",
              "name": "yesBalance",
              "type": "uint256"
            },
            {
              "internalType": "uint256",
              "name": "noBalance",
              "type": "uint256"
            },
            {
              "internalType": "uint256",
              "name": "lp",
              "type": "uint256"
            },
            {
              "internalType": "uint256",
              "name": "volume",
              "type": "uint256"
            }
          ],
          "internalType": "struct IAroundMarket.UserPosition",
          "name": "thisUserPosition",
          "type": "tuple"
        }
      ],
      "stateMutability": "view",
      "type": "function"
    },
    {
      "inputs": [
        {
          "internalType": "address",
          "name": "user",
          "type": "address"
        },
        {
          "internalType": "uint256",
          "name": "index",
          "type": "uint256"
        }
      ],
      "name": "indexUserParticipateId",
      "outputs": [
        {
          "internalType": "uint256",
          "name": "participateId",
          "type": "uint256"
        }
      ],
      "stateMutability": "view",
      "type": "function"
    },
    {
      "inputs": [
        {
          "internalType": "address",
          "name": "thisMultiSig",
          "type": "address"
        },
        {
          "internalType": "address",
          "name": "thisAroundPoolFactory",
          "type": "address"
        },
        {
          "internalType": "address",
          "name": "thisOracle",
          "type": "address"
        }
      ],
      "name": "initialize",
      "outputs": [],
      "stateMutability": "nonpayable",
      "type": "function"
    },
    {
      "inputs": [],
      "name": "isInitialize",
      "outputs": [
        {
          "internalType": "bool",
          "name": "",
          "type": "bool"
        }
      ],
      "stateMutability": "view",
      "type": "function"
    },
    {
      "inputs": [],
      "name": "multiSig",
      "outputs": [
        {
          "internalType": "address",
          "name": "",
          "type": "address"
        }
      ],
      "stateMutability": "view",
      "type": "function"
    },
    {
      "inputs": [],
      "name": "oracle",
      "outputs": [
        {
          "internalType": "address",
          "name": "",
          "type": "address"
        }
      ],
      "stateMutability": "view",
      "type": "function"
    },
    {
      "inputs": [
        {
          "internalType": "uint256",
          "name": "",
          "type": "uint256"
        },
        {
          "internalType": "uint64",
          "name": "",
          "type": "uint64"
        }
      ],
      "name": "raffleTicketToUser",
      "outputs": [
        {
          "internalType": "address",
          "name": "",
          "type": "address"
        }
      ],
      "stateMutability": "view",
      "type": "function"
    },
    {
      "inputs": [
        {
          "internalType": "uint256",
          "name": "thisMarketId",
          "type": "uint256"
        }
      ],
      "name": "redeemWinnings",
      "outputs": [
        {
          "internalType": "uint256",
          "name": "winnings",
          "type": "uint256"
        }
      ],
      "stateMutability": "nonpayable",
      "type": "function"
    },
    {
      "inputs": [
        {
          "internalType": "uint256",
          "name": "thisMarketId",
          "type": "uint256"
        },
        {
          "internalType": "uint128",
          "name": "lpAmount",
          "type": "uint128"
        }
      ],
      "name": "removeLiquidity",
      "outputs": [],
      "stateMutability": "nonpayable",
      "type": "function"
    },
    {
      "inputs": [
        {
          "internalType": "enum IAroundMarket.Result",
          "name": "bet",
          "type": "uint8"
        },
        {
          "internalType": "uint256",
          "name": "amount",
          "type": "uint256"
        },
        {
          "internalType": "uint256",
          "name": "thisMarketId",
          "type": "uint256"
        }
      ],
      "name": "sell",
      "outputs": [],
      "stateMutability": "nonpayable",
      "type": "function"
    },
    {
      "inputs": [
        {
          "internalType": "uint32",
          "name": "newDefaultVirtualLiquidity",
          "type": "uint32"
        }
      ],
      "name": "setDefaultVirtualLiquidity",
      "outputs": [],
      "stateMutability": "nonpayable",
      "type": "function"
    },
    {
      "inputs": [
        {
          "internalType": "uint256",
          "name": "thisMarketId",
          "type": "uint256"
        }
      ],
      "name": "setInvalidMarket",
      "outputs": [],
      "stateMutability": "nonpayable",
      "type": "function"
    },
    {
      "inputs": [
        {
          "internalType": "uint256",
          "name": "thisMarketId",
          "type": "uint256"
        },
        {
          "internalType": "bool",
          "name": "state",
          "type": "bool"
        }
      ],
      "name": "setMarketOpenAave",
      "outputs": [],
      "stateMutability": "nonpayable",
      "type": "function"
    },
    {
      "inputs": [
        {
          "internalType": "uint256",
          "name": "thisMarketId",
          "type": "uint256"
        }
      ],
      "name": "touchAllot",
      "outputs": [],
      "stateMutability": "nonpayable",
      "type": "function"
    },
    {
      "inputs": [
        {
          "internalType": "uint256",
          "name": "thisMarketId",
          "type": "uint256"
        }
      ],
      "name": "updateFinallyAmount",
      "outputs": [],
      "stateMutability": "nonpayable",
      "type": "function"
    }
  ],
  "bytecode": "0x6080604052620186a06000806101000a81548163ffffffff021916908363ffffffff160217905550348015603257600080fd5b50615f9a806100426000396000f3fe608060405234801561001057600080fd5b506004361061018e5760003560e01c80639af9a1ed116100de578063c0c53b8b11610097578063d7ed745311610071578063d7ed745314610491578063db276a53146104c1578063db3b0a49146104dd578063df24805d146104f95761018e565b8063c0c53b8b14610415578063d3432f8b14610431578063d45c267a146104615761018e565b80639af9a1ed1461036b5780639fa89e1c14610387578063a084ffcd146103a3578063b1d9ce27146103bf578063b3f00674146103db578063b415ce89146103f95761018e565b80633ec791931161014b5780637c08b964116101255780637c08b964146102f75780637dc0d1d0146103135780637e4d111c14610331578063911757ba1461034f5761018e565b80633ec791931461027b57806346280a80146102ab57806379cce6b8146102c75761018e565b80630de5208b146101935780631c88ef1e146101af5780631ef27dee146101df578063281a60bf146101fd578063318fe3121461022d57806336e0004a1461025d575b600080fd5b6101ad60048036038101906101a89190614af9565b610517565b005b6101c960048036038101906101c49190614b97565b610823565b6040516101d69190614c93565b60405180910390f35b6101e7610932565b6040516101f49190614cbd565b60405180910390f35b61021760048036038101906102129190614b97565b610958565b6040516102249190614ce7565b60405180910390f35b61024760048036038101906102429190614d2e565b6109be565b6040516102549190614cbd565b60405180910390f35b610265610a00565b6040516102729190614cbd565b60405180910390f35b61029560048036038101906102909190614d6e565b610a26565b6040516102a29190614efb565b60405180910390f35b6102c560048036038101906102c09190614f3c565b610bd1565b005b6102e160048036038101906102dc9190614f8f565b611118565b6040516102ee9190614ce7565b60405180910390f35b610311600480360381019061030c9190614f8f565b611164565b005b61031b6111b0565b6040516103289190614cbd565b60405180910390f35b6103396111d6565b6040516103469190614fdb565b60405180910390f35b61036960048036038101906103649190614af9565b6111ea565b005b61038560048036038101906103809190615022565b611665565b005b6103a1600480360381019061039c9190614d6e565b61169f565b005b6103bd60048036038101906103b8919061508e565b6116b3565b005b6103d960048036038101906103d49190614d6e565b611b24565b005b6103e3611e7b565b6040516103f09190614cbd565b60405180910390f35b610413600480360381019061040e91906150f5565b611ea1565b005b61042f600480360381019061042a9190615148565b612378565b005b61044b60048036038101906104469190614d6e565b612505565b604051610458919061523d565b60405180910390f35b61047b60048036038101906104769190614d6e565b612683565b60405161048891906152d4565b60405180910390f35b6104ab60048036038101906104a69190614d6e565b612730565b6040516104b89190614ce7565b60405180910390f35b6104db60048036038101906104d691906152ef565b612adb565b005b6104f760048036038101906104f29190614d6e565b612b06565b005b610501612b50565b60405161050e919061532b565b60405180910390f35b61052082612b63565b61053b816fffffffffffffffffffffffffffffffff16612bc2565b61054482612bff565b61055081600084612c6b565b6000806105838361056086612505565b6080015161056d87612505565b60a0015161057a88612505565b60c00151612e06565b9150915060006105c38461059687612505565b604001516105a388612505565b602001516105b19190615375565b6105ba88612505565b60800151612ea0565b9050826005600087815260200190815260200160002060030160008282546105eb91906153b9565b925050819055508160056000878152602001908152602001600020600401600082825461061891906153b9565b92505081905550836005600087815260200190815260200160002060010160008282829054906101000a90046fffffffffffffffffffffffffffffffff166106609190615375565b92506101000a8154816fffffffffffffffffffffffffffffffff02191690836fffffffffffffffffffffffffffffffff160217905550806005600087815260200190815260200160002060020160008282546106bc91906153b9565b9250508190555080600660003373ffffffffffffffffffffffffffffffffffffffff1673ffffffffffffffffffffffffffffffffffffffff1681526020019081526020016000206000878152602001908152602001600020600301600082825461072691906153b9565b9250508190555083600660003373ffffffffffffffffffffffffffffffffffffffff1673ffffffffffffffffffffffffffffffffffffffff168152602001908152602001600020600087815260200190815260200160002060000160088282829054906101000a90046fffffffffffffffffffffffffffffffff166107ab9190615375565b92506101000a8154816fffffffffffffffffffffffffffffffff02191690836fffffffffffffffffffffffffffffffff1602179055507f0a5aa781a237eb6887c24bfca7b9bb7b94fc4518275fa789021ed507fa27da4b85338660405161081493929190615428565b60405180910390a15050505050565b61082b614820565b600660008473ffffffffffffffffffffffffffffffffffffffff1673ffffffffffffffffffffffffffffffffffffffff16815260200190815260200160002060008381526020019081526020016000206040518060c00160405290816000820160009054906101000a900467ffffffffffffffff1667ffffffffffffffff1667ffffffffffffffff1681526020016000820160089054906101000a90046fffffffffffffffffffffffffffffffff166fffffffffffffffffffffffffffffffff166fffffffffffffffffffffffffffffffff168152602001600182015481526020016002820154815260200160038201548152602001600482015481525050905092915050565b600260009054906101000a900473ffffffffffffffffffffffffffffffffffffffff1681565b6000600860008473ffffffffffffffffffffffffffffffffffffffff1673ffffffffffffffffffffffffffffffffffffffff16815260200190815260200160002082815481106109ab576109aa61545f565b5b9060005260206000200154905092915050565b60096020528160005260406000206020528060005260406000206000915091509054906101000a900473ffffffffffffffffffffffffffffffffffffffff1681565b600060049054906101000a900473ffffffffffffffffffffffffffffffffffffffff1681565b610a2e614872565b60046000838152602001908152602001600020604051806101000160405290816000820160009054906101000a900460ff166003811115610a7257610a71614d9b565b5b6003811115610a8457610a83614d9b565b5b81526020016000820160019054906101000a900460ff161515151581526020016000820160029054906101000a900460ff161515151581526020016000820160039054906101000a900461ffff1661ffff1661ffff1681526020016000820160059054906101000a900467ffffffffffffffff1667ffffffffffffffff1667ffffffffffffffff16815260200160008201600d9054906101000a900467ffffffffffffffff1667ffffffffffffffff1667ffffffffffffffff1681526020016001820160009054906101000a900473ffffffffffffffffffffffffffffffffffffffff1673ffffffffffffffffffffffffffffffffffffffff1673ffffffffffffffffffffffffffffffffffffffff1681526020016001820160149054906101000a900467ffffffffffffffff1667ffffffffffffffff1667ffffffffffffffff16815250509050919050565b610bda82612bc2565b610be381612f08565b6000610bee82612683565b60a001519050600080610c438684610c0587612505565b60000151610c1288612505565b60200151610c1f89612505565b604001518a610c2d8b612505565b60a00151610c3a8c612505565b60c00151612f5a565b80935081925050506000826fffffffffffffffffffffffffffffffff1682610c6b91906153b9565b905080600660003373ffffffffffffffffffffffffffffffffffffffff1673ffffffffffffffffffffffffffffffffffffffff16815260200190815260200160002060008781526020019081526020016000206004016000828254610cd091906153b9565b9250508190555080610ce186612505565b602001516fffffffffffffffffffffffffffffffff161015610d2f576040517f98f7360900000000000000000000000000000000000000000000000000000000815260040160405180910390fd5b60016003811115610d4357610d42614d9b565b5b876003811115610d5657610d55614d9b565b5b03610e3e5785610d663387610823565b604001511015610da2576040517ff4d678b800000000000000000000000000000000000000000000000000000000815260040160405180910390fd5b85600660003373ffffffffffffffffffffffffffffffffffffffff1673ffffffffffffffffffffffffffffffffffffffff16815260200190815260200160002060008781526020019081526020016000206001016000828254610e05919061548e565b9250508190555085600560008781526020019081526020016000206003016000828254610e32919061548e565b92505081905550610f1d565b85610e493387610823565b606001511015610e85576040517ff4d678b800000000000000000000000000000000000000000000000000000000815260040160405180910390fd5b85600660003373ffffffffffffffffffffffffffffffffffffffff1673ffffffffffffffffffffffffffffffffffffffff16815260200190815260200160002060008781526020019081526020016000206002016000828254610ee8919061548e565b9250508190555085600560008781526020019081526020016000206004016000828254610f15919061548e565b925050819055505b806005600087815260200190815260200160002060000160108282829054906101000a90046fffffffffffffffffffffffffffffffff16610f5e91906154c2565b92506101000a8154816fffffffffffffffffffffffffffffffff02191690836fffffffffffffffffffffffffffffffff16021790555060008461ffff16610fa487612683565b6080015161ffff1685610fb79190615506565b610fc19190615572565b9050806005600088815260200190815260200160002060010160108282829054906101000a90046fffffffffffffffffffffffffffffffff166110049190615375565b92506101000a8154816fffffffffffffffffffffffffffffffff02191690836fffffffffffffffffffffffffffffffff160217905550611060600061104888610a26565b60200151846110568a612ff7565b60200151306130a7565b611097338461106e89610a26565b60c0015173ffffffffffffffffffffffffffffffffffffffff166131ce9092919063ffffffff16565b506000836fffffffffffffffffffffffffffffffff1611156110bf576110be84848761324d565b5b6110c9858261357b565b6110d28561372c565b7f92b515cd4bebbb47db13d936d9f36b39234668da9debfd4bbfa49aea6bc135f18533898960405161110794939291906155b2565b60405180910390a150505050505050565b6000600860008373ffffffffffffffffffffffffffffffffffffffff1673ffffffffffffffffffffffffffffffffffffffff168152602001908152602001600020805490509050919050565b61116c613901565b80600160006101000a81548173ffffffffffffffffffffffffffffffffffffffff021916908373ffffffffffffffffffffffffffffffffffffffff16021790555050565b600360009054906101000a900473ffffffffffffffffffffffffffffffffffffffff1681565b60008054906101000a900463ffffffff1681565b6111f382612b63565b6000816fffffffffffffffffffffffffffffffff1614806112325750806fffffffffffffffffffffffffffffffff1661122c3384610823565b60800151105b15611269576040517f39e9b42000000000000000000000000000000000000000000000000000000000815260040160405180910390fd5b6000806112bd61127885612505565b606001516112863387610823565b60200151856fffffffffffffffffffffffffffffffff166112a73389610823565b608001516112b489612505565b6080015161398a565b915091506112e781836112d09190615375565b6fffffffffffffffffffffffffffffffff16612bc2565b60008061131a856112f788612505565b6080015161130489612505565b60a001516113118a612505565b60c00151612e06565b9150915081600560008881526020019081526020016000206003016000828254611344919061548e565b9250508190555080600560008881526020019081526020016000206004016000828254611371919061548e565b92505081905550836005600088815260200190815260200160002060010160008282829054906101000a90046fffffffffffffffffffffffffffffffff166113b991906154c2565b92506101000a8154816fffffffffffffffffffffffffffffffff02191690836fffffffffffffffffffffffffffffffff160217905550846fffffffffffffffffffffffffffffffff16600560008881526020019081526020016000206002016000828254611427919061548e565b92505081905550846fffffffffffffffffffffffffffffffff16600660003373ffffffffffffffffffffffffffffffffffffffff1673ffffffffffffffffffffffffffffffffffffffff168152602001908152602001600020600088815260200190815260200160002060030160008282546114a3919061548e565b9250508190555083600660003373ffffffffffffffffffffffffffffffffffffffff1673ffffffffffffffffffffffffffffffffffffffff168152602001908152602001600020600088815260200190815260200160002060000160088282829054906101000a90046fffffffffffffffffffffffffffffffff1661152891906154c2565b92506101000a8154816fffffffffffffffffffffffffffffffff02191690836fffffffffffffffffffffffffffffffff1602179055506000836fffffffffffffffffffffffffffffffff1611156115f157826005600088815260200190815260200160002060010160108282829054906101000a90046fffffffffffffffffffffffffffffffff166115ba91906154c2565b92506101000a8154816fffffffffffffffffffffffffffffffff02191690836fffffffffffffffffffffffffffffffff1602179055505b61162260006115ff88610a26565b60200151858761160f9190615375565b6116188a612ff7565b60200151336130a7565b7f49e936582568d70be6dcbf8df07f38b07bc0a07e9ccd53d358361ca96fe380fa86338760405161165593929190615428565b60405180910390a1505050505050565b61166d613901565b806004600084815260200190815260200160002060000160016101000a81548160ff0219169083151502179055505050565b6116a7613901565b6116b0816139ed565b50565b60006116be83612ff7565b60000151905060006116cf82613d04565b9050600042905060008763ffffffff16826116ea91906155f7565b9050600073ffffffffffffffffffffffffffffffffffffffff1661170d87612ff7565b6060015173ffffffffffffffffffffffffffffffffffffffff16148015611769575060006004600088815260200190815260200160002060000160059054906101000a900467ffffffffffffffff1667ffffffffffffffff1614155b156117a0576040517f06417a6000000000000000000000000000000000000000000000000000000000815260040160405180910390fd5b6138408863ffffffff1610156117e2576040517f17479ac800000000000000000000000000000000000000000000000000000000815260040160405180910390fd5b6000611805848960008054906101000a900463ffffffff1663ffffffff16613d7c565b905080861461181357600080fd5b61186233600160009054906101000a900473ffffffffffffffffffffffffffffffffffffffff16838873ffffffffffffffffffffffffffffffffffffffff16613ea5909392919063ffffffff16565b6040518061010001604052806000600381111561188257611881614d9b565b5b8152602001600015158152602001600015158152602001600061ffff1681526020018467ffffffffffffffff1681526020018367ffffffffffffffff1681526020018673ffffffffffffffffffffffffffffffffffffffff168152602001600067ffffffffffffffff168152506004600089815260200190815260200160002060008201518160000160006101000a81548160ff0219169083600381111561192d5761192c614d9b565b5b021790555060208201518160000160016101000a81548160ff02191690831515021790555060408201518160000160026101000a81548160ff02191690831515021790555060608201518160000160036101000a81548161ffff021916908361ffff16021790555060808201518160000160056101000a81548167ffffffffffffffff021916908367ffffffffffffffff16021790555060a082015181600001600d6101000a81548167ffffffffffffffff021916908367ffffffffffffffff16021790555060c08201518160010160006101000a81548173ffffffffffffffffffffffffffffffffffffffff021916908373ffffffffffffffffffffffffffffffffffffffff16021790555060e08201518160010160146101000a81548167ffffffffffffffff021916908367ffffffffffffffff16021790555090505083600a611a799190615773565b886fffffffffffffffffffffffffffffffff16611a9691906157be565b6005600089815260200190815260200160002060000160006101000a8154816fffffffffffffffffffffffffffffffff02191690836fffffffffffffffffffffffffffffffff1602179055507f5556f7c57a7cc39e99eb49a568d42bdf9e792d5a0e1d96dc842ea783bc4b309687604051611b119190614ce7565b60405180910390a1505050505050505050565b60016002811115611b3857611b37614d9b565b5b611b4182613f27565b6002811115611b5357611b52614d9b565b5b03611b9c5760016004600083815260200190815260200160002060000160006101000a81548160ff02191690836003811115611b9257611b91614d9b565b5b0217905550611c10565b600280811115611baf57611bae614d9b565b5b611bb882613f27565b6002811115611bca57611bc9614d9b565b5b03611c0f5760026004600083815260200190815260200160002060000160006101000a81548160ff02191690836003811115611c0957611c08614d9b565b5b02179055505b5b6000600380811115611c2557611c24614d9b565b5b611c2e83610a26565b600001516003811115611c4457611c43614d9b565b5b03611c4e57600190505b6000611c5983612ff7565b6020015190506000611c6a84612505565b6080015103611d4557611c7c83612505565b606001516005600085815260200190815260200160002060000160108282829054906101000a90046fffffffffffffffffffffffffffffffff16611cc09190615375565b92506101000a8154816fffffffffffffffffffffffffffffffff02191690836fffffffffffffffffffffffffffffffff16021790555060006005600085815260200190815260200160002060010160106101000a8154816fffffffffffffffffffffffffffffffff02191690836fffffffffffffffffffffffffffffffff1602179055505b60008173ffffffffffffffffffffffffffffffffffffffff168273ffffffffffffffffffffffffffffffffffffffff166397debec085611d8488610a26565b60200151604051602401611d99929190615800565b604051602081830303815290604052915060e01b6020820180517bffffffffffffffffffffffffffffffffffffffffffffffffffffffff8381831617835250505050604051611de8919061589a565b6000604051808303816000865af19150503d8060008114611e25576040519150601f19603f3d011682016040523d82523d6000602084013e611e2a565b606091505b505090506000151581151503611e6c576040517f114c34ed00000000000000000000000000000000000000000000000000000000815260040160405180910390fd5b611e75846139ed565b50505050565b600160009054906101000a900473ffffffffffffffffffffffffffffffffffffffff1681565b611ebc826fffffffffffffffffffffffffffffffff16612bc2565b611ec581612f08565b611ece81612bff565b6000611ed982612683565b60a0015190506000808261ffff16611ef085612683565b6080015161ffff16620186a063ffffffff168561ffff1688611f129190615506565b611f1c9190615572565b611f269190615506565b611f309190615572565b90506000620186a063ffffffff168461ffff1687611f4e9190615506565b611f589190615572565b86611f6391906154c2565b9050816005600087815260200190815260200160002060010160108282829054906101000a90046fffffffffffffffffffffffffffffffff16611fa69190615375565b92506101000a8154816fffffffffffffffffffffffffffffffff02191690836fffffffffffffffffffffffffffffffff16021790555061200a84620186a063ffffffff168661ffff1689611ffa9190615506565b6120049190615572565b8761324d565b612015818387612c6b565b50506120218285613fcc565b5080915050600061207e86848761203788612505565b6000015161204489612505565b604001516120518a612505565b6020015161205f9190615375565b6120688a612505565b60a001516120758b612505565b60c0015161400a565b509050600081036120bb576040517f98f7360900000000000000000000000000000000000000000000000000000000815260040160405180910390fd5b846fffffffffffffffffffffffffffffffff16600660003373ffffffffffffffffffffffffffffffffffffffff1673ffffffffffffffffffffffffffffffffffffffff1681526020019081526020016000206000868152602001908152602001600020600401600082825461213091906153b9565b925050819055506001600381111561214b5761214a614d9b565b5b86600381111561215e5761215d614d9b565b5b036121ff578060056000868152602001908152602001600020600301600082825461218991906153b9565b9250508190555080600660003373ffffffffffffffffffffffffffffffffffffffff1673ffffffffffffffffffffffffffffffffffffffff168152602001908152602001600020600086815260200190815260200160002060010160008282546121f391906153b9565b92505081905550612297565b8060056000868152602001908152602001600020600401600082825461222591906153b9565b9250508190555080600660003373ffffffffffffffffffffffffffffffffffffffff1673ffffffffffffffffffffffffffffffffffffffff1681526020019081526020016000206000868152602001908152602001600020600201600082825461228f91906153b9565b925050819055505b816005600086815260200190815260200160002060000160108282829054906101000a90046fffffffffffffffffffffffffffffffff166122d89190615375565b92506101000a8154816fffffffffffffffffffffffffffffffff02191690836fffffffffffffffffffffffffffffffff16021790555061232a84866fffffffffffffffffffffffffffffffff1661357b565b6123338461372c565b7f0bcceb2ea7b25b2a80903465a4d94ce2caa5218fca0f4729a09c04bca1758f6d8433888860405161236894939291906158b1565b60405180910390a1505050505050565b600360149054906101000a900460ff16156123bf576040517f4945c38a00000000000000000000000000000000000000000000000000000000815260040160405180910390fd5b82600060046101000a81548173ffffffffffffffffffffffffffffffffffffffff021916908373ffffffffffffffffffffffffffffffffffffffff16021790555081600260006101000a81548173ffffffffffffffffffffffffffffffffffffffff021916908373ffffffffffffffffffffffffffffffffffffffff16021790555080600360006101000a81548173ffffffffffffffffffffffffffffffffffffffff021916908373ffffffffffffffffffffffffffffffffffffffff160217905550600060049054906101000a900473ffffffffffffffffffffffffffffffffffffffff16600160006101000a81548173ffffffffffffffffffffffffffffffffffffffff021916908373ffffffffffffffffffffffffffffffffffffffff1602179055506001600360146101000a81548160ff021916908315150217905550505050565b61250d614905565b60056000838152602001908152602001600020604051806101000160405290816000820160009054906101000a90046fffffffffffffffffffffffffffffffff166fffffffffffffffffffffffffffffffff166fffffffffffffffffffffffffffffffff1681526020016000820160109054906101000a90046fffffffffffffffffffffffffffffffff166fffffffffffffffffffffffffffffffff166fffffffffffffffffffffffffffffffff1681526020016001820160009054906101000a90046fffffffffffffffffffffffffffffffff166fffffffffffffffffffffffffffffffff166fffffffffffffffffffffffffffffffff1681526020016001820160109054906101000a90046fffffffffffffffffffffffffffffffff166fffffffffffffffffffffffffffffffff166fffffffffffffffffffffffffffffffff1681526020016002820154815260200160038201548152602001600482015481526020016005820154815250509050919050565b61268b614992565b600260009054906101000a900473ffffffffffffffffffffffffffffffffffffffff1673ffffffffffffffffffffffffffffffffffffffff1663aa64b6b683336040518363ffffffff1660e01b81526004016126e89291906158f6565b60c060405180830381865afa158015612705573d6000803e3d6000fd5b505050506040513d601f19601f820116820180604052508101906127299190615a81565b9050919050565b60006001600381111561274657612745614d9b565b5b61274f83610a26565b60000151600381111561276557612764614d9b565b5b036127d65760006127763384610823565b6040015111156127d15761278982612505565b60a0015161279683612505565b602001516fffffffffffffffffffffffffffffffff166127b63385610823565b604001516127c491906157be565b6127ce9190615aae565b90505b6128ad565b600260038111156127ea576127e9614d9b565b5b6127f383610a26565b60000151600381111561280957612808614d9b565b5b0361287a57600061281a3384610823565b6060015111156128755761282d82612505565b60c0015161283a83612505565b602001516fffffffffffffffffffffffffffffffff1661285a3385610823565b6060015161286891906157be565b6128729190615aae565b90505b6128ac565b6040517fbaf3f0f700000000000000000000000000000000000000000000000000000000815260040160405180910390fd5b5b60006128b93384610823565b6080015111156129bb576000806129126128d285612505565b606001516128e03387610823565b602001516128ee3388610823565b608001516128fc3389610823565b6080015161290989612505565b6080015161398a565b9150915080826129229190615375565b6fffffffffffffffffffffffffffffffff168361293f91906153b9565b9250816005600086815260200190815260200160002060010160008282829054906101000a90046fffffffffffffffffffffffffffffffff1661298291906154c2565b92506101000a8154816fffffffffffffffffffffffffffffffff02191690836fffffffffffffffffffffffffffffffff16021790555050505b6129c481612bc2565b600660003373ffffffffffffffffffffffffffffffffffffffff1673ffffffffffffffffffffffffffffffffffffffff1681526020019081526020016000206000838152602001908152602001600020600080820160006101000a81549067ffffffffffffffff02191690556000820160086101000a8154906fffffffffffffffffffffffffffffffff021916905560018201600090556002820160009055600382016000905560048201600090555050612a9b6001612a8384610a26565b6020015183612a9186612ff7565b60200151336130a7565b7fe332e9963bc980fb82ccd3e7e181d76bddde349eec46b4ba393f3444529cd17f823383604051612ace93929190615adf565b60405180910390a1919050565b612ae3613901565b806000806101000a81548163ffffffff021916908363ffffffff16021790555050565b612b0e613901565b60036004600083815260200190815260200160002060000160006101000a81548160ff02191690836003811115612b4857612b47614d9b565b5b021790555050565b600360149054906101000a900460ff1681565b612b6c81610a26565b60a0015167ffffffffffffffff16610e1042612b8891906153b9565b10612bbf576040517fb627c19100000000000000000000000000000000000000000000000000000000815260040160405180910390fd5b50565b60008103612bfc576040517f1f2a200500000000000000000000000000000000000000000000000000000000815260040160405180910390fd5b50565b600380811115612c1257612c11614d9b565b5b612c1b82610a26565b600001516003811115612c3157612c30614d9b565b5b03612c68576040517fbaf3f0f700000000000000000000000000000000000000000000000000000000815260040160405180910390fd5b50565b6000612c7682610a26565b6020015190506000612c8783612ff7565b602001519050612ce333828688612c9e9190615375565b6fffffffffffffffffffffffffffffffff16612cb987610a26565b60c0015173ffffffffffffffffffffffffffffffffffffffff16613ea5909392919063ffffffff16565b60008173ffffffffffffffffffffffffffffffffffffffff168273ffffffffffffffffffffffffffffffffffffffff16632d2fb7748589604051602401612d2b929190615b25565b604051602081830303815290604052915060e01b6020820180517bffffffffffffffffffffffffffffffffffffffffffffffffffffffff8381831617835250505050604051612d7a919061589a565b6000604051808303816000865af19150503d8060008114612db7576040519150601f19603f3d011682016040523d82523d6000602084013e612dbc565b606091505b505090506000151581151503612dfe576040517f114c34ed00000000000000000000000000000000000000000000000000000000815260040160405180910390fd5b505050505050565b60008060008503612e4057856fffffffffffffffffffffffffffffffff169150856fffffffffffffffffffffffffffffffff169050612e97565b8484876fffffffffffffffffffffffffffffffff16612e5f91906157be565b612e699190615aae565b91508483876fffffffffffffffffffffffffffffffff16612e8a91906157be565b612e949190615aae565b90505b94509492505050565b6000808203612ec357836fffffffffffffffffffffffffffffffff169050612f01565b826fffffffffffffffffffffffffffffffff1682856fffffffffffffffffffffffffffffffff16612ef491906157be565b612efe9190615aae565b90505b9392505050565b612f1181610a26565b60a0015167ffffffffffffffff164210612f57576040517f0b5f6bf000000000000000000000000000000000000000000000000000000000815260040160405180910390fd5b50565b60008060016003811115612f7157612f70614d9b565b5b8a6003811115612f8457612f83614d9b565b5b03612fa557612f98898989898989896140ab565b8092508193505050612fea565b60026003811115612fb957612fb8614d9b565b5b8a6003811115612fcc57612fcb614d9b565b5b03612fe957612fe089898989898989614238565b80925081935050505b5b9850989650505050505050565b612fff6149e0565b600260009054906101000a900473ffffffffffffffffffffffffffffffffffffffff1673ffffffffffffffffffffffffffffffffffffffff16632f380b35836040518263ffffffff1660e01b815260040161305a9190614ce7565b600060405180830381865afa158015613077573d6000803e3d6000fd5b505050506040513d6000823e3d601f19601f820116820180604052508101906130a09190615cb6565b9050919050565b60008273ffffffffffffffffffffffffffffffffffffffff168373ffffffffffffffffffffffffffffffffffffffff166389a40fb3888886896040516024016130f39493929190615cff565b604051602081830303815290604052915060e01b6020820180517bffffffffffffffffffffffffffffffffffffffffffffffffffffffff8381831617835250505050604051613142919061589a565b6000604051808303816000865af19150503d806000811461317f576040519150601f19603f3d011682016040523d82523d6000602084013e613184565b606091505b5050905060001515811515036131c6576040517f114c34ed00000000000000000000000000000000000000000000000000000000815260040160405180910390fd5b505050505050565b613248838473ffffffffffffffffffffffffffffffffffffffff1663a9059cbb8585604051602401613201929190615d44565b604051602081830303815290604052915060e01b6020820180517bffffffffffffffffffffffffffffffffffffffffffffffffffffffff83818316178352505050506143c5565b505050565b600061325882610a26565b60c00151905060008461ffff1661326e84612683565b6040015161ffff16856132819190615506565b61328b9190615572565b905060008561ffff1661329d85612683565b6000015161ffff16866132b09190615506565b6132ba9190615572565b905060008661ffff166132cc86612683565b6060015161ffff16876132df9190615506565b6132e99190615572565b905060008761ffff166132fb87612683565b6020015161ffff168861330e9190615506565b6133189190615572565b90506000846fffffffffffffffffffffffffffffffff1611156134265761339633600360009054906101000a900473ffffffffffffffffffffffffffffffffffffffff16866fffffffffffffffffffffffffffffffff168873ffffffffffffffffffffffffffffffffffffffff16613ea5909392919063ffffffff16565b600360009054906101000a900473ffffffffffffffffffffffffffffffffffffffff1673ffffffffffffffffffffffffffffffffffffffff16633cef8b8b87866040518363ffffffff1660e01b81526004016133f3929190615d6d565b600060405180830381600087803b15801561340d57600080fd5b505af1158015613421573d6000803e3d6000fd5b505050505b6000836fffffffffffffffffffffffffffffffff1611156134a3576134a233600160009054906101000a900473ffffffffffffffffffffffffffffffffffffffff16856fffffffffffffffffffffffffffffffff168873ffffffffffffffffffffffffffffffffffffffff16613ea5909392919063ffffffff16565b5b6000826fffffffffffffffffffffffffffffffff16111561350a57613509336134cb88612ff7565b60600151846fffffffffffffffffffffffffffffffff168873ffffffffffffffffffffffffffffffffffffffff16613ea5909392919063ffffffff16565b5b6000816fffffffffffffffffffffffffffffffff161115613571576135703361353288612ff7565b60400151836fffffffffffffffffffffffffffffffff168873ffffffffffffffffffffffffffffffffffffffff16613ea5909392919063ffffffff16565b5b5050505050505050565b60001515600760003373ffffffffffffffffffffffffffffffffffffffff1673ffffffffffffffffffffffffffffffffffffffff168152602001908152602001600020600084815260200190815260200160002060009054906101000a900460ff161515036136fb5760046000838152602001908152602001600020600001600381819054906101000a900461ffff168092919061361890615d96565b91906101000a81548161ffff021916908361ffff16021790555050600860003373ffffffffffffffffffffffffffffffffffffffff1673ffffffffffffffffffffffffffffffffffffffff16815260200190815260200160002082908060018154018082558091505060019003906000526020600020016000909190919091505560011515600760003373ffffffffffffffffffffffffffffffffffffffff1673ffffffffffffffffffffffffffffffffffffffff168152602001908152602001600020600084815260200190815260200160002060009054906101000a905050505b8060056000848152602001908152602001600020600501600082825461372191906153b9565b925050819055505050565b600061374361373a83610a26565b60c00151613d04565b905080600a6137529190615773565b6103e863ffffffff1661376591906157be565b61376f3384610823565b60a00151106138fd5760006137843384610823565b6000015167ffffffffffffffff16036138fc5760046000838152602001908152602001600020600101601481819054906101000a900467ffffffffffffffff16809291906137d190615dc0565b91906101000a81548167ffffffffffffffff021916908367ffffffffffffffff16021790555050600061380383610a26565b60e001519050336009600085815260200190815260200160002060008367ffffffffffffffff1667ffffffffffffffff16815260200190815260200160002060006101000a81548173ffffffffffffffffffffffffffffffffffffffff021916908373ffffffffffffffffffffffffffffffffffffffff16021790555080600660003373ffffffffffffffffffffffffffffffffffffffff1673ffffffffffffffffffffffffffffffffffffffff168152602001908152602001600020600085815260200190815260200160002060000160006101000a81548167ffffffffffffffff021916908367ffffffffffffffff160217905550505b5b5050565b600060049054906101000a900473ffffffffffffffffffffffffffffffffffffffff1673ffffffffffffffffffffffffffffffffffffffff163373ffffffffffffffffffffffffffffffffffffffff1614613988576040517fa9b473df00000000000000000000000000000000000000000000000000000000815260040160405180910390fd5b565b60008083866fffffffffffffffffffffffffffffffff16866139ac91906157be565b6139b69190615aae565b915082876fffffffffffffffffffffffffffffffff16866139d791906157be565b6139e19190615aae565b90509550959350505050565b600015156139fa82610a26565b60400151151503613d01576000613a1082612ff7565b60200151905060008173ffffffffffffffffffffffffffffffffffffffff1663ffe777bd6040518163ffffffff1660e01b81526004016040805180830381865afa158015613a62573d6000803e3d6000fd5b505050506040513d601f19601f82011682018060405250810190613a869190615e55565b6020015190506000613a9784612505565b6020015190506000613aa885612505565b6040015190508082613aba9190615375565b6fffffffffffffffffffffffffffffffff16836fffffffffffffffffffffffffffffffff1610613b41578083613af091906154c2565b6005600087815260200190815260200160002060000160106101000a8154816fffffffffffffffffffffffffffffffff02191690836fffffffffffffffffffffffffffffffff160217905550613ccd565b8082613b4d9190615375565b6fffffffffffffffffffffffffffffffff16836fffffffffffffffffffffffffffffffff16108015613ba25750816fffffffffffffffffffffffffffffffff16836fffffffffffffffffffffffffffffffff16115b15613c04578183613bb391906154c2565b6005600087815260200190815260200160002060010160006101000a8154816fffffffffffffffffffffffffffffffff02191690836fffffffffffffffffffffffffffffffff160217905550613ccc565b816fffffffffffffffffffffffffffffffff16836fffffffffffffffffffffffffffffffff1611613ccb57826005600087815260200190815260200160002060000160106101000a8154816fffffffffffffffffffffffffffffffff02191690836fffffffffffffffffffffffffffffffff16021790555060006005600087815260200190815260200160002060010160006101000a8154816fffffffffffffffffffffffffffffffff02191690836fffffffffffffffffffffffffffffffff1602179055505b5b5b60016004600087815260200190815260200160002060000160026101000a81548160ff021916908315150217905550505050505b50565b60008173ffffffffffffffffffffffffffffffffffffffff1663313ce5676040518163ffffffff1660e01b8152600401602060405180830381865afa158015613d51573d6000803e3d6000fd5b505050506040513d601f19601f82011682018060405250810190613d759190615eae565b9050919050565b6000816fffffffffffffffffffffffffffffffff16836fffffffffffffffffffffffffffffffff1603613dc95783600a613db69190615773565b600a613dc291906157be565b9050613e9e565b816fffffffffffffffffffffffffffffffff16836fffffffffffffffffffffffffffffffff16118015613e1257506305f5e100836fffffffffffffffffffffffffffffffff1611155b15613e6b5783600a613e249190615773565b60018385613e329190615572565b613e3c9190615375565b600a613e489190615506565b6fffffffffffffffffffffffffffffffff16613e6491906157be565b9050613e9d565b6040517fd049d34300000000000000000000000000000000000000000000000000000000815260040160405180910390fd5b5b9392505050565b613f21848573ffffffffffffffffffffffffffffffffffffffff166323b872dd868686604051602401613eda93929190615edb565b604051602081830303815290604052915060e01b6020820180517bffffffffffffffffffffffffffffffffffffffffffffffffffffffff83818316178352505050506143c5565b50505050565b6000600360009054906101000a900473ffffffffffffffffffffffffffffffffffffffff1673ffffffffffffffffffffffffffffffffffffffff16639e5786df836040518263ffffffff1660e01b8152600401613f849190614ce7565b602060405180830381865afa158015613fa1573d6000803e3d6000fd5b505050506040513d601f19601f82011682018060405250810190613fc59190615f37565b9050919050565b600080620186a063ffffffff168461ffff1684613fe99190615506565b613ff39190615572565b9050808361400191906154c2565b91509250929050565b60008060006140198989613fcc565b80935081925050506001600381111561403557614034614d9b565b5b8a600381111561404857614047614d9b565b5b036140615761405a8188888888614467565b925061409e565b6002600381111561407557614074614d9b565b5b8a600381111561408857614087614d9b565b5b0361409d5761409a818888888861457f565b92505b5b5097509795505050505050565b60008060006140bd60008a8787614697565b90506000811461422b576000868a6fffffffffffffffffffffffffffffffff16876140e891906153b9565b6140f2919061548e565b905060008a6fffffffffffffffffffffffffffffffff168661411491906153b9565b90506000670de0b6b3a764000084670de0b6b3a7640000614135919061548e565b8361414091906157be565b858561414c91906157be565b61415691906153b9565b6141609190615aae565b90506000818d8c8e6141729190615375565b61417c9190615375565b6fffffffffffffffffffffffffffffffff16614198919061548e565b905060008c6fffffffffffffffffffffffffffffffff168211156141d0578c6fffffffffffffffffffffffffffffffff1690506141d4565b8190505b6103e881111561420557620186a063ffffffff168f61ffff16826141f891906157be565b6142029190615aae565b96505b866fffffffffffffffffffffffffffffffff1681614223919061548e565b975050505050505b5097509795505050505050565b600080600061424a60008a87876147f5565b9050600081146143b8576000896fffffffffffffffffffffffffffffffff168661427491906153b9565b90506000878b6fffffffffffffffffffffffffffffffff168761429791906153b9565b6142a1919061548e565b90506000670de0b6b3a764000084836142ba91906157be565b85670de0b6b3a76400006142ce919061548e565b856142d991906157be565b6142e391906153b9565b6142ed9190615aae565b90506000818d8c8e6142ff9190615375565b6143099190615375565b6fffffffffffffffffffffffffffffffff16614325919061548e565b905060008c6fffffffffffffffffffffffffffffffff1682111561435d578c6fffffffffffffffffffffffffffffffff169050614361565b8190505b6103e881111561439257620186a063ffffffff168f61ffff168261438591906157be565b61438f9190615aae565b96505b866fffffffffffffffffffffffffffffffff16816143b0919061548e565b975050505050505b5097509795505050505050565b600080602060008451602086016000885af1806143e8576040513d6000823e3d81fd5b3d92506000519150506000821461440357600181141561441f565b60008473ffffffffffffffffffffffffffffffffffffffff163b145b1561446157836040517f5274afe70000000000000000000000000000000000000000000000000000000081526004016144589190614cbd565b60405180910390fd5b50505050565b6000806144776000878686614697565b90506000811461457557670de0b6b3a764000081036144aa57866fffffffffffffffffffffffffffffffff169150614574565b60008688876144b99190615375565b6144c39190615375565b6fffffffffffffffffffffffffffffffff1690506000876fffffffffffffffffffffffffffffffff16856144f791906153b9565b905060008384670de0b6b3a7640000614510919061548e565b8361451b91906157be565b84670de0b6b3a764000061452f91906157be565b614539919061548e565b6145439190615aae565b9050886fffffffffffffffffffffffffffffffff168782614564919061548e565b61456e919061548e565b94505050505b5b5095945050505050565b60008061458f60008786866147f5565b90506000811461468d57670de0b6b3a764000081036145c257866fffffffffffffffffffffffffffffffff16915061468c565b60008688876145d19190615375565b6145db9190615375565b6fffffffffffffffffffffffffffffffff1690506000876fffffffffffffffffffffffffffffffff168661460f91906153b9565b905060008384670de0b6b3a7640000614628919061548e565b8361463391906157be565b84670de0b6b3a764000061464791906157be565b614651919061548e565b61465b9190615aae565b9050886fffffffffffffffffffffffffffffffff16868261467c919061548e565b614686919061548e565b94505050505b5b5095945050505050565b6000600160038111156146ad576146ac614d9b565b5b8560038111156146c0576146bf614d9b565b5b036146d557670de0b6b3a764000090506147ec565b600260038111156146e9576146e8614d9b565b5b8560038111156146fc576146fb614d9b565b5b0361470a57600090506147eb565b6000600381111561471e5761471d614d9b565b5b85600381111561473157614730614d9b565b5b036147ea576000831480156147465750600082145b15614767576002670de0b6b3a76400006147609190615aae565b90506147ed565b600083116147765760006147e7565b8360026147839190615506565b6fffffffffffffffffffffffffffffffff1682846147a191906153b9565b6147ab91906153b9565b670de0b6b3a7640000856fffffffffffffffffffffffffffffffff16856147d291906153b9565b6147dc91906157be565b6147e69190615aae565b5b90505b5b5b5b949350505050565b600061480385858585614697565b670de0b6b3a7640000614816919061548e565b9050949350505050565b6040518060c00160405280600067ffffffffffffffff16815260200160006fffffffffffffffffffffffffffffffff168152602001600081526020016000815260200160008152602001600081525090565b6040518061010001604052806000600381111561489257614891614d9b565b5b8152602001600015158152602001600015158152602001600061ffff168152602001600067ffffffffffffffff168152602001600067ffffffffffffffff168152602001600073ffffffffffffffffffffffffffffffffffffffff168152602001600067ffffffffffffffff1681525090565b60405180610100016040528060006fffffffffffffffffffffffffffffffff16815260200160006fffffffffffffffffffffffffffffffff16815260200160006fffffffffffffffffffffffffffffffff16815260200160006fffffffffffffffffffffffffffffffff168152602001600081526020016000815260200160008152602001600081525090565b6040518060c00160405280600061ffff168152602001600061ffff168152602001600061ffff168152602001600061ffff168152602001600061ffff168152602001600061ffff1681525090565b6040518060a00160405280600073ffffffffffffffffffffffffffffffffffffffff168152602001600073ffffffffffffffffffffffffffffffffffffffff168152602001600073ffffffffffffffffffffffffffffffffffffffff168152602001600073ffffffffffffffffffffffffffffffffffffffff168152602001606081525090565b6000604051905090565b600080fd5b600080fd5b6000819050919050565b614a8e81614a7b565b8114614a9957600080fd5b50565b600081359050614aab81614a85565b92915050565b60006fffffffffffffffffffffffffffffffff82169050919050565b614ad681614ab1565b8114614ae157600080fd5b50565b600081359050614af381614acd565b92915050565b60008060408385031215614b1057614b0f614a71565b5b6000614b1e85828601614a9c565b9250506020614b2f85828601614ae4565b9150509250929050565b600073ffffffffffffffffffffffffffffffffffffffff82169050919050565b6000614b6482614b39565b9050919050565b614b7481614b59565b8114614b7f57600080fd5b50565b600081359050614b9181614b6b565b92915050565b60008060408385031215614bae57614bad614a71565b5b6000614bbc85828601614b82565b9250506020614bcd85828601614a9c565b9150509250929050565b600067ffffffffffffffff82169050919050565b614bf481614bd7565b82525050565b614c0381614ab1565b82525050565b614c1281614a7b565b82525050565b60c082016000820151614c2e6000850182614beb565b506020820151614c416020850182614bfa565b506040820151614c546040850182614c09565b506060820151614c676060850182614c09565b506080820151614c7a6080850182614c09565b5060a0820151614c8d60a0850182614c09565b50505050565b600060c082019050614ca86000830184614c18565b92915050565b614cb781614b59565b82525050565b6000602082019050614cd26000830184614cae565b92915050565b614ce181614a7b565b82525050565b6000602082019050614cfc6000830184614cd8565b92915050565b614d0b81614bd7565b8114614d1657600080fd5b50565b600081359050614d2881614d02565b92915050565b60008060408385031215614d4557614d44614a71565b5b6000614d5385828601614a9c565b9250506020614d6485828601614d19565b9150509250929050565b600060208284031215614d8457614d83614a71565b5b6000614d9284828501614a9c565b91505092915050565b7f4e487b7100000000000000000000000000000000000000000000000000000000600052602160045260246000fd5b60048110614ddb57614dda614d9b565b5b50565b6000819050614dec82614dca565b919050565b6000614dfc82614dde565b9050919050565b614e0c81614df1565b82525050565b60008115159050919050565b614e2781614e12565b82525050565b600061ffff82169050919050565b614e4481614e2d565b82525050565b614e5381614b59565b82525050565b61010082016000820151614e706000850182614e03565b506020820151614e836020850182614e1e565b506040820151614e966040850182614e1e565b506060820151614ea96060850182614e3b565b506080820151614ebc6080850182614beb565b5060a0820151614ecf60a0850182614beb565b5060c0820151614ee260c0850182614e4a565b5060e0820151614ef560e0850182614beb565b50505050565b600061010082019050614f116000830184614e59565b92915050565b60048110614f2457600080fd5b50565b600081359050614f3681614f17565b92915050565b600080600060608486031215614f5557614f54614a71565b5b6000614f6386828701614f27565b9350506020614f7486828701614a9c565b9250506040614f8586828701614a9c565b9150509250925092565b600060208284031215614fa557614fa4614a71565b5b6000614fb384828501614b82565b91505092915050565b600063ffffffff82169050919050565b614fd581614fbc565b82525050565b6000602082019050614ff06000830184614fcc565b92915050565b614fff81614e12565b811461500a57600080fd5b50565b60008135905061501c81614ff6565b92915050565b6000806040838503121561503957615038614a71565b5b600061504785828601614a9c565b92505060206150588582860161500d565b9150509250929050565b61506b81614fbc565b811461507657600080fd5b50565b60008135905061508881615062565b92915050565b600080600080608085870312156150a8576150a7614a71565b5b60006150b687828801615079565b94505060206150c787828801614ae4565b93505060406150d887828801614a9c565b92505060606150e987828801614a9c565b91505092959194509250565b60008060006060848603121561510e5761510d614a71565b5b600061511c86828701614f27565b935050602061512d86828701614ae4565b925050604061513e86828701614a9c565b9150509250925092565b60008060006060848603121561516157615160614a71565b5b600061516f86828701614b82565b935050602061518086828701614b82565b925050604061519186828701614b82565b9150509250925092565b610100820160008201516151b26000850182614bfa565b5060208201516151c56020850182614bfa565b5060408201516151d86040850182614bfa565b5060608201516151eb6060850182614bfa565b5060808201516151fe6080850182614c09565b5060a082015161521160a0850182614c09565b5060c082015161522460c0850182614c09565b5060e082015161523760e0850182614c09565b50505050565b600061010082019050615253600083018461519b565b92915050565b60c08201600082015161526f6000850182614e3b565b5060208201516152826020850182614e3b565b5060408201516152956040850182614e3b565b5060608201516152a86060850182614e3b565b5060808201516152bb6080850182614e3b565b5060a08201516152ce60a0850182614e3b565b50505050565b600060c0820190506152e96000830184615259565b92915050565b60006020828403121561530557615304614a71565b5b600061531384828501615079565b91505092915050565b61532581614e12565b82525050565b6000602082019050615340600083018461531c565b92915050565b7f4e487b7100000000000000000000000000000000000000000000000000000000600052601160045260246000fd5b600061538082614ab1565b915061538b83614ab1565b925082820190506fffffffffffffffffffffffffffffffff8111156153b3576153b2615346565b5b92915050565b60006153c482614a7b565b91506153cf83614a7b565b92508282019050808211156153e7576153e6615346565b5b92915050565b6000819050919050565b600061541261540d61540884614ab1565b6153ed565b614a7b565b9050919050565b615422816153f7565b82525050565b600060608201905061543d6000830186614cd8565b61544a6020830185614cae565b6154576040830184615419565b949350505050565b7f4e487b7100000000000000000000000000000000000000000000000000000000600052603260045260246000fd5b600061549982614a7b565b91506154a483614a7b565b92508282039050818111156154bc576154bb615346565b5b92915050565b60006154cd82614ab1565b91506154d883614ab1565b925082820390506fffffffffffffffffffffffffffffffff811115615500576154ff615346565b5b92915050565b600061551182614ab1565b915061551c83614ab1565b925082820261552a81614ab1565b915080821461553c5761553b615346565b5b5092915050565b7f4e487b7100000000000000000000000000000000000000000000000000000000600052601260045260246000fd5b600061557d82614ab1565b915061558883614ab1565b92508261559857615597615543565b5b828204905092915050565b6155ac81614df1565b82525050565b60006080820190506155c76000830187614cd8565b6155d46020830186614cae565b6155e160408301856155a3565b6155ee6060830184614cd8565b95945050505050565b600061560282614bd7565b915061560d83614bd7565b9250828201905067ffffffffffffffff81111561562d5761562c615346565b5b92915050565b60008160011c9050919050565b6000808291508390505b600185111561568a5780860481111561566657615665615346565b5b60018516156156755780820291505b808102905061568385615633565b945061564a565b94509492505050565b6000826156a3576001905061575f565b816156b1576000905061575f565b81600181146156c757600281146156d157615700565b600191505061575f565b60ff8411156156e3576156e2615346565b5b8360020a9150848211156156fa576156f9615346565b5b5061575f565b5060208310610133831016604e8410600b84101617156157355782820a9050838111156157305761572f615346565b5b61575f565b6157428484846001615640565b9250905081840481111561575957615758615346565b5b81810290505b9392505050565b600060ff82169050919050565b600061577e82614a7b565b915061578983615766565b92506157b67fffffffffffffffffffffffffffffffffffffffffffffffffffffffffffffffff8484615693565b905092915050565b60006157c982614a7b565b91506157d483614a7b565b92508282026157e281614a7b565b915082820484148315176157f9576157f8615346565b5b5092915050565b6000604082019050615815600083018561531c565b615822602083018461531c565b9392505050565b600081519050919050565b600081905092915050565b60005b8381101561585d578082015181840152602081019050615842565b60008484015250505050565b600061587482615829565b61587e8185615834565b935061588e81856020860161583f565b80840191505092915050565b60006158a68284615869565b915081905092915050565b60006080820190506158c66000830187614cd8565b6158d36020830186614cae565b6158e060408301856155a3565b6158ed6060830184615419565b95945050505050565b600060408201905061590b6000830185614cd8565b6159186020830184614cae565b9392505050565b600080fd5b6000601f19601f8301169050919050565b7f4e487b7100000000000000000000000000000000000000000000000000000000600052604160045260246000fd5b61596d82615924565b810181811067ffffffffffffffff8211171561598c5761598b615935565b5b80604052505050565b600061599f614a67565b90506159ab8282615964565b919050565b600080fd5b6159be81614e2d565b81146159c957600080fd5b50565b6000815190506159db816159b5565b92915050565b600060c082840312156159f7576159f661591f565b5b615a0160c0615995565b90506000615a11848285016159cc565b6000830152506020615a25848285016159cc565b6020830152506040615a39848285016159cc565b6040830152506060615a4d848285016159cc565b6060830152506080615a61848285016159cc565b60808301525060a0615a75848285016159cc565b60a08301525092915050565b600060c08284031215615a9757615a96614a71565b5b6000615aa5848285016159e1565b91505092915050565b6000615ab982614a7b565b9150615ac483614a7b565b925082615ad457615ad3615543565b5b828204905092915050565b6000606082019050615af46000830186614cd8565b615b016020830185614cae565b615b0e6040830184614cd8565b949350505050565b615b1f81614ab1565b82525050565b6000604082019050615b3a600083018561531c565b615b476020830184615b16565b9392505050565b600081519050615b5d81614b6b565b92915050565b600080fd5b600080fd5b600067ffffffffffffffff821115615b8857615b87615935565b5b615b9182615924565b9050602081019050919050565b6000615bb1615bac84615b6d565b615995565b905082815260208101848484011115615bcd57615bcc615b68565b5b615bd884828561583f565b509392505050565b600082601f830112615bf557615bf4615b63565b5b8151615c05848260208601615b9e565b91505092915050565b600060a08284031215615c2457615c2361591f565b5b615c2e60a0615995565b90506000615c3e84828501615b4e565b6000830152506020615c5284828501615b4e565b6020830152506040615c6684828501615b4e565b6040830152506060615c7a84828501615b4e565b606083015250608082015167ffffffffffffffff811115615c9e57615c9d6159b0565b5b615caa84828501615be0565b60808301525092915050565b600060208284031215615ccc57615ccb614a71565b5b600082015167ffffffffffffffff811115615cea57615ce9614a76565b5b615cf684828501615c0e565b91505092915050565b6000608082019050615d14600083018761531c565b615d21602083018661531c565b615d2e6040830185614cae565b615d3b6060830184615b16565b95945050505050565b6000604082019050615d596000830185614cae565b615d666020830184614cd8565b9392505050565b6000604082019050615d826000830185614cd8565b615d8f6020830184615419565b9392505050565b6000615da182614e2d565b915061ffff8203615db557615db4615346565b5b600182019050919050565b6000615dcb82614bd7565b915067ffffffffffffffff8203615de557615de4615346565b5b600182019050919050565b600081519050615dff81614acd565b92915050565b600060408284031215615e1b57615e1a61591f565b5b615e256040615995565b90506000615e3584828501615df0565b6000830152506020615e4984828501615df0565b60208301525092915050565b600060408284031215615e6b57615e6a614a71565b5b6000615e7984828501615e05565b91505092915050565b615e8b81615766565b8114615e9657600080fd5b50565b600081519050615ea881615e82565b92915050565b600060208284031215615ec457615ec3614a71565b5b6000615ed284828501615e99565b91505092915050565b6000606082019050615ef06000830186614cae565b615efd6020830185614cae565b615f0a6040830184614cd8565b949350505050565b60038110615f1f57600080fd5b50565b600081519050615f3181615f12565b92915050565b600060208284031215615f4d57615f4c614a71565b5b6000615f5b84828501615f22565b9150509291505056fea264697066735822122087b72ab9d5a37432302552e430cbd61753c78933be8d312ae1298888f0c31cc164736f6c634300081a0033",
  "linkReferences": {},
  "deployedLinkReferences": {}
}