{
        "_format": "hh-sol-artifact-1",
        "contractName": "AroundRouter",
        "sourceName": "contracts/core/AroundRouter.sol",
        "abi": [
                {
                        "inputs": [
                                {
                                        "internalType": "address",
                                        "name": "_aroundMarket",
                                        "type": "address"
                                },
                                {
                                        "internalType": "address",
                                        "name": "_aroundPoolFactory",
                                        "type": "address"
                                }
                        ],
                        "stateMutability": "nonpayable",
                        "type": "constructor"
                },
                {
                        "inputs": [],
                        "name": "InvalidVirtualAmount",
                        "type": "error"
                },
                {
                        "inputs": [
                                {
                                        "internalType": "address",
                                        "name": "token",
                                        "type": "address"
                                }
                        ],
                        "name": "SafeERC20FailedOperation",
                        "type": "error"
                },
                {
                        "inputs": [
                                {
                                        "components": [
                                                {
                                                        "internalType": "enum IAroundPoolFactory.MarketType",
                                                        "name": "marketType",
                                                        "type": "uint8"
                                                },
                                                {
                                                        "internalType": "uint32",
                                                        "name": "period",
                                                        "type": "uint32"
                                                },
                                                {
                                                        "internalType": "uint128",
                                                        "name": "expectVirtualLiquidity",
                                                        "type": "uint128"
                                                },
                                                {
                                                        "internalType": "address",
                                                        "name": "collateral",
                                                        "type": "address"
                                                },
                                                {
                                                        "internalType": "address",
                                                        "name": "creator",
                                                        "type": "address"
                                                },
                                                {
                                                        "internalType": "string",
                                                        "name": "quest",
                                                        "type": "string"
                                                }
                                        ],
                                        "internalType": "struct AroundRouter.CreateMarket",
                                        "name": "params",
                                        "type": "tuple"
                                }
                        ],
                        "name": "createMarket",
                        "outputs": [],
                        "stateMutability": "nonpayable",
                        "type": "function"
                }
        ],
        "bytecode": "0x608060405234801561001057600080fd5b506040516111cb3803806111cb8339818101604052810190610032919061011d565b816000806101000a81548173ffffffffffffffffffffffffffffffffffffffff021916908373ffffffffffffffffffffffffffffffffffffffff16021790555080600160006101000a81548173ffffffffffffffffffffffffffffffffffffffff021916908373ffffffffffffffffffffffffffffffffffffffff160217905550505061015d565b600080fd5b600073ffffffffffffffffffffffffffffffffffffffff82169050919050565b60006100ea826100bf565b9050919050565b6100fa816100df565b811461010557600080fd5b50565b600081519050610117816100f1565b92915050565b60008060408385031215610134576101336100ba565b5b600061014285828601610108565b925050602061015385828601610108565b9150509250929050565b61105f8061016c6000396000f3fe608060405234801561001057600080fd5b506004361061002b5760003560e01c80639009345e14610030575b600080fd5b61004a60048036038101906100459190610720565b61004c565b005b600160009054906101000a900473ffffffffffffffffffffffffffffffffffffffff1673ffffffffffffffffffffffffffffffffffffffff166359f3445982600001602081019061009d919061078e565b8360600160208101906100b09190610819565b8460800160208101906100c39190610819565b858060a001906100d39190610855565b6040518663ffffffff1660e01b81526004016100f395949392919061099c565b600060405180830381600087803b15801561010d57600080fd5b505af1158015610121573d6000803e3d6000fd5b505050506000600160009054906101000a900473ffffffffffffffffffffffffffffffffffffffff1673ffffffffffffffffffffffffffffffffffffffff16636ed71ede6040518163ffffffff1660e01b8152600401602060405180830381865afa158015610194573d6000803e3d6000fd5b505050506040513d601f19601f820116820180604052508101906101b89190610a20565b905060006102ed8360600160208101906101d29190610819565b73ffffffffffffffffffffffffffffffffffffffff1663313ce5676040518163ffffffff1660e01b8152600401602060405180830381865afa15801561021c573d6000803e3d6000fd5b505050506040513d601f19601f820116820180604052508101906102409190610a86565b8460400160208101906102539190610afb565b60008054906101000a900473ffffffffffffffffffffffffffffffffffffffff1673ffffffffffffffffffffffffffffffffffffffff16637e4d111c6040518163ffffffff1660e01b8152600401602060405180830381865afa1580156102be573d6000803e3d6000fd5b505050506040513d601f19601f820116820180604052508101906102e29190610b64565b63ffffffff166104a5565b905061032e3330838660600160208101906103089190610819565b73ffffffffffffffffffffffffffffffffffffffff166105ce909392919063ffffffff16565b8260600160208101906103419190610819565b73ffffffffffffffffffffffffffffffffffffffff1663095ea7b360008054906101000a900473ffffffffffffffffffffffffffffffffffffffff16836040518363ffffffff1660e01b815260040161039b929190610ba0565b6020604051808303816000875af11580156103ba573d6000803e3d6000fd5b505050506040513d601f19601f820116820180604052508101906103de9190610c01565b5060008054906101000a900473ffffffffffffffffffffffffffffffffffffffff1673ffffffffffffffffffffffffffffffffffffffff1663a084ffcd84602001602081019061042e9190610c43565b8560400160208101906104419190610afb565b60018661044e9190610c9f565b856040518563ffffffff1660e01b815260040161046e9493929190610cf1565b600060405180830381600087803b15801561048857600080fd5b505af115801561049c573d6000803e3d6000fd5b50505050505050565b6000816fffffffffffffffffffffffffffffffff16836fffffffffffffffffffffffffffffffff16036104f25783600a6104df9190610e69565b600a6104eb9190610eb4565b90506105c7565b816fffffffffffffffffffffffffffffffff16836fffffffffffffffffffffffffffffffff1611801561053b57506305f5e100836fffffffffffffffffffffffffffffffff1611155b156105945783600a61054d9190610e69565b6001838561055b9190610f25565b6105659190610f56565b600a6105719190610f9a565b6fffffffffffffffffffffffffffffffff1661058d9190610eb4565b90506105c6565b6040517fd049d34300000000000000000000000000000000000000000000000000000000815260040160405180910390fd5b5b9392505050565b61064a848573ffffffffffffffffffffffffffffffffffffffff166323b872dd86868660405160240161060393929190610fd7565b604051602081830303815290604052915060e01b6020820180517bffffffffffffffffffffffffffffffffffffffffffffffffffffffff8381831617835250505050610650565b50505050565b600080602060008451602086016000885af180610673576040513d6000823e3d81fd5b3d92506000519150506000821461068e5760018114156106aa565b60008473ffffffffffffffffffffffffffffffffffffffff163b145b156106ec57836040517f5274afe70000000000000000000000000000000000000000000000000000000081526004016106e3919061100e565b60405180910390fd5b50505050565b600080fd5b600080fd5b600080fd5b600060c08284031215610717576107166106fc565b5b81905092915050565b600060208284031215610736576107356106f2565b5b600082013567ffffffffffffffff811115610754576107536106f7565b5b61076084828501610701565b91505092915050565b6008811061077657600080fd5b50565b60008135905061078881610769565b92915050565b6000602082840312156107a4576107a36106f2565b5b60006107b284828501610779565b91505092915050565b600073ffffffffffffffffffffffffffffffffffffffff82169050919050565b60006107e6826107bb565b9050919050565b6107f6816107db565b811461080157600080fd5b50565b600081359050610813816107ed565b92915050565b60006020828403121561082f5761082e6106f2565b5b600061083d84828501610804565b91505092915050565b600080fd5b600080fd5b600080fd5b6000808335600160200384360303811261087257610871610846565b5b80840192508235915067ffffffffffffffff8211156108945761089361084b565b5b6020830192506001820236038313156108b0576108af610850565b5b509250929050565b7f4e487b7100000000000000000000000000000000000000000000000000000000600052602160045260246000fd5b600881106108f8576108f76108b8565b5b50565b6000819050610909826108e7565b919050565b6000610919826108fb565b9050919050565b6109298161090e565b82525050565b610938816107db565b82525050565b600082825260208201905092915050565b82818337600083830152505050565b6000601f19601f8301169050919050565b600061097b838561093e565b935061098883858461094f565b6109918361095e565b840190509392505050565b60006080820190506109b16000830188610920565b6109be602083018761092f565b6109cb604083018661092f565b81810360608301526109de81848661096f565b90509695505050505050565b6000819050919050565b6109fd816109ea565b8114610a0857600080fd5b50565b600081519050610a1a816109f4565b92915050565b600060208284031215610a3657610a356106f2565b5b6000610a4484828501610a0b565b91505092915050565b600060ff82169050919050565b610a6381610a4d565b8114610a6e57600080fd5b50565b600081519050610a8081610a5a565b92915050565b600060208284031215610a9c57610a9b6106f2565b5b6000610aaa84828501610a71565b91505092915050565b60006fffffffffffffffffffffffffffffffff82169050919050565b610ad881610ab3565b8114610ae357600080fd5b50565b600081359050610af581610acf565b92915050565b600060208284031215610b1157610b106106f2565b5b6000610b1f84828501610ae6565b91505092915050565b600063ffffffff82169050919050565b610b4181610b28565b8114610b4c57600080fd5b50565b600081519050610b5e81610b38565b92915050565b600060208284031215610b7a57610b796106f2565b5b6000610b8884828501610b4f565b91505092915050565b610b9a816109ea565b82525050565b6000604082019050610bb5600083018561092f565b610bc26020830184610b91565b9392505050565b60008115159050919050565b610bde81610bc9565b8114610be957600080fd5b50565b600081519050610bfb81610bd5565b92915050565b600060208284031215610c1757610c166106f2565b5b6000610c2584828501610bec565b91505092915050565b600081359050610c3d81610b38565b92915050565b600060208284031215610c5957610c586106f2565b5b6000610c6784828501610c2e565b91505092915050565b7f4e487b7100000000000000000000000000000000000000000000000000000000600052601160045260246000fd5b6000610caa826109ea565b9150610cb5836109ea565b9250828203905081811115610ccd57610ccc610c70565b5b92915050565b610cdc81610b28565b82525050565b610ceb81610ab3565b82525050565b6000608082019050610d066000830187610cd3565b610d136020830186610ce2565b610d206040830185610b91565b610d2d6060830184610b91565b95945050505050565b60008160011c9050919050565b6000808291508390505b6001851115610d8d57808604811115610d6957610d68610c70565b5b6001851615610d785780820291505b8081029050610d8685610d36565b9450610d4d565b94509492505050565b600082610da65760019050610e62565b81610db45760009050610e62565b8160018114610dca5760028114610dd457610e03565b6001915050610e62565b60ff841115610de657610de5610c70565b5b8360020a915084821115610dfd57610dfc610c70565b5b50610e62565b5060208310610133831016604e8410600b8410161715610e385782820a905083811115610e3357610e32610c70565b5b610e62565b610e458484846001610d43565b92509050818404811115610e5c57610e5b610c70565b5b81810290505b9392505050565b6000610e74826109ea565b9150610e7f83610a4d565b9250610eac7fffffffffffffffffffffffffffffffffffffffffffffffffffffffffffffffff8484610d96565b905092915050565b6000610ebf826109ea565b9150610eca836109ea565b9250828202610ed8816109ea565b91508282048414831517610eef57610eee610c70565b5b5092915050565b7f4e487b7100000000000000000000000000000000000000000000000000000000600052601260045260246000fd5b6000610f3082610ab3565b9150610f3b83610ab3565b925082610f4b57610f4a610ef6565b5b828204905092915050565b6000610f6182610ab3565b9150610f6c83610ab3565b925082820190506fffffffffffffffffffffffffffffffff811115610f9457610f93610c70565b5b92915050565b6000610fa582610ab3565b9150610fb083610ab3565b9250828202610fbe81610ab3565b9150808214610fd057610fcf610c70565b5b5092915050565b6000606082019050610fec600083018661092f565b610ff9602083018561092f565b6110066040830184610b91565b949350505050565b6000602082019050611023600083018461092f565b9291505056fea264697066735822122070ca2cd28975227fa59e57e0cbb8bbdfe86fa11532952e1a31373ebfe2b7f9ff64736f6c634300081a0033",
        "linkReferences": {},
        "deployedLinkReferences": {}
}