{
  "_format": "hh-sol-artifact-1",
  "contractName": "AroundUIHelper",
  "sourceName": "contracts/core/AroundUIHelper.sol",
  "abi": [
    {
      "inputs": [
        {
          "internalType": "address",
          "name": "_aroundMarket",
          "type": "address"
        },
        {
          "internalType": "address",
          "name": "_aroundPoolFactory",
          "type": "address"
        },
        {
          "internalType": "address",
          "name": "_echoOptimisticOracle",
          "type": "address"
        }
      ],
      "stateMutability": "nonpayable",
      "type": "constructor"
    },
    {
      "inputs": [],
      "name": "InvalidVirtualAmount",
      "type": "error"
    },
    {
      "inputs": [],
      "name": "aroundMarket",
      "outputs": [
        {
          "internalType": "address",
          "name": "",
          "type": "address"
        }
      ],
      "stateMutability": "view",
      "type": "function"
    },
    {
      "inputs": [],
      "name": "aroundPoolFactory",
      "outputs": [
        {
          "internalType": "address",
          "name": "",
          "type": "address"
        }
      ],
      "stateMutability": "view",
      "type": "function"
    },
    {
      "inputs": [
        {
          "internalType": "uint256",
          "name": "index",
          "type": "uint256"
        },
        {
          "internalType": "uint256",
          "name": "size",
          "type": "uint256"
        }
      ],
      "name": "batchIndexMarketData",
      "outputs": [
        {
          "components": [
            {
              "internalType": "address",
              "name": "collateral",
              "type": "address"
            },
            {
              "internalType": "address",
              "name": "aroundPool",
              "type": "address"
            },
            {
              "internalType": "address",
              "name": "luckyPool",
              "type": "address"
            },
            {
              "internalType": "address",
              "name": "creator",
              "type": "address"
            },
            {
              "internalType": "string",
              "name": "quest",
              "type": "string"
            }
          ],
          "internalType": "struct IAroundPoolFactory.PoolInfo[]",
          "name": "poolInfoGroup",
          "type": "tuple[]"
        },
        {
          "components": [
            {
              "internalType": "enum IAroundMarket.Result",
              "name": "result",
              "type": "uint8"
            },
            {
              "internalType": "bool",
              "name": "ifOpenAave",
              "type": "bool"
            },
            {
              "internalType": "bool",
              "name": "ifUpdateFinallyAmount",
              "type": "bool"
            },
            {
              "internalType": "uint16",
              "name": "participants",
              "type": "uint16"
            },
            {
              "internalType": "uint64",
              "name": "startTime",
              "type": "uint64"
            },
            {
              "internalType": "uint64",
              "name": "endTime",
              "type": "uint64"
            },
            {
              "internalType": "address",
              "name": "collateral",
              "type": "address"
            },
            {
              "internalType": "uint64",
              "name": "totalRaffleTicket",
              "type": "uint64"
            }
          ],
          "internalType": "struct IAroundMarket.MarketInfo[]",
          "name": "marketInfoGroup",
          "type": "tuple[]"
        },
        {
          "components": [
            {
              "internalType": "uint128",
              "name": "virtualLiquidity",
              "type": "uint128"
            },
            {
              "internalType": "uint128",
              "name": "tradeCollateralAmount",
              "type": "uint128"
            },
            {
              "internalType": "uint128",
              "name": "lpCollateralAmount",
              "type": "uint128"
            },
            {
              "internalType": "uint128",
              "name": "liquidityFeeAmount",
              "type": "uint128"
            },
            {
              "internalType": "uint256",
              "name": "totalLp",
              "type": "uint256"
            },
            {
              "internalType": "uint256",
              "name": "yesAmount",
              "type": "uint256"
            },
            {
              "internalType": "uint256",
              "name": "noAmount",
              "type": "uint256"
            },
            {
              "internalType": "uint256",
              "name": "volume",
              "type": "uint256"
            }
          ],
          "internalType": "struct IAroundMarket.LiqudityInfo[]",
          "name": "liqudityInfoGroup",
          "type": "tuple[]"
        },
        {
          "components": [
            {
              "internalType": "enum IEchoOptimisticOracle.EventState",
              "name": "eventState",
              "type": "uint8"
            },
            {
              "internalType": "enum IEchoOptimisticOracle.OracleWithdrawState",
              "name": "withdrawState",
              "type": "uint8"
            },
            {
              "internalType": "uint16",
              "name": "yesVote",
              "type": "uint16"
            },
            {
              "internalType": "uint16",
              "name": "noVote",
              "type": "uint16"
            },
            {
              "internalType": "uint64",
              "name": "randomNumber",
              "type": "uint64"
            },
            {
              "internalType": "uint64",
              "name": "updateTime",
              "type": "uint64"
            },
            {
              "internalType": "uint256",
              "name": "earn",
              "type": "uint256"
            },
            {
              "internalType": "string",
              "name": "quest",
              "type": "string"
            },
            {
              "components": [
                {
                  "internalType": "enum IEchoOptimisticOracle.OracleState",
                  "name": "state",
                  "type": "uint8"
                },
                {
                  "internalType": "bool",
                  "name": "isDisputePass",
                  "type": "bool"
                },
                {
                  "internalType": "uint16",
                  "name": "disputeVotes",
                  "type": "uint16"
                },
                {
                  "internalType": "uint16",
                  "name": "responseCount",
                  "type": "uint16"
                },
                {
                  "internalType": "address",
                  "name": "challenger",
                  "type": "address"
                },
                {
                  "internalType": "string",
                  "name": "evidence",
                  "type": "string"
                },
                {
                  "internalType": "address[]",
                  "name": "providers",
                  "type": "address[]"
                },
                {
                  "internalType": "address[]",
                  "name": "investigators",
                  "type": "address[]"
                }
              ],
              "internalType": "struct IEchoOptimisticOracle.OptimisticInfo",
              "name": "optimisticInfo",
              "type": "tuple"
            }
          ],
          "internalType": "struct IEchoOptimisticOracle.OracleInfo[]",
          "name": "oracleInfo",
          "type": "tuple[]"
        },
        {
          "internalType": "uint256[]",
          "name": "yesPriceGroup",
          "type": "uint256[]"
        },
        {
          "internalType": "uint256[]",
          "name": "noPriceGroup",
          "type": "uint256[]"
        }
      ],
      "stateMutability": "view",
      "type": "function"
    },
    {
      "inputs": [
        {
          "internalType": "enum IAroundPoolFactory.MarketType",
          "name": "marketType",
          "type": "uint8"
        },
        {
          "internalType": "uint256",
          "name": "index",
          "type": "uint256"
        },
        {
          "internalType": "uint256",
          "name": "size",
          "type": "uint256"
        }
      ],
      "name": "batchIndexMarketTypeData",
      "outputs": [
        {
          "components": [
            {
              "internalType": "address",
              "name": "collateral",
              "type": "address"
            },
            {
              "internalType": "address",
              "name": "aroundPool",
              "type": "address"
            },
            {
              "internalType": "address",
              "name": "luckyPool",
              "type": "address"
            },
            {
              "internalType": "address",
              "name": "creator",
              "type": "address"
            },
            {
              "internalType": "string",
              "name": "quest",
              "type": "string"
            }
          ],
          "internalType": "struct IAroundPoolFactory.PoolInfo[]",
          "name": "poolInfoGroup",
          "type": "tuple[]"
        },
        {
          "components": [
            {
              "internalType": "enum IAroundMarket.Result",
              "name": "result",
              "type": "uint8"
            },
            {
              "internalType": "bool",
              "name": "ifOpenAave",
              "type": "bool"
            },
            {
              "internalType": "bool",
              "name": "ifUpdateFinallyAmount",
              "type": "bool"
            },
            {
              "internalType": "uint16",
              "name": "participants",
              "type": "uint16"
            },
            {
              "internalType": "uint64",
              "name": "startTime",
              "type": "uint64"
            },
            {
              "internalType": "uint64",
              "name": "endTime",
              "type": "uint64"
            },
            {
              "internalType": "address",
              "name": "collateral",
              "type": "address"
            },
            {
              "internalType": "uint64",
              "name": "totalRaffleTicket",
              "type": "uint64"
            }
          ],
          "internalType": "struct IAroundMarket.MarketInfo[]",
          "name": "marketInfoGroup",
          "type": "tuple[]"
        },
        {
          "components": [
            {
              "internalType": "uint128",
              "name": "virtualLiquidity",
              "type": "uint128"
            },
            {
              "internalType": "uint128",
              "name": "tradeCollateralAmount",
              "type": "uint128"
            },
            {
              "internalType": "uint128",
              "name": "lpCollateralAmount",
              "type": "uint128"
            },
            {
              "internalType": "uint128",
              "name": "liquidityFeeAmount",
              "type": "uint128"
            },
            {
              "internalType": "uint256",
              "name": "totalLp",
              "type": "uint256"
            },
            {
              "internalType": "uint256",
              "name": "yesAmount",
              "type": "uint256"
            },
            {
              "internalType": "uint256",
              "name": "noAmount",
              "type": "uint256"
            },
            {
              "internalType": "uint256",
              "name": "volume",
              "type": "uint256"
            }
          ],
          "internalType": "struct IAroundMarket.LiqudityInfo[]",
          "name": "liqudityInfoGroup",
          "type": "tuple[]"
        },
        {
          "internalType": "uint256[]",
          "name": "yesPriceGroup",
          "type": "uint256[]"
        },
        {
          "internalType": "uint256[]",
          "name": "noPriceGroup",
          "type": "uint256[]"
        }
      ],
      "stateMutability": "view",
      "type": "function"
    },
    {
      "inputs": [
        {
          "internalType": "address",
          "name": "user",
          "type": "address"
        },
        {
          "internalType": "uint256",
          "name": "index",
          "type": "uint256"
        },
        {
          "internalType": "uint256",
          "name": "size",
          "type": "uint256"
        }
      ],
      "name": "batchIndexUserParticipateIdsInfo",
      "outputs": [
        {
          "internalType": "uint256[]",
          "name": "idGroup",
          "type": "uint256[]"
        },
        {
          "components": [
            {
              "internalType": "uint64",
              "name": "raffleTicketNumber",
              "type": "uint64"
            },
            {
              "internalType": "uint128",
              "name": "collateralAmount",
              "type": "uint128"
            },
            {
              "internalType": "uint256",
              "name": "yesBalance",
              "type": "uint256"
            },
            {
              "internalType": "uint256",
              "name": "noBalance",
              "type": "uint256"
            },
            {
              "internalType": "uint256",
              "name": "lp",
              "type": "uint256"
            },
            {
              "internalType": "uint256",
              "name": "volume",
              "type": "uint256"
            }
          ],
          "internalType": "struct IAroundMarket.UserPosition[]",
          "name": "userPositionGroup",
          "type": "tuple[]"
        }
      ],
      "stateMutability": "view",
      "type": "function"
    },
    {
      "inputs": [],
      "name": "echoOptimisticOracle",
      "outputs": [
        {
          "internalType": "address",
          "name": "",
          "type": "address"
        }
      ],
      "stateMutability": "view",
      "type": "function"
    },
    {
      "inputs": [
        {
          "internalType": "enum IAroundMarket.Result",
          "name": "bet",
          "type": "uint8"
        },
        {
          "internalType": "uint128",
          "name": "amountIn",
          "type": "uint128"
        },
        {
          "internalType": "uint256",
          "name": "thisMarketId",
          "type": "uint256"
        }
      ],
      "name": "estimateWinAmount",
      "outputs": [
        {
          "internalType": "uint256",
          "name": "winnings",
          "type": "uint256"
        }
      ],
      "stateMutability": "view",
      "type": "function"
    },
    {
      "inputs": [
        {
          "internalType": "enum IAroundMarket.Result",
          "name": "bet",
          "type": "uint8"
        },
        {
          "internalType": "uint128",
          "name": "buyCollateralAmount",
          "type": "uint128"
        },
        {
          "internalType": "uint256",
          "name": "thisMarketId",
          "type": "uint256"
        }
      ],
      "name": "getBuyOutput",
      "outputs": [
        {
          "internalType": "uint256",
          "name": "output",
          "type": "uint256"
        },
        {
          "internalType": "uint128",
          "name": "fee",
          "type": "uint128"
        }
      ],
      "stateMutability": "view",
      "type": "function"
    },
    {
      "inputs": [
        {
          "internalType": "uint256",
          "name": "thisMarketId",
          "type": "uint256"
        },
        {
          "internalType": "enum IAroundMarket.Result",
          "name": "bet",
          "type": "uint8"
        },
        {
          "internalType": "uint128",
          "name": "amountIn",
          "type": "uint128"
        }
      ],
      "name": "getBuySlippage",
      "outputs": [
        {
          "internalType": "uint256",
          "name": "",
          "type": "uint256"
        }
      ],
      "stateMutability": "view",
      "type": "function"
    },
    {
      "inputs": [
        {
          "internalType": "address",
          "name": "token",
          "type": "address"
        }
      ],
      "name": "getDecimals",
      "outputs": [
        {
          "internalType": "uint8",
          "name": "",
          "type": "uint8"
        }
      ],
      "stateMutability": "view",
      "type": "function"
    },
    {
      "inputs": [
        {
          "internalType": "uint128",
          "name": "expectVirtualAmount",
          "type": "uint128"
        },
        {
          "internalType": "uint8",
          "name": "decimals",
          "type": "uint8"
        }
      ],
      "name": "getGuardedAmount",
      "outputs": [
        {
          "internalType": "uint256",
          "name": "",
          "type": "uint256"
        }
      ],
      "stateMutability": "view",
      "type": "function"
    },
    {
      "inputs": [
        {
          "internalType": "uint256",
          "name": "thisMarketId",
          "type": "uint256"
        },
        {
          "internalType": "uint256",
          "name": "lpAmount",
          "type": "uint256"
        }
      ],
      "name": "getLiquidityRemoval",
      "outputs": [
        {
          "internalType": "uint128",
          "name": "collateralAmount",
          "type": "uint128"
        },
        {
          "internalType": "uint128",
          "name": "feeShare",
          "type": "uint128"
        },
        {
          "internalType": "uint256",
          "name": "totalValue",
          "type": "uint256"
        }
      ],
      "stateMutability": "view",
      "type": "function"
    },
    {
      "inputs": [
        {
          "internalType": "uint256",
          "name": "thisMarketId",
          "type": "uint256"
        },
        {
          "internalType": "uint128",
          "name": "value",
          "type": "uint128"
        }
      ],
      "name": "getLiquidityShares",
      "outputs": [
        {
          "internalType": "uint256",
          "name": "yesShare",
          "type": "uint256"
        },
        {
          "internalType": "uint256",
          "name": "noShare",
          "type": "uint256"
        }
      ],
      "stateMutability": "view",
      "type": "function"
    },
    {
      "inputs": [
        {
          "internalType": "uint256",
          "name": "thisMarketId",
          "type": "uint256"
        },
        {
          "internalType": "address",
          "name": "user",
          "type": "address"
        }
      ],
      "name": "getLiquidityValue",
      "outputs": [
        {
          "internalType": "uint256",
          "name": "totalValue",
          "type": "uint256"
        }
      ],
      "stateMutability": "view",
      "type": "function"
    },
    {
      "inputs": [
        {
          "internalType": "uint256",
          "name": "thisMarketId",
          "type": "uint256"
        },
        {
          "internalType": "uint128",
          "name": "value",
          "type": "uint128"
        }
      ],
      "name": "getLpSharesToMint",
      "outputs": [
        {
          "internalType": "uint256",
          "name": "",
          "type": "uint256"
        }
      ],
      "stateMutability": "view",
      "type": "function"
    },
    {
      "inputs": [
        {
          "internalType": "uint256",
          "name": "thisMarketId",
          "type": "uint256"
        }
      ],
      "name": "getNoPrice",
      "outputs": [
        {
          "internalType": "uint256",
          "name": "",
          "type": "uint256"
        }
      ],
      "stateMutability": "view",
      "type": "function"
    },
    {
      "inputs": [
        {
          "internalType": "enum IAroundMarket.Result",
          "name": "bet",
          "type": "uint8"
        },
        {
          "internalType": "uint128",
          "name": "sellShareAmount",
          "type": "uint128"
        },
        {
          "internalType": "uint256",
          "name": "thisMarketId",
          "type": "uint256"
        }
      ],
      "name": "getSellOutput",
      "outputs": [
        {
          "internalType": "uint256",
          "name": "output",
          "type": "uint256"
        },
        {
          "internalType": "uint128",
          "name": "fee",
          "type": "uint128"
        }
      ],
      "stateMutability": "view",
      "type": "function"
    },
    {
      "inputs": [
        {
          "internalType": "uint256",
          "name": "thisMarketId",
          "type": "uint256"
        },
        {
          "internalType": "enum IAroundMarket.Result",
          "name": "bet",
          "type": "uint8"
        },
        {
          "internalType": "uint128",
          "name": "sellAmount",
          "type": "uint128"
        }
      ],
      "name": "getSellSlippage",
      "outputs": [
        {
          "internalType": "uint256",
          "name": "",
          "type": "uint256"
        }
      ],
      "stateMutability": "view",
      "type": "function"
    },
    {
      "inputs": [
        {
          "internalType": "address",
          "name": "token",
          "type": "address"
        },
        {
          "internalType": "address",
          "name": "addr",
          "type": "address"
        }
      ],
      "name": "getTokenBalance",
      "outputs": [
        {
          "internalType": "uint256",
          "name": "",
          "type": "uint256"
        }
      ],
      "stateMutability": "view",
      "type": "function"
    },
    {
      "inputs": [
        {
          "internalType": "uint256",
          "name": "thisMarketId",
          "type": "uint256"
        }
      ],
      "name": "getYesPrice",
      "outputs": [
        {
          "internalType": "uint256",
          "name": "",
          "type": "uint256"
        }
      ],
      "stateMutability": "view",
      "type": "function"
    },
    {
      "inputs": [
        {
          "internalType": "uint256",
          "name": "thisMarketId",
          "type": "uint256"
        }
      ],
      "name": "indexMarketData",
      "outputs": [
        {
          "components": [
            {
              "internalType": "address",
              "name": "collateral",
              "type": "address"
            },
            {
              "internalType": "address",
              "name": "aroundPool",
              "type": "address"
            },
            {
              "internalType": "address",
              "name": "luckyPool",
              "type": "address"
            },
            {
              "internalType": "address",
              "name": "creator",
              "type": "address"
            },
            {
              "internalType": "string",
              "name": "quest",
              "type": "string"
            }
          ],
          "internalType": "struct IAroundPoolFactory.PoolInfo",
          "name": "thisPoolInfo",
          "type": "tuple"
        },
        {
          "components": [
            {
              "internalType": "uint16",
              "name": "officialFee",
              "type": "uint16"
            },
            {
              "internalType": "uint16",
              "name": "luckyFee",
              "type": "uint16"
            },
            {
              "internalType": "uint16",
              "name": "oracleFee",
              "type": "uint16"
            },
            {
              "internalType": "uint16",
              "name": "creatorFee",
              "type": "uint16"
            },
            {
              "internalType": "uint16",
              "name": "liquidityFee",
              "type": "uint16"
            },
            {
              "internalType": "uint16",
              "name": "totalFee",
              "type": "uint16"
            }
          ],
          "internalType": "struct IAroundPoolFactory.FeeInfo",
          "name": "thisFeeInfo",
          "type": "tuple"
        },
        {
          "components": [
            {
              "internalType": "enum IAroundMarket.Result",
              "name": "result",
              "type": "uint8"
            },
            {
              "internalType": "bool",
              "name": "ifOpenAave",
              "type": "bool"
            },
            {
              "internalType": "bool",
              "name": "ifUpdateFinallyAmount",
              "type": "bool"
            },
            {
              "internalType": "uint16",
              "name": "participants",
              "type": "uint16"
            },
            {
              "internalType": "uint64",
              "name": "startTime",
              "type": "uint64"
            },
            {
              "internalType": "uint64",
              "name": "endTime",
              "type": "uint64"
            },
            {
              "internalType": "address",
              "name": "collateral",
              "type": "address"
            },
            {
              "internalType": "uint64",
              "name": "totalRaffleTicket",
              "type": "uint64"
            }
          ],
          "internalType": "struct IAroundMarket.MarketInfo",
          "name": "thisMarketInfo",
          "type": "tuple"
        },
        {
          "components": [
            {
              "internalType": "uint128",
              "name": "virtualLiquidity",
              "type": "uint128"
            },
            {
              "internalType": "uint128",
              "name": "tradeCollateralAmount",
              "type": "uint128"
            },
            {
              "internalType": "uint128",
              "name": "lpCollateralAmount",
              "type": "uint128"
            },
            {
              "internalType": "uint128",
              "name": "liquidityFeeAmount",
              "type": "uint128"
            },
            {
              "internalType": "uint256",
              "name": "totalLp",
              "type": "uint256"
            },
            {
              "internalType": "uint256",
              "name": "yesAmount",
              "type": "uint256"
            },
            {
              "internalType": "uint256",
              "name": "noAmount",
              "type": "uint256"
            },
            {
              "internalType": "uint256",
              "name": "volume",
              "type": "uint256"
            }
          ],
          "internalType": "struct IAroundMarket.LiqudityInfo",
          "name": "thisLiqudityInfo",
          "type": "tuple"
        },
        {
          "components": [
            {
              "internalType": "enum IEchoOptimisticOracle.EventState",
              "name": "eventState",
              "type": "uint8"
            },
            {
              "internalType": "enum IEchoOptimisticOracle.OracleWithdrawState",
              "name": "withdrawState",
              "type": "uint8"
            },
            {
              "internalType": "uint16",
              "name": "yesVote",
              "type": "uint16"
            },
            {
              "internalType": "uint16",
              "name": "noVote",
              "type": "uint16"
            },
            {
              "internalType": "uint64",
              "name": "randomNumber",
              "type": "uint64"
            },
            {
              "internalType": "uint64",
              "name": "updateTime",
              "type": "uint64"
            },
            {
              "internalType": "uint256",
              "name": "earn",
              "type": "uint256"
            },
            {
              "internalType": "string",
              "name": "quest",
              "type": "string"
            },
            {
              "components": [
                {
                  "internalType": "enum IEchoOptimisticOracle.OracleState",
                  "name": "state",
                  "type": "uint8"
                },
                {
                  "internalType": "bool",
                  "name": "isDisputePass",
                  "type": "bool"
                },
                {
                  "internalType": "uint16",
                  "name": "disputeVotes",
                  "type": "uint16"
                },
                {
                  "internalType": "uint16",
                  "name": "responseCount",
                  "type": "uint16"
                },
                {
                  "internalType": "address",
                  "name": "challenger",
                  "type": "address"
                },
                {
                  "internalType": "string",
                  "name": "evidence",
                  "type": "string"
                },
                {
                  "internalType": "address[]",
                  "name": "providers",
                  "type": "address[]"
                },
                {
                  "internalType": "address[]",
                  "name": "investigators",
                  "type": "address[]"
                }
              ],
              "internalType": "struct IEchoOptimisticOracle.OptimisticInfo",
              "name": "optimisticInfo",
              "type": "tuple"
            }
          ],
          "internalType": "struct IEchoOptimisticOracle.OracleInfo",
          "name": "thisOracleInfo",
          "type": "tuple"
        },
        {
          "internalType": "uint256",
          "name": "thisYesPrice",
          "type": "uint256"
        },
        {
          "internalType": "uint256",
          "name": "thisNoPrice",
          "type": "uint256"
        }
      ],
      "stateMutability": "view",
      "type": "function"
    }
  ],
  "bytecode": "0x6080604052620186a06000806101000a81548163ffffffff021916908363ffffffff16021790555034801561003357600080fd5b506040516155ab3803806155ab83398181016040528101906100559190610183565b82600060046101000a81548173ffffffffffffffffffffffffffffffffffffffff021916908373ffffffffffffffffffffffffffffffffffffffff16021790555081600160006101000a81548173ffffffffffffffffffffffffffffffffffffffff021916908373ffffffffffffffffffffffffffffffffffffffff16021790555080600260006101000a81548173ffffffffffffffffffffffffffffffffffffffff021916908373ffffffffffffffffffffffffffffffffffffffff1602179055505050506101d6565b600080fd5b600073ffffffffffffffffffffffffffffffffffffffff82169050919050565b600061015082610125565b9050919050565b61016081610145565b811461016b57600080fd5b50565b60008151905061017d81610157565b92915050565b60008060006060848603121561019c5761019b610120565b5b60006101aa8682870161016e565b93505060206101bb8682870161016e565b92505060406101cc8682870161016e565b9150509250925092565b6153c6806101e56000396000f3fe608060405234801561001057600080fd5b50600436106101375760003560e01c8063a256e4a7116100b8578063c6dab7ae1161007c578063c6dab7ae146103f6578063cf54aaa01461042b578063d342d3281461045b578063e48d02e21461048b578063ef6c4254146104a9578063f8612a18146104db57610137565b8063a256e4a714610317578063ada5439b14610348578063ba2f76df14610378578063c354648514610396578063c489744b146103c657610137565b806345ee8d20116100ff57806345ee8d201461022057806372f94fa71461025057806382ac013214610281578063852d994d146102b15780639ba85fae146102e757610137565b806307aa7f831461013c5780630e9b41b91461016d5780631c5d82b41461019d5780631ef27dee146101d157806343ed881e146101ef575b600080fd5b61015660048036038101906101519190612e65565b61050b565b604051610164929190612eb4565b60405180910390f35b61018760048036038101906101829190612e65565b61054d565b6040516101949190612edd565b60405180910390f35b6101b760048036038101906101b29190612f1d565b610591565b6040516101c89594939291906135bc565b60405180910390f35b6101d9610966565b6040516101e69190613641565b60405180910390f35b61020960048036038101906102049190613681565b61098c565b6040516102179291906136e3565b60405180910390f35b61023a60048036038101906102359190613745565b610a01565b6040516102479190612edd565b60405180910390f35b61026a60048036038101906102659190613681565b610a2c565b6040516102789291906136e3565b60405180910390f35b61029b60048036038101906102969190613785565b610aa9565b6040516102a89190612edd565b60405180910390f35b6102cb60048036038101906102c691906137d8565b610af7565b6040516102de9796959493929190613d4b565b60405180910390f35b61030160048036038101906102fc91906137d8565b610c12565b60405161030e9190612edd565b60405180910390f35b610331600480360381019061032c9190613df9565b610c57565b60405161033f929190613f76565b60405180910390f35b610362600480360381019061035d9190613681565b610f3d565b60405161036f9190612edd565b60405180910390f35b610380611067565b60405161038d9190613641565b60405180910390f35b6103b060048036038101906103ab91906137d8565b61108d565b6040516103bd9190612edd565b60405180910390f35b6103e060048036038101906103db9190613fad565b6110d2565b6040516103ed9190612edd565b60405180910390f35b610410600480360381019061040b9190613fed565b611156565b604051610422969594939291906141bb565b60405180910390f35b61044560048036038101906104409190614246565b6115c4565b6040516104529190614282565b60405180910390f35b6104756004803603810190610470919061429d565b61163c565b6040516104829190612edd565b60405180910390f35b6104936116bb565b6040516104a09190613641565b60405180910390f35b6104c360048036038101906104be9190613fed565b6116e1565b6040516104d2939291906142dd565b60405180910390f35b6104f560048036038101906104f09190613785565b6117a4565b6040516105029190612edd565b60405180910390f35b60008061053e8361051b86611811565b6080015161052887611811565b60a0015161053588611811565b60c001516118bd565b80925081935050509250929050565b60006105898261055c85611811565b6040015161056986611811565b602001516105779190614343565b61058086611811565b60800151611957565b905092915050565b60608060608060606000600160009054906101000a900473ffffffffffffffffffffffffffffffffffffffff1673ffffffffffffffffffffffffffffffffffffffff1663750396ca8a6040518263ffffffff1660e01b81526004016105f691906143cf565b602060405180830381865afa158015610613573d6000803e3d6000fd5b505050506040513d601f19601f8201168201806040525081019061063791906143ff565b9050600a871115801561064a5750600087115b8015610661575080878961065e919061442c565b11155b61066a57600080fd5b6000808289111561067d578290506106cb565b60018a61068a919061446e565b89610695919061442c565b8311156106a4578890506106b3565b88836106b091906144d1565b90505b60008a146106ca57888a6106c7919061442c565b91505b5b8067ffffffffffffffff8111156106e5576106e4614502565b5b60405190808252806020026020018201604052801561071e57816020015b61070b612a83565b8152602001906001900390816107035790505b5097508067ffffffffffffffff81111561073b5761073a614502565b5b60405190808252806020026020018201604052801561077457816020015b610761612b0a565b8152602001906001900390816107595790505b5096508067ffffffffffffffff81111561079157610790614502565b5b6040519080825280602002602001820160405280156107ca57816020015b6107b7612b9d565b8152602001906001900390816107af5790505b5095508067ffffffffffffffff8111156107e7576107e6614502565b5b6040519080825280602002602001820160405280156108155781602001602082028036833780820191505090505b5094508067ffffffffffffffff81111561083257610831614502565b5b6040519080825280602002602001820160405280156108605781602001602082028036833780820191505090505b50935060005b8181101561095757600061087a8d856119bf565b905061088581611a67565b8a838151811061089857610897614531565b5b60200260200101819052506108ac81611b17565b8983815181106108bf576108be614531565b5b60200260200101819052506108d381611811565b8883815181106108e6576108e5614531565b5b60200260200101819052506108fa81610c12565b87838151811061090d5761090c614531565b5b6020026020010181815250506109228161108d565b86838151811061093557610934614531565b5b6020026020010181815250508380600101945050508080600101915050610866565b50505050939792965093509350565b600160009054906101000a900473ffffffffffffffffffffffffffffffffffffffff1681565b6000806109f18561099c85611bc3565b60a00151866109aa87611811565b600001516109b788611811565b604001516109c489611811565b602001516109d29190614343565b6109db89611811565b60a001516109e88a611811565b60c00151611c70565b8092508193505050935093915050565b6000610a24828460008054906101000a900463ffffffff1663ffffffff16611d11565b905092915050565b600080610a9985610a3c85611bc3565b60a00151610a4986611811565b60000151610a5687611811565b60200151610a6388611811565b60400151896fffffffffffffffffffffffffffffffff16610a838a611811565b60a00151610a908b611811565b60c00151611e3a565b8092508193505050935093915050565b6000610aee83610ab886611811565b60000151610ac587611811565b60a00151610ad288611811565b60c00151866fffffffffffffffffffffffffffffffff16611ed7565b90509392505050565b610aff612a83565b610b07612c2a565b610b0f612b0a565b610b17612b9d565b610b1f612c78565b600080610b2b88611a67565b9650610b3688611bc3565b9550610b4188611b17565b9450610b4c88611811565b9350600260009054906101000a900473ffffffffffffffffffffffffffffffffffffffff1673ffffffffffffffffffffffffffffffffffffffff16639276ade5896040518263ffffffff1660e01b8152600401610ba99190612edd565b600060405180830381865afa158015610bc6573d6000803e3d6000fd5b505050506040513d6000823e3d601f19601f82011682018060405250810190610bef9190614a67565b9250610bfa88610c12565b9150610c058861108d565b9050919395979092949650565b6000610c50610c2083611b17565b60000151610c2d84611811565b60000151610c3a85611811565b60a00151610c4786611811565b60c00151611fc6565b9050919050565b60608060008060049054906101000a900473ffffffffffffffffffffffffffffffffffffffff1673ffffffffffffffffffffffffffffffffffffffff166379cce6b8876040518263ffffffff1660e01b8152600401610cb69190613641565b602060405180830381865afa158015610cd3573d6000803e3d6000fd5b505050506040513d601f19601f82011682018060405250810190610cf791906143ff565b9050600a8411158015610d0a5750600084115b8015610d215750808486610d1e919061442c565b11155b610d2a57600080fd5b60008082861115610d3d57829050610d8b565b600187610d4a919061446e565b86610d55919061442c565b831115610d6457859050610d73565b8583610d7091906144d1565b90505b60008714610d8a578587610d87919061442c565b91505b5b8067ffffffffffffffff811115610da557610da4614502565b5b604051908082528060200260200182016040528015610dd35781602001602082028036833780820191505090505b5094508067ffffffffffffffff811115610df057610def614502565b5b604051908082528060200260200182016040528015610e2957816020015b610e16612d0a565b815260200190600190039081610e0e5790505b50935060005b81811015610f3157600060049054906101000a900473ffffffffffffffffffffffffffffffffffffffff1673ffffffffffffffffffffffffffffffffffffffff1663281a60bf8a856040518363ffffffff1660e01b8152600401610e94929190614ab0565b602060405180830381865afa158015610eb1573d6000803e3d6000fd5b505050506040513d601f19601f82011682018060405250810190610ed591906143ff565b868281518110610ee857610ee7614531565b5b602002602001018181525050610efe8984612124565b858281518110610f1157610f10614531565b5b602002602001018190525082806001019350508080600101915050610e2f565b50505050935093915050565b600080610f4b85858561098c565b50905060016003811115610f6257610f616131a5565b5b856003811115610f7557610f746131a5565b5b03610fd85780610f8484611811565b60a00151610f92919061446e565b84610f9c85611811565b60200151610faa9190614343565b6fffffffffffffffffffffffffffffffff1682610fc7919061442c565b610fd19190614ad9565b915061105f565b60026003811115610fec57610feb6131a5565b5b856003811115610fff57610ffe6131a5565b5b0361105e578061100e84611811565b60c0015161101c919061446e565b8461102685611811565b602001516110349190614343565b6fffffffffffffffffffffffffffffffff1682611051919061442c565b61105b9190614ad9565b91505b5b509392505050565b600060049054906101000a900473ffffffffffffffffffffffffffffffffffffffff1681565b60006110cb61109b83611b17565b600001516110a884611811565b600001516110b585611811565b60a001516110c286611811565b60c001516121d2565b9050919050565b60008273ffffffffffffffffffffffffffffffffffffffff166370a08231836040518263ffffffff1660e01b815260040161110d9190613641565b602060405180830381865afa15801561112a573d6000803e3d6000fd5b505050506040513d601f19601f8201168201806040525081019061114e91906143ff565b905092915050565b6060806060806060806000600160009054906101000a900473ffffffffffffffffffffffffffffffffffffffff1673ffffffffffffffffffffffffffffffffffffffff16636ed71ede6040518163ffffffff1660e01b8152600401602060405180830381865afa1580156111ce573d6000803e3d6000fd5b505050506040513d601f19601f820116820180604052508101906111f291906143ff565b9050600a88111580156112055750600088115b801561121c575080888a611219919061442c565b11155b61125b576040517f08c379a000000000000000000000000000000000000000000000000000000000815260040161125290614b67565b60405180910390fd5b600080828a111561126e578290506112bc565b60018b61127b919061446e565b8a611286919061442c565b831115611295578990506112a4565b89836112a191906144d1565b90505b60008b146112bb57898b6112b8919061442c565b91505b5b8067ffffffffffffffff8111156112d6576112d5614502565b5b60405190808252806020026020018201604052801561130f57816020015b6112fc612a83565b8152602001906001900390816112f45790505b5098508067ffffffffffffffff81111561132c5761132b614502565b5b60405190808252806020026020018201604052801561136557816020015b611352612b0a565b81526020019060019003908161134a5790505b5097508067ffffffffffffffff81111561138257611381614502565b5b6040519080825280602002602001820160405280156113bb57816020015b6113a8612b9d565b8152602001906001900390816113a05790505b5096508067ffffffffffffffff8111156113d8576113d7614502565b5b60405190808252806020026020018201604052801561141157816020015b6113fe612c78565b8152602001906001900390816113f65790505b5095508067ffffffffffffffff81111561142e5761142d614502565b5b60405190808252806020026020018201604052801561145c5781602001602082028036833780820191505090505b5094508067ffffffffffffffff81111561147957611478614502565b5b6040519080825280602002602001820160405280156114a75781602001602082028036833780820191505090505b50935060005b818110156115b6576114be83611a67565b8a82815181106114d1576114d0614531565b5b60200260200101819052506114e583611b17565b8982815181106114f8576114f7614531565b5b602002602001018190525061150c83611811565b88828151811061151f5761151e614531565b5b6020026020010181905250611533836121fd565b87828151811061154657611545614531565b5b602002602001018190525061155a83610c12565b86828151811061156d5761156c614531565b5b6020026020010181815250506115828361108d565b85828151811061159557611594614531565b5b602002602001018181525050828060010193505080806001019150506114ad565b505050509295509295509295565b60008173ffffffffffffffffffffffffffffffffffffffff1663313ce5676040518163ffffffff1660e01b8152600401602060405180830381865afa158015611611573d6000803e3d6000fd5b505050506040513d601f19601f820116820180604052508101906116359190614b9c565b9050919050565b6000806116498385612124565b608001510361165b57600090506116b5565b6116b261166784611811565b6000015161167485611811565b606001516116828587612124565b6080015161168f87611811565b6080015161169c88611811565b60a001516116a989611811565b60c001516122ad565b90505b92915050565b600260009054906101000a900473ffffffffffffffffffffffffffffffffffffffff1681565b60008060006116f03386612124565b60800151841115611736576040517f08c379a000000000000000000000000000000000000000000000000000000000815260040161172d90614c15565b60405180910390fd5b61177561174286611811565b606001516117503388612124565b602001518661175f338a612124565b6080015161176c8a611811565b60800151612351565b809350819450505081836117899190614343565b6fffffffffffffffffffffffffffffffff1690509250925092565b6000611808836117b386611bc3565b60a00151846117c188611811565b600001516117ce89611811565b604001516117db8a611811565b602001516117e99190614343565b6117f28a611811565b60a001516117ff8b611811565b60c001516123b4565b90509392505050565b611819612b9d565b600060049054906101000a900473ffffffffffffffffffffffffffffffffffffffff1673ffffffffffffffffffffffffffffffffffffffff1663d3432f8b836040518263ffffffff1660e01b81526004016118749190612edd565b61010060405180830381865afa158015611892573d6000803e3d6000fd5b505050506040513d601f19601f820116820180604052508101906118b69190614d14565b9050919050565b600080600085036118f757856fffffffffffffffffffffffffffffffff169150856fffffffffffffffffffffffffffffffff16905061194e565b8484876fffffffffffffffffffffffffffffffff16611916919061442c565b6119209190614ad9565b91508483876fffffffffffffffffffffffffffffffff16611941919061442c565b61194b9190614ad9565b90505b94509492505050565b600080820361197a57836fffffffffffffffffffffffffffffffff1690506119b8565b826fffffffffffffffffffffffffffffffff1682856fffffffffffffffffffffffffffffffff166119ab919061442c565b6119b59190614ad9565b90505b9392505050565b6000600160009054906101000a900473ffffffffffffffffffffffffffffffffffffffff1673ffffffffffffffffffffffffffffffffffffffff1663ab344b8184846040518363ffffffff1660e01b8152600401611a1e929190614d42565b602060405180830381865afa158015611a3b573d6000803e3d6000fd5b505050506040513d601f19601f82011682018060405250810190611a5f91906143ff565b905092915050565b611a6f612a83565b600160009054906101000a900473ffffffffffffffffffffffffffffffffffffffff1673ffffffffffffffffffffffffffffffffffffffff16632f380b35836040518263ffffffff1660e01b8152600401611aca9190612edd565b600060405180830381865afa158015611ae7573d6000803e3d6000fd5b505050506040513d6000823e3d601f19601f82011682018060405250810190611b109190614e13565b9050919050565b611b1f612b0a565b600060049054906101000a900473ffffffffffffffffffffffffffffffffffffffff1673ffffffffffffffffffffffffffffffffffffffff16633ec79193836040518263ffffffff1660e01b8152600401611b7a9190612edd565b61010060405180830381865afa158015611b98573d6000803e3d6000fd5b505050506040513d601f19601f82011682018060405250810190611bbc9190614f3b565b9050919050565b611bcb612c2a565b600160009054906101000a900473ffffffffffffffffffffffffffffffffffffffff1673ffffffffffffffffffffffffffffffffffffffff1663aa64b6b683336040518363ffffffff1660e01b8152600401611c28929190614f69565b60c060405180830381865afa158015611c45573d6000803e3d6000fd5b505050506040513d601f19601f82011682018060405250810190611c699190615032565b9050919050565b6000806000611c7f89896124fb565b809350819250505060016003811115611c9b57611c9a6131a5565b5b8a6003811115611cae57611cad6131a5565b5b03611cc757611cc08188888888612539565b9250611d04565b60026003811115611cdb57611cda6131a5565b5b8a6003811115611cee57611ced6131a5565b5b03611d0357611d008188888888612651565b92505b5b5097509795505050505050565b6000816fffffffffffffffffffffffffffffffff16836fffffffffffffffffffffffffffffffff1603611d5e5783600a611d4b9190615192565b600a611d57919061442c565b9050611e33565b816fffffffffffffffffffffffffffffffff16836fffffffffffffffffffffffffffffffff16118015611da757506305f5e100836fffffffffffffffffffffffffffffffff1611155b15611e005783600a611db99190615192565b60018385611dc791906151dd565b611dd19190614343565b600a611ddd919061520e565b6fffffffffffffffffffffffffffffffff16611df9919061442c565b9050611e32565b6040517fd049d34300000000000000000000000000000000000000000000000000000000815260040160405180910390fd5b5b9392505050565b60008060016003811115611e5157611e506131a5565b5b8a6003811115611e6457611e636131a5565b5b03611e8557611e7889898989898989612769565b8092508193505050611eca565b60026003811115611e9957611e986131a5565b5b8a6003811115611eac57611eab6131a5565b5b03611ec957611ec0898989898989896128f6565b80925081935050505b5b9850989650505050505050565b600080611ee76000878787611fc6565b9050600060016003811115611eff57611efe6131a5565b5b886003811115611f1257611f116131a5565b5b03611f6b57611f2f6000888689611f29919061524b565b88611fc6565b905080821115611f665781670de0b6b3a76400008284611f4f919061524b565b611f59919061442c565b611f639190614ad9565b92505b611fbb565b611f83600088888789611f7e919061524b565b611fc6565b905080821115611fba5781670de0b6b3a76400008284611fa3919061524b565b611fad919061442c565b611fb79190614ad9565b92505b5b505095945050505050565b600060016003811115611fdc57611fdb6131a5565b5b856003811115611fef57611fee6131a5565b5b0361200457670de0b6b3a7640000905061211b565b60026003811115612018576120176131a5565b5b85600381111561202b5761202a6131a5565b5b03612039576000905061211a565b6000600381111561204d5761204c6131a5565b5b8560038111156120605761205f6131a5565b5b03612119576000831480156120755750600082145b15612096576002670de0b6b3a764000061208f9190614ad9565b905061211c565b600083116120a5576000612116565b8360026120b2919061520e565b6fffffffffffffffffffffffffffffffff1682846120d0919061446e565b6120da919061446e565b670de0b6b3a7640000856fffffffffffffffffffffffffffffffff1685612101919061446e565b61210b919061442c565b6121159190614ad9565b5b90505b5b5b5b949350505050565b61212c612d0a565b600060049054906101000a900473ffffffffffffffffffffffffffffffffffffffff1673ffffffffffffffffffffffffffffffffffffffff16631c88ef1e84846040518363ffffffff1660e01b8152600401612189929190614ab0565b60c060405180830381865afa1580156121a6573d6000803e3d6000fd5b505050506040513d601f19601f820116820180604052508101906121ca919061531f565b905092915050565b60006121e085858585611fc6565b670de0b6b3a76400006121f3919061524b565b9050949350505050565b612205612c78565b600260009054906101000a900473ffffffffffffffffffffffffffffffffffffffff1673ffffffffffffffffffffffffffffffffffffffff16639276ade5836040518263ffffffff1660e01b81526004016122609190612edd565b600060405180830381865afa15801561227d573d6000803e3d6000fd5b505050506040513d6000823e3d601f19601f820116820180604052508101906122a69190614a67565b9050919050565b6000806122bd6000898686611fc6565b90506000851115612346578486886fffffffffffffffffffffffffffffffff16670de0b6b3a76400008685670de0b6b3a76400006122fb919061524b565b612305919061442c565b8589612311919061442c565b61231b919061446e565b6123259190614ad9565b61232f919061446e565b612339919061442c565b6123439190614ad9565b91505b509695505050505050565b60008083866fffffffffffffffffffffffffffffffff1686612373919061442c565b61237d9190614ad9565b915082876fffffffffffffffffffffffffffffffff168661239e919061442c565b6123a89190614ad9565b90509550959350505050565b6000806000806123c48a8a6124fb565b509050600160038111156123db576123da6131a5565b5b8b60038111156123ee576123ed6131a5565b5b03612472576124006000898888611fc6565b92506000612411828a8a8a8a612539565b9050600081111561246c5761243460008a838a61242e919061446e565b89611fc6565b92508383111561246b5783670de0b6b3a76400008585612454919061524b565b61245e919061442c565b6124689190614ad9565b94505b5b506124ed565b61247f60008988886121d2565b92506000612490828a8a8a8a612651565b905060008111156124eb576124b360008a89848a6124ae919061446e565b6121d2565b9250838311156124ea5783670de0b6b3a764000085856124d3919061524b565b6124dd919061442c565b6124e79190614ad9565b94505b5b505b505050979650505050505050565b600080620186a063ffffffff168461ffff1684612518919061520e565b61252291906151dd565b90508083612530919061534c565b91509250929050565b6000806125496000878686611fc6565b90506000811461264757670de0b6b3a7640000810361257c57866fffffffffffffffffffffffffffffffff169150612646565b600086888761258b9190614343565b6125959190614343565b6fffffffffffffffffffffffffffffffff1690506000876fffffffffffffffffffffffffffffffff16856125c9919061446e565b905060008384670de0b6b3a76400006125e2919061524b565b836125ed919061442c565b84670de0b6b3a7640000612601919061442c565b61260b919061524b565b6126159190614ad9565b9050886fffffffffffffffffffffffffffffffff168782612636919061524b565b612640919061524b565b94505050505b5b5095945050505050565b60008061266160008786866121d2565b90506000811461275f57670de0b6b3a7640000810361269457866fffffffffffffffffffffffffffffffff16915061275e565b60008688876126a39190614343565b6126ad9190614343565b6fffffffffffffffffffffffffffffffff1690506000876fffffffffffffffffffffffffffffffff16866126e1919061446e565b905060008384670de0b6b3a76400006126fa919061524b565b83612705919061442c565b84670de0b6b3a7640000612719919061442c565b612723919061524b565b61272d9190614ad9565b9050886fffffffffffffffffffffffffffffffff16868261274e919061524b565b612758919061524b565b94505050505b5b5095945050505050565b600080600061277b60008a8787611fc6565b9050600081146128e9576000868a6fffffffffffffffffffffffffffffffff16876127a6919061446e565b6127b0919061524b565b905060008a6fffffffffffffffffffffffffffffffff16866127d2919061446e565b90506000670de0b6b3a764000084670de0b6b3a76400006127f3919061524b565b836127fe919061442c565b858561280a919061442c565b612814919061446e565b61281e9190614ad9565b90506000818d8c8e6128309190614343565b61283a9190614343565b6fffffffffffffffffffffffffffffffff16612856919061524b565b905060008c6fffffffffffffffffffffffffffffffff1682111561288e578c6fffffffffffffffffffffffffffffffff169050612892565b8190505b6103e88111156128c357620186a063ffffffff168f61ffff16826128b6919061442c565b6128c09190614ad9565b96505b866fffffffffffffffffffffffffffffffff16816128e1919061524b565b975050505050505b5097509795505050505050565b600080600061290860008a87876121d2565b905060008114612a76576000896fffffffffffffffffffffffffffffffff1686612932919061446e565b90506000878b6fffffffffffffffffffffffffffffffff1687612955919061446e565b61295f919061524b565b90506000670de0b6b3a76400008483612978919061442c565b85670de0b6b3a764000061298c919061524b565b85612997919061442c565b6129a1919061446e565b6129ab9190614ad9565b90506000818d8c8e6129bd9190614343565b6129c79190614343565b6fffffffffffffffffffffffffffffffff166129e3919061524b565b905060008c6fffffffffffffffffffffffffffffffff16821115612a1b578c6fffffffffffffffffffffffffffffffff169050612a1f565b8190505b6103e8811115612a5057620186a063ffffffff168f61ffff1682612a43919061442c565b612a4d9190614ad9565b96505b866fffffffffffffffffffffffffffffffff1681612a6e919061524b565b975050505050505b5097509795505050505050565b6040518060a00160405280600073ffffffffffffffffffffffffffffffffffffffff168152602001600073ffffffffffffffffffffffffffffffffffffffff168152602001600073ffffffffffffffffffffffffffffffffffffffff168152602001600073ffffffffffffffffffffffffffffffffffffffff168152602001606081525090565b60405180610100016040528060006003811115612b2a57612b296131a5565b5b8152602001600015158152602001600015158152602001600061ffff168152602001600067ffffffffffffffff168152602001600067ffffffffffffffff168152602001600073ffffffffffffffffffffffffffffffffffffffff168152602001600067ffffffffffffffff1681525090565b60405180610100016040528060006fffffffffffffffffffffffffffffffff16815260200160006fffffffffffffffffffffffffffffffff16815260200160006fffffffffffffffffffffffffffffffff16815260200160006fffffffffffffffffffffffffffffffff168152602001600081526020016000815260200160008152602001600081525090565b6040518060c00160405280600061ffff168152602001600061ffff168152602001600061ffff168152602001600061ffff168152602001600061ffff168152602001600061ffff1681525090565b60405180610120016040528060006002811115612c9857612c976131a5565b5b815260200160006002811115612cb157612cb06131a5565b5b8152602001600061ffff168152602001600061ffff168152602001600067ffffffffffffffff168152602001600067ffffffffffffffff1681526020016000815260200160608152602001612d04612d5c565b81525090565b6040518060c00160405280600067ffffffffffffffff16815260200160006fffffffffffffffffffffffffffffffff168152602001600081526020016000815260200160008152602001600081525090565b60405180610100016040528060006001811115612d7c57612d7b6131a5565b5b8152602001600015158152602001600061ffff168152602001600061ffff168152602001600073ffffffffffffffffffffffffffffffffffffffff1681526020016060815260200160608152602001606081525090565b6000604051905090565b600080fd5b600080fd5b6000819050919050565b612dfa81612de7565b8114612e0557600080fd5b50565b600081359050612e1781612df1565b92915050565b60006fffffffffffffffffffffffffffffffff82169050919050565b612e4281612e1d565b8114612e4d57600080fd5b50565b600081359050612e5f81612e39565b92915050565b60008060408385031215612e7c57612e7b612ddd565b5b6000612e8a85828601612e08565b9250506020612e9b85828601612e50565b9150509250929050565b612eae81612de7565b82525050565b6000604082019050612ec96000830185612ea5565b612ed66020830184612ea5565b9392505050565b6000602082019050612ef26000830184612ea5565b92915050565b60088110612f0557600080fd5b50565b600081359050612f1781612ef8565b92915050565b600080600060608486031215612f3657612f35612ddd565b5b6000612f4486828701612f08565b9350506020612f5586828701612e08565b9250506040612f6686828701612e08565b9150509250925092565b600081519050919050565b600082825260208201905092915050565b6000819050602082019050919050565b600073ffffffffffffffffffffffffffffffffffffffff82169050919050565b6000612fc782612f9c565b9050919050565b612fd781612fbc565b82525050565b600081519050919050565b600082825260208201905092915050565b60005b83811015613017578082015181840152602081019050612ffc565b60008484015250505050565b6000601f19601f8301169050919050565b600061303f82612fdd565b6130498185612fe8565b9350613059818560208601612ff9565b61306281613023565b840191505092915050565b600060a0830160008301516130856000860182612fce565b5060208301516130986020860182612fce565b5060408301516130ab6040860182612fce565b5060608301516130be6060860182612fce565b50608083015184820360808601526130d68282613034565b9150508091505092915050565b60006130ef838361306d565b905092915050565b6000602082019050919050565b600061310f82612f70565b6131198185612f7b565b93508360208202850161312b85612f8c565b8060005b85811015613167578484038952815161314885826130e3565b9450613153836130f7565b925060208a0199505060018101905061312f565b50829750879550505050505092915050565b600081519050919050565b600082825260208201905092915050565b6000819050602082019050919050565b7f4e487b7100000000000000000000000000000000000000000000000000000000600052602160045260246000fd5b600481106131e5576131e46131a5565b5b50565b60008190506131f6826131d4565b919050565b6000613206826131e8565b9050919050565b613216816131fb565b82525050565b60008115159050919050565b6132318161321c565b82525050565b600061ffff82169050919050565b61324e81613237565b82525050565b600067ffffffffffffffff82169050919050565b61327181613254565b82525050565b6101008201600082015161328e600085018261320d565b5060208201516132a16020850182613228565b5060408201516132b46040850182613228565b5060608201516132c76060850182613245565b5060808201516132da6080850182613268565b5060a08201516132ed60a0850182613268565b5060c082015161330060c0850182612fce565b5060e082015161331360e0850182613268565b50505050565b60006133258383613277565b6101008301905092915050565b6000602082019050919050565b600061334a82613179565b6133548185613184565b935061335f83613195565b8060005b838110156133905781516133778882613319565b975061338283613332565b925050600181019050613363565b5085935050505092915050565b600081519050919050565b600082825260208201905092915050565b6000819050602082019050919050565b6133d281612e1d565b82525050565b6133e181612de7565b82525050565b610100820160008201516133fe60008501826133c9565b50602082015161341160208501826133c9565b50604082015161342460408501826133c9565b50606082015161343760608501826133c9565b50608082015161344a60808501826133d8565b5060a082015161345d60a08501826133d8565b5060c082015161347060c08501826133d8565b5060e082015161348360e08501826133d8565b50505050565b600061349583836133e7565b6101008301905092915050565b6000602082019050919050565b60006134ba8261339d565b6134c481856133a8565b93506134cf836133b9565b8060005b838110156135005781516134e78882613489565b97506134f2836134a2565b9250506001810190506134d3565b5085935050505092915050565b600081519050919050565b600082825260208201905092915050565b6000819050602082019050919050565b600061354583836133d8565b60208301905092915050565b6000602082019050919050565b60006135698261350d565b6135738185613518565b935061357e83613529565b8060005b838110156135af5781516135968882613539565b97506135a183613551565b925050600181019050613582565b5085935050505092915050565b600060a08201905081810360008301526135d68188613104565b905081810360208301526135ea818761333f565b905081810360408301526135fe81866134af565b90508181036060830152613612818561355e565b90508181036080830152613626818461355e565b90509695505050505050565b61363b81612fbc565b82525050565b60006020820190506136566000830184613632565b92915050565b6004811061366957600080fd5b50565b60008135905061367b8161365c565b92915050565b60008060006060848603121561369a57613699612ddd565b5b60006136a88682870161366c565b93505060206136b986828701612e50565b92505060406136ca86828701612e08565b9150509250925092565b6136dd81612e1d565b82525050565b60006040820190506136f86000830185612ea5565b61370560208301846136d4565b9392505050565b600060ff82169050919050565b6137228161370c565b811461372d57600080fd5b50565b60008135905061373f81613719565b92915050565b6000806040838503121561375c5761375b612ddd565b5b600061376a85828601612e50565b925050602061377b85828601613730565b9150509250929050565b60008060006060848603121561379e5761379d612ddd565b5b60006137ac86828701612e08565b93505060206137bd8682870161366c565b92505060406137ce86828701612e50565b9150509250925092565b6000602082840312156137ee576137ed612ddd565b5b60006137fc84828501612e08565b91505092915050565b600060a08301600083015161381d6000860182612fce565b5060208301516138306020860182612fce565b5060408301516138436040860182612fce565b5060608301516138566060860182612fce565b506080830151848203608086015261386e8282613034565b9150508091505092915050565b60c0820160008201516138916000850182613245565b5060208201516138a46020850182613245565b5060408201516138b76040850182613245565b5060608201516138ca6060850182613245565b5060808201516138dd6080850182613245565b5060a08201516138f060a0850182613245565b50505050565b6101008201600082015161390d600085018261320d565b5060208201516139206020850182613228565b5060408201516139336040850182613228565b5060608201516139466060850182613245565b5060808201516139596080850182613268565b5060a082015161396c60a0850182613268565b5060c082015161397f60c0850182612fce565b5060e082015161399260e0850182613268565b50505050565b610100820160008201516139af60008501826133c9565b5060208201516139c260208501826133c9565b5060408201516139d560408501826133c9565b5060608201516139e860608501826133c9565b5060808201516139fb60808501826133d8565b5060a0820151613a0e60a08501826133d8565b5060c0820151613a2160c08501826133d8565b5060e0820151613a3460e08501826133d8565b50505050565b60038110613a4b57613a4a6131a5565b5b50565b6000819050613a5c82613a3a565b919050565b6000613a6c82613a4e565b9050919050565b613a7c81613a61565b82525050565b60038110613a9357613a926131a5565b5b50565b6000819050613aa482613a82565b919050565b6000613ab482613a96565b9050919050565b613ac481613aa9565b82525050565b60028110613adb57613ada6131a5565b5b50565b6000819050613aec82613aca565b919050565b6000613afc82613ade565b9050919050565b613b0c81613af1565b82525050565b600081519050919050565b600082825260208201905092915050565b6000819050602082019050919050565b6000613b4a8383612fce565b60208301905092915050565b6000602082019050919050565b6000613b6e82613b12565b613b788185613b1d565b9350613b8383613b2e565b8060005b83811015613bb4578151613b9b8882613b3e565b9750613ba683613b56565b925050600181019050613b87565b5085935050505092915050565b600061010083016000830151613bda6000860182613b03565b506020830151613bed6020860182613228565b506040830151613c006040860182613245565b506060830151613c136060860182613245565b506080830151613c266080860182612fce565b5060a083015184820360a0860152613c3e8282613034565b91505060c083015184820360c0860152613c588282613b63565b91505060e083015184820360e0860152613c728282613b63565b9150508091505092915050565b600061012083016000830151613c986000860182613a73565b506020830151613cab6020860182613abb565b506040830151613cbe6040860182613245565b506060830151613cd16060860182613245565b506080830151613ce46080860182613268565b5060a0830151613cf760a0860182613268565b5060c0830151613d0a60c08601826133d8565b5060e083015184820360e0860152613d228282613034565b915050610100830151848203610100860152613d3e8282613bc1565b9150508091505092915050565b6000610340820190508181036000830152613d66818a613805565b9050613d75602083018961387b565b613d8260e08301886138f6565b613d906101e0830187613998565b8181036102e0830152613da38186613c7f565b9050613db3610300830185612ea5565b613dc1610320830184612ea5565b98975050505050505050565b613dd681612fbc565b8114613de157600080fd5b50565b600081359050613df381613dcd565b92915050565b600080600060608486031215613e1257613e11612ddd565b5b6000613e2086828701613de4565b9350506020613e3186828701612e08565b9250506040613e4286828701612e08565b9150509250925092565b600081519050919050565b600082825260208201905092915050565b6000819050602082019050919050565b60c082016000820151613e8e6000850182613268565b506020820151613ea160208501826133c9565b506040820151613eb460408501826133d8565b506060820151613ec760608501826133d8565b506080820151613eda60808501826133d8565b5060a0820151613eed60a08501826133d8565b50505050565b6000613eff8383613e78565b60c08301905092915050565b6000602082019050919050565b6000613f2382613e4c565b613f2d8185613e57565b9350613f3883613e68565b8060005b83811015613f69578151613f508882613ef3565b9750613f5b83613f0b565b925050600181019050613f3c565b5085935050505092915050565b60006040820190508181036000830152613f90818561355e565b90508181036020830152613fa48184613f18565b90509392505050565b60008060408385031215613fc457613fc3612ddd565b5b6000613fd285828601613de4565b9250506020613fe385828601613de4565b9150509250929050565b6000806040838503121561400457614003612ddd565b5b600061401285828601612e08565b925050602061402385828601612e08565b9150509250929050565b600081519050919050565b600082825260208201905092915050565b6000819050602082019050919050565b6000610120830160008301516140726000860182613a73565b5060208301516140856020860182613abb565b5060408301516140986040860182613245565b5060608301516140ab6060860182613245565b5060808301516140be6080860182613268565b5060a08301516140d160a0860182613268565b5060c08301516140e460c08601826133d8565b5060e083015184820360e08601526140fc8282613034565b9150506101008301518482036101008601526141188282613bc1565b9150508091505092915050565b60006141318383614059565b905092915050565b6000602082019050919050565b60006141518261402d565b61415b8185614038565b93508360208202850161416d85614049565b8060005b858110156141a9578484038952815161418a8582614125565b945061419583614139565b925060208a01995050600181019050614171565b50829750879550505050505092915050565b600060c08201905081810360008301526141d58189613104565b905081810360208301526141e9818861333f565b905081810360408301526141fd81876134af565b905081810360608301526142118186614146565b90508181036080830152614225818561355e565b905081810360a0830152614239818461355e565b9050979650505050505050565b60006020828403121561425c5761425b612ddd565b5b600061426a84828501613de4565b91505092915050565b61427c8161370c565b82525050565b60006020820190506142976000830184614273565b92915050565b600080604083850312156142b4576142b3612ddd565b5b60006142c285828601612e08565b92505060206142d385828601613de4565b9150509250929050565b60006060820190506142f260008301866136d4565b6142ff60208301856136d4565b61430c6040830184612ea5565b949350505050565b7f4e487b7100000000000000000000000000000000000000000000000000000000600052601160045260246000fd5b600061434e82612e1d565b915061435983612e1d565b925082820190506fffffffffffffffffffffffffffffffff81111561438157614380614314565b5b92915050565b60088110614398576143976131a5565b5b50565b60008190506143a982614387565b919050565b60006143b98261439b565b9050919050565b6143c9816143ae565b82525050565b60006020820190506143e460008301846143c0565b92915050565b6000815190506143f981612df1565b92915050565b60006020828403121561441557614414612ddd565b5b6000614423848285016143ea565b91505092915050565b600061443782612de7565b915061444283612de7565b925082820261445081612de7565b9150828204841483151761446757614466614314565b5b5092915050565b600061447982612de7565b915061448483612de7565b925082820190508082111561449c5761449b614314565b5b92915050565b7f4e487b7100000000000000000000000000000000000000000000000000000000600052601260045260246000fd5b60006144dc82612de7565b91506144e783612de7565b9250826144f7576144f66144a2565b5b828206905092915050565b7f4e487b7100000000000000000000000000000000000000000000000000000000600052604160045260246000fd5b7f4e487b7100000000000000000000000000000000000000000000000000000000600052603260045260246000fd5b600080fd5b61456e82613023565b810181811067ffffffffffffffff8211171561458d5761458c614502565b5b80604052505050565b60006145a0612dd3565b90506145ac8282614565565b919050565b600080fd5b600381106145c357600080fd5b50565b6000815190506145d5816145b6565b92915050565b600381106145e857600080fd5b50565b6000815190506145fa816145db565b92915050565b61460981613237565b811461461457600080fd5b50565b60008151905061462681614600565b92915050565b61463581613254565b811461464057600080fd5b50565b6000815190506146528161462c565b92915050565b600080fd5b600080fd5b600067ffffffffffffffff82111561467d5761467c614502565b5b61468682613023565b9050602081019050919050565b60006146a66146a184614662565b614596565b9050828152602081018484840111156146c2576146c161465d565b5b6146cd848285612ff9565b509392505050565b600082601f8301126146ea576146e9614658565b5b81516146fa848260208601614693565b91505092915050565b6002811061471057600080fd5b50565b60008151905061472281614703565b92915050565b6147318161321c565b811461473c57600080fd5b50565b60008151905061474e81614728565b92915050565b60008151905061476381613dcd565b92915050565b600067ffffffffffffffff82111561478457614783614502565b5b602082029050602081019050919050565b600080fd5b60006147ad6147a884614769565b614596565b905080838252602082019050602084028301858111156147d0576147cf614795565b5b835b818110156147f957806147e58882614754565b8452602084019350506020810190506147d2565b5050509392505050565b600082601f83011261481857614817614658565b5b815161482884826020860161479a565b91505092915050565b6000610100828403121561484857614847614560565b5b614853610100614596565b9050600061486384828501614713565b60008301525060206148778482850161473f565b602083015250604061488b84828501614617565b604083015250606061489f84828501614617565b60608301525060806148b384828501614754565b60808301525060a082015167ffffffffffffffff8111156148d7576148d66145b1565b5b6148e3848285016146d5565b60a08301525060c082015167ffffffffffffffff811115614907576149066145b1565b5b61491384828501614803565b60c08301525060e082015167ffffffffffffffff811115614937576149366145b1565b5b61494384828501614803565b60e08301525092915050565b6000610120828403121561496657614965614560565b5b614971610120614596565b90506000614981848285016145c6565b6000830152506020614995848285016145eb565b60208301525060406149a984828501614617565b60408301525060606149bd84828501614617565b60608301525060806149d184828501614643565b60808301525060a06149e584828501614643565b60a08301525060c06149f9848285016143ea565b60c08301525060e082015167ffffffffffffffff811115614a1d57614a1c6145b1565b5b614a29848285016146d5565b60e08301525061010082015167ffffffffffffffff811115614a4e57614a4d6145b1565b5b614a5a84828501614831565b6101008301525092915050565b600060208284031215614a7d57614a7c612ddd565b5b600082015167ffffffffffffffff811115614a9b57614a9a612de2565b5b614aa78482850161494f565b91505092915050565b6000604082019050614ac56000830185613632565b614ad26020830184612ea5565b9392505050565b6000614ae482612de7565b9150614aef83612de7565b925082614aff57614afe6144a2565b5b828204905092915050565b600082825260208201905092915050565b7f496e646578206f766572666c6f77000000000000000000000000000000000000600082015250565b6000614b51600e83614b0a565b9150614b5c82614b1b565b602082019050919050565b60006020820190508181036000830152614b8081614b44565b9050919050565b600081519050614b9681613719565b92915050565b600060208284031215614bb257614bb1612ddd565b5b6000614bc084828501614b87565b91505092915050565b7f496e76616c6964206c70416d6f756e7400000000000000000000000000000000600082015250565b6000614bff601083614b0a565b9150614c0a82614bc9565b602082019050919050565b60006020820190508181036000830152614c2e81614bf2565b9050919050565b600081519050614c4481612e39565b92915050565b60006101008284031215614c6157614c60614560565b5b614c6c610100614596565b90506000614c7c84828501614c35565b6000830152506020614c9084828501614c35565b6020830152506040614ca484828501614c35565b6040830152506060614cb884828501614c35565b6060830152506080614ccc848285016143ea565b60808301525060a0614ce0848285016143ea565b60a08301525060c0614cf4848285016143ea565b60c08301525060e0614d08848285016143ea565b60e08301525092915050565b60006101008284031215614d2b57614d2a612ddd565b5b6000614d3984828501614c4a565b91505092915050565b6000604082019050614d5760008301856143c0565b614d646020830184612ea5565b9392505050565b600060a08284031215614d8157614d80614560565b5b614d8b60a0614596565b90506000614d9b84828501614754565b6000830152506020614daf84828501614754565b6020830152506040614dc384828501614754565b6040830152506060614dd784828501614754565b606083015250608082015167ffffffffffffffff811115614dfb57614dfa6145b1565b5b614e07848285016146d5565b60808301525092915050565b600060208284031215614e2957614e28612ddd565b5b600082015167ffffffffffffffff811115614e4757614e46612de2565b5b614e5384828501614d6b565b91505092915050565b600081519050614e6b8161365c565b92915050565b60006101008284031215614e8857614e87614560565b5b614e93610100614596565b90506000614ea384828501614e5c565b6000830152506020614eb78482850161473f565b6020830152506040614ecb8482850161473f565b6040830152506060614edf84828501614617565b6060830152506080614ef384828501614643565b60808301525060a0614f0784828501614643565b60a08301525060c0614f1b84828501614754565b60c08301525060e0614f2f84828501614643565b60e08301525092915050565b60006101008284031215614f5257614f51612ddd565b5b6000614f6084828501614e71565b91505092915050565b6000604082019050614f7e6000830185612ea5565b614f8b6020830184613632565b9392505050565b600060c08284031215614fa857614fa7614560565b5b614fb260c0614596565b90506000614fc284828501614617565b6000830152506020614fd684828501614617565b6020830152506040614fea84828501614617565b6040830152506060614ffe84828501614617565b606083015250608061501284828501614617565b60808301525060a061502684828501614617565b60a08301525092915050565b600060c0828403121561504857615047612ddd565b5b600061505684828501614f92565b91505092915050565b60008160011c9050919050565b6000808291508390505b60018511156150b65780860481111561509257615091614314565b5b60018516156150a15780820291505b80810290506150af8561505f565b9450615076565b94509492505050565b6000826150cf576001905061518b565b816150dd576000905061518b565b81600181146150f357600281146150fd5761512c565b600191505061518b565b60ff84111561510f5761510e614314565b5b8360020a91508482111561512657615125614314565b5b5061518b565b5060208310610133831016604e8410600b84101617156151615782820a90508381111561515c5761515b614314565b5b61518b565b61516e848484600161506c565b9250905081840481111561518557615184614314565b5b81810290505b9392505050565b600061519d82612de7565b91506151a88361370c565b92506151d57fffffffffffffffffffffffffffffffffffffffffffffffffffffffffffffffff84846150bf565b905092915050565b60006151e882612e1d565b91506151f383612e1d565b925082615203576152026144a2565b5b828204905092915050565b600061521982612e1d565b915061522483612e1d565b925082820261523281612e1d565b915080821461524457615243614314565b5b5092915050565b600061525682612de7565b915061526183612de7565b925082820390508181111561527957615278614314565b5b92915050565b600060c0828403121561529557615294614560565b5b61529f60c0614596565b905060006152af84828501614643565b60008301525060206152c384828501614c35565b60208301525060406152d7848285016143ea565b60408301525060606152eb848285016143ea565b60608301525060806152ff848285016143ea565b60808301525060a0615313848285016143ea565b60a08301525092915050565b600060c0828403121561533557615334612ddd565b5b60006153438482850161527f565b91505092915050565b600061535782612e1d565b915061536283612e1d565b925082820390506fffffffffffffffffffffffffffffffff81111561538a57615389614314565b5b9291505056fea26469706673582212209498d638f86efefefe944d5c5c8c367cfdd56b87c90ece843ff8fc623532967764736f6c634300081a0033",
  "linkReferences": {},
  "deployedLinkReferences": {}
}