{
        "_format": "hh-sol-artifact-1",
        "contractName": "AroundMarket",
        "sourceName": "contracts/core/AroundMarket.sol",
        "abi": [
                {
                        "inputs": [],
                        "name": "AlreadyInitialize",
                        "type": "error"
                },
                {
                        "inputs": [],
                        "name": "AlreadyWithdraw",
                        "type": "error"
                },
                {
                        "inputs": [],
                        "name": "InsufficientBalance",
                        "type": "error"
                },
                {
                        "inputs": [],
                        "name": "InvalidLpShare",
                        "type": "error"
                },
                {
                        "inputs": [],
                        "name": "InvalidMarketId",
                        "type": "error"
                },
                {
                        "inputs": [],
                        "name": "InvalidOutput",
                        "type": "error"
                },
                {
                        "inputs": [],
                        "name": "InvalidPeriod",
                        "type": "error"
                },
                {
                        "inputs": [],
                        "name": "InvalidRandomNumber",
                        "type": "error"
                },
                {
                        "inputs": [],
                        "name": "InvalidState",
                        "type": "error"
                },
                {
                        "inputs": [],
                        "name": "InvalidVirtualAmount",
                        "type": "error"
                },
                {
                        "inputs": [],
                        "name": "LiquidityWayClosed",
                        "type": "error"
                },
                {
                        "inputs": [],
                        "name": "MarketAlreadyEnd",
                        "type": "error"
                },
                {
                        "inputs": [],
                        "name": "MarketClosed",
                        "type": "error"
                },
                {
                        "inputs": [],
                        "name": "NonMultiSig",
                        "type": "error"
                },
                {
                        "inputs": [],
                        "name": "NotTimeYet",
                        "type": "error"
                },
                {
                        "inputs": [],
                        "name": "NotWithdrawTime",
                        "type": "error"
                },
                {
                        "inputs": [],
                        "name": "ReentrancyGuardReentrantCall",
                        "type": "error"
                },
                {
                        "inputs": [
                                {
                                        "internalType": "address",
                                        "name": "token",
                                        "type": "address"
                                }
                        ],
                        "name": "SafeERC20FailedOperation",
                        "type": "error"
                },
                {
                        "inputs": [],
                        "name": "TouchAroundErr",
                        "type": "error"
                },
                {
                        "inputs": [],
                        "name": "TouchOracleErr",
                        "type": "error"
                },
                {
                        "inputs": [],
                        "name": "ZeroAddress",
                        "type": "error"
                },
                {
                        "inputs": [],
                        "name": "ZeroAmount",
                        "type": "error"
                },
                {
                        "inputs": [],
                        "name": "ZeroParticipant",
                        "type": "error"
                },
                {
                        "anonymous": false,
                        "inputs": [
                                {
                                        "indexed": false,
                                        "internalType": "uint256",
                                        "name": "thisMarketId",
                                        "type": "uint256"
                                },
                                {
                                        "indexed": false,
                                        "internalType": "address",
                                        "name": "lpProvider",
                                        "type": "address"
                                },
                                {
                                        "indexed": false,
                                        "internalType": "uint256",
                                        "name": "value",
                                        "type": "uint256"
                                }
                        ],
                        "name": "AddLiqudity",
                        "type": "event"
                },
                {
                        "anonymous": false,
                        "inputs": [
                                {
                                        "indexed": false,
                                        "internalType": "uint256",
                                        "name": "thisMarketId",
                                        "type": "uint256"
                                },
                                {
                                        "indexed": false,
                                        "internalType": "address",
                                        "name": "buyer",
                                        "type": "address"
                                },
                                {
                                        "indexed": false,
                                        "internalType": "enum IAroundMarket.Result",
                                        "name": "bet",
                                        "type": "uint8"
                                },
                                {
                                        "indexed": false,
                                        "internalType": "uint256",
                                        "name": "value",
                                        "type": "uint256"
                                }
                        ],
                        "name": "Buy",
                        "type": "event"
                },
                {
                        "anonymous": false,
                        "inputs": [
                                {
                                        "indexed": false,
                                        "internalType": "uint256",
                                        "name": "thisNewMarketId",
                                        "type": "uint256"
                                }
                        ],
                        "name": "CreateNewMarket",
                        "type": "event"
                },
                {
                        "anonymous": false,
                        "inputs": [
                                {
                                        "indexed": false,
                                        "internalType": "uint256",
                                        "name": "thisMarketId",
                                        "type": "uint256"
                                },
                                {
                                        "indexed": false,
                                        "internalType": "address",
                                        "name": "user",
                                        "type": "address"
                                },
                                {
                                        "indexed": false,
                                        "internalType": "uint256",
                                        "name": "value",
                                        "type": "uint256"
                                }
                        ],
                        "name": "Release",
                        "type": "event"
                },
                {
                        "anonymous": false,
                        "inputs": [
                                {
                                        "indexed": false,
                                        "internalType": "uint256",
                                        "name": "thisMarketId",
                                        "type": "uint256"
                                },
                                {
                                        "indexed": false,
                                        "internalType": "address",
                                        "name": "lpProvider",
                                        "type": "address"
                                },
                                {
                                        "indexed": false,
                                        "internalType": "uint256",
                                        "name": "lpAmount",
                                        "type": "uint256"
                                }
                        ],
                        "name": "RemoveLiqudity",
                        "type": "event"
                },
                {
                        "anonymous": false,
                        "inputs": [
                                {
                                        "indexed": false,
                                        "internalType": "uint256",
                                        "name": "thisMarketId",
                                        "type": "uint256"
                                },
                                {
                                        "indexed": false,
                                        "internalType": "address",
                                        "name": "seller",
                                        "type": "address"
                                },
                                {
                                        "indexed": false,
                                        "internalType": "enum IAroundMarket.Result",
                                        "name": "bet",
                                        "type": "uint8"
                                },
                                {
                                        "indexed": false,
                                        "internalType": "uint256",
                                        "name": "amount",
                                        "type": "uint256"
                                }
                        ],
                        "name": "Sell",
                        "type": "event"
                },
                {
                        "inputs": [],
                        "name": "DefaultVirtualLiquidity",
                        "outputs": [
                                {
                                        "internalType": "uint32",
                                        "name": "",
                                        "type": "uint32"
                                }
                        ],
                        "stateMutability": "view",
                        "type": "function"
                },
                {
                        "inputs": [
                                {
                                        "internalType": "uint256",
                                        "name": "thisMarketId",
                                        "type": "uint256"
                                },
                                {
                                        "internalType": "uint128",
                                        "name": "amount",
                                        "type": "uint128"
                                }
                        ],
                        "name": "addLiquidity",
                        "outputs": [],
                        "stateMutability": "nonpayable",
                        "type": "function"
                },
                {
                        "inputs": [],
                        "name": "aroundPoolFactory",
                        "outputs": [
                                {
                                        "internalType": "address",
                                        "name": "",
                                        "type": "address"
                                }
                        ],
                        "stateMutability": "view",
                        "type": "function"
                },
                {
                        "inputs": [
                                {
                                        "internalType": "enum IAroundMarket.Result",
                                        "name": "bet",
                                        "type": "uint8"
                                },
                                {
                                        "internalType": "uint128",
                                        "name": "amount",
                                        "type": "uint128"
                                },
                                {
                                        "internalType": "uint256",
                                        "name": "thisMarketId",
                                        "type": "uint256"
                                }
                        ],
                        "name": "buy",
                        "outputs": [],
                        "stateMutability": "nonpayable",
                        "type": "function"
                },
                {
                        "inputs": [
                                {
                                        "internalType": "address",
                                        "name": "newFeeReceiver",
                                        "type": "address"
                                }
                        ],
                        "name": "changeFeeReceiver",
                        "outputs": [],
                        "stateMutability": "nonpayable",
                        "type": "function"
                },
                {
                        "inputs": [
                                {
                                        "internalType": "uint32",
                                        "name": "period",
                                        "type": "uint32"
                                },
                                {
                                        "internalType": "uint128",
                                        "name": "expectVirtualLiquidity",
                                        "type": "uint128"
                                },
                                {
                                        "internalType": "uint256",
                                        "name": "thisMarketId",
                                        "type": "uint256"
                                },
                                {
                                        "internalType": "uint256",
                                        "name": "amount",
                                        "type": "uint256"
                                }
                        ],
                        "name": "createMarket",
                        "outputs": [],
                        "stateMutability": "nonpayable",
                        "type": "function"
                },
                {
                        "inputs": [],
                        "name": "feeReceiver",
                        "outputs": [
                                {
                                        "internalType": "address",
                                        "name": "",
                                        "type": "address"
                                }
                        ],
                        "stateMutability": "view",
                        "type": "function"
                },
                {
                        "inputs": [
                                {
                                        "internalType": "uint256",
                                        "name": "thisMarketId",
                                        "type": "uint256"
                                }
                        ],
                        "name": "getFeeInfo",
                        "outputs": [
                                {
                                        "components": [
                                                {
                                                        "internalType": "uint16",
                                                        "name": "officialFee",
                                                        "type": "uint16"
                                                },
                                                {
                                                        "internalType": "uint16",
                                                        "name": "luckyFee",
                                                        "type": "uint16"
                                                },
                                                {
                                                        "internalType": "uint16",
                                                        "name": "oracleFee",
                                                        "type": "uint16"
                                                },
                                                {
                                                        "internalType": "uint16",
                                                        "name": "creatorFee",
                                                        "type": "uint16"
                                                },
                                                {
                                                        "internalType": "uint16",
                                                        "name": "liquidityFee",
                                                        "type": "uint16"
                                                },
                                                {
                                                        "internalType": "uint16",
                                                        "name": "totalFee",
                                                        "type": "uint16"
                                                }
                                        ],
                                        "internalType": "struct IAroundPoolFactory.FeeInfo",
                                        "name": "thisFeeInfo",
                                        "type": "tuple"
                                }
                        ],
                        "stateMutability": "view",
                        "type": "function"
                },
                {
                        "inputs": [
                                {
                                        "internalType": "uint256",
                                        "name": "thisMarketId",
                                        "type": "uint256"
                                }
                        ],
                        "name": "getLiqudityInfo",
                        "outputs": [
                                {
                                        "components": [
                                                {
                                                        "internalType": "uint128",
                                                        "name": "virtualLiquidity",
                                                        "type": "uint128"
                                                },
                                                {
                                                        "internalType": "uint128",
                                                        "name": "tradeCollateralAmount",
                                                        "type": "uint128"
                                                },
                                                {
                                                        "internalType": "uint128",
                                                        "name": "lpCollateralAmount",
                                                        "type": "uint128"
                                                },
                                                {
                                                        "internalType": "uint128",
                                                        "name": "liquidityFeeAmount",
                                                        "type": "uint128"
                                                },
                                                {
                                                        "internalType": "uint256",
                                                        "name": "totalLp",
                                                        "type": "uint256"
                                                },
                                                {
                                                        "internalType": "uint256",
                                                        "name": "yesAmount",
                                                        "type": "uint256"
                                                },
                                                {
                                                        "internalType": "uint256",
                                                        "name": "noAmount",
                                                        "type": "uint256"
                                                },
                                                {
                                                        "internalType": "uint256",
                                                        "name": "volume",
                                                        "type": "uint256"
                                                }
                                        ],
                                        "internalType": "struct IAroundMarket.LiqudityInfo",
                                        "name": "thisLiqudityInfo",
                                        "type": "tuple"
                                }
                        ],
                        "stateMutability": "view",
                        "type": "function"
                },
                {
                        "inputs": [
                                {
                                        "internalType": "uint256",
                                        "name": "thisMarketId",
                                        "type": "uint256"
                                }
                        ],
                        "name": "getMarketInfo",
                        "outputs": [
                                {
                                        "components": [
                                                {
                                                        "internalType": "enum IAroundMarket.Result",
                                                        "name": "result",
                                                        "type": "uint8"
                                                },
                                                {
                                                        "internalType": "bool",
                                                        "name": "ifOpenAave",
                                                        "type": "bool"
                                                },
                                                {
                                                        "internalType": "bool",
                                                        "name": "ifUpdateFinallyAmount",
                                                        "type": "bool"
                                                },
                                                {
                                                        "internalType": "uint64",
                                                        "name": "participants",
                                                        "type": "uint64"
                                                },
                                                {
                                                        "internalType": "uint64",
                                                        "name": "startTime",
                                                        "type": "uint64"
                                                },
                                                {
                                                        "internalType": "uint64",
                                                        "name": "endTime",
                                                        "type": "uint64"
                                                },
                                                {
                                                        "internalType": "address",
                                                        "name": "collateral",
                                                        "type": "address"
                                                },
                                                {
                                                        "internalType": "uint64",
                                                        "name": "totalRaffleTicket",
                                                        "type": "uint64"
                                                }
                                        ],
                                        "internalType": "struct IAroundMarket.MarketInfo",
                                        "name": "thisMarketInfo",
                                        "type": "tuple"
                                }
                        ],
                        "stateMutability": "view",
                        "type": "function"
                },
                {
                        "inputs": [
                                {
                                        "internalType": "address",
                                        "name": "user",
                                        "type": "address"
                                }
                        ],
                        "name": "getUserParticipateIdsLen",
                        "outputs": [
                                {
                                        "internalType": "uint256",
                                        "name": "",
                                        "type": "uint256"
                                }
                        ],
                        "stateMutability": "view",
                        "type": "function"
                },
                {
                        "inputs": [
                                {
                                        "internalType": "address",
                                        "name": "user",
                                        "type": "address"
                                },
                                {
                                        "internalType": "uint256",
                                        "name": "thisMarketId",
                                        "type": "uint256"
                                }
                        ],
                        "name": "getUserPosition",
                        "outputs": [
                                {
                                        "components": [
                                                {
                                                        "internalType": "uint64",
                                                        "name": "raffleTicketNumber",
                                                        "type": "uint64"
                                                },
                                                {
                                                        "internalType": "uint128",
                                                        "name": "collateralAmount",
                                                        "type": "uint128"
                                                },
                                                {
                                                        "internalType": "uint256",
                                                        "name": "yesBalance",
                                                        "type": "uint256"
                                                },
                                                {
                                                        "internalType": "uint256",
                                                        "name": "noBalance",
                                                        "type": "uint256"
                                                },
                                                {
                                                        "internalType": "uint256",
                                                        "name": "lp",
                                                        "type": "uint256"
                                                },
                                                {
                                                        "internalType": "uint256",
                                                        "name": "volume",
                                                        "type": "uint256"
                                                }
                                        ],
                                        "internalType": "struct IAroundMarket.UserPosition",
                                        "name": "thisUserPosition",
                                        "type": "tuple"
                                }
                        ],
                        "stateMutability": "view",
                        "type": "function"
                },
                {
                        "inputs": [
                                {
                                        "internalType": "address",
                                        "name": "user",
                                        "type": "address"
                                },
                                {
                                        "internalType": "uint256",
                                        "name": "index",
                                        "type": "uint256"
                                }
                        ],
                        "name": "indexUserParticipateId",
                        "outputs": [
                                {
                                        "internalType": "uint256",
                                        "name": "participateId",
                                        "type": "uint256"
                                }
                        ],
                        "stateMutability": "view",
                        "type": "function"
                },
                {
                        "inputs": [
                                {
                                        "internalType": "address",
                                        "name": "thisMultiSig",
                                        "type": "address"
                                },
                                {
                                        "internalType": "address",
                                        "name": "thisAroundPoolFactory",
                                        "type": "address"
                                },
                                {
                                        "internalType": "address",
                                        "name": "thisOracle",
                                        "type": "address"
                                }
                        ],
                        "name": "initialize",
                        "outputs": [],
                        "stateMutability": "nonpayable",
                        "type": "function"
                },
                {
                        "inputs": [],
                        "name": "isInitialize",
                        "outputs": [
                                {
                                        "internalType": "bool",
                                        "name": "",
                                        "type": "bool"
                                }
                        ],
                        "stateMutability": "view",
                        "type": "function"
                },
                {
                        "inputs": [],
                        "name": "multiSig",
                        "outputs": [
                                {
                                        "internalType": "address",
                                        "name": "",
                                        "type": "address"
                                }
                        ],
                        "stateMutability": "view",
                        "type": "function"
                },
                {
                        "inputs": [],
                        "name": "oracle",
                        "outputs": [
                                {
                                        "internalType": "address",
                                        "name": "",
                                        "type": "address"
                                }
                        ],
                        "stateMutability": "view",
                        "type": "function"
                },
                {
                        "inputs": [
                                {
                                        "internalType": "uint256",
                                        "name": "",
                                        "type": "uint256"
                                },
                                {
                                        "internalType": "uint64",
                                        "name": "",
                                        "type": "uint64"
                                }
                        ],
                        "name": "raffleTicketToUser",
                        "outputs": [
                                {
                                        "internalType": "address",
                                        "name": "",
                                        "type": "address"
                                }
                        ],
                        "stateMutability": "view",
                        "type": "function"
                },
                {
                        "inputs": [
                                {
                                        "internalType": "uint256",
                                        "name": "thisMarketId",
                                        "type": "uint256"
                                }
                        ],
                        "name": "redeemWinnings",
                        "outputs": [
                                {
                                        "internalType": "uint256",
                                        "name": "winnings",
                                        "type": "uint256"
                                }
                        ],
                        "stateMutability": "nonpayable",
                        "type": "function"
                },
                {
                        "inputs": [
                                {
                                        "internalType": "uint256",
                                        "name": "thisMarketId",
                                        "type": "uint256"
                                },
                                {
                                        "internalType": "uint128",
                                        "name": "lpAmount",
                                        "type": "uint128"
                                }
                        ],
                        "name": "removeLiquidity",
                        "outputs": [],
                        "stateMutability": "nonpayable",
                        "type": "function"
                },
                {
                        "inputs": [
                                {
                                        "internalType": "enum IAroundMarket.Result",
                                        "name": "bet",
                                        "type": "uint8"
                                },
                                {
                                        "internalType": "uint256",
                                        "name": "amount",
                                        "type": "uint256"
                                },
                                {
                                        "internalType": "uint256",
                                        "name": "thisMarketId",
                                        "type": "uint256"
                                }
                        ],
                        "name": "sell",
                        "outputs": [],
                        "stateMutability": "nonpayable",
                        "type": "function"
                },
                {
                        "inputs": [
                                {
                                        "internalType": "uint256",
                                        "name": "thisMarketId",
                                        "type": "uint256"
                                }
                        ],
                        "name": "setInvalidMarket",
                        "outputs": [],
                        "stateMutability": "nonpayable",
                        "type": "function"
                },
                {
                        "inputs": [
                                {
                                        "internalType": "uint256",
                                        "name": "thisMarketId",
                                        "type": "uint256"
                                },
                                {
                                        "internalType": "bool",
                                        "name": "state",
                                        "type": "bool"
                                }
                        ],
                        "name": "setMarketOpenAave",
                        "outputs": [],
                        "stateMutability": "nonpayable",
                        "type": "function"
                },
                {
                        "inputs": [
                                {
                                        "internalType": "uint256",
                                        "name": "thisMarketId",
                                        "type": "uint256"
                                }
                        ],
                        "name": "touchAllot",
                        "outputs": [],
                        "stateMutability": "nonpayable",
                        "type": "function"
                },
                {
                        "inputs": [
                                {
                                        "internalType": "uint256",
                                        "name": "thisMarketId",
                                        "type": "uint256"
                                }
                        ],
                        "name": "updateFinallyAmount",
                        "outputs": [],
                        "stateMutability": "nonpayable",
                        "type": "function"
                }
        ],
        "bytecode": "0x6080604052620186a0600160006101000a81548163ffffffff021916908363ffffffff160217905550348015603357600080fd5b506001600081905550615fc28061004b6000396000f3fe608060405234801561001057600080fd5b50600436106101735760003560e01c8063911757ba116100de578063b415ce8911610097578063d45c267a11610071578063d45c267a14610446578063d7ed745314610476578063db3b0a49146104a6578063df24805d146104c257610173565b8063b415ce89146103de578063c0c53b8b146103fa578063d3432f8b1461041657610173565b8063911757ba146103345780639af9a1ed146103505780639fa89e1c1461036c578063a084ffcd14610388578063b1d9ce27146103a4578063b3f00674146103c057610173565b80633ec79193116101305780633ec791931461026057806346280a801461029057806379cce6b8146102ac5780637c08b964146102dc5780637dc0d1d0146102f85780637e4d111c1461031657610173565b80630de5208b146101785780631c88ef1e146101945780631ef27dee146101c4578063281a60bf146101e2578063318fe3121461021257806336e0004a14610242575b600080fd5b610192600480360381019061018d9190614b78565b6104e0565b005b6101ae60048036038101906101a99190614c16565b61080b565b6040516101bb9190614d12565b60405180910390f35b6101cc61091a565b6040516101d99190614d3c565b60405180910390f35b6101fc60048036038101906101f79190614c16565b610940565b6040516102099190614d66565b60405180910390f35b61022c60048036038101906102279190614dad565b6109a6565b6040516102399190614d3c565b60405180910390f35b61024a6109e8565b6040516102579190614d3c565b60405180910390f35b61027a60048036038101906102759190614ded565b610a0e565b6040516102879190614f5d565b60405180910390f35b6102aa60048036038101906102a59190614f9e565b610bcb565b005b6102c660048036038101906102c19190614ff1565b611132565b6040516102d39190614d66565b60405180910390f35b6102f660048036038101906102f19190614ff1565b61117e565b005b6103006111ca565b60405161030d9190614d3c565b60405180910390f35b61031e6111f0565b60405161032b919061503d565b60405180910390f35b61034e60048036038101906103499190614b78565b611206565b005b61036a60048036038101906103659190615084565b6116a1565b005b61038660048036038101906103819190614ded565b6116db565b005b6103a2600480360381019061039d91906150f0565b6116ef565b005b6103be60048036038101906103b99190614ded565b611b52565b005b6103c8611ebe565b6040516103d59190614d3c565b60405180910390f35b6103f860048036038101906103f39190615157565b611ee4565b005b610414600480360381019061040f91906151aa565b6123c2565b005b610430600480360381019061042b9190614ded565b61254f565b60405161043d919061529f565b60405180910390f35b610460600480360381019061045b9190614ded565b6126cd565b60405161046d9190615353565b60405180910390f35b610490600480360381019061048b9190614ded565b61277a565b60405161049d9190614d66565b60405180910390f35b6104c060048036038101906104bb9190614ded565b612bca565b005b6104ca612c14565b6040516104d7919061537d565b60405180910390f35b6104e8612c27565b6104f182612c6d565b61050c816fffffffffffffffffffffffffffffffff16612cbf565b61051582612cfc565b61052181600084612d68565b6000806105636000846105338761254f565b600001516105408861254f565b6080015161054d8961254f565b60a0015161055a8a61254f565b60c00151612e2e565b9150915060006105a3846105768761254f565b606001516105838861254f565b6040015161059191906153c7565b61059a8861254f565b60800151612efe565b9050826006600087815260200190815260200160002060030160008282546105cb919061540b565b92505081905550816006600087815260200190815260200160002060040160008282546105f8919061540b565b92505081905550836006600087815260200190815260200160002060010160008282829054906101000a90046fffffffffffffffffffffffffffffffff1661064091906153c7565b92506101000a8154816fffffffffffffffffffffffffffffffff02191690836fffffffffffffffffffffffffffffffff1602179055508060066000878152602001908152602001600020600201600082825461069c919061540b565b9250508190555080600760003373ffffffffffffffffffffffffffffffffffffffff1673ffffffffffffffffffffffffffffffffffffffff16815260200190815260200160002060008781526020019081526020016000206003016000828254610706919061540b565b9250508190555083600760003373ffffffffffffffffffffffffffffffffffffffff1673ffffffffffffffffffffffffffffffffffffffff168152602001908152602001600020600087815260200190815260200160002060000160088282829054906101000a90046fffffffffffffffffffffffffffffffff1661078b91906153c7565b92506101000a8154816fffffffffffffffffffffffffffffffff02191690836fffffffffffffffffffffffffffffffff1602179055507f0a5aa781a237eb6887c24bfca7b9bb7b94fc4518275fa789021ed507fa27da4b8533866040516107f49392919061547a565b60405180910390a1505050610807612f66565b5050565b610813614899565b600760008473ffffffffffffffffffffffffffffffffffffffff1673ffffffffffffffffffffffffffffffffffffffff16815260200190815260200160002060008381526020019081526020016000206040518060c00160405290816000820160009054906101000a900467ffffffffffffffff1667ffffffffffffffff1667ffffffffffffffff1681526020016000820160089054906101000a90046fffffffffffffffffffffffffffffffff166fffffffffffffffffffffffffffffffff166fffffffffffffffffffffffffffffffff168152602001600182015481526020016002820154815260200160038201548152602001600482015481525050905092915050565b600360009054906101000a900473ffffffffffffffffffffffffffffffffffffffff1681565b6000600960008473ffffffffffffffffffffffffffffffffffffffff1673ffffffffffffffffffffffffffffffffffffffff1681526020019081526020016000208281548110610993576109926154b1565b5b9060005260206000200154905092915050565b600a6020528160005260406000206020528060005260406000206000915091509054906101000a900473ffffffffffffffffffffffffffffffffffffffff1681565b600160049054906101000a900473ffffffffffffffffffffffffffffffffffffffff1681565b610a166148eb565b60056000838152602001908152602001600020604051806101000160405290816000820160009054906101000a900460ff166003811115610a5a57610a59614e1a565b5b6003811115610a6c57610a6b614e1a565b5b81526020016000820160019054906101000a900460ff161515151581526020016000820160029054906101000a900460ff161515151581526020016000820160039054906101000a900467ffffffffffffffff1667ffffffffffffffff1667ffffffffffffffff16815260200160008201600b9054906101000a900467ffffffffffffffff1667ffffffffffffffff1667ffffffffffffffff1681526020016000820160139054906101000a900467ffffffffffffffff1667ffffffffffffffff1667ffffffffffffffff1681526020016001820160009054906101000a900473ffffffffffffffffffffffffffffffffffffffff1673ffffffffffffffffffffffffffffffffffffffff1673ffffffffffffffffffffffffffffffffffffffff1681526020016001820160149054906101000a900467ffffffffffffffff1667ffffffffffffffff1667ffffffffffffffff16815250509050919050565b610bd3612c27565b610bdc82612cbf565b610be581612c6d565b6000610bf0826126cd565b60a001519050600080610c458684610c078761254f565b60000151610c148861254f565b60200151610c218961254f565b604001518a610c2f8b61254f565b60a00151610c3c8c61254f565b60c00151612f70565b80935081925050506000826fffffffffffffffffffffffffffffffff1682610c6d919061540b565b905080600760003373ffffffffffffffffffffffffffffffffffffffff1673ffffffffffffffffffffffffffffffffffffffff16815260200190815260200160002060008781526020019081526020016000206004016000828254019250508190555080610cda8661254f565b602001516fffffffffffffffffffffffffffffffff161015610d28576040517f98f7360900000000000000000000000000000000000000000000000000000000815260040160405180910390fd5b60016003811115610d3c57610d3b614e1a565b5b876003811115610d4f57610d4e614e1a565b5b03610e375785610d5f338761080b565b604001511015610d9b576040517ff4d678b800000000000000000000000000000000000000000000000000000000815260040160405180910390fd5b85600760003373ffffffffffffffffffffffffffffffffffffffff1673ffffffffffffffffffffffffffffffffffffffff16815260200190815260200160002060008781526020019081526020016000206001016000828254610dfe91906154e0565b9250508190555085600660008781526020019081526020016000206003016000828254610e2b91906154e0565b92505081905550610f16565b85610e42338761080b565b606001511015610e7e576040517ff4d678b800000000000000000000000000000000000000000000000000000000815260040160405180910390fd5b85600760003373ffffffffffffffffffffffffffffffffffffffff1673ffffffffffffffffffffffffffffffffffffffff16815260200190815260200160002060008781526020019081526020016000206002016000828254610ee191906154e0565b9250508190555085600660008781526020019081526020016000206004016000828254610f0e91906154e0565b925050819055505b806006600087815260200190815260200160002060000160108282829054906101000a90046fffffffffffffffffffffffffffffffff16610f579190615514565b92506101000a8154816fffffffffffffffffffffffffffffffff02191690836fffffffffffffffffffffffffffffffff16021790555060008461ffff16610f9d876126cd565b6080015161ffff1685610fb09190615558565b610fba91906155c4565b9050806006600088815260200190815260200160002060010160108282829054906101000a90046fffffffffffffffffffffffffffffffff16610ffd91906153c7565b92506101000a8154816fffffffffffffffffffffffffffffffff02191690836fffffffffffffffffffffffffffffffff160217905550611072600061104188610a0e565b60200151836fffffffffffffffffffffffffffffffff168561106391906154e0565b61106c8a61300d565b30613023565b6110a933846110808961314a565b6000015173ffffffffffffffffffffffffffffffffffffffff166131fa9092919063ffffffff16565b506000836fffffffffffffffffffffffffffffffff1611156110d1576110d0848487613279565b5b6110db858261351f565b6110e4856136e1565b7f92b515cd4bebbb47db13d936d9f36b39234668da9debfd4bbfa49aea6bc135f1853389896040516111199493929190615604565b60405180910390a15050505061112d612f66565b505050565b6000600960008373ffffffffffffffffffffffffffffffffffffffff1673ffffffffffffffffffffffffffffffffffffffff168152602001908152602001600020805490509050919050565b6111866138b0565b80600260006101000a81548173ffffffffffffffffffffffffffffffffffffffff021916908373ffffffffffffffffffffffffffffffffffffffff16021790555050565b600460009054906101000a900473ffffffffffffffffffffffffffffffffffffffff1681565b600160009054906101000a900463ffffffff1681565b61120e612c27565b61121782613939565b6000816fffffffffffffffffffffffffffffffff1614806112565750806fffffffffffffffffffffffffffffffff16611250338461080b565b60800151105b1561128d576040517f39e9b42000000000000000000000000000000000000000000000000000000000815260040160405180910390fd5b60006112988361254f565b6080015190506000806112e66112ad8661254f565b606001516112bb338861080b565b60200151866fffffffffffffffffffffffffffffffff166112dc338a61080b565b608001518761398c565b9150915061131081836112f991906153c7565b6fffffffffffffffffffffffffffffffff16612cbf565b60008061135161131f88610a0e565b600001518761132d8a61254f565b600001518861133b8c61254f565b60a001516113488d61254f565b60c00151612e2e565b915091508160066000898152602001908152602001600020600301600082825461137b91906154e0565b92505081905550806006600089815260200190815260200160002060040160008282546113a891906154e0565b92505081905550836006600089815260200190815260200160002060010160008282829054906101000a90046fffffffffffffffffffffffffffffffff166113f09190615514565b92506101000a8154816fffffffffffffffffffffffffffffffff02191690836fffffffffffffffffffffffffffffffff160217905550856fffffffffffffffffffffffffffffffff1660066000898152602001908152602001600020600201600082825461145e91906154e0565b92505081905550856fffffffffffffffffffffffffffffffff16600760003373ffffffffffffffffffffffffffffffffffffffff1673ffffffffffffffffffffffffffffffffffffffff168152602001908152602001600020600089815260200190815260200160002060030160008282546114da91906154e0565b9250508190555083600760003373ffffffffffffffffffffffffffffffffffffffff1673ffffffffffffffffffffffffffffffffffffffff168152602001908152602001600020600089815260200190815260200160002060000160088282829054906101000a90046fffffffffffffffffffffffffffffffff1661155f9190615514565b92506101000a8154816fffffffffffffffffffffffffffffffff02191690836fffffffffffffffffffffffffffffffff1602179055506000836fffffffffffffffffffffffffffffffff16111561162857826006600089815260200190815260200160002060010160108282829054906101000a90046fffffffffffffffffffffffffffffffff166115f19190615514565b92506101000a8154816fffffffffffffffffffffffffffffffff02191690836fffffffffffffffffffffffffffffffff1602179055505b611655600061163689610a0e565b60200151858761164691906153c7565b61164f8b61300d565b33613023565b7f49e936582568d70be6dcbf8df07f38b07bc0a07e9ccd53d358361ca96fe380fa8733886040516116889392919061547a565b60405180910390a1505050505061169d612f66565b5050565b6116a96138b0565b806005600084815260200190815260200160002060000160016101000a81548160ff0219169083151502179055505050565b6116e36138b0565b6116ec816139ef565b50565b60006116fa8361314a565b600001519050600061170b82613cfc565b9050600042905060008763ffffffff16826117269190615649565b9050600073ffffffffffffffffffffffffffffffffffffffff166117498761314a565b6060015173ffffffffffffffffffffffffffffffffffffffff161480156117a55750600060056000888152602001908152602001600020600001600b9054906101000a900467ffffffffffffffff1667ffffffffffffffff1614155b156117dc576040517f06417a6000000000000000000000000000000000000000000000000000000000815260040160405180910390fd5b6138408863ffffffff16101561181e576040517f17479ac800000000000000000000000000000000000000000000000000000000815260040160405180910390fd5b60006118438489600160009054906101000a900463ffffffff1663ffffffff16613d74565b905080861461185157600080fd5b61187e85600260009054906101000a900473ffffffffffffffffffffffffffffffffffffffff1683613e9d565b6040518061010001604052806000600381111561189e5761189d614e1a565b5b8152602001600015158152602001600015158152602001600067ffffffffffffffff1681526020018467ffffffffffffffff1681526020018367ffffffffffffffff1681526020018673ffffffffffffffffffffffffffffffffffffffff168152602001600067ffffffffffffffff168152506005600089815260200190815260200160002060008201518160000160006101000a81548160ff0219169083600381111561194f5761194e614e1a565b5b021790555060208201518160000160016101000a81548160ff02191690831515021790555060408201518160000160026101000a81548160ff02191690831515021790555060608201518160000160036101000a81548167ffffffffffffffff021916908367ffffffffffffffff160217905550608082015181600001600b6101000a81548167ffffffffffffffff021916908367ffffffffffffffff16021790555060a08201518160000160136101000a81548167ffffffffffffffff021916908367ffffffffffffffff16021790555060c08201518160010160006101000a81548173ffffffffffffffffffffffffffffffffffffffff021916908373ffffffffffffffffffffffffffffffffffffffff16021790555060e08201518160010160146101000a81548167ffffffffffffffff021916908367ffffffffffffffff16021790555090505083600a611aa791906157c5565b886fffffffffffffffffffffffffffffffff16611ac49190615810565b6006600089815260200190815260200160002060000160006101000a8154816fffffffffffffffffffffffffffffffff02191690836fffffffffffffffffffffffffffffffff1602179055507f5556f7c57a7cc39e99eb49a568d42bdf9e792d5a0e1d96dc842ea783bc4b309687604051611b3f9190614d66565b60405180910390a1505050505050505050565b611b5a612c27565b611b6381613939565b60016002811115611b7757611b76614e1a565b5b611b8082613ecf565b6002811115611b9257611b91614e1a565b5b03611bdb5760016005600083815260200190815260200160002060000160006101000a81548160ff02191690836003811115611bd157611bd0614e1a565b5b0217905550611c4f565b600280811115611bee57611bed614e1a565b5b611bf782613ecf565b6002811115611c0957611c08614e1a565b5b03611c4e5760026005600083815260200190815260200160002060000160006101000a81548160ff02191690836003811115611c4857611c47614e1a565b5b02179055505b5b6000600380811115611c6457611c63614e1a565b5b611c6d83610a0e565b600001516003811115611c8357611c82614e1a565b5b03611c8d57600190505b6000611c988361300d565b90506000611ca58461254f565b6080015103611d8057611cb78361254f565b606001516006600085815260200190815260200160002060000160108282829054906101000a90046fffffffffffffffffffffffffffffffff16611cfb91906153c7565b92506101000a8154816fffffffffffffffffffffffffffffffff02191690836fffffffffffffffffffffffffffffffff16021790555060006006600085815260200190815260200160002060010160106101000a8154816fffffffffffffffffffffffffffffffff02191690836fffffffffffffffffffffffffffffffff1602179055505b60008173ffffffffffffffffffffffffffffffffffffffff168273ffffffffffffffffffffffffffffffffffffffff166397debec085611dbf88610a0e565b60200151604051602401611dd4929190615852565b604051602081830303815290604052915060e01b6020820180517bffffffffffffffffffffffffffffffffffffffffffffffffffffffff8381831617835250505050604051611e2391906158ec565b6000604051808303816000865af19150503d8060008114611e60576040519150601f19603f3d011682016040523d82523d6000602084013e611e65565b606091505b505090506000151581151503611ea7576040517f114c34ed00000000000000000000000000000000000000000000000000000000815260040160405180910390fd5b611eb0846139ef565b505050611ebb612f66565b50565b600260009054906101000a900473ffffffffffffffffffffffffffffffffffffffff1681565b611eec612c27565b611f07826fffffffffffffffffffffffffffffffff16612cbf565b611f1081612c6d565b611f1981612cfc565b6000611f24826126cd565b60a0015190506000808261ffff16611f3b856126cd565b6080015161ffff16620186a063ffffffff168561ffff1688611f5d9190615558565b611f6791906155c4565b611f719190615558565b611f7b91906155c4565b90506000620186a063ffffffff168461ffff1687611f999190615558565b611fa391906155c4565b86611fae9190615514565b9050816006600087815260200190815260200160002060010160108282829054906101000a90046fffffffffffffffffffffffffffffffff16611ff191906153c7565b92506101000a8154816fffffffffffffffffffffffffffffffff02191690836fffffffffffffffffffffffffffffffff16021790555061205584620186a063ffffffff168661ffff16896120459190615558565b61204f91906155c4565b87613279565b612060818387612d68565b505061206c8285613f74565b508091505060006120c98684876120828861254f565b6000015161208f8961254f565b6040015161209c8a61254f565b602001516120aa91906153c7565b6120b38a61254f565b60a001516120c08b61254f565b60c00151613fb2565b50905060008103612106576040517f98f7360900000000000000000000000000000000000000000000000000000000815260040160405180910390fd5b846fffffffffffffffffffffffffffffffff16600760003373ffffffffffffffffffffffffffffffffffffffff1673ffffffffffffffffffffffffffffffffffffffff1681526020019081526020016000206000868152602001908152602001600020600401600082825401925050819055506001600381111561218d5761218c614e1a565b5b8660038111156121a05761219f614e1a565b5b0361224157806006600086815260200190815260200160002060030160008282546121cb919061540b565b9250508190555080600760003373ffffffffffffffffffffffffffffffffffffffff1673ffffffffffffffffffffffffffffffffffffffff16815260200190815260200160002060008681526020019081526020016000206001016000828254612235919061540b565b925050819055506122d9565b80600660008681526020019081526020016000206004016000828254612267919061540b565b9250508190555080600760003373ffffffffffffffffffffffffffffffffffffffff1673ffffffffffffffffffffffffffffffffffffffff168152602001908152602001600020600086815260200190815260200160002060020160008282546122d1919061540b565b925050819055505b816006600086815260200190815260200160002060000160108282829054906101000a90046fffffffffffffffffffffffffffffffff1661231a91906153c7565b92506101000a8154816fffffffffffffffffffffffffffffffff02191690836fffffffffffffffffffffffffffffffff16021790555061236c84866fffffffffffffffffffffffffffffffff1661351f565b612375846136e1565b7f0bcceb2ea7b25b2a80903465a4d94ce2caa5218fca0f4729a09c04bca1758f6d843388886040516123aa9493929190615903565b60405180910390a15050506123bd612f66565b505050565b600460149054906101000a900460ff1615612409576040517f4945c38a00000000000000000000000000000000000000000000000000000000815260040160405180910390fd5b82600160046101000a81548173ffffffffffffffffffffffffffffffffffffffff021916908373ffffffffffffffffffffffffffffffffffffffff16021790555081600360006101000a81548173ffffffffffffffffffffffffffffffffffffffff021916908373ffffffffffffffffffffffffffffffffffffffff16021790555080600460006101000a81548173ffffffffffffffffffffffffffffffffffffffff021916908373ffffffffffffffffffffffffffffffffffffffff160217905550600160049054906101000a900473ffffffffffffffffffffffffffffffffffffffff16600260006101000a81548173ffffffffffffffffffffffffffffffffffffffff021916908373ffffffffffffffffffffffffffffffffffffffff1602179055506001600460146101000a81548160ff021916908315150217905550505050565b612557614984565b60066000838152602001908152602001600020604051806101000160405290816000820160009054906101000a90046fffffffffffffffffffffffffffffffff166fffffffffffffffffffffffffffffffff166fffffffffffffffffffffffffffffffff1681526020016000820160109054906101000a90046fffffffffffffffffffffffffffffffff166fffffffffffffffffffffffffffffffff166fffffffffffffffffffffffffffffffff1681526020016001820160009054906101000a90046fffffffffffffffffffffffffffffffff166fffffffffffffffffffffffffffffffff166fffffffffffffffffffffffffffffffff1681526020016001820160109054906101000a90046fffffffffffffffffffffffffffffffff166fffffffffffffffffffffffffffffffff166fffffffffffffffffffffffffffffffff1681526020016002820154815260200160038201548152602001600482015481526020016005820154815250509050919050565b6126d5614a11565b600360009054906101000a900473ffffffffffffffffffffffffffffffffffffffff1673ffffffffffffffffffffffffffffffffffffffff1663aa64b6b683336040518363ffffffff1660e01b8152600401612732929190615948565b60c060405180830381865afa15801561274f573d6000803e3d6000fd5b505050506040513d601f19601f820116820180604052508101906127739190615ad3565b9050919050565b6000612784612c27565b61278d82614053565b600160038111156127a1576127a0614e1a565b5b6127aa83610a0e565b6000015160038111156127c0576127bf614e1a565b5b036128315760006127d1338461080b565b60400151111561282c576127e48261254f565b60a001516127f18361254f565b602001516fffffffffffffffffffffffffffffffff16612811338561080b565b6040015161281f9190615810565b6128299190615b00565b90505b612908565b6002600381111561284557612844614e1a565b5b61284e83610a0e565b60000151600381111561286457612863614e1a565b5b036128d5576000612875338461080b565b6060015111156128d0576128888261254f565b60c001516128958361254f565b602001516fffffffffffffffffffffffffffffffff166128b5338561080b565b606001516128c39190615810565b6128cd9190615b00565b90505b612907565b6040517fbaf3f0f700000000000000000000000000000000000000000000000000000000815260040160405180910390fd5b5b6000612914338461080b565b6080015190506000811115612aa5576000806129586129328661254f565b60600151612940338861080b565b60200151858661294f8a61254f565b6080015161398c565b91509150808261296891906153c7565b6fffffffffffffffffffffffffffffffff1684612985919061540b565b9350826006600087815260200190815260200160002060020160008282546129ad91906154e0565b92505081905550816006600087815260200190815260200160002060010160008282829054906101000a90046fffffffffffffffffffffffffffffffff166129f59190615514565b92506101000a8154816fffffffffffffffffffffffffffffffff02191690836fffffffffffffffffffffffffffffffff160217905550806006600087815260200190815260200160002060010160108282829054906101000a90046fffffffffffffffffffffffffffffffff16612a6c9190615514565b92506101000a8154816fffffffffffffffffffffffffffffffff02191690836fffffffffffffffffffffffffffffffff16021790555050505b612aae82612cbf565b600760003373ffffffffffffffffffffffffffffffffffffffff1673ffffffffffffffffffffffffffffffffffffffff1681526020019081526020016000206000848152602001908152602001600020600080820160006101000a81549067ffffffffffffffff02191690556000820160086101000a8154906fffffffffffffffffffffffffffffffff021916905560018201600090556002820160009055600382016000905560048201600090555050612b816001612b6d85610a0e565b6020015184612b7b8761300d565b33613023565b7fe332e9963bc980fb82ccd3e7e181d76bddde349eec46b4ba393f3444529cd17f833384604051612bb493929190615b31565b60405180910390a150612bc5612f66565b919050565b612bd26138b0565b60036005600083815260200190815260200160002060000160006101000a81548160ff02191690836003811115612c0c57612c0b614e1a565b5b021790555050565b600460149054906101000a900460ff1681565b600260005403612c63576040517f3ee5aeb500000000000000000000000000000000000000000000000000000000815260040160405180910390fd5b6002600081905550565b612c7681610a0e565b60a0015167ffffffffffffffff164210612cbc576040517f0b5f6bf000000000000000000000000000000000000000000000000000000000815260040160405180910390fd5b50565b60008103612cf9576040517f1f2a200500000000000000000000000000000000000000000000000000000000815260040160405180910390fd5b50565b600380811115612d0f57612d0e614e1a565b5b612d1882610a0e565b600001516003811115612d2e57612d2d614e1a565b5b03612d65576040517fbaf3f0f700000000000000000000000000000000000000000000000000000000815260040160405180910390fd5b50565b6000612d7382610a0e565b6020015190506000612d848361300d565b9050612dba612d928461314a565b60000151828688612da391906153c7565b6fffffffffffffffffffffffffffffffff16613e9d565b8073ffffffffffffffffffffffffffffffffffffffff1663678bb4d983876040518363ffffffff1660e01b8152600401612df5929190615b77565b600060405180830381600087803b158015612e0f57600080fd5b505af1158015612e23573d6000803e3d6000fd5b505050505050505050565b60008060008503612e6857866fffffffffffffffffffffffffffffffff169150866fffffffffffffffffffffffffffffffff169050612ef3565b6000612e76898887876140b2565b9050670de0b6b3a764000081896fffffffffffffffffffffffffffffffff16612e9f9190615810565b612ea99190615b00565b9250670de0b6b3a764000081670de0b6b3a7640000612ec891906154e0565b896fffffffffffffffffffffffffffffffff16612ee59190615810565b612eef9190615b00565b9150505b965096945050505050565b6000808203612f2157836fffffffffffffffffffffffffffffffff169050612f5f565b826fffffffffffffffffffffffffffffffff1682856fffffffffffffffffffffffffffffffff16612f529190615810565b612f5c9190615b00565b90505b9392505050565b6001600081905550565b60008060016003811115612f8757612f86614e1a565b5b8a6003811115612f9a57612f99614e1a565b5b03612fbb57612fae89898989898989614200565b8092508193505050613000565b60026003811115612fcf57612fce614e1a565b5b8a6003811115612fe257612fe1614e1a565b5b03612fff57612ff68989898989898961438d565b80925081935050505b5b9850989650505050505050565b60006130188261314a565b602001519050919050565b60008273ffffffffffffffffffffffffffffffffffffffff168373ffffffffffffffffffffffffffffffffffffffff166389a40fb38888868960405160240161306f9493929190615ba0565b604051602081830303815290604052915060e01b6020820180517bffffffffffffffffffffffffffffffffffffffffffffffffffffffff83818316178352505050506040516130be91906158ec565b6000604051808303816000865af19150503d80600081146130fb576040519150601f19603f3d011682016040523d82523d6000602084013e613100565b606091505b505090506000151581151503613142576040517f114c34ed00000000000000000000000000000000000000000000000000000000815260040160405180910390fd5b505050505050565b613152614a5f565b600360009054906101000a900473ffffffffffffffffffffffffffffffffffffffff1673ffffffffffffffffffffffffffffffffffffffff16632f380b35836040518263ffffffff1660e01b81526004016131ad9190614d66565b600060405180830381865afa1580156131ca573d6000803e3d6000fd5b505050506040513d6000823e3d601f19601f820116820180604052508101906131f39190615d4d565b9050919050565b613274838473ffffffffffffffffffffffffffffffffffffffff1663a9059cbb858560405160240161322d929190615d96565b604051602081830303815290604052915060e01b6020820180517bffffffffffffffffffffffffffffffffffffffffffffffffffffffff838183161783525050505061451a565b505050565b60006132848261314a565b60000151905060008461ffff1661329a846126cd565b6040015161ffff16856132ad9190615558565b6132b791906155c4565b905060008561ffff166132c9856126cd565b6000015161ffff16866132dc9190615558565b6132e691906155c4565b905060008661ffff166132f8866126cd565b6060015161ffff168761330b9190615558565b61331591906155c4565b905060008761ffff16613327876126cd565b6020015161ffff168861333a9190615558565b61334491906155c4565b90506000846fffffffffffffffffffffffffffffffff161115613430576133a085600460009054906101000a900473ffffffffffffffffffffffffffffffffffffffff16866fffffffffffffffffffffffffffffffff16613e9d565b600460009054906101000a900473ffffffffffffffffffffffffffffffffffffffff1673ffffffffffffffffffffffffffffffffffffffff16633cef8b8b87866040518363ffffffff1660e01b81526004016133fd929190615dbf565b600060405180830381600087803b15801561341757600080fd5b505af115801561342b573d6000803e3d6000fd5b505050505b6000836fffffffffffffffffffffffffffffffff16111561348b5761348a85600260009054906101000a900473ffffffffffffffffffffffffffffffffffffffff16856fffffffffffffffffffffffffffffffff16613e9d565b5b6000826fffffffffffffffffffffffffffffffff1611156134d0576134cf856134b38861314a565b60600151846fffffffffffffffffffffffffffffffff16613e9d565b5b6000816fffffffffffffffffffffffffffffffff16111561351557613514856134f88861314a565b60400151836fffffffffffffffffffffffffffffffff16613e9d565b5b5050505050505050565b60001515600860003373ffffffffffffffffffffffffffffffffffffffff1673ffffffffffffffffffffffffffffffffffffffff168152602001908152602001600020600084815260200190815260200160002060009054906101000a900460ff161515036136b95760056000838152602001908152602001600020600001600381819054906101000a900467ffffffffffffffff16809291906135c290615de8565b91906101000a81548167ffffffffffffffff021916908367ffffffffffffffff16021790555050600960003373ffffffffffffffffffffffffffffffffffffffff1673ffffffffffffffffffffffffffffffffffffffff1681526020019081526020016000208290806001815401808255809150506001900390600052602060002001600090919091909150556001600860003373ffffffffffffffffffffffffffffffffffffffff1673ffffffffffffffffffffffffffffffffffffffff168152602001908152602001600020600084815260200190815260200160002060006101000a81548160ff0219169083151502179055505b8060066000848152602001908152602001600020600501600082825401925050819055505050565b60006136f86136ef8361314a565b60000151613cfc565b905080600a61370791906157c5565b6103e863ffffffff1661371a9190615810565b613724338461080b565b60a00151106138ac576000613739338461080b565b6000015167ffffffffffffffff16036138ab5760056000838152602001908152602001600020600101601481819054906101000a900467ffffffffffffffff168092919060010191906101000a81548167ffffffffffffffff021916908367ffffffffffffffff1602179055505060006137b283610a0e565b60e00151905033600a600085815260200190815260200160002060008367ffffffffffffffff1667ffffffffffffffff16815260200190815260200160002060006101000a81548173ffffffffffffffffffffffffffffffffffffffff021916908373ffffffffffffffffffffffffffffffffffffffff16021790555080600760003373ffffffffffffffffffffffffffffffffffffffff1673ffffffffffffffffffffffffffffffffffffffff168152602001908152602001600020600085815260200190815260200160002060000160006101000a81548167ffffffffffffffff021916908367ffffffffffffffff160217905550505b5b5050565b600160049054906101000a900473ffffffffffffffffffffffffffffffffffffffff1673ffffffffffffffffffffffffffffffffffffffff163373ffffffffffffffffffffffffffffffffffffffff1614613937576040517fa9b473df00000000000000000000000000000000000000000000000000000000815260040160405180910390fd5b565b61394281610a0e565b60a0015167ffffffffffffffff16421015613989576040517f7d3b361300000000000000000000000000000000000000000000000000000000815260040160405180910390fd5b50565b60008083866fffffffffffffffffffffffffffffffff16866139ae9190615810565b6139b89190615b00565b915082876fffffffffffffffffffffffffffffffff16866139d99190615810565b6139e39190615b00565b90509550959350505050565b600015156139fc82610a0e565b60400151151503613cf9576000613a128261300d565b73ffffffffffffffffffffffffffffffffffffffff1663ffe777bd6040518163ffffffff1660e01b81526004016040805180830381865afa158015613a5b573d6000803e3d6000fd5b505050506040513d601f19601f82011682018060405250810190613a7f9190615e7d565b6020015190506000613a908361254f565b6020015190506000613aa18461254f565b6040015190508082613ab391906153c7565b6fffffffffffffffffffffffffffffffff16836fffffffffffffffffffffffffffffffff1610613b3a578083613ae99190615514565b6006600086815260200190815260200160002060000160106101000a8154816fffffffffffffffffffffffffffffffff02191690836fffffffffffffffffffffffffffffffff160217905550613cc6565b8082613b4691906153c7565b6fffffffffffffffffffffffffffffffff16836fffffffffffffffffffffffffffffffff16108015613b9b5750816fffffffffffffffffffffffffffffffff16836fffffffffffffffffffffffffffffffff16115b15613bfd578183613bac9190615514565b6006600086815260200190815260200160002060010160006101000a8154816fffffffffffffffffffffffffffffffff02191690836fffffffffffffffffffffffffffffffff160217905550613cc5565b816fffffffffffffffffffffffffffffffff16836fffffffffffffffffffffffffffffffff1611613cc457826006600086815260200190815260200160002060000160106101000a8154816fffffffffffffffffffffffffffffffff02191690836fffffffffffffffffffffffffffffffff16021790555060006006600086815260200190815260200160002060010160006101000a8154816fffffffffffffffffffffffffffffffff02191690836fffffffffffffffffffffffffffffffff1602179055505b5b5b60016005600086815260200190815260200160002060000160026101000a81548160ff0219169083151502179055505050505b50565b60008173ffffffffffffffffffffffffffffffffffffffff1663313ce5676040518163ffffffff1660e01b8152600401602060405180830381865afa158015613d49573d6000803e3d6000fd5b505050506040513d601f19601f82011682018060405250810190613d6d9190615ed6565b9050919050565b6000816fffffffffffffffffffffffffffffffff16836fffffffffffffffffffffffffffffffff1603613dc15783600a613dae91906157c5565b600a613dba9190615810565b9050613e96565b816fffffffffffffffffffffffffffffffff16836fffffffffffffffffffffffffffffffff16118015613e0a57506305f5e100836fffffffffffffffffffffffffffffffff1611155b15613e635783600a613e1c91906157c5565b60018385613e2a91906155c4565b613e3491906153c7565b600a613e409190615558565b6fffffffffffffffffffffffffffffffff16613e5c9190615810565b9050613e95565b6040517fd049d34300000000000000000000000000000000000000000000000000000000815260040160405180910390fd5b5b9392505050565b613eca3383838673ffffffffffffffffffffffffffffffffffffffff166145bc909392919063ffffffff16565b505050565b6000600460009054906101000a900473ffffffffffffffffffffffffffffffffffffffff1673ffffffffffffffffffffffffffffffffffffffff16639e5786df836040518263ffffffff1660e01b8152600401613f2c9190614d66565b602060405180830381865afa158015613f49573d6000803e3d6000fd5b505050506040513d601f19601f82011682018060405250810190613f6d9190615f28565b9050919050565b600080620186a063ffffffff168461ffff1684613f919190615558565b613f9b91906155c4565b90508083613fa99190615514565b91509250929050565b6000806000613fc18989613f74565b809350819250505060016003811115613fdd57613fdc614e1a565b5b8a6003811115613ff057613fef614e1a565b5b0361400957614002818888888861463e565b9250614046565b6002600381111561401d5761401c614e1a565b5b8a60038111156140305761402f614e1a565b5b03614045576140428188888888614756565b92505b5b5097509795505050505050565b611c2061405f82610a0e565b60a0015161406d9190615649565b67ffffffffffffffff1642116140af576040517fa6bbcd2200000000000000000000000000000000000000000000000000000000815260040160405180910390fd5b50565b6000600160038111156140c8576140c7614e1a565b5b8560038111156140db576140da614e1a565b5b036140f057670de0b6b3a764000090506141f7565b6002600381111561410457614103614e1a565b5b85600381111561411757614116614e1a565b5b0361412557600090506141f6565b6000600381111561413957614138614e1a565b5b85600381111561414c5761414b614e1a565b5b036141f5576000831480156141615750600082145b15614182576002670de0b6b3a764000061417b9190615b00565b90506141f8565b83600261418f9190615558565b6fffffffffffffffffffffffffffffffff1682846141ad919061540b565b6141b7919061540b565b670de0b6b3a7640000856fffffffffffffffffffffffffffffffff16856141de919061540b565b6141e89190615810565b6141f29190615b00565b90505b5b5b5b949350505050565b600080600061421260008a87876140b2565b905060008114614380576000868a6fffffffffffffffffffffffffffffffff168761423d919061540b565b61424791906154e0565b905060008a6fffffffffffffffffffffffffffffffff1686614269919061540b565b90506000670de0b6b3a764000084670de0b6b3a764000061428a91906154e0565b836142959190615810565b85856142a19190615810565b6142ab919061540b565b6142b59190615b00565b90506000818d8c8e6142c791906153c7565b6142d191906153c7565b6fffffffffffffffffffffffffffffffff166142ed91906154e0565b905060008c6fffffffffffffffffffffffffffffffff16821115614325578c6fffffffffffffffffffffffffffffffff169050614329565b8190505b6103e881111561435a57620186a063ffffffff168f61ffff168261434d9190615810565b6143579190615b00565b96505b866fffffffffffffffffffffffffffffffff168161437891906154e0565b975050505050505b5097509795505050505050565b600080600061439f60008a878761486e565b90506000811461450d576000896fffffffffffffffffffffffffffffffff16866143c9919061540b565b90506000878b6fffffffffffffffffffffffffffffffff16876143ec919061540b565b6143f691906154e0565b90506000670de0b6b3a7640000848361440f9190615810565b85670de0b6b3a764000061442391906154e0565b8561442e9190615810565b614438919061540b565b6144429190615b00565b90506000818d8c8e61445491906153c7565b61445e91906153c7565b6fffffffffffffffffffffffffffffffff1661447a91906154e0565b905060008c6fffffffffffffffffffffffffffffffff168211156144b2578c6fffffffffffffffffffffffffffffffff1690506144b6565b8190505b6103e88111156144e757620186a063ffffffff168f61ffff16826144da9190615810565b6144e49190615b00565b96505b866fffffffffffffffffffffffffffffffff168161450591906154e0565b975050505050505b5097509795505050505050565b600080602060008451602086016000885af18061453d576040513d6000823e3d81fd5b3d925060005191505060008214614558576001811415614574565b60008473ffffffffffffffffffffffffffffffffffffffff163b145b156145b657836040517f5274afe70000000000000000000000000000000000000000000000000000000081526004016145ad9190614d3c565b60405180910390fd5b50505050565b614638848573ffffffffffffffffffffffffffffffffffffffff166323b872dd8686866040516024016145f193929190615f55565b604051602081830303815290604052915060e01b6020820180517bffffffffffffffffffffffffffffffffffffffffffffffffffffffff838183161783525050505061451a565b50505050565b60008061464e60008786866140b2565b90506000811461474c57670de0b6b3a7640000810361468157866fffffffffffffffffffffffffffffffff16915061474b565b600086888761469091906153c7565b61469a91906153c7565b6fffffffffffffffffffffffffffffffff1690506000876fffffffffffffffffffffffffffffffff16856146ce919061540b565b905060008384670de0b6b3a76400006146e791906154e0565b836146f29190615810565b84670de0b6b3a76400006147069190615810565b61471091906154e0565b61471a9190615b00565b9050886fffffffffffffffffffffffffffffffff16878261473b91906154e0565b61474591906154e0565b94505050505b5b5095945050505050565b600080614766600087868661486e565b90506000811461486457670de0b6b3a7640000810361479957866fffffffffffffffffffffffffffffffff169150614863565b60008688876147a891906153c7565b6147b291906153c7565b6fffffffffffffffffffffffffffffffff1690506000876fffffffffffffffffffffffffffffffff16866147e6919061540b565b905060008384670de0b6b3a76400006147ff91906154e0565b8361480a9190615810565b84670de0b6b3a764000061481e9190615810565b61482891906154e0565b6148329190615b00565b9050886fffffffffffffffffffffffffffffffff16868261485391906154e0565b61485d91906154e0565b94505050505b5b5095945050505050565b600061487c858585856140b2565b670de0b6b3a764000061488f91906154e0565b9050949350505050565b6040518060c00160405280600067ffffffffffffffff16815260200160006fffffffffffffffffffffffffffffffff168152602001600081526020016000815260200160008152602001600081525090565b6040518061010001604052806000600381111561490b5761490a614e1a565b5b8152602001600015158152602001600015158152602001600067ffffffffffffffff168152602001600067ffffffffffffffff168152602001600067ffffffffffffffff168152602001600073ffffffffffffffffffffffffffffffffffffffff168152602001600067ffffffffffffffff1681525090565b60405180610100016040528060006fffffffffffffffffffffffffffffffff16815260200160006fffffffffffffffffffffffffffffffff16815260200160006fffffffffffffffffffffffffffffffff16815260200160006fffffffffffffffffffffffffffffffff168152602001600081526020016000815260200160008152602001600081525090565b6040518060c00160405280600061ffff168152602001600061ffff168152602001600061ffff168152602001600061ffff168152602001600061ffff168152602001600061ffff1681525090565b6040518060a00160405280600073ffffffffffffffffffffffffffffffffffffffff168152602001600073ffffffffffffffffffffffffffffffffffffffff168152602001600073ffffffffffffffffffffffffffffffffffffffff168152602001600073ffffffffffffffffffffffffffffffffffffffff168152602001606081525090565b6000604051905090565b600080fd5b600080fd5b6000819050919050565b614b0d81614afa565b8114614b1857600080fd5b50565b600081359050614b2a81614b04565b92915050565b60006fffffffffffffffffffffffffffffffff82169050919050565b614b5581614b30565b8114614b6057600080fd5b50565b600081359050614b7281614b4c565b92915050565b60008060408385031215614b8f57614b8e614af0565b5b6000614b9d85828601614b1b565b9250506020614bae85828601614b63565b9150509250929050565b600073ffffffffffffffffffffffffffffffffffffffff82169050919050565b6000614be382614bb8565b9050919050565b614bf381614bd8565b8114614bfe57600080fd5b50565b600081359050614c1081614bea565b92915050565b60008060408385031215614c2d57614c2c614af0565b5b6000614c3b85828601614c01565b9250506020614c4c85828601614b1b565b9150509250929050565b600067ffffffffffffffff82169050919050565b614c7381614c56565b82525050565b614c8281614b30565b82525050565b614c9181614afa565b82525050565b60c082016000820151614cad6000850182614c6a565b506020820151614cc06020850182614c79565b506040820151614cd36040850182614c88565b506060820151614ce66060850182614c88565b506080820151614cf96080850182614c88565b5060a0820151614d0c60a0850182614c88565b50505050565b600060c082019050614d276000830184614c97565b92915050565b614d3681614bd8565b82525050565b6000602082019050614d516000830184614d2d565b92915050565b614d6081614afa565b82525050565b6000602082019050614d7b6000830184614d57565b92915050565b614d8a81614c56565b8114614d9557600080fd5b50565b600081359050614da781614d81565b92915050565b60008060408385031215614dc457614dc3614af0565b5b6000614dd285828601614b1b565b9250506020614de385828601614d98565b9150509250929050565b600060208284031215614e0357614e02614af0565b5b6000614e1184828501614b1b565b91505092915050565b7f4e487b7100000000000000000000000000000000000000000000000000000000600052602160045260246000fd5b60048110614e5a57614e59614e1a565b5b50565b6000819050614e6b82614e49565b919050565b6000614e7b82614e5d565b9050919050565b614e8b81614e70565b82525050565b60008115159050919050565b614ea681614e91565b82525050565b614eb581614bd8565b82525050565b61010082016000820151614ed26000850182614e82565b506020820151614ee56020850182614e9d565b506040820151614ef86040850182614e9d565b506060820151614f0b6060850182614c6a565b506080820151614f1e6080850182614c6a565b5060a0820151614f3160a0850182614c6a565b5060c0820151614f4460c0850182614eac565b5060e0820151614f5760e0850182614c6a565b50505050565b600061010082019050614f736000830184614ebb565b92915050565b60048110614f8657600080fd5b50565b600081359050614f9881614f79565b92915050565b600080600060608486031215614fb757614fb6614af0565b5b6000614fc586828701614f89565b9350506020614fd686828701614b1b565b9250506040614fe786828701614b1b565b9150509250925092565b60006020828403121561500757615006614af0565b5b600061501584828501614c01565b91505092915050565b600063ffffffff82169050919050565b6150378161501e565b82525050565b6000602082019050615052600083018461502e565b92915050565b61506181614e91565b811461506c57600080fd5b50565b60008135905061507e81615058565b92915050565b6000806040838503121561509b5761509a614af0565b5b60006150a985828601614b1b565b92505060206150ba8582860161506f565b9150509250929050565b6150cd8161501e565b81146150d857600080fd5b50565b6000813590506150ea816150c4565b92915050565b6000806000806080858703121561510a57615109614af0565b5b6000615118878288016150db565b945050602061512987828801614b63565b935050604061513a87828801614b1b565b925050606061514b87828801614b1b565b91505092959194509250565b6000806000606084860312156151705761516f614af0565b5b600061517e86828701614f89565b935050602061518f86828701614b63565b92505060406151a086828701614b1b565b9150509250925092565b6000806000606084860312156151c3576151c2614af0565b5b60006151d186828701614c01565b93505060206151e286828701614c01565b92505060406151f386828701614c01565b9150509250925092565b610100820160008201516152146000850182614c79565b5060208201516152276020850182614c79565b50604082015161523a6040850182614c79565b50606082015161524d6060850182614c79565b5060808201516152606080850182614c88565b5060a082015161527360a0850182614c88565b5060c082015161528660c0850182614c88565b5060e082015161529960e0850182614c88565b50505050565b6000610100820190506152b560008301846151fd565b92915050565b600061ffff82169050919050565b6152d2816152bb565b82525050565b60c0820160008201516152ee60008501826152c9565b50602082015161530160208501826152c9565b50604082015161531460408501826152c9565b50606082015161532760608501826152c9565b50608082015161533a60808501826152c9565b5060a082015161534d60a08501826152c9565b50505050565b600060c08201905061536860008301846152d8565b92915050565b61537781614e91565b82525050565b6000602082019050615392600083018461536e565b92915050565b7f4e487b7100000000000000000000000000000000000000000000000000000000600052601160045260246000fd5b60006153d282614b30565b91506153dd83614b30565b925082820190506fffffffffffffffffffffffffffffffff81111561540557615404615398565b5b92915050565b600061541682614afa565b915061542183614afa565b925082820190508082111561543957615438615398565b5b92915050565b6000819050919050565b600061546461545f61545a84614b30565b61543f565b614afa565b9050919050565b61547481615449565b82525050565b600060608201905061548f6000830186614d57565b61549c6020830185614d2d565b6154a9604083018461546b565b949350505050565b7f4e487b7100000000000000000000000000000000000000000000000000000000600052603260045260246000fd5b60006154eb82614afa565b91506154f683614afa565b925082820390508181111561550e5761550d615398565b5b92915050565b600061551f82614b30565b915061552a83614b30565b925082820390506fffffffffffffffffffffffffffffffff81111561555257615551615398565b5b92915050565b600061556382614b30565b915061556e83614b30565b925082820261557c81614b30565b915080821461558e5761558d615398565b5b5092915050565b7f4e487b7100000000000000000000000000000000000000000000000000000000600052601260045260246000fd5b60006155cf82614b30565b91506155da83614b30565b9250826155ea576155e9615595565b5b828204905092915050565b6155fe81614e70565b82525050565b60006080820190506156196000830187614d57565b6156266020830186614d2d565b61563360408301856155f5565b6156406060830184614d57565b95945050505050565b600061565482614c56565b915061565f83614c56565b9250828201905067ffffffffffffffff81111561567f5761567e615398565b5b92915050565b60008160011c9050919050565b6000808291508390505b60018511156156dc578086048111156156b8576156b7615398565b5b60018516156156c75780820291505b80810290506156d585615685565b945061569c565b94509492505050565b6000826156f557600190506157b1565b8161570357600090506157b1565b8160018114615719576002811461572357615752565b60019150506157b1565b60ff84111561573557615734615398565b5b8360020a91508482111561574c5761574b615398565b5b506157b1565b5060208310610133831016604e8410600b84101617156157875782820a90508381111561578257615781615398565b5b6157b1565b6157948484846001615692565b925090508184048111156157ab576157aa615398565b5b81810290505b9392505050565b600060ff82169050919050565b60006157d082614afa565b91506157db836157b8565b92506158087fffffffffffffffffffffffffffffffffffffffffffffffffffffffffffffffff84846156e5565b905092915050565b600061581b82614afa565b915061582683614afa565b925082820261583481614afa565b9150828204841483151761584b5761584a615398565b5b5092915050565b6000604082019050615867600083018561536e565b615874602083018461536e565b9392505050565b600081519050919050565b600081905092915050565b60005b838110156158af578082015181840152602081019050615894565b60008484015250505050565b60006158c68261587b565b6158d08185615886565b93506158e0818560208601615891565b80840191505092915050565b60006158f882846158bb565b915081905092915050565b60006080820190506159186000830187614d57565b6159256020830186614d2d565b61593260408301856155f5565b61593f606083018461546b565b95945050505050565b600060408201905061595d6000830185614d57565b61596a6020830184614d2d565b9392505050565b600080fd5b6000601f19601f8301169050919050565b7f4e487b7100000000000000000000000000000000000000000000000000000000600052604160045260246000fd5b6159bf82615976565b810181811067ffffffffffffffff821117156159de576159dd615987565b5b80604052505050565b60006159f1614ae6565b90506159fd82826159b6565b919050565b600080fd5b615a10816152bb565b8114615a1b57600080fd5b50565b600081519050615a2d81615a07565b92915050565b600060c08284031215615a4957615a48615971565b5b615a5360c06159e7565b90506000615a6384828501615a1e565b6000830152506020615a7784828501615a1e565b6020830152506040615a8b84828501615a1e565b6040830152506060615a9f84828501615a1e565b6060830152506080615ab384828501615a1e565b60808301525060a0615ac784828501615a1e565b60a08301525092915050565b600060c08284031215615ae957615ae8614af0565b5b6000615af784828501615a33565b91505092915050565b6000615b0b82614afa565b9150615b1683614afa565b925082615b2657615b25615595565b5b828204905092915050565b6000606082019050615b466000830186614d57565b615b536020830185614d2d565b615b606040830184614d57565b949350505050565b615b7181614b30565b82525050565b6000604082019050615b8c600083018561536e565b615b996020830184615b68565b9392505050565b6000608082019050615bb5600083018761536e565b615bc2602083018661536e565b615bcf6040830185614d2d565b615bdc6060830184615b68565b95945050505050565b600081519050615bf481614bea565b92915050565b600080fd5b600080fd5b600067ffffffffffffffff821115615c1f57615c1e615987565b5b615c2882615976565b9050602081019050919050565b6000615c48615c4384615c04565b6159e7565b905082815260208101848484011115615c6457615c63615bff565b5b615c6f848285615891565b509392505050565b600082601f830112615c8c57615c8b615bfa565b5b8151615c9c848260208601615c35565b91505092915050565b600060a08284031215615cbb57615cba615971565b5b615cc560a06159e7565b90506000615cd584828501615be5565b6000830152506020615ce984828501615be5565b6020830152506040615cfd84828501615be5565b6040830152506060615d1184828501615be5565b606083015250608082015167ffffffffffffffff811115615d3557615d34615a02565b5b615d4184828501615c77565b60808301525092915050565b600060208284031215615d6357615d62614af0565b5b600082015167ffffffffffffffff811115615d8157615d80614af5565b5b615d8d84828501615ca5565b91505092915050565b6000604082019050615dab6000830185614d2d565b615db86020830184614d57565b9392505050565b6000604082019050615dd46000830185614d57565b615de1602083018461546b565b9392505050565b6000615df382614c56565b915067ffffffffffffffff8203615e0d57615e0c615398565b5b600182019050919050565b600081519050615e2781614b4c565b92915050565b600060408284031215615e4357615e42615971565b5b615e4d60406159e7565b90506000615e5d84828501615e18565b6000830152506020615e7184828501615e18565b60208301525092915050565b600060408284031215615e9357615e92614af0565b5b6000615ea184828501615e2d565b91505092915050565b615eb3816157b8565b8114615ebe57600080fd5b50565b600081519050615ed081615eaa565b92915050565b600060208284031215615eec57615eeb614af0565b5b6000615efa84828501615ec1565b91505092915050565b60038110615f1057600080fd5b50565b600081519050615f2281615f03565b92915050565b600060208284031215615f3e57615f3d614af0565b5b6000615f4c84828501615f13565b91505092915050565b6000606082019050615f6a6000830186614d2d565b615f776020830185614d2d565b615f846040830184614d57565b94935050505056fea264697066735822122058f70dcefe7eabdb6b889ca7a70df23b68b30389dbeb26305d8e51872017c23d64736f6c634300081a0033",
        "linkReferences": {},
        "deployedLinkReferences": {}
}