{
  "_format": "hh-sol-artifact-1",
  "contractName": "AroundPoolFactory",
  "sourceName": "contracts/core/AroundPoolFactory.sol",
  "abi": [
    {
      "inputs": [],
      "stateMutability": "nonpayable",
      "type": "constructor"
    },
    {
      "inputs": [],
      "name": "AlreadyInitialize",
      "type": "error"
    },
    {
      "inputs": [],
      "name": "InvalidQuest",
      "type": "error"
    },
    {
      "inputs": [],
      "name": "InvalidToken",
      "type": "error"
    },
    {
      "inputs": [
        {
          "internalType": "address",
          "name": "owner",
          "type": "address"
        }
      ],
      "name": "OwnableInvalidOwner",
      "type": "error"
    },
    {
      "inputs": [
        {
          "internalType": "address",
          "name": "account",
          "type": "address"
        }
      ],
      "name": "OwnableUnauthorizedAccount",
      "type": "error"
    },
    {
      "anonymous": false,
      "inputs": [
        {
          "indexed": true,
          "internalType": "address",
          "name": "previousOwner",
          "type": "address"
        },
        {
          "indexed": true,
          "internalType": "address",
          "name": "newOwner",
          "type": "address"
        }
      ],
      "name": "OwnershipTransferred",
      "type": "event"
    },
    {
      "inputs": [],
      "name": "aroundMarket",
      "outputs": [
        {
          "internalType": "address",
          "name": "",
          "type": "address"
        }
      ],
      "stateMutability": "view",
      "type": "function"
    },
    {
      "inputs": [
        {
          "internalType": "uint16",
          "name": "officialFee",
          "type": "uint16"
        },
        {
          "internalType": "uint16",
          "name": "liquidityFee",
          "type": "uint16"
        },
        {
          "internalType": "uint16",
          "name": "oracleFee",
          "type": "uint16"
        },
        {
          "internalType": "uint16",
          "name": "luckyFee",
          "type": "uint16"
        },
        {
          "internalType": "uint16",
          "name": "creatorFee",
          "type": "uint16"
        }
      ],
      "name": "changeBaseFee",
      "outputs": [],
      "stateMutability": "nonpayable",
      "type": "function"
    },
    {
      "inputs": [
        {
          "internalType": "uint256",
          "name": "id",
          "type": "uint256"
        },
        {
          "internalType": "enum IAroundPoolFactory.MarketType",
          "name": "newMarketType",
          "type": "uint8"
        }
      ],
      "name": "changeMarketType",
      "outputs": [],
      "stateMutability": "nonpayable",
      "type": "function"
    },
    {
      "inputs": [
        {
          "internalType": "enum IAroundPoolFactory.MarketType",
          "name": "marketType",
          "type": "uint8"
        },
        {
          "internalType": "address",
          "name": "collateral",
          "type": "address"
        },
        {
          "internalType": "address",
          "name": "thisCreator",
          "type": "address"
        },
        {
          "internalType": "string",
          "name": "quest",
          "type": "string"
        }
      ],
      "name": "createPool",
      "outputs": [],
      "stateMutability": "nonpayable",
      "type": "function"
    },
    {
      "inputs": [],
      "name": "elf",
      "outputs": [
        {
          "internalType": "address",
          "name": "",
          "type": "address"
        }
      ],
      "stateMutability": "view",
      "type": "function"
    },
    {
      "inputs": [],
      "name": "getAaveInfo",
      "outputs": [
        {
          "components": [
            {
              "internalType": "uint16",
              "name": "referralCode",
              "type": "uint16"
            },
            {
              "internalType": "address",
              "name": "pool",
              "type": "address"
            },
            {
              "internalType": "address",
              "name": "aToken",
              "type": "address"
            },
            {
              "internalType": "address",
              "name": "aaveProtocolDataProvider",
              "type": "address"
            }
          ],
          "internalType": "struct IAroundPoolFactory.AaveInfo",
          "name": "thisAaveInfo",
          "type": "tuple"
        }
      ],
      "stateMutability": "view",
      "type": "function"
    },
    {
      "inputs": [
        {
          "internalType": "uint256",
          "name": "thisMarketId",
          "type": "uint256"
        },
        {
          "internalType": "address",
          "name": "elfHolder",
          "type": "address"
        }
      ],
      "name": "getFeeInfo",
      "outputs": [
        {
          "components": [
            {
              "internalType": "uint16",
              "name": "officialFee",
              "type": "uint16"
            },
            {
              "internalType": "uint16",
              "name": "luckyFee",
              "type": "uint16"
            },
            {
              "internalType": "uint16",
              "name": "oracleFee",
              "type": "uint16"
            },
            {
              "internalType": "uint16",
              "name": "creatorFee",
              "type": "uint16"
            },
            {
              "internalType": "uint16",
              "name": "liquidityFee",
              "type": "uint16"
            },
            {
              "internalType": "uint16",
              "name": "totalFee",
              "type": "uint16"
            }
          ],
          "internalType": "struct IAroundPoolFactory.FeeInfo",
          "name": "thisFeeInfo",
          "type": "tuple"
        }
      ],
      "stateMutability": "view",
      "type": "function"
    },
    {
      "inputs": [
        {
          "internalType": "enum IAroundPoolFactory.MarketType",
          "name": "marketType",
          "type": "uint8"
        }
      ],
      "name": "getMarketGroupLength",
      "outputs": [
        {
          "internalType": "uint256",
          "name": "",
          "type": "uint256"
        }
      ],
      "stateMutability": "view",
      "type": "function"
    },
    {
      "inputs": [
        {
          "internalType": "uint256",
          "name": "id",
          "type": "uint256"
        }
      ],
      "name": "getMarketPlace",
      "outputs": [
        {
          "components": [
            {
              "internalType": "enum IAroundPoolFactory.MarketType",
              "name": "marketType",
              "type": "uint8"
            },
            {
              "internalType": "uint256",
              "name": "place",
              "type": "uint256"
            }
          ],
          "internalType": "struct IAroundPoolFactory.MarketPlace",
          "name": "",
          "type": "tuple"
        }
      ],
      "stateMutability": "view",
      "type": "function"
    },
    {
      "inputs": [
        {
          "internalType": "uint256",
          "name": "thisMarketId",
          "type": "uint256"
        }
      ],
      "name": "getPoolInfo",
      "outputs": [
        {
          "components": [
            {
              "internalType": "address",
              "name": "collateral",
              "type": "address"
            },
            {
              "internalType": "address",
              "name": "aroundPool",
              "type": "address"
            },
            {
              "internalType": "address",
              "name": "luckyPool",
              "type": "address"
            },
            {
              "internalType": "address",
              "name": "creator",
              "type": "address"
            },
            {
              "internalType": "string",
              "name": "quest",
              "type": "string"
            }
          ],
          "internalType": "struct IAroundPoolFactory.PoolInfo",
          "name": "thisPoolInfo",
          "type": "tuple"
        }
      ],
      "stateMutability": "view",
      "type": "function"
    },
    {
      "inputs": [
        {
          "internalType": "address",
          "name": "token",
          "type": "address"
        }
      ],
      "name": "getTokenInfo",
      "outputs": [
        {
          "components": [
            {
              "internalType": "bool",
              "name": "valid",
              "type": "bool"
            },
            {
              "internalType": "uint128",
              "name": "createFeeAmount",
              "type": "uint128"
            }
          ],
          "internalType": "struct IAroundPoolFactory.TokenInfo",
          "name": "thisTokenInfo",
          "type": "tuple"
        }
      ],
      "stateMutability": "view",
      "type": "function"
    },
    {
      "inputs": [
        {
          "internalType": "enum IAroundPoolFactory.MarketType",
          "name": "marketType",
          "type": "uint8"
        },
        {
          "internalType": "uint256",
          "name": "index",
          "type": "uint256"
        }
      ],
      "name": "indexMarketTypeData",
      "outputs": [
        {
          "internalType": "uint256",
          "name": "",
          "type": "uint256"
        }
      ],
      "stateMutability": "view",
      "type": "function"
    },
    {
      "inputs": [
        {
          "internalType": "address",
          "name": "_aroundMarket",
          "type": "address"
        },
        {
          "internalType": "address",
          "name": "_oracle",
          "type": "address"
        }
      ],
      "name": "initialize",
      "outputs": [],
      "stateMutability": "nonpayable",
      "type": "function"
    },
    {
      "inputs": [],
      "name": "isInitialize",
      "outputs": [
        {
          "internalType": "bool",
          "name": "",
          "type": "bool"
        }
      ],
      "stateMutability": "view",
      "type": "function"
    },
    {
      "inputs": [],
      "name": "marketId",
      "outputs": [
        {
          "internalType": "uint256",
          "name": "",
          "type": "uint256"
        }
      ],
      "stateMutability": "view",
      "type": "function"
    },
    {
      "inputs": [],
      "name": "oracle",
      "outputs": [
        {
          "internalType": "address",
          "name": "",
          "type": "address"
        }
      ],
      "stateMutability": "view",
      "type": "function"
    },
    {
      "inputs": [],
      "name": "owner",
      "outputs": [
        {
          "internalType": "address",
          "name": "",
          "type": "address"
        }
      ],
      "stateMutability": "view",
      "type": "function"
    },
    {
      "inputs": [],
      "name": "renounceOwnership",
      "outputs": [],
      "stateMutability": "nonpayable",
      "type": "function"
    },
    {
      "inputs": [
        {
          "internalType": "uint16",
          "name": "newReferralCode",
          "type": "uint16"
        },
        {
          "internalType": "address",
          "name": "thisPool",
          "type": "address"
        },
        {
          "internalType": "address",
          "name": "thisAToken",
          "type": "address"
        },
        {
          "internalType": "address",
          "name": "thisAaveProtocolDataProvider",
          "type": "address"
        }
      ],
      "name": "setAaveInfo",
      "outputs": [],
      "stateMutability": "nonpayable",
      "type": "function"
    },
    {
      "inputs": [
        {
          "internalType": "address",
          "name": "_elf",
          "type": "address"
        }
      ],
      "name": "setElf",
      "outputs": [],
      "stateMutability": "nonpayable",
      "type": "function"
    },
    {
      "inputs": [
        {
          "internalType": "address",
          "name": "token",
          "type": "address"
        },
        {
          "internalType": "bool",
          "name": "state",
          "type": "bool"
        },
        {
          "internalType": "uint128",
          "name": "amount",
          "type": "uint128"
        }
      ],
      "name": "setTokenInfo",
      "outputs": [],
      "stateMutability": "nonpayable",
      "type": "function"
    },
    {
      "inputs": [
        {
          "internalType": "address",
          "name": "newOwner",
          "type": "address"
        }
      ],
      "name": "transferOwnership",
      "outputs": [],
      "stateMutability": "nonpayable",
      "type": "function"
    }
  ],
  "bytecode": "0x608060405260c8600060146101000a81548161ffff021916908361ffff1602179055506096600060166101000a81548161ffff021916908361ffff1602179055506064600060186101000a81548161ffff021916908361ffff16021790555060646000601a6101000a81548161ffff021916908361ffff16021790555060326000601c6101000a81548161ffff021916908361ffff1602179055506102586000601e6101000a81548161ffff021916908361ffff1602179055503480156100c557600080fd5b5033600073ffffffffffffffffffffffffffffffffffffffff168173ffffffffffffffffffffffffffffffffffffffff16036101395760006040517f1e4fbdf70000000000000000000000000000000000000000000000000000000081526004016101309190610253565b60405180910390fd5b6101488161014e60201b60201c565b5061026e565b60008060009054906101000a900473ffffffffffffffffffffffffffffffffffffffff169050816000806101000a81548173ffffffffffffffffffffffffffffffffffffffff021916908373ffffffffffffffffffffffffffffffffffffffff1602179055508173ffffffffffffffffffffffffffffffffffffffff168173ffffffffffffffffffffffffffffffffffffffff167f8be0079c531659141344cd1fd0a4f28419497f9722a3daafe3b4186f6b6457e060405160405180910390a35050565b600073ffffffffffffffffffffffffffffffffffffffff82169050919050565b600061023d82610212565b9050919050565b61024d81610232565b82525050565b60006020820190506102686000830184610244565b92915050565b615b7b8061027d6000396000f3fe608060405234801561001057600080fd5b50600436106101425760003560e01c80637dc0d1d0116100b8578063ba2f76df1161007c578063ba2f76df14610377578063db7c4abe14610395578063df24805d146103b1578063e9d118a4146103cf578063eeaabb28146103eb578063f2fde38b1461040757610142565b80637dc0d1d0146102ab5780638da5cb5b146102c9578063958bae87146102e7578063aa64b6b614610317578063ab344b811461034757610142565b8063485cc9551161010a578063485cc955146101fd57806359f34459146102195780636ed71ede14610235578063706ea1f914610253578063715018a614610271578063750396ca1461027b57610142565b80630691025b1461014757806306d122c7146101635780631f69565f1461017f5780632f380b35146101af5780633aa0d648146101df575b600080fd5b610161600480360381019061015c9190611deb565b610423565b005b61017d60048036038101906101789190611e3e565b6104fa565b005b61019960048036038101906101949190611e3e565b610546565b6040516101a69190611eb8565b60405180910390f35b6101c960048036038101906101c49190611f09565b610604565b6040516101d6919061204b565b60405180910390f35b6101e761081b565b6040516101f4919061207c565b60405180910390f35b61021760048036038101906102129190612097565b610841565b005b610233600480360381019061022e9190612161565b610931565b005b61023d610fbd565b60405161024a91906121f8565b60405180910390f35b61025b610fc3565b6040516102689190612285565b60405180910390f35b6102796110ff565b005b610295600480360381019061029091906122a0565b611113565b6040516102a291906121f8565b60405180910390f35b6102b3611157565b6040516102c0919061207c565b60405180910390f35b6102d161117d565b6040516102de919061207c565b60405180910390f35b61030160048036038101906102fc9190611f09565b6111a6565b60405161030e9190612382565b60405180910390f35b610331600480360381019061032c919061239d565b611218565b60405161033e9190612458565b60405180910390f35b610361600480360381019061035c9190612473565b6114ae565b60405161036e91906121f8565b60405180910390f35b61037f61150c565b60405161038c919061207c565b60405180910390f35b6103af60048036038101906103aa91906124df565b611532565b005b6103b961166b565b6040516103c69190612569565b60405180910390f35b6103e960048036038101906103e49190612584565b61167e565b005b610405600480360381019061040091906125c4565b611879565b005b610421600480360381019061041c9190611e3e565b611973565b005b61042b6119f9565b60405180604001604052808315158152602001826fffffffffffffffffffffffffffffffff16815250600960008573ffffffffffffffffffffffffffffffffffffffff1673ffffffffffffffffffffffffffffffffffffffff16815260200190815260200160002060008201518160000160006101000a81548160ff02191690831515021790555060208201518160000160016101000a8154816fffffffffffffffffffffffffffffffff02191690836fffffffffffffffffffffffffffffffff160217905550905050505050565b6105026119f9565b80600260006101000a81548173ffffffffffffffffffffffffffffffffffffffff021916908373ffffffffffffffffffffffffffffffffffffffff16021790555050565b61054e611b4c565b600960008373ffffffffffffffffffffffffffffffffffffffff1673ffffffffffffffffffffffffffffffffffffffff1681526020019081526020016000206040518060400160405290816000820160009054906101000a900460ff161515151581526020016000820160019054906101000a90046fffffffffffffffffffffffffffffffff166fffffffffffffffffffffffffffffffff166fffffffffffffffffffffffffffffffff16815250509050919050565b61060c611b7a565b600860008381526020019081526020016000206040518060a00160405290816000820160009054906101000a900473ffffffffffffffffffffffffffffffffffffffff1673ffffffffffffffffffffffffffffffffffffffff1673ffffffffffffffffffffffffffffffffffffffff1681526020016001820160009054906101000a900473ffffffffffffffffffffffffffffffffffffffff1673ffffffffffffffffffffffffffffffffffffffff1673ffffffffffffffffffffffffffffffffffffffff1681526020016002820160009054906101000a900473ffffffffffffffffffffffffffffffffffffffff1673ffffffffffffffffffffffffffffffffffffffff1673ffffffffffffffffffffffffffffffffffffffff1681526020016003820160009054906101000a900473ffffffffffffffffffffffffffffffffffffffff1673ffffffffffffffffffffffffffffffffffffffff1673ffffffffffffffffffffffffffffffffffffffff1681526020016004820180546107929061265a565b80601f01602080910402602001604051908101604052809291908181526020018280546107be9061265a565b801561080b5780601f106107e05761010080835404028352916020019161080b565b820191906000526020600020905b8154815290600101906020018083116107ee57829003601f168201915b5050505050815250509050919050565b600260009054906101000a900473ffffffffffffffffffffffffffffffffffffffff1681565b6108496119f9565b600360149054906101000a900460ff1615610890576040517f4945c38a00000000000000000000000000000000000000000000000000000000815260040160405180910390fd5b81600160006101000a81548173ffffffffffffffffffffffffffffffffffffffff021916908373ffffffffffffffffffffffffffffffffffffffff16021790555080600360006101000a81548173ffffffffffffffffffffffffffffffffffffffff021916908373ffffffffffffffffffffffffffffffffffffffff1602179055506001600360146101000a81548160ff0219169083151502179055505050565b6103e8828290501115610970576040517fbb5fc1d100000000000000000000000000000000000000000000000000000000815260040160405180910390fd5b60001515600960008673ffffffffffffffffffffffffffffffffffffffff1673ffffffffffffffffffffffffffffffffffffffff16815260200190815260200160002060000160009054906101000a900460ff161515036109fd576040517fc1ab6dc100000000000000000000000000000000000000000000000000000000815260040160405180910390fd5b6040518060c00160405280600060149054906101000a900461ffff1661ffff168152602001600060169054906101000a900461ffff1661ffff168152602001600060189054906101000a900461ffff1661ffff1681526020016000601c9054906101000a900461ffff1661ffff1681526020016000601a9054906101000a900461ffff1661ffff1681526020016000601e9054906101000a900461ffff1661ffff16815250600c6000600454815260200190815260200160002060008201518160000160006101000a81548161ffff021916908361ffff16021790555060208201518160000160026101000a81548161ffff021916908361ffff16021790555060408201518160000160046101000a81548161ffff021916908361ffff16021790555060608201518160000160066101000a81548161ffff021916908361ffff16021790555060808201518160000160086101000a81548161ffff021916908361ffff16021790555060a082015181600001600a6101000a81548161ffff021916908361ffff16021790555090505060006004543346604051602001610ba5939291906126f4565b60405160208183030381529060405280519060200120600160009054906101000a900473ffffffffffffffffffffffffffffffffffffffff1686604051610beb90611c01565b610bf6929190612731565b8190604051809103906000f5905080158015610c16573d6000803e3d6000fd5b50905060006004543346604051602001610c32939291906126f4565b60405160208183030381529060405280519060200120600160009054906101000a900473ffffffffffffffffffffffffffffffffffffffff16604051610c7790611c0e565b610c81919061207c565b8190604051809103906000f5905080158015610ca1573d6000803e3d6000fd5b5090508560086000600454815260200190815260200160002060000160006101000a81548173ffffffffffffffffffffffffffffffffffffffff021916908373ffffffffffffffffffffffffffffffffffffffff1602179055508160086000600454815260200190815260200160002060010160006101000a81548173ffffffffffffffffffffffffffffffffffffffff021916908373ffffffffffffffffffffffffffffffffffffffff1602179055508060086000600454815260200190815260200160002060020160006101000a81548173ffffffffffffffffffffffffffffffffffffffff021916908373ffffffffffffffffffffffffffffffffffffffff16021790555083836008600060045481526020019081526020016000206004019182610dd0929190612940565b508460086000600454815260200190815260200160002060030160006101000a81548173ffffffffffffffffffffffffffffffffffffffff021916908373ffffffffffffffffffffffffffffffffffffffff160217905550600a6000886007811115610e3f57610e3e6122cd565b5b6007811115610e5157610e506122cd565b5b815260200190815260200160002060045490806001815401808255809150506001900390600052602060002001600090919091909150556040518060400160405280886007811115610ea657610ea56122cd565b5b8152602001610eb489611113565b815250600b6000600454815260200190815260200160002060008201518160000160006101000a81548160ff02191690836007811115610ef757610ef66122cd565b5b021790555060208201518160010155905050600360009054906101000a900473ffffffffffffffffffffffffffffffffffffffff1673ffffffffffffffffffffffffffffffffffffffff1663df05a75260045486866040518463ffffffff1660e01b8152600401610f6a93929190612a5d565b600060405180830381600087803b158015610f8457600080fd5b505af1158015610f98573d6000803e3d6000fd5b5050505060046000815480929190610faf90612abe565b919050555050505050505050565b60045481565b610fcb611c1b565b60056040518060800160405290816000820160009054906101000a900461ffff1661ffff1661ffff1681526020016000820160029054906101000a900473ffffffffffffffffffffffffffffffffffffffff1673ffffffffffffffffffffffffffffffffffffffff1673ffffffffffffffffffffffffffffffffffffffff1681526020016001820160009054906101000a900473ffffffffffffffffffffffffffffffffffffffff1673ffffffffffffffffffffffffffffffffffffffff1673ffffffffffffffffffffffffffffffffffffffff1681526020016002820160009054906101000a900473ffffffffffffffffffffffffffffffffffffffff1673ffffffffffffffffffffffffffffffffffffffff1673ffffffffffffffffffffffffffffffffffffffff1681525050905090565b6111076119f9565b6111116000611a80565b565b6000600a600083600781111561112c5761112b6122cd565b5b600781111561113e5761113d6122cd565b5b8152602001908152602001600020805490509050919050565b600360009054906101000a900473ffffffffffffffffffffffffffffffffffffffff1681565b60008060009054906101000a900473ffffffffffffffffffffffffffffffffffffffff16905090565b6111ae611c89565b600b60008381526020019081526020016000206040518060400160405290816000820160009054906101000a900460ff1660078111156111f1576111f06122cd565b5b6007811115611203576112026122cd565b5b81526020016001820154815250509050919050565b611220611cb5565b600c60008481526020019081526020016000206040518060c00160405290816000820160009054906101000a900461ffff1661ffff1661ffff1681526020016000820160029054906101000a900461ffff1661ffff1661ffff1681526020016000820160049054906101000a900461ffff1661ffff1661ffff1681526020016000820160069054906101000a900461ffff1661ffff1661ffff1681526020016000820160089054906101000a900461ffff1661ffff1661ffff16815260200160008201600a9054906101000a900461ffff1661ffff1661ffff1681525050905060008073ffffffffffffffffffffffffffffffffffffffff16600260009054906101000a900473ffffffffffffffffffffffffffffffffffffffff1673ffffffffffffffffffffffffffffffffffffffff16146113f657600260009054906101000a900473ffffffffffffffffffffffffffffffffffffffff1673ffffffffffffffffffffffffffffffffffffffff166370a08231846040518263ffffffff1660e01b81526004016113b2919061207c565b602060405180830381865afa1580156113cf573d6000803e3d6000fd5b505050506040513d601f19601f820116820180604052508101906113f39190612b1b565b90505b60008111156114a7576040518060c001604052806002846000015161141b9190612b77565b61ffff168152602001600284602001516114359190612b77565b61ffff1681526020016002846040015161144f9190612b77565b61ffff168152602001600284606001516114699190612b77565b61ffff168152602001600284608001516114839190612b77565b61ffff16815260200160028460a0015161149d9190612b77565b61ffff1681525091505b5092915050565b6000600a60008460078111156114c7576114c66122cd565b5b60078111156114d9576114d86122cd565b5b815260200190815260200160002082815481106114f9576114f8612ba8565b5b9060005260206000200154905092915050565b600160009054906101000a900473ffffffffffffffffffffffffffffffffffffffff1681565b61153a6119f9565b84600060146101000a81548161ffff021916908361ffff160217905550816000601a6101000a81548161ffff021916908361ffff16021790555082600060186101000a81548161ffff021916908361ffff160217905550806000601c6101000a81548161ffff021916908361ffff16021790555083600060166101000a81548161ffff021916908361ffff160217905550600060169054906101000a900461ffff166000601c9054906101000a900461ffff16600060189054906101000a900461ffff166000601a9054906101000a900461ffff16600060149054906101000a900461ffff1661162a9190612bd7565b6116349190612bd7565b61163e9190612bd7565b6116489190612bd7565b6000601e6101000a81548161ffff021916908361ffff1602179055505050505050565b600360149054906101000a900460ff1681565b6116866119f9565b6000611691836111a6565b600001519050600a60008260078111156116ae576116ad6122cd565b5b60078111156116c0576116bf6122cd565b5b81526020019081526020016000206116d782611113565b815481106116e8576116e7612ba8565b5b9060005260206000200154600a600083600781111561170a576117096122cd565b5b600781111561171c5761171b6122cd565b5b8152602001908152602001600020611733856111a6565b602001518154811061174857611747612ba8565b5b9060005260206000200181905550600a600082600781111561176d5761176c6122cd565b5b600781111561177f5761177e6122cd565b5b815260200190815260200160002061179682611113565b815481106117a7576117a6612ba8565b5b906000526020600020016000905581600b600085815260200190815260200160002060000160006101000a81548160ff021916908360078111156117ee576117ed6122cd565b5b0217905550600a600083600781111561180a576118096122cd565b5b600781111561181c5761181b6122cd565b5b815260200190815260200160002083908060018154018082558091505060019003906000526020600020016000909190919091505561185a82611113565b600b600085815260200190815260200160002060010181905550505050565b6118816119f9565b82600560000160026101000a81548173ffffffffffffffffffffffffffffffffffffffff021916908373ffffffffffffffffffffffffffffffffffffffff16021790555081600560010160006101000a81548173ffffffffffffffffffffffffffffffffffffffff021916908373ffffffffffffffffffffffffffffffffffffffff16021790555080600560020160006101000a81548173ffffffffffffffffffffffffffffffffffffffff021916908373ffffffffffffffffffffffffffffffffffffffff16021790555083600560000160006101000a81548161ffff021916908361ffff16021790555050505050565b61197b6119f9565b600073ffffffffffffffffffffffffffffffffffffffff168173ffffffffffffffffffffffffffffffffffffffff16036119ed5760006040517f1e4fbdf70000000000000000000000000000000000000000000000000000000081526004016119e4919061207c565b60405180910390fd5b6119f681611a80565b50565b611a01611b44565b73ffffffffffffffffffffffffffffffffffffffff16611a1f61117d565b73ffffffffffffffffffffffffffffffffffffffff1614611a7e57611a42611b44565b6040517f118cdaa7000000000000000000000000000000000000000000000000000000008152600401611a75919061207c565b60405180910390fd5b565b60008060009054906101000a900473ffffffffffffffffffffffffffffffffffffffff169050816000806101000a81548173ffffffffffffffffffffffffffffffffffffffff021916908373ffffffffffffffffffffffffffffffffffffffff1602179055508173ffffffffffffffffffffffffffffffffffffffff168173ffffffffffffffffffffffffffffffffffffffff167f8be0079c531659141344cd1fd0a4f28419497f9722a3daafe3b4186f6b6457e060405160405180910390a35050565b600033905090565b604051806040016040528060001515815260200160006fffffffffffffffffffffffffffffffff1681525090565b6040518060a00160405280600073ffffffffffffffffffffffffffffffffffffffff168152602001600073ffffffffffffffffffffffffffffffffffffffff168152602001600073ffffffffffffffffffffffffffffffffffffffff168152602001600073ffffffffffffffffffffffffffffffffffffffff168152602001606081525090565b61187280612c0e83390190565b6116c68061448083390190565b6040518060800160405280600061ffff168152602001600073ffffffffffffffffffffffffffffffffffffffff168152602001600073ffffffffffffffffffffffffffffffffffffffff168152602001600073ffffffffffffffffffffffffffffffffffffffff1681525090565b604051806040016040528060006007811115611ca857611ca76122cd565b5b8152602001600081525090565b6040518060c00160405280600061ffff168152602001600061ffff168152602001600061ffff168152602001600061ffff168152602001600061ffff168152602001600061ffff1681525090565b600080fd5b600080fd5b600073ffffffffffffffffffffffffffffffffffffffff82169050919050565b6000611d3882611d0d565b9050919050565b611d4881611d2d565b8114611d5357600080fd5b50565b600081359050611d6581611d3f565b92915050565b60008115159050919050565b611d8081611d6b565b8114611d8b57600080fd5b50565b600081359050611d9d81611d77565b92915050565b60006fffffffffffffffffffffffffffffffff82169050919050565b611dc881611da3565b8114611dd357600080fd5b50565b600081359050611de581611dbf565b92915050565b600080600060608486031215611e0457611e03611d03565b5b6000611e1286828701611d56565b9350506020611e2386828701611d8e565b9250506040611e3486828701611dd6565b9150509250925092565b600060208284031215611e5457611e53611d03565b5b6000611e6284828501611d56565b91505092915050565b611e7481611d6b565b82525050565b611e8381611da3565b82525050565b604082016000820151611e9f6000850182611e6b565b506020820151611eb26020850182611e7a565b50505050565b6000604082019050611ecd6000830184611e89565b92915050565b6000819050919050565b611ee681611ed3565b8114611ef157600080fd5b50565b600081359050611f0381611edd565b92915050565b600060208284031215611f1f57611f1e611d03565b5b6000611f2d84828501611ef4565b91505092915050565b611f3f81611d2d565b82525050565b600081519050919050565b600082825260208201905092915050565b60005b83811015611f7f578082015181840152602081019050611f64565b60008484015250505050565b6000601f19601f8301169050919050565b6000611fa782611f45565b611fb18185611f50565b9350611fc1818560208601611f61565b611fca81611f8b565b840191505092915050565b600060a083016000830151611fed6000860182611f36565b5060208301516120006020860182611f36565b5060408301516120136040860182611f36565b5060608301516120266060860182611f36565b506080830151848203608086015261203e8282611f9c565b9150508091505092915050565b600060208201905081810360008301526120658184611fd5565b905092915050565b61207681611d2d565b82525050565b6000602082019050612091600083018461206d565b92915050565b600080604083850312156120ae576120ad611d03565b5b60006120bc85828601611d56565b92505060206120cd85828601611d56565b9150509250929050565b600881106120e457600080fd5b50565b6000813590506120f6816120d7565b92915050565b600080fd5b600080fd5b600080fd5b60008083601f840112612121576121206120fc565b5b8235905067ffffffffffffffff81111561213e5761213d612101565b5b60208301915083600182028301111561215a57612159612106565b5b9250929050565b60008060008060006080868803121561217d5761217c611d03565b5b600061218b888289016120e7565b955050602061219c88828901611d56565b94505060406121ad88828901611d56565b935050606086013567ffffffffffffffff8111156121ce576121cd611d08565b5b6121da8882890161210b565b92509250509295509295909350565b6121f281611ed3565b82525050565b600060208201905061220d60008301846121e9565b92915050565b600061ffff82169050919050565b61222a81612213565b82525050565b6080820160008201516122466000850182612221565b5060208201516122596020850182611f36565b50604082015161226c6040850182611f36565b50606082015161227f6060850182611f36565b50505050565b600060808201905061229a6000830184612230565b92915050565b6000602082840312156122b6576122b5611d03565b5b60006122c4848285016120e7565b91505092915050565b7f4e487b7100000000000000000000000000000000000000000000000000000000600052602160045260246000fd5b6008811061230d5761230c6122cd565b5b50565b600081905061231e826122fc565b919050565b600061232e82612310565b9050919050565b61233e81612323565b82525050565b61234d81611ed3565b82525050565b6040820160008201516123696000850182612335565b50602082015161237c6020850182612344565b50505050565b60006040820190506123976000830184612353565b92915050565b600080604083850312156123b4576123b3611d03565b5b60006123c285828601611ef4565b92505060206123d385828601611d56565b9150509250929050565b60c0820160008201516123f36000850182612221565b5060208201516124066020850182612221565b5060408201516124196040850182612221565b50606082015161242c6060850182612221565b50608082015161243f6080850182612221565b5060a082015161245260a0850182612221565b50505050565b600060c08201905061246d60008301846123dd565b92915050565b6000806040838503121561248a57612489611d03565b5b6000612498858286016120e7565b92505060206124a985828601611ef4565b9150509250929050565b6124bc81612213565b81146124c757600080fd5b50565b6000813590506124d9816124b3565b92915050565b600080600080600060a086880312156124fb576124fa611d03565b5b6000612509888289016124ca565b955050602061251a888289016124ca565b945050604061252b888289016124ca565b935050606061253c888289016124ca565b925050608061254d888289016124ca565b9150509295509295909350565b61256381611d6b565b82525050565b600060208201905061257e600083018461255a565b92915050565b6000806040838503121561259b5761259a611d03565b5b60006125a985828601611ef4565b92505060206125ba858286016120e7565b9150509250929050565b600080600080608085870312156125de576125dd611d03565b5b60006125ec878288016124ca565b94505060206125fd87828801611d56565b935050604061260e87828801611d56565b925050606061261f87828801611d56565b91505092959194509250565b7f4e487b7100000000000000000000000000000000000000000000000000000000600052602260045260246000fd5b6000600282049050600182168061267257607f821691505b6020821081036126855761268461262b565b5b50919050565b6000819050919050565b6126a66126a182611ed3565b61268b565b82525050565b60008160601b9050919050565b60006126c4826126ac565b9050919050565b60006126d6826126b9565b9050919050565b6126ee6126e982611d2d565b6126cb565b82525050565b60006127008286612695565b60208201915061271082856126dd565b6014820191506127208284612695565b602082019150819050949350505050565b6000604082019050612746600083018561206d565b612753602083018461206d565b9392505050565b600082905092915050565b7f4e487b7100000000000000000000000000000000000000000000000000000000600052604160045260246000fd5b60008190508160005260206000209050919050565b60006020601f8301049050919050565b600082821b905092915050565b6000600883026127f67fffffffffffffffffffffffffffffffffffffffffffffffffffffffffffffffff826127b9565b61280086836127b9565b95508019841693508086168417925050509392505050565b6000819050919050565b600061283d61283861283384611ed3565b612818565b611ed3565b9050919050565b6000819050919050565b61285783612822565b61286b61286382612844565b8484546127c6565b825550505050565b600090565b612880612873565b61288b81848461284e565b505050565b5b818110156128af576128a4600082612878565b600181019050612891565b5050565b601f8211156128f4576128c581612794565b6128ce846127a9565b810160208510156128dd578190505b6128f16128e9856127a9565b830182612890565b50505b505050565b600082821c905092915050565b6000612917600019846008026128f9565b1980831691505092915050565b60006129308383612906565b9150826002028217905092915050565b61294a838361275a565b67ffffffffffffffff81111561296357612962612765565b5b61296d825461265a565b6129788282856128b3565b6000601f8311600181146129a75760008415612995578287013590505b61299f8582612924565b865550612a07565b601f1984166129b586612794565b60005b828110156129dd578489013582556001820191506020850194506020810190506129b8565b868310156129fa57848901356129f6601f891682612906565b8355505b6001600288020188555050505b50505050505050565b600082825260208201905092915050565b82818337600083830152505050565b6000612a3c8385612a10565b9350612a49838584612a21565b612a5283611f8b565b840190509392505050565b6000604082019050612a7260008301866121e9565b8181036020830152612a85818486612a30565b9050949350505050565b7f4e487b7100000000000000000000000000000000000000000000000000000000600052601160045260246000fd5b6000612ac982611ed3565b91507fffffffffffffffffffffffffffffffffffffffffffffffffffffffffffffffff8203612afb57612afa612a8f565b5b600182019050919050565b600081519050612b1581611edd565b92915050565b600060208284031215612b3157612b30611d03565b5b6000612b3f84828501612b06565b91505092915050565b7f4e487b7100000000000000000000000000000000000000000000000000000000600052601260045260246000fd5b6000612b8282612213565b9150612b8d83612213565b925082612b9d57612b9c612b48565b5b828204905092915050565b7f4e487b7100000000000000000000000000000000000000000000000000000000600052603260045260246000fd5b6000612be282612213565b9150612bed83612213565b9250828201905061ffff811115612c0757612c06612a8f565b5b9291505056fe60806040526127106000806101000a81548167ffffffffffffffff021916908367ffffffffffffffff16021790555034801561003a57600080fd5b50604051611872380380611872833981810160405281019061005c9190610189565b33600060086101000a81548173ffffffffffffffffffffffffffffffffffffffff021916908373ffffffffffffffffffffffffffffffffffffffff16021790555081600160006101000a81548173ffffffffffffffffffffffffffffffffffffffff021916908373ffffffffffffffffffffffffffffffffffffffff16021790555080600260006101000a81548173ffffffffffffffffffffffffffffffffffffffff021916908373ffffffffffffffffffffffffffffffffffffffff16021790555050506101c9565b600080fd5b600073ffffffffffffffffffffffffffffffffffffffff82169050919050565b60006101568261012b565b9050919050565b6101668161014b565b811461017157600080fd5b50565b6000815190506101838161015d565b92915050565b600080604083850312156101a05761019f610126565b5b60006101ae85828601610174565b92505060206101bf85828601610174565b9150509250929050565b61169a806101d86000396000f3fe608060405234801561001057600080fd5b50600436106100935760003560e01c806397debec01161006657806397debec01461010c578063ba2f76df14610128578063f885d3a514610146578063fc0c546a14610164578063ffe777bd1461018257610093565b80631ef27dee146100985780632d2fb774146100b65780637be0fde0146100d257806389a40fb3146100f0575b600080fd5b6100a06101a0565b6040516100ad9190611012565b60405180910390f35b6100d060048036038101906100cb91906110bc565b6101c6565b005b6100da61030e565b6040516100e7919061110b565b60405180910390f35b61010a60048036038101906101059190611152565b610321565b005b610126600480360381019061012191906111b9565b6104f5565b005b61013061078e565b60405161013d9190611012565b60405180910390f35b61014e6107b4565b60405161015b919061110b565b60405180910390f35b61016c610862565b6040516101799190611012565b60405180910390f35b61018a610888565b6040516101979190611237565b60405180910390f35b600060089054906101000a900473ffffffffffffffffffffffffffffffffffffffff1681565b6101ce610936565b80600360000160108282829054906101000a90046fffffffffffffffffffffffffffffffff166101fe9190611281565b92506101000a8154816fffffffffffffffffffffffffffffffff02191690836fffffffffffffffffffffffffffffffff160217905550811561030a57610265600260009054906101000a900473ffffffffffffffffffffffffffffffffffffffff16610992565b600360000160008282829054906101000a90046fffffffffffffffffffffffffffffffff166102949190611281565b92506101000a8154816fffffffffffffffffffffffffffffffff02191690836fffffffffffffffffffffffffffffffff1602179055506103096102d5610a15565b60200151610304600260009054906101000a900473ffffffffffffffffffffffffffffffffffffffff16610992565b610ab3565b5b5050565b600260149054906101000a900460ff1681565b610329610936565b6000610333610a15565b60200151905081600360000160108282829054906101000a90046fffffffffffffffffffffffffffffffff1661036991906112c5565b92506101000a8154816fffffffffffffffffffffffffffffffff02191690836fffffffffffffffffffffffffffffffff16021790555083156103af576103ae81610bf6565b5b61040e83836fffffffffffffffffffffffffffffffff16600260009054906101000a900473ffffffffffffffffffffffffffffffffffffffff1673ffffffffffffffffffffffffffffffffffffffff16610e049092919063ffffffff16565b600061043b600260009054906101000a900473ffffffffffffffffffffffffffffffffffffffff16610992565b90506000151586151514801561044e5750845b1561045e5761045d8282610ab3565b5b826fffffffffffffffffffffffffffffffff168473ffffffffffffffffffffffffffffffffffffffff16600260009054906101000a900473ffffffffffffffffffffffffffffffffffffffff1673ffffffffffffffffffffffffffffffffffffffff167fa39f8c1887aff4b4dfaf2f8af59c176175edb7bcfe5a95736e017ce4342535c860405160405180910390a4505050505050565b6104fd610936565b600260149054906101000a900460ff1615610544576040517ff07acc8700000000000000000000000000000000000000000000000000000000815260040160405180910390fd5b801561055f5761055e610555610a15565b60200151610bf6565b5b60008061058d600260009054906101000a900473ffffffffffffffffffffffffffffffffffffffff16610992565b9050831561059d57809150610694565b600360000160109054906101000a90046fffffffffffffffffffffffffffffffff166fffffffffffffffffffffffffffffffff16816fffffffffffffffffffffffffffffffff16111561062c576000600360000160006101000a8154816fffffffffffffffffffffffffffffffff02191690836fffffffffffffffffffffffffffffffff160217905550610693565b80600360000160008282829054906101000a90046fffffffffffffffffffffffffffffffff1661065c91906112c5565b92506101000a8154816fffffffffffffffffffffffffffffffff02191690836fffffffffffffffffffffffffffffffff1602179055505b5b6000826fffffffffffffffffffffffffffffffff16111561073157610730600060089054906101000a900473ffffffffffffffffffffffffffffffffffffffff16836fffffffffffffffffffffffffffffffff16600260009054906101000a900473ffffffffffffffffffffffffffffffffffffffff1673ffffffffffffffffffffffffffffffffffffffff16610e049092919063ffffffff16565b5b80600360000160106101000a8154816fffffffffffffffffffffffffffffffff02191690836fffffffffffffffffffffffffffffffff1602179055506001600260146101000a81548160ff02191690831515021790555050505050565b600160009054906101000a900473ffffffffffffffffffffffffffffffffffffffff1681565b60006107be610a15565b6060015173ffffffffffffffffffffffffffffffffffffffff1663b55d9904600260009054906101000a900473ffffffffffffffffffffffffffffffffffffffff166040518263ffffffff1660e01b815260040161081c9190611012565b602060405180830381865afa158015610839573d6000803e3d6000fd5b505050506040513d601f19601f8201168201806040525081019061085d919061131e565b905090565b600260009054906101000a900473ffffffffffffffffffffffffffffffffffffffff1681565b610890610f25565b60036040518060400160405290816000820160009054906101000a90046fffffffffffffffffffffffffffffffff166fffffffffffffffffffffffffffffffff166fffffffffffffffffffffffffffffffff1681526020016000820160109054906101000a90046fffffffffffffffffffffffffffffffff166fffffffffffffffffffffffffffffffff166fffffffffffffffffffffffffffffffff1681525050905090565b600160009054906101000a900473ffffffffffffffffffffffffffffffffffffffff1673ffffffffffffffffffffffffffffffffffffffff163373ffffffffffffffffffffffffffffffffffffffff161461099057600080fd5b565b60008173ffffffffffffffffffffffffffffffffffffffff166370a08231306040518263ffffffff1660e01b81526004016109cd9190611012565b602060405180830381865afa1580156109ea573d6000803e3d6000fd5b505050506040513d601f19601f82011682018060405250810190610a0e9190611381565b9050919050565b610a1d610f63565b600060089054906101000a900473ffffffffffffffffffffffffffffffffffffffff1673ffffffffffffffffffffffffffffffffffffffff1663706ea1f96040518163ffffffff1660e01b8152600401608060405180830381865afa158015610a8a573d6000803e3d6000fd5b505050506040513d601f19601f82011682018060405250810190610aae9190611506565b905090565b600260009054906101000a900473ffffffffffffffffffffffffffffffffffffffff1673ffffffffffffffffffffffffffffffffffffffff1663095ea7b383836040518363ffffffff1660e01b8152600401610b10929190611542565b6020604051808303816000875af1158015610b2f573d6000803e3d6000fd5b505050506040513d601f19601f82011682018060405250810190610b53919061131e565b508173ffffffffffffffffffffffffffffffffffffffff1663e8eda9df600260009054906101000a900473ffffffffffffffffffffffffffffffffffffffff168330610b9d610a15565b600001516040518563ffffffff1660e01b8152600401610bc0949392919061157a565b600060405180830381600087803b158015610bda57600080fd5b505af1158015610bee573d6000803e3d6000fd5b505050505050565b6000610c00610a15565b6040015190506000610c1182610992565b90506000811115610dff578173ffffffffffffffffffffffffffffffffffffffff1663095ea7b3847fffffffffffffffffffffffffffffffffffffffffffffffffffffffffffffffff6040518363ffffffff1660e01b8152600401610c77929190611542565b6020604051808303816000875af1158015610c96573d6000803e3d6000fd5b505050506040513d601f19601f82011682018060405250810190610cba919061131e565b508273ffffffffffffffffffffffffffffffffffffffff166369328dec600260009054906101000a900473ffffffffffffffffffffffffffffffffffffffff167fffffffffffffffffffffffffffffffffffffffffffffffffffffffffffffffff306040518463ffffffff1660e01b8152600401610d3a939291906115bf565b6020604051808303816000875af1158015610d59573d6000803e3d6000fd5b505050506040513d601f19601f82011682018060405250810190610d7d9190611381565b508173ffffffffffffffffffffffffffffffffffffffff1663095ea7b38460006040518363ffffffff1660e01b8152600401610dba92919061163b565b6020604051808303816000875af1158015610dd9573d6000803e3d6000fd5b505050506040513d601f19601f82011682018060405250810190610dfd919061131e565b505b505050565b610e7e838473ffffffffffffffffffffffffffffffffffffffff1663a9059cbb8585604051602401610e37929190611542565b604051602081830303815290604052915060e01b6020820180517bffffffffffffffffffffffffffffffffffffffffffffffffffffffff8381831617835250505050610e83565b505050565b600080602060008451602086016000885af180610ea6576040513d6000823e3d81fd5b3d925060005191505060008214610ec1576001811415610edd565b60008473ffffffffffffffffffffffffffffffffffffffff163b145b15610f1f57836040517f5274afe7000000000000000000000000000000000000000000000000000000008152600401610f169190611012565b60405180910390fd5b50505050565b604051806040016040528060006fffffffffffffffffffffffffffffffff16815260200160006fffffffffffffffffffffffffffffffff1681525090565b6040518060800160405280600061ffff168152602001600073ffffffffffffffffffffffffffffffffffffffff168152602001600073ffffffffffffffffffffffffffffffffffffffff168152602001600073ffffffffffffffffffffffffffffffffffffffff1681525090565b600073ffffffffffffffffffffffffffffffffffffffff82169050919050565b6000610ffc82610fd1565b9050919050565b61100c81610ff1565b82525050565b60006020820190506110276000830184611003565b92915050565b6000604051905090565b600080fd5b60008115159050919050565b6110518161103c565b811461105c57600080fd5b50565b60008135905061106e81611048565b92915050565b60006fffffffffffffffffffffffffffffffff82169050919050565b61109981611074565b81146110a457600080fd5b50565b6000813590506110b681611090565b92915050565b600080604083850312156110d3576110d2611037565b5b60006110e18582860161105f565b92505060206110f2858286016110a7565b9150509250929050565b6111058161103c565b82525050565b600060208201905061112060008301846110fc565b92915050565b61112f81610ff1565b811461113a57600080fd5b50565b60008135905061114c81611126565b92915050565b6000806000806080858703121561116c5761116b611037565b5b600061117a8782880161105f565b945050602061118b8782880161105f565b935050604061119c8782880161113d565b92505060606111ad878288016110a7565b91505092959194509250565b600080604083850312156111d0576111cf611037565b5b60006111de8582860161105f565b92505060206111ef8582860161105f565b9150509250929050565b61120281611074565b82525050565b60408201600082015161121e60008501826111f9565b50602082015161123160208501826111f9565b50505050565b600060408201905061124c6000830184611208565b92915050565b7f4e487b7100000000000000000000000000000000000000000000000000000000600052601160045260246000fd5b600061128c82611074565b915061129783611074565b925082820190506fffffffffffffffffffffffffffffffff8111156112bf576112be611252565b5b92915050565b60006112d082611074565b91506112db83611074565b925082820390506fffffffffffffffffffffffffffffffff81111561130357611302611252565b5b92915050565b60008151905061131881611048565b92915050565b60006020828403121561133457611333611037565b5b600061134284828501611309565b91505092915050565b6000819050919050565b61135e8161134b565b811461136957600080fd5b50565b60008151905061137b81611355565b92915050565b60006020828403121561139757611396611037565b5b60006113a58482850161136c565b91505092915050565b600080fd5b6000601f19601f8301169050919050565b7f4e487b7100000000000000000000000000000000000000000000000000000000600052604160045260246000fd5b6113fc826113b3565b810181811067ffffffffffffffff8211171561141b5761141a6113c4565b5b80604052505050565b600061142e61102d565b905061143a82826113f3565b919050565b600061ffff82169050919050565b6114568161143f565b811461146157600080fd5b50565b6000815190506114738161144d565b92915050565b60008151905061148881611126565b92915050565b6000608082840312156114a4576114a36113ae565b5b6114ae6080611424565b905060006114be84828501611464565b60008301525060206114d284828501611479565b60208301525060406114e684828501611479565b60408301525060606114fa84828501611479565b60608301525092915050565b60006080828403121561151c5761151b611037565b5b600061152a8482850161148e565b91505092915050565b61153c8161134b565b82525050565b60006040820190506115576000830185611003565b6115646020830184611533565b9392505050565b6115748161143f565b82525050565b600060808201905061158f6000830187611003565b61159c6020830186611533565b6115a96040830185611003565b6115b6606083018461156b565b95945050505050565b60006060820190506115d46000830186611003565b6115e16020830185611533565b6115ee6040830184611003565b949350505050565b6000819050919050565b6000819050919050565b600061162561162061161b846115f6565b611600565b61134b565b9050919050565b6116358161160a565b82525050565b60006040820190506116506000830185611003565b61165d602083018461162c565b939250505056fea2646970667358221220bdc0aa86035e99a784ac83459a8736e1adc895fd1661ab5eb238ad9adfbdefd064736f6c634300081a0033608060405234801561001057600080fd5b506040516116c63803806116c68339818101604052810190610032919061011d565b33600160006101000a81548173ffffffffffffffffffffffffffffffffffffffff021916908373ffffffffffffffffffffffffffffffffffffffff16021790555080600260006101000a81548173ffffffffffffffffffffffffffffffffffffffff021916908373ffffffffffffffffffffffffffffffffffffffff1602179055505061014a565b600080fd5b600073ffffffffffffffffffffffffffffffffffffffff82169050919050565b60006100ea826100bf565b9050919050565b6100fa816100df565b811461010557600080fd5b50565b600081519050610117816100f1565b92915050565b600060208284031215610133576101326100ba565b5b600061014184828501610108565b91505092915050565b61156d806101596000396000f3fe608060405234801561001057600080fd5b506004361061004c5760003560e01c80635e93ea4f14610051578063b20eb4c41461006f578063bf205ebc1461008b578063fcf488a9146100a9575b600080fd5b6100596100c7565b6040516100669190610ac5565b60405180910390f35b61008960048036038101906100849190610b2a565b6100da565b005b61009361048d565b6040516100a09190610b7a565b60405180910390f35b6100b16104a5565b6040516100be9190610bd6565b60405180910390f35b600260149054906101000a900460ff1681565b600260149054906101000a900460ff1615610121576040517fa727014000000000000000000000000000000000000000000000000000000000815260040160405180910390fd5b6000600260009054906101000a900473ffffffffffffffffffffffffffffffffffffffff1673ffffffffffffffffffffffffffffffffffffffff16633ec79193836040518263ffffffff1660e01b815260040161017e9190610c00565b61010060405180830381865afa15801561019c573d6000803e3d6000fd5b505050506040513d601f19601f820116820180604052508101906101c09190610e5e565b60e0015190506000600260009054906101000a900473ffffffffffffffffffffffffffffffffffffffff1673ffffffffffffffffffffffffffffffffffffffff16633ec79193846040518263ffffffff1660e01b81526004016102239190610c00565b61010060405180830381865afa158015610241573d6000803e3d6000fd5b505050506040513d601f19601f820116820180604052508101906102659190610e5e565b60a001519050611c20816102799190610ebb565b67ffffffffffffffff164210156102bc576040517fb473605e00000000000000000000000000000000000000000000000000000000815260040160405180910390fd5b60008267ffffffffffffffff1603610300576040517f98f604ac00000000000000000000000000000000000000000000000000000000815260040160405180910390fd5b6000600260009054906101000a900473ffffffffffffffffffffffffffffffffffffffff1673ffffffffffffffffffffffffffffffffffffffff16637dc0d1d06040518163ffffffff1660e01b8152600401602060405180830381865afa15801561036f573d6000803e3d6000fd5b505050506040513d601f19601f820116820180604052508101906103939190610ef7565b905060008173ffffffffffffffffffffffffffffffffffffffff16639276ade5866040518263ffffffff1660e01b81526004016103d09190610c00565b600060405180830381865afa1580156103ed573d6000803e3d6000fd5b505050506040513d6000823e3d601f19601f82011682018060405250810190610416919061137b565b60800151905060008167ffffffffffffffff1603610460576040517f92a7f1ec00000000000000000000000000000000000000000000000000000000815260040160405180910390fd5b61046b8582866104cb565b6001600260146101000a81548160ff0219169083151502179055505050505050565b60008054906101000a900467ffffffffffffffff1681565b600060089054906101000a900473ffffffffffffffffffffffffffffffffffffffff1681565b6104d5828261090a565b6000806101000a81548167ffffffffffffffff021916908367ffffffffffffffff1602179055506000600260009054906101000a900473ffffffffffffffffffffffffffffffffffffffff1673ffffffffffffffffffffffffffffffffffffffff16633ec79193856040518263ffffffff1660e01b81526004016105599190610c00565b61010060405180830381865afa158015610577573d6000803e3d6000fd5b505050506040513d601f19601f8201168201806040525081019061059b9190610e5e565b60c001519050600073ffffffffffffffffffffffffffffffffffffffff168173ffffffffffffffffffffffffffffffffffffffff1603610607576040517fd92e233d00000000000000000000000000000000000000000000000000000000815260040160405180910390fd5b60008173ffffffffffffffffffffffffffffffffffffffff166370a08231306040518263ffffffff1660e01b81526004016106429190610bd6565b602060405180830381865afa15801561065f573d6000803e3d6000fd5b505050506040513d601f19601f8201168201806040525081019061068391906113c4565b9050600081036106bf576040517f1f2a200500000000000000000000000000000000000000000000000000000000815260040160405180910390fd5b600260009054906101000a900473ffffffffffffffffffffffffffffffffffffffff1673ffffffffffffffffffffffffffffffffffffffff1663318fe3128660008054906101000a900467ffffffffffffffff166040518363ffffffff1660e01b81526004016107309291906113f1565b602060405180830381865afa15801561074d573d6000803e3d6000fd5b505050506040513d601f19601f820116820180604052508101906107719190610ef7565b600060086101000a81548173ffffffffffffffffffffffffffffffffffffffff021916908373ffffffffffffffffffffffffffffffffffffffff160217905550600073ffffffffffffffffffffffffffffffffffffffff16600060089054906101000a900473ffffffffffffffffffffffffffffffffffffffff1673ffffffffffffffffffffffffffffffffffffffff1603610839576040517fd92e233d00000000000000000000000000000000000000000000000000000000815260040160405180910390fd5b610886600060089054906101000a900473ffffffffffffffffffffffffffffffffffffffff16828473ffffffffffffffffffffffffffffffffffffffff166109899092919063ffffffff16565b80600060089054906101000a900473ffffffffffffffffffffffffffffffffffffffff1673ffffffffffffffffffffffffffffffffffffffff163373ffffffffffffffffffffffffffffffffffffffff167fad71f93891cecc86a28a627d5495c28fabbd31cdd2e93851b16ce3421fdab2e560405160405180910390a45050505050565b600060018267ffffffffffffffff16036109275760019050610983565b8167ffffffffffffffff1683428460405160200161094793929190611471565b6040516020818303038152906040528051906020012060001c61096a91906114dd565b905060008103610982578167ffffffffffffffff1690505b5b92915050565b610a03838473ffffffffffffffffffffffffffffffffffffffff1663a9059cbb85856040516024016109bc92919061150e565b604051602081830303815290604052915060e01b6020820180517bffffffffffffffffffffffffffffffffffffffffffffffffffffffff8381831617835250505050610a08565b505050565b600080602060008451602086016000885af180610a2b576040513d6000823e3d81fd5b3d925060005191505060008214610a46576001811415610a62565b60008473ffffffffffffffffffffffffffffffffffffffff163b145b15610aa457836040517f5274afe7000000000000000000000000000000000000000000000000000000008152600401610a9b9190610bd6565b60405180910390fd5b50505050565b60008115159050919050565b610abf81610aaa565b82525050565b6000602082019050610ada6000830184610ab6565b92915050565b6000604051905090565b600080fd5b600080fd5b6000819050919050565b610b0781610af4565b8114610b1257600080fd5b50565b600081359050610b2481610afe565b92915050565b600060208284031215610b4057610b3f610aea565b5b6000610b4e84828501610b15565b91505092915050565b600067ffffffffffffffff82169050919050565b610b7481610b57565b82525050565b6000602082019050610b8f6000830184610b6b565b92915050565b600073ffffffffffffffffffffffffffffffffffffffff82169050919050565b6000610bc082610b95565b9050919050565b610bd081610bb5565b82525050565b6000602082019050610beb6000830184610bc7565b92915050565b610bfa81610af4565b82525050565b6000602082019050610c156000830184610bf1565b92915050565b600080fd5b6000601f19601f8301169050919050565b7f4e487b7100000000000000000000000000000000000000000000000000000000600052604160045260246000fd5b610c6982610c20565b810181811067ffffffffffffffff82111715610c8857610c87610c31565b5b80604052505050565b6000610c9b610ae0565b9050610ca78282610c60565b919050565b600080fd5b60048110610cbe57600080fd5b50565b600081519050610cd081610cb1565b92915050565b610cdf81610aaa565b8114610cea57600080fd5b50565b600081519050610cfc81610cd6565b92915050565b600061ffff82169050919050565b610d1981610d02565b8114610d2457600080fd5b50565b600081519050610d3681610d10565b92915050565b610d4581610b57565b8114610d5057600080fd5b50565b600081519050610d6281610d3c565b92915050565b610d7181610bb5565b8114610d7c57600080fd5b50565b600081519050610d8e81610d68565b92915050565b60006101008284031215610dab57610daa610c1b565b5b610db6610100610c91565b90506000610dc684828501610cc1565b6000830152506020610dda84828501610ced565b6020830152506040610dee84828501610ced565b6040830152506060610e0284828501610d27565b6060830152506080610e1684828501610d53565b60808301525060a0610e2a84828501610d53565b60a08301525060c0610e3e84828501610d7f565b60c08301525060e0610e5284828501610d53565b60e08301525092915050565b60006101008284031215610e7557610e74610aea565b5b6000610e8384828501610d94565b91505092915050565b7f4e487b7100000000000000000000000000000000000000000000000000000000600052601160045260246000fd5b6000610ec682610b57565b9150610ed183610b57565b9250828201905067ffffffffffffffff811115610ef157610ef0610e8c565b5b92915050565b600060208284031215610f0d57610f0c610aea565b5b6000610f1b84828501610d7f565b91505092915050565b60038110610f3157600080fd5b50565b600081519050610f4381610f24565b92915050565b60038110610f5657600080fd5b50565b600081519050610f6881610f49565b92915050565b600081519050610f7d81610afe565b92915050565b600080fd5b600080fd5b600067ffffffffffffffff821115610fa857610fa7610c31565b5b610fb182610c20565b9050602081019050919050565b60005b83811015610fdc578082015181840152602081019050610fc1565b60008484015250505050565b6000610ffb610ff684610f8d565b610c91565b90508281526020810184848401111561101757611016610f88565b5b611022848285610fbe565b509392505050565b600082601f83011261103f5761103e610f83565b5b815161104f848260208601610fe8565b91505092915050565b6002811061106557600080fd5b50565b60008151905061107781611058565b92915050565b600067ffffffffffffffff82111561109857611097610c31565b5b602082029050602081019050919050565b600080fd5b60006110c16110bc8461107d565b610c91565b905080838252602082019050602084028301858111156110e4576110e36110a9565b5b835b8181101561110d57806110f98882610d7f565b8452602084019350506020810190506110e6565b5050509392505050565b600082601f83011261112c5761112b610f83565b5b815161113c8482602086016110ae565b91505092915050565b6000610100828403121561115c5761115b610c1b565b5b611167610100610c91565b9050600061117784828501611068565b600083015250602061118b84828501610ced565b602083015250604061119f84828501610d27565b60408301525060606111b384828501610d27565b60608301525060806111c784828501610d7f565b60808301525060a082015167ffffffffffffffff8111156111eb576111ea610cac565b5b6111f78482850161102a565b60a08301525060c082015167ffffffffffffffff81111561121b5761121a610cac565b5b61122784828501611117565b60c08301525060e082015167ffffffffffffffff81111561124b5761124a610cac565b5b61125784828501611117565b60e08301525092915050565b6000610120828403121561127a57611279610c1b565b5b611285610120610c91565b9050600061129584828501610f34565b60008301525060206112a984828501610f59565b60208301525060406112bd84828501610d27565b60408301525060606112d184828501610d27565b60608301525060806112e584828501610d53565b60808301525060a06112f984828501610d53565b60a08301525060c061130d84828501610f6e565b60c08301525060e082015167ffffffffffffffff81111561133157611330610cac565b5b61133d8482850161102a565b60e08301525061010082015167ffffffffffffffff81111561136257611361610cac565b5b61136e84828501611145565b6101008301525092915050565b60006020828403121561139157611390610aea565b5b600082015167ffffffffffffffff8111156113af576113ae610aef565b5b6113bb84828501611263565b91505092915050565b6000602082840312156113da576113d9610aea565b5b60006113e884828501610f6e565b91505092915050565b60006040820190506114066000830185610bf1565b6114136020830184610b6b565b9392505050565b60008160c01b9050919050565b60006114328261141a565b9050919050565b61144a61144582610b57565b611427565b82525050565b6000819050919050565b61146b61146682610af4565b611450565b82525050565b600061147d8286611439565b60088201915061148d828561145a565b60208201915061149d8284611439565b600882019150819050949350505050565b7f4e487b7100000000000000000000000000000000000000000000000000000000600052601260045260246000fd5b60006114e882610af4565b91506114f383610af4565b925082611503576115026114ae565b5b828206905092915050565b60006040820190506115236000830185610bc7565b6115306020830184610bf1565b939250505056fea2646970667358221220007cdf9e809879a652292694eeec6862f7ba1811ac0d2c51b9a8951b06a24e9164736f6c634300081a0033a26469706673582212208ec2a843d64db6566400af1e5204db6c24fa599877e01002596a650a0d08aa3e64736f6c634300081a0033",
  "linkReferences": {},
  "deployedLinkReferences": {}
}