{
        "_format": "hh-sol-artifact-1",
        "contractName": "AroundUIHelper",
        "sourceName": "contracts/core/AroundUIHelper.sol",
        "abi": [
                {
                        "inputs": [
                                {
                                        "internalType": "address",
                                        "name": "_aroundMarket",
                                        "type": "address"
                                },
                                {
                                        "internalType": "address",
                                        "name": "_aroundPoolFactory",
                                        "type": "address"
                                },
                                {
                                        "internalType": "address",
                                        "name": "_echoOptimisticOracle",
                                        "type": "address"
                                }
                        ],
                        "stateMutability": "nonpayable",
                        "type": "constructor"
                },
                {
                        "inputs": [],
                        "name": "InvalidVirtualAmount",
                        "type": "error"
                },
                {
                        "inputs": [],
                        "name": "aroundMarket",
                        "outputs": [
                                {
                                        "internalType": "address",
                                        "name": "",
                                        "type": "address"
                                }
                        ],
                        "stateMutability": "view",
                        "type": "function"
                },
                {
                        "inputs": [],
                        "name": "aroundPoolFactory",
                        "outputs": [
                                {
                                        "internalType": "address",
                                        "name": "",
                                        "type": "address"
                                }
                        ],
                        "stateMutability": "view",
                        "type": "function"
                },
                {
                        "inputs": [
                                {
                                        "internalType": "uint256",
                                        "name": "index",
                                        "type": "uint256"
                                },
                                {
                                        "internalType": "uint256",
                                        "name": "size",
                                        "type": "uint256"
                                }
                        ],
                        "name": "batchIndexMarketData",
                        "outputs": [
                                {
                                        "components": [
                                                {
                                                        "internalType": "address",
                                                        "name": "collateral",
                                                        "type": "address"
                                                },
                                                {
                                                        "internalType": "address",
                                                        "name": "aroundPool",
                                                        "type": "address"
                                                },
                                                {
                                                        "internalType": "address",
                                                        "name": "luckyPool",
                                                        "type": "address"
                                                },
                                                {
                                                        "internalType": "address",
                                                        "name": "creator",
                                                        "type": "address"
                                                },
                                                {
                                                        "internalType": "string",
                                                        "name": "quest",
                                                        "type": "string"
                                                }
                                        ],
                                        "internalType": "struct IAroundPoolFactory.PoolInfo[]",
                                        "name": "poolInfoGroup",
                                        "type": "tuple[]"
                                },
                                {
                                        "components": [
                                                {
                                                        "internalType": "enum IAroundMarket.Result",
                                                        "name": "result",
                                                        "type": "uint8"
                                                },
                                                {
                                                        "internalType": "bool",
                                                        "name": "ifOpenAave",
                                                        "type": "bool"
                                                },
                                                {
                                                        "internalType": "bool",
                                                        "name": "ifUpdateFinallyAmount",
                                                        "type": "bool"
                                                },
                                                {
                                                        "internalType": "uint64",
                                                        "name": "participants",
                                                        "type": "uint64"
                                                },
                                                {
                                                        "internalType": "uint64",
                                                        "name": "startTime",
                                                        "type": "uint64"
                                                },
                                                {
                                                        "internalType": "uint64",
                                                        "name": "endTime",
                                                        "type": "uint64"
                                                },
                                                {
                                                        "internalType": "address",
                                                        "name": "collateral",
                                                        "type": "address"
                                                },
                                                {
                                                        "internalType": "uint64",
                                                        "name": "totalRaffleTicket",
                                                        "type": "uint64"
                                                }
                                        ],
                                        "internalType": "struct IAroundMarket.MarketInfo[]",
                                        "name": "marketInfoGroup",
                                        "type": "tuple[]"
                                },
                                {
                                        "components": [
                                                {
                                                        "internalType": "uint128",
                                                        "name": "virtualLiquidity",
                                                        "type": "uint128"
                                                },
                                                {
                                                        "internalType": "uint128",
                                                        "name": "tradeCollateralAmount",
                                                        "type": "uint128"
                                                },
                                                {
                                                        "internalType": "uint128",
                                                        "name": "lpCollateralAmount",
                                                        "type": "uint128"
                                                },
                                                {
                                                        "internalType": "uint128",
                                                        "name": "liquidityFeeAmount",
                                                        "type": "uint128"
                                                },
                                                {
                                                        "internalType": "uint256",
                                                        "name": "totalLp",
                                                        "type": "uint256"
                                                },
                                                {
                                                        "internalType": "uint256",
                                                        "name": "yesAmount",
                                                        "type": "uint256"
                                                },
                                                {
                                                        "internalType": "uint256",
                                                        "name": "noAmount",
                                                        "type": "uint256"
                                                },
                                                {
                                                        "internalType": "uint256",
                                                        "name": "volume",
                                                        "type": "uint256"
                                                }
                                        ],
                                        "internalType": "struct IAroundMarket.LiqudityInfo[]",
                                        "name": "liqudityInfoGroup",
                                        "type": "tuple[]"
                                },
                                {
                                        "components": [
                                                {
                                                        "internalType": "enum IEchoOptimisticOracle.EventState",
                                                        "name": "eventState",
                                                        "type": "uint8"
                                                },
                                                {
                                                        "internalType": "enum IEchoOptimisticOracle.OracleWithdrawState",
                                                        "name": "withdrawState",
                                                        "type": "uint8"
                                                },
                                                {
                                                        "internalType": "uint16",
                                                        "name": "yesVote",
                                                        "type": "uint16"
                                                },
                                                {
                                                        "internalType": "uint16",
                                                        "name": "noVote",
                                                        "type": "uint16"
                                                },
                                                {
                                                        "internalType": "uint64",
                                                        "name": "randomNumber",
                                                        "type": "uint64"
                                                },
                                                {
                                                        "internalType": "uint64",
                                                        "name": "updateTime",
                                                        "type": "uint64"
                                                },
                                                {
                                                        "internalType": "uint256",
                                                        "name": "earn",
                                                        "type": "uint256"
                                                },
                                                {
                                                        "internalType": "string",
                                                        "name": "quest",
                                                        "type": "string"
                                                },
                                                {
                                                        "components": [
                                                                {
                                                                        "internalType": "enum IEchoOptimisticOracle.OracleState",
                                                                        "name": "state",
                                                                        "type": "uint8"
                                                                },
                                                                {
                                                                        "internalType": "bool",
                                                                        "name": "isDisputePass",
                                                                        "type": "bool"
                                                                },
                                                                {
                                                                        "internalType": "uint16",
                                                                        "name": "disputeVotes",
                                                                        "type": "uint16"
                                                                },
                                                                {
                                                                        "internalType": "uint16",
                                                                        "name": "responseCount",
                                                                        "type": "uint16"
                                                                },
                                                                {
                                                                        "internalType": "address",
                                                                        "name": "challenger",
                                                                        "type": "address"
                                                                },
                                                                {
                                                                        "internalType": "string",
                                                                        "name": "evidence",
                                                                        "type": "string"
                                                                },
                                                                {
                                                                        "internalType": "address[]",
                                                                        "name": "providers",
                                                                        "type": "address[]"
                                                                },
                                                                {
                                                                        "internalType": "address[]",
                                                                        "name": "investigators",
                                                                        "type": "address[]"
                                                                }
                                                        ],
                                                        "internalType": "struct IEchoOptimisticOracle.OptimisticInfo",
                                                        "name": "optimisticInfo",
                                                        "type": "tuple"
                                                }
                                        ],
                                        "internalType": "struct IEchoOptimisticOracle.OracleInfo[]",
                                        "name": "oracleInfo",
                                        "type": "tuple[]"
                                },
                                {
                                        "internalType": "uint256[]",
                                        "name": "yesPriceGroup",
                                        "type": "uint256[]"
                                },
                                {
                                        "internalType": "uint256[]",
                                        "name": "noPriceGroup",
                                        "type": "uint256[]"
                                }
                        ],
                        "stateMutability": "view",
                        "type": "function"
                },
                {
                        "inputs": [
                                {
                                        "internalType": "enum IAroundPoolFactory.MarketType",
                                        "name": "marketType",
                                        "type": "uint8"
                                },
                                {
                                        "internalType": "uint256",
                                        "name": "index",
                                        "type": "uint256"
                                },
                                {
                                        "internalType": "uint256",
                                        "name": "size",
                                        "type": "uint256"
                                }
                        ],
                        "name": "batchIndexMarketTypeData",
                        "outputs": [
                                {
                                        "components": [
                                                {
                                                        "internalType": "address",
                                                        "name": "collateral",
                                                        "type": "address"
                                                },
                                                {
                                                        "internalType": "address",
                                                        "name": "aroundPool",
                                                        "type": "address"
                                                },
                                                {
                                                        "internalType": "address",
                                                        "name": "luckyPool",
                                                        "type": "address"
                                                },
                                                {
                                                        "internalType": "address",
                                                        "name": "creator",
                                                        "type": "address"
                                                },
                                                {
                                                        "internalType": "string",
                                                        "name": "quest",
                                                        "type": "string"
                                                }
                                        ],
                                        "internalType": "struct IAroundPoolFactory.PoolInfo[]",
                                        "name": "poolInfoGroup",
                                        "type": "tuple[]"
                                },
                                {
                                        "components": [
                                                {
                                                        "internalType": "enum IAroundMarket.Result",
                                                        "name": "result",
                                                        "type": "uint8"
                                                },
                                                {
                                                        "internalType": "bool",
                                                        "name": "ifOpenAave",
                                                        "type": "bool"
                                                },
                                                {
                                                        "internalType": "bool",
                                                        "name": "ifUpdateFinallyAmount",
                                                        "type": "bool"
                                                },
                                                {
                                                        "internalType": "uint64",
                                                        "name": "participants",
                                                        "type": "uint64"
                                                },
                                                {
                                                        "internalType": "uint64",
                                                        "name": "startTime",
                                                        "type": "uint64"
                                                },
                                                {
                                                        "internalType": "uint64",
                                                        "name": "endTime",
                                                        "type": "uint64"
                                                },
                                                {
                                                        "internalType": "address",
                                                        "name": "collateral",
                                                        "type": "address"
                                                },
                                                {
                                                        "internalType": "uint64",
                                                        "name": "totalRaffleTicket",
                                                        "type": "uint64"
                                                }
                                        ],
                                        "internalType": "struct IAroundMarket.MarketInfo[]",
                                        "name": "marketInfoGroup",
                                        "type": "tuple[]"
                                },
                                {
                                        "components": [
                                                {
                                                        "internalType": "uint128",
                                                        "name": "virtualLiquidity",
                                                        "type": "uint128"
                                                },
                                                {
                                                        "internalType": "uint128",
                                                        "name": "tradeCollateralAmount",
                                                        "type": "uint128"
                                                },
                                                {
                                                        "internalType": "uint128",
                                                        "name": "lpCollateralAmount",
                                                        "type": "uint128"
                                                },
                                                {
                                                        "internalType": "uint128",
                                                        "name": "liquidityFeeAmount",
                                                        "type": "uint128"
                                                },
                                                {
                                                        "internalType": "uint256",
                                                        "name": "totalLp",
                                                        "type": "uint256"
                                                },
                                                {
                                                        "internalType": "uint256",
                                                        "name": "yesAmount",
                                                        "type": "uint256"
                                                },
                                                {
                                                        "internalType": "uint256",
                                                        "name": "noAmount",
                                                        "type": "uint256"
                                                },
                                                {
                                                        "internalType": "uint256",
                                                        "name": "volume",
                                                        "type": "uint256"
                                                }
                                        ],
                                        "internalType": "struct IAroundMarket.LiqudityInfo[]",
                                        "name": "liqudityInfoGroup",
                                        "type": "tuple[]"
                                },
                                {
                                        "internalType": "uint256[]",
                                        "name": "yesPriceGroup",
                                        "type": "uint256[]"
                                },
                                {
                                        "internalType": "uint256[]",
                                        "name": "noPriceGroup",
                                        "type": "uint256[]"
                                }
                        ],
                        "stateMutability": "view",
                        "type": "function"
                },
                {
                        "inputs": [
                                {
                                        "internalType": "address",
                                        "name": "user",
                                        "type": "address"
                                },
                                {
                                        "internalType": "uint256",
                                        "name": "index",
                                        "type": "uint256"
                                },
                                {
                                        "internalType": "uint256",
                                        "name": "size",
                                        "type": "uint256"
                                }
                        ],
                        "name": "batchIndexUserParticipateIdsInfo",
                        "outputs": [
                                {
                                        "internalType": "uint256[]",
                                        "name": "idGroup",
                                        "type": "uint256[]"
                                },
                                {
                                        "components": [
                                                {
                                                        "internalType": "uint64",
                                                        "name": "raffleTicketNumber",
                                                        "type": "uint64"
                                                },
                                                {
                                                        "internalType": "uint128",
                                                        "name": "collateralAmount",
                                                        "type": "uint128"
                                                },
                                                {
                                                        "internalType": "uint256",
                                                        "name": "yesBalance",
                                                        "type": "uint256"
                                                },
                                                {
                                                        "internalType": "uint256",
                                                        "name": "noBalance",
                                                        "type": "uint256"
                                                },
                                                {
                                                        "internalType": "uint256",
                                                        "name": "lp",
                                                        "type": "uint256"
                                                },
                                                {
                                                        "internalType": "uint256",
                                                        "name": "volume",
                                                        "type": "uint256"
                                                }
                                        ],
                                        "internalType": "struct IAroundMarket.UserPosition[]",
                                        "name": "userPositionGroup",
                                        "type": "tuple[]"
                                }
                        ],
                        "stateMutability": "view",
                        "type": "function"
                },
                {
                        "inputs": [],
                        "name": "echoOptimisticOracle",
                        "outputs": [
                                {
                                        "internalType": "address",
                                        "name": "",
                                        "type": "address"
                                }
                        ],
                        "stateMutability": "view",
                        "type": "function"
                },
                {
                        "inputs": [
                                {
                                        "internalType": "enum IAroundMarket.Result",
                                        "name": "bet",
                                        "type": "uint8"
                                },
                                {
                                        "internalType": "uint128",
                                        "name": "amountIn",
                                        "type": "uint128"
                                },
                                {
                                        "internalType": "uint256",
                                        "name": "thisMarketId",
                                        "type": "uint256"
                                }
                        ],
                        "name": "estimateWinAmount",
                        "outputs": [
                                {
                                        "internalType": "uint256",
                                        "name": "winnings",
                                        "type": "uint256"
                                }
                        ],
                        "stateMutability": "view",
                        "type": "function"
                },
                {
                        "inputs": [
                                {
                                        "internalType": "enum IAroundMarket.Result",
                                        "name": "bet",
                                        "type": "uint8"
                                },
                                {
                                        "internalType": "uint128",
                                        "name": "buyCollateralAmount",
                                        "type": "uint128"
                                },
                                {
                                        "internalType": "uint256",
                                        "name": "thisMarketId",
                                        "type": "uint256"
                                }
                        ],
                        "name": "getBuyOutput",
                        "outputs": [
                                {
                                        "internalType": "uint256",
                                        "name": "output",
                                        "type": "uint256"
                                },
                                {
                                        "internalType": "uint128",
                                        "name": "fee",
                                        "type": "uint128"
                                }
                        ],
                        "stateMutability": "view",
                        "type": "function"
                },
                {
                        "inputs": [
                                {
                                        "internalType": "uint256",
                                        "name": "thisMarketId",
                                        "type": "uint256"
                                },
                                {
                                        "internalType": "enum IAroundMarket.Result",
                                        "name": "bet",
                                        "type": "uint8"
                                },
                                {
                                        "internalType": "uint128",
                                        "name": "amountIn",
                                        "type": "uint128"
                                }
                        ],
                        "name": "getBuySlippage",
                        "outputs": [
                                {
                                        "internalType": "uint256",
                                        "name": "",
                                        "type": "uint256"
                                }
                        ],
                        "stateMutability": "view",
                        "type": "function"
                },
                {
                        "inputs": [
                                {
                                        "internalType": "address",
                                        "name": "token",
                                        "type": "address"
                                }
                        ],
                        "name": "getDecimals",
                        "outputs": [
                                {
                                        "internalType": "uint8",
                                        "name": "",
                                        "type": "uint8"
                                }
                        ],
                        "stateMutability": "view",
                        "type": "function"
                },
                {
                        "inputs": [
                                {
                                        "internalType": "uint128",
                                        "name": "expectVirtualAmount",
                                        "type": "uint128"
                                },
                                {
                                        "internalType": "uint8",
                                        "name": "decimals",
                                        "type": "uint8"
                                }
                        ],
                        "name": "getGuardedAmount",
                        "outputs": [
                                {
                                        "internalType": "uint256",
                                        "name": "",
                                        "type": "uint256"
                                }
                        ],
                        "stateMutability": "view",
                        "type": "function"
                },
                {
                        "inputs": [
                                {
                                        "internalType": "uint256",
                                        "name": "thisMarketId",
                                        "type": "uint256"
                                },
                                {
                                        "internalType": "uint256",
                                        "name": "lpAmount",
                                        "type": "uint256"
                                }
                        ],
                        "name": "getLiquidityRemoval",
                        "outputs": [
                                {
                                        "internalType": "uint128",
                                        "name": "collateralAmount",
                                        "type": "uint128"
                                },
                                {
                                        "internalType": "uint128",
                                        "name": "feeShare",
                                        "type": "uint128"
                                },
                                {
                                        "internalType": "uint256",
                                        "name": "totalValue",
                                        "type": "uint256"
                                }
                        ],
                        "stateMutability": "view",
                        "type": "function"
                },
                {
                        "inputs": [
                                {
                                        "internalType": "uint256",
                                        "name": "thisMarketId",
                                        "type": "uint256"
                                },
                                {
                                        "internalType": "uint128",
                                        "name": "value",
                                        "type": "uint128"
                                }
                        ],
                        "name": "getLiquidityShares",
                        "outputs": [
                                {
                                        "internalType": "uint256",
                                        "name": "yesShare",
                                        "type": "uint256"
                                },
                                {
                                        "internalType": "uint256",
                                        "name": "noShare",
                                        "type": "uint256"
                                }
                        ],
                        "stateMutability": "view",
                        "type": "function"
                },
                {
                        "inputs": [
                                {
                                        "internalType": "uint256",
                                        "name": "thisMarketId",
                                        "type": "uint256"
                                },
                                {
                                        "internalType": "address",
                                        "name": "user",
                                        "type": "address"
                                }
                        ],
                        "name": "getLiquidityValue",
                        "outputs": [
                                {
                                        "internalType": "uint256",
                                        "name": "totalValue",
                                        "type": "uint256"
                                }
                        ],
                        "stateMutability": "view",
                        "type": "function"
                },
                {
                        "inputs": [
                                {
                                        "internalType": "uint256",
                                        "name": "thisMarketId",
                                        "type": "uint256"
                                },
                                {
                                        "internalType": "uint128",
                                        "name": "value",
                                        "type": "uint128"
                                }
                        ],
                        "name": "getLpSharesToMint",
                        "outputs": [
                                {
                                        "internalType": "uint256",
                                        "name": "",
                                        "type": "uint256"
                                }
                        ],
                        "stateMutability": "view",
                        "type": "function"
                },
                {
                        "inputs": [
                                {
                                        "internalType": "uint256",
                                        "name": "thisMarketId",
                                        "type": "uint256"
                                }
                        ],
                        "name": "getNoPrice",
                        "outputs": [
                                {
                                        "internalType": "uint256",
                                        "name": "",
                                        "type": "uint256"
                                }
                        ],
                        "stateMutability": "view",
                        "type": "function"
                },
                {
                        "inputs": [
                                {
                                        "internalType": "enum IAroundMarket.Result",
                                        "name": "bet",
                                        "type": "uint8"
                                },
                                {
                                        "internalType": "uint128",
                                        "name": "sellShareAmount",
                                        "type": "uint128"
                                },
                                {
                                        "internalType": "uint256",
                                        "name": "thisMarketId",
                                        "type": "uint256"
                                }
                        ],
                        "name": "getSellOutput",
                        "outputs": [
                                {
                                        "internalType": "uint256",
                                        "name": "output",
                                        "type": "uint256"
                                },
                                {
                                        "internalType": "uint128",
                                        "name": "fee",
                                        "type": "uint128"
                                }
                        ],
                        "stateMutability": "view",
                        "type": "function"
                },
                {
                        "inputs": [
                                {
                                        "internalType": "uint256",
                                        "name": "thisMarketId",
                                        "type": "uint256"
                                },
                                {
                                        "internalType": "enum IAroundMarket.Result",
                                        "name": "bet",
                                        "type": "uint8"
                                },
                                {
                                        "internalType": "uint128",
                                        "name": "sellAmount",
                                        "type": "uint128"
                                }
                        ],
                        "name": "getSellSlippage",
                        "outputs": [
                                {
                                        "internalType": "uint256",
                                        "name": "",
                                        "type": "uint256"
                                }
                        ],
                        "stateMutability": "view",
                        "type": "function"
                },
                {
                        "inputs": [
                                {
                                        "internalType": "address",
                                        "name": "token",
                                        "type": "address"
                                },
                                {
                                        "internalType": "address",
                                        "name": "addr",
                                        "type": "address"
                                }
                        ],
                        "name": "getTokenBalance",
                        "outputs": [
                                {
                                        "internalType": "uint256",
                                        "name": "",
                                        "type": "uint256"
                                }
                        ],
                        "stateMutability": "view",
                        "type": "function"
                },
                {
                        "inputs": [
                                {
                                        "internalType": "uint256",
                                        "name": "thisMarketId",
                                        "type": "uint256"
                                }
                        ],
                        "name": "getYesPrice",
                        "outputs": [
                                {
                                        "internalType": "uint256",
                                        "name": "",
                                        "type": "uint256"
                                }
                        ],
                        "stateMutability": "view",
                        "type": "function"
                },
                {
                        "inputs": [
                                {
                                        "internalType": "uint256",
                                        "name": "thisMarketId",
                                        "type": "uint256"
                                }
                        ],
                        "name": "indexMarketData",
                        "outputs": [
                                {
                                        "components": [
                                                {
                                                        "internalType": "address",
                                                        "name": "collateral",
                                                        "type": "address"
                                                },
                                                {
                                                        "internalType": "address",
                                                        "name": "aroundPool",
                                                        "type": "address"
                                                },
                                                {
                                                        "internalType": "address",
                                                        "name": "luckyPool",
                                                        "type": "address"
                                                },
                                                {
                                                        "internalType": "address",
                                                        "name": "creator",
                                                        "type": "address"
                                                },
                                                {
                                                        "internalType": "string",
                                                        "name": "quest",
                                                        "type": "string"
                                                }
                                        ],
                                        "internalType": "struct IAroundPoolFactory.PoolInfo",
                                        "name": "thisPoolInfo",
                                        "type": "tuple"
                                },
                                {
                                        "components": [
                                                {
                                                        "internalType": "uint16",
                                                        "name": "officialFee",
                                                        "type": "uint16"
                                                },
                                                {
                                                        "internalType": "uint16",
                                                        "name": "luckyFee",
                                                        "type": "uint16"
                                                },
                                                {
                                                        "internalType": "uint16",
                                                        "name": "oracleFee",
                                                        "type": "uint16"
                                                },
                                                {
                                                        "internalType": "uint16",
                                                        "name": "creatorFee",
                                                        "type": "uint16"
                                                },
                                                {
                                                        "internalType": "uint16",
                                                        "name": "liquidityFee",
                                                        "type": "uint16"
                                                },
                                                {
                                                        "internalType": "uint16",
                                                        "name": "totalFee",
                                                        "type": "uint16"
                                                }
                                        ],
                                        "internalType": "struct IAroundPoolFactory.FeeInfo",
                                        "name": "thisFeeInfo",
                                        "type": "tuple"
                                },
                                {
                                        "components": [
                                                {
                                                        "internalType": "enum IAroundMarket.Result",
                                                        "name": "result",
                                                        "type": "uint8"
                                                },
                                                {
                                                        "internalType": "bool",
                                                        "name": "ifOpenAave",
                                                        "type": "bool"
                                                },
                                                {
                                                        "internalType": "bool",
                                                        "name": "ifUpdateFinallyAmount",
                                                        "type": "bool"
                                                },
                                                {
                                                        "internalType": "uint64",
                                                        "name": "participants",
                                                        "type": "uint64"
                                                },
                                                {
                                                        "internalType": "uint64",
                                                        "name": "startTime",
                                                        "type": "uint64"
                                                },
                                                {
                                                        "internalType": "uint64",
                                                        "name": "endTime",
                                                        "type": "uint64"
                                                },
                                                {
                                                        "internalType": "address",
                                                        "name": "collateral",
                                                        "type": "address"
                                                },
                                                {
                                                        "internalType": "uint64",
                                                        "name": "totalRaffleTicket",
                                                        "type": "uint64"
                                                }
                                        ],
                                        "internalType": "struct IAroundMarket.MarketInfo",
                                        "name": "thisMarketInfo",
                                        "type": "tuple"
                                },
                                {
                                        "components": [
                                                {
                                                        "internalType": "uint128",
                                                        "name": "virtualLiquidity",
                                                        "type": "uint128"
                                                },
                                                {
                                                        "internalType": "uint128",
                                                        "name": "tradeCollateralAmount",
                                                        "type": "uint128"
                                                },
                                                {
                                                        "internalType": "uint128",
                                                        "name": "lpCollateralAmount",
                                                        "type": "uint128"
                                                },
                                                {
                                                        "internalType": "uint128",
                                                        "name": "liquidityFeeAmount",
                                                        "type": "uint128"
                                                },
                                                {
                                                        "internalType": "uint256",
                                                        "name": "totalLp",
                                                        "type": "uint256"
                                                },
                                                {
                                                        "internalType": "uint256",
                                                        "name": "yesAmount",
                                                        "type": "uint256"
                                                },
                                                {
                                                        "internalType": "uint256",
                                                        "name": "noAmount",
                                                        "type": "uint256"
                                                },
                                                {
                                                        "internalType": "uint256",
                                                        "name": "volume",
                                                        "type": "uint256"
                                                }
                                        ],
                                        "internalType": "struct IAroundMarket.LiqudityInfo",
                                        "name": "thisLiqudityInfo",
                                        "type": "tuple"
                                },
                                {
                                        "components": [
                                                {
                                                        "internalType": "enum IEchoOptimisticOracle.EventState",
                                                        "name": "eventState",
                                                        "type": "uint8"
                                                },
                                                {
                                                        "internalType": "enum IEchoOptimisticOracle.OracleWithdrawState",
                                                        "name": "withdrawState",
                                                        "type": "uint8"
                                                },
                                                {
                                                        "internalType": "uint16",
                                                        "name": "yesVote",
                                                        "type": "uint16"
                                                },
                                                {
                                                        "internalType": "uint16",
                                                        "name": "noVote",
                                                        "type": "uint16"
                                                },
                                                {
                                                        "internalType": "uint64",
                                                        "name": "randomNumber",
                                                        "type": "uint64"
                                                },
                                                {
                                                        "internalType": "uint64",
                                                        "name": "updateTime",
                                                        "type": "uint64"
                                                },
                                                {
                                                        "internalType": "uint256",
                                                        "name": "earn",
                                                        "type": "uint256"
                                                },
                                                {
                                                        "internalType": "string",
                                                        "name": "quest",
                                                        "type": "string"
                                                },
                                                {
                                                        "components": [
                                                                {
                                                                        "internalType": "enum IEchoOptimisticOracle.OracleState",
                                                                        "name": "state",
                                                                        "type": "uint8"
                                                                },
                                                                {
                                                                        "internalType": "bool",
                                                                        "name": "isDisputePass",
                                                                        "type": "bool"
                                                                },
                                                                {
                                                                        "internalType": "uint16",
                                                                        "name": "disputeVotes",
                                                                        "type": "uint16"
                                                                },
                                                                {
                                                                        "internalType": "uint16",
                                                                        "name": "responseCount",
                                                                        "type": "uint16"
                                                                },
                                                                {
                                                                        "internalType": "address",
                                                                        "name": "challenger",
                                                                        "type": "address"
                                                                },
                                                                {
                                                                        "internalType": "string",
                                                                        "name": "evidence",
                                                                        "type": "string"
                                                                },
                                                                {
                                                                        "internalType": "address[]",
                                                                        "name": "providers",
                                                                        "type": "address[]"
                                                                },
                                                                {
                                                                        "internalType": "address[]",
                                                                        "name": "investigators",
                                                                        "type": "address[]"
                                                                }
                                                        ],
                                                        "internalType": "struct IEchoOptimisticOracle.OptimisticInfo",
                                                        "name": "optimisticInfo",
                                                        "type": "tuple"
                                                }
                                        ],
                                        "internalType": "struct IEchoOptimisticOracle.OracleInfo",
                                        "name": "thisOracleInfo",
                                        "type": "tuple"
                                },
                                {
                                        "internalType": "uint256",
                                        "name": "thisYesPrice",
                                        "type": "uint256"
                                },
                                {
                                        "internalType": "uint256",
                                        "name": "thisNoPrice",
                                        "type": "uint256"
                                }
                        ],
                        "stateMutability": "view",
                        "type": "function"
                }
        ],
        "bytecode": "0x6080604052620186a06000806101000a81548163ffffffff021916908363ffffffff16021790555034801561003357600080fd5b506040516155dd3803806155dd83398181016040528101906100559190610183565b82600060046101000a81548173ffffffffffffffffffffffffffffffffffffffff021916908373ffffffffffffffffffffffffffffffffffffffff16021790555081600160006101000a81548173ffffffffffffffffffffffffffffffffffffffff021916908373ffffffffffffffffffffffffffffffffffffffff16021790555080600260006101000a81548173ffffffffffffffffffffffffffffffffffffffff021916908373ffffffffffffffffffffffffffffffffffffffff1602179055505050506101d6565b600080fd5b600073ffffffffffffffffffffffffffffffffffffffff82169050919050565b600061015082610125565b9050919050565b61016081610145565b811461016b57600080fd5b50565b60008151905061017d81610157565b92915050565b60008060006060848603121561019c5761019b610120565b5b60006101aa8682870161016e565b93505060206101bb8682870161016e565b92505060406101cc8682870161016e565b9150509250925092565b6153f8806101e56000396000f3fe608060405234801561001057600080fd5b50600436106101375760003560e01c8063a256e4a7116100b8578063c6dab7ae1161007c578063c6dab7ae146103f6578063cf54aaa01461042b578063d342d3281461045b578063e48d02e21461048b578063ef6c4254146104a9578063f8612a18146104db57610137565b8063a256e4a714610317578063ada5439b14610348578063ba2f76df14610378578063c354648514610396578063c489744b146103c657610137565b806345ee8d20116100ff57806345ee8d201461022057806372f94fa71461025057806382ac013214610281578063852d994d146102b15780639ba85fae146102e757610137565b806307aa7f831461013c5780630e9b41b91461016d5780631c5d82b41461019d5780631ef27dee146101d157806343ed881e146101ef575b600080fd5b61015660048036038101906101519190612e97565b61050b565b604051610164929190612ee6565b60405180910390f35b61018760048036038101906101829190612e97565b610567565b6040516101949190612f0f565b60405180910390f35b6101b760048036038101906101b29190612f4f565b6105ab565b6040516101c89594939291906135d1565b60405180910390f35b6101d9610980565b6040516101e69190613656565b60405180910390f35b61020960048036038101906102049190613696565b6109a6565b6040516102179291906136f8565b60405180910390f35b61023a6004803603810190610235919061375a565b610a1b565b6040516102479190612f0f565b60405180910390f35b61026a60048036038101906102659190613696565b610a46565b6040516102789291906136f8565b60405180910390f35b61029b6004803603810190610296919061379a565b610ac3565b6040516102a89190612f0f565b60405180910390f35b6102cb60048036038101906102c691906137ed565b610b11565b6040516102de9796959493929190613d7d565b60405180910390f35b61030160048036038101906102fc91906137ed565b610c2c565b60405161030e9190612f0f565b60405180910390f35b610331600480360381019061032c9190613e2b565b610c71565b60405161033f929190613fa8565b60405180910390f35b610362600480360381019061035d9190613696565b610f57565b60405161036f9190612f0f565b60405180910390f35b61038061106d565b60405161038d9190613656565b60405180910390f35b6103b060048036038101906103ab91906137ed565b611093565b6040516103bd9190612f0f565b60405180910390f35b6103e060048036038101906103db9190613fdf565b6110d8565b6040516103ed9190612f0f565b60405180910390f35b610410600480360381019061040b919061401f565b61115c565b604051610422969594939291906141ed565b60405180910390f35b61044560048036038101906104409190614278565b6115ca565b60405161045291906142b4565b60405180910390f35b610475600480360381019061047091906142cf565b611642565b6040516104829190612f0f565b60405180910390f35b6104936116c1565b6040516104a09190613656565b60405180910390f35b6104c360048036038101906104be919061401f565b6116e7565b6040516104d29392919061430f565b60405180910390f35b6104f560048036038101906104f0919061379a565b6117aa565b6040516105029190612f0f565b60405180910390f35b60008061055861051a85611817565b6000015184610528876118c3565b60000151610535886118c3565b60800151610542896118c3565b60a0015161054f8a6118c3565b60c0015161196f565b80925081935050509250929050565b60006105a382610576856118c3565b60600151610583866118c3565b604001516105919190614375565b61059a866118c3565b60800151611a3f565b905092915050565b60608060608060606000600160009054906101000a900473ffffffffffffffffffffffffffffffffffffffff1673ffffffffffffffffffffffffffffffffffffffff1663750396ca8a6040518263ffffffff1660e01b81526004016106109190614401565b602060405180830381865afa15801561062d573d6000803e3d6000fd5b505050506040513d601f19601f820116820180604052508101906106519190614431565b9050600a87111580156106645750600087115b801561067b5750808789610678919061445e565b11155b61068457600080fd5b60008082891115610697578290506106e5565b60018a6106a491906144a0565b896106af919061445e565b8311156106be578890506106cd565b88836106ca9190614503565b90505b60008a146106e457888a6106e1919061445e565b91505b5b8067ffffffffffffffff8111156106ff576106fe614534565b5b60405190808252806020026020018201604052801561073857816020015b610725612aaf565b81526020019060019003908161071d5790505b5097508067ffffffffffffffff81111561075557610754614534565b5b60405190808252806020026020018201604052801561078e57816020015b61077b612b36565b8152602001906001900390816107735790505b5096508067ffffffffffffffff8111156107ab576107aa614534565b5b6040519080825280602002602001820160405280156107e457816020015b6107d1612bcf565b8152602001906001900390816107c95790505b5095508067ffffffffffffffff81111561080157610800614534565b5b60405190808252806020026020018201604052801561082f5781602001602082028036833780820191505090505b5094508067ffffffffffffffff81111561084c5761084b614534565b5b60405190808252806020026020018201604052801561087a5781602001602082028036833780820191505090505b50935060005b818110156109715760006108948d85611aa7565b905061089f81611b4f565b8a83815181106108b2576108b1614563565b5b60200260200101819052506108c681611817565b8983815181106108d9576108d8614563565b5b60200260200101819052506108ed816118c3565b888381518110610900576108ff614563565b5b602002602001018190525061091481610c2c565b87838151811061092757610926614563565b5b60200260200101818152505061093c81611093565b86838151811061094f5761094e614563565b5b6020026020010181815250508380600101945050508080600101915050610880565b50505050939792965093509350565b600160009054906101000a900473ffffffffffffffffffffffffffffffffffffffff1681565b600080610a0b856109b685611bff565b60a00151866109c4876118c3565b600001516109d1886118c3565b604001516109de896118c3565b602001516109ec9190614375565b6109f5896118c3565b60a00151610a028a6118c3565b60c00151611cac565b8092508193505050935093915050565b6000610a3e828460008054906101000a900463ffffffff1663ffffffff16611d4d565b905092915050565b600080610ab385610a5685611bff565b60a00151610a63866118c3565b60000151610a70876118c3565b60200151610a7d886118c3565b60400151896fffffffffffffffffffffffffffffffff16610a9d8a6118c3565b60a00151610aaa8b6118c3565b60c00151611e76565b8092508193505050935093915050565b6000610b0883610ad2866118c3565b60000151610adf876118c3565b60a00151610aec886118c3565b60c00151866fffffffffffffffffffffffffffffffff16611f13565b90509392505050565b610b19612aaf565b610b21612c5c565b610b29612b36565b610b31612bcf565b610b39612caa565b600080610b4588611b4f565b9650610b5088611bff565b9550610b5b88611817565b9450610b66886118c3565b9350600260009054906101000a900473ffffffffffffffffffffffffffffffffffffffff1673ffffffffffffffffffffffffffffffffffffffff16639276ade5896040518263ffffffff1660e01b8152600401610bc39190612f0f565b600060405180830381865afa158015610be0573d6000803e3d6000fd5b505050506040513d6000823e3d601f19601f82011682018060405250810190610c099190614a99565b9250610c1488610c2c565b9150610c1f88611093565b9050919395979092949650565b6000610c6a610c3a83611817565b60000151610c47846118c3565b60000151610c54856118c3565b60a00151610c61866118c3565b60c00151612002565b9050919050565b60608060008060049054906101000a900473ffffffffffffffffffffffffffffffffffffffff1673ffffffffffffffffffffffffffffffffffffffff166379cce6b8876040518263ffffffff1660e01b8152600401610cd09190613656565b602060405180830381865afa158015610ced573d6000803e3d6000fd5b505050506040513d601f19601f82011682018060405250810190610d119190614431565b9050600a8411158015610d245750600084115b8015610d3b5750808486610d38919061445e565b11155b610d4457600080fd5b60008082861115610d5757829050610da5565b600187610d6491906144a0565b86610d6f919061445e565b831115610d7e57859050610d8d565b8583610d8a9190614503565b90505b60008714610da4578587610da1919061445e565b91505b5b8067ffffffffffffffff811115610dbf57610dbe614534565b5b604051908082528060200260200182016040528015610ded5781602001602082028036833780820191505090505b5094508067ffffffffffffffff811115610e0a57610e09614534565b5b604051908082528060200260200182016040528015610e4357816020015b610e30612d3c565b815260200190600190039081610e285790505b50935060005b81811015610f4b57600060049054906101000a900473ffffffffffffffffffffffffffffffffffffffff1673ffffffffffffffffffffffffffffffffffffffff1663281a60bf8a856040518363ffffffff1660e01b8152600401610eae929190614ae2565b602060405180830381865afa158015610ecb573d6000803e3d6000fd5b505050506040513d601f19601f82011682018060405250810190610eef9190614431565b868281518110610f0257610f01614563565b5b602002602001018181525050610f188984612150565b858281518110610f2b57610f2a614563565b5b602002602001018190525082806001019350508080600101915050610e49565b50505050935093915050565b6000806000610f678686866109a6565b9150915060008186610f78876118c3565b60200151610f869190614375565b610f909190614b0b565b6fffffffffffffffffffffffffffffffff16905060016003811115610fb857610fb76131d7565b5b876003811115610fcb57610fca6131d7565b5b036110055782610fda866118c3565b60a00151610fe891906144a0565b8184610ff4919061445e565b610ffe9190614b4f565b9350611063565b60026003811115611019576110186131d7565b5b87600381111561102c5761102b6131d7565b5b03611062578261103b866118c3565b60c0015161104991906144a0565b8184611055919061445e565b61105f9190614b4f565b93505b5b5050509392505050565b600060049054906101000a900473ffffffffffffffffffffffffffffffffffffffff1681565b60006110d16110a183611817565b600001516110ae846118c3565b600001516110bb856118c3565b60a001516110c8866118c3565b60c001516121fe565b9050919050565b60008273ffffffffffffffffffffffffffffffffffffffff166370a08231836040518263ffffffff1660e01b81526004016111139190613656565b602060405180830381865afa158015611130573d6000803e3d6000fd5b505050506040513d601f19601f820116820180604052508101906111549190614431565b905092915050565b6060806060806060806000600160009054906101000a900473ffffffffffffffffffffffffffffffffffffffff1673ffffffffffffffffffffffffffffffffffffffff16636ed71ede6040518163ffffffff1660e01b8152600401602060405180830381865afa1580156111d4573d6000803e3d6000fd5b505050506040513d601f19601f820116820180604052508101906111f89190614431565b9050600a881115801561120b5750600088115b8015611222575080888a61121f919061445e565b11155b611261576040517f08c379a000000000000000000000000000000000000000000000000000000000815260040161125890614bdd565b60405180910390fd5b600080828a1115611274578290506112c2565b60018b61128191906144a0565b8a61128c919061445e565b83111561129b578990506112aa565b89836112a79190614503565b90505b60008b146112c157898b6112be919061445e565b91505b5b8067ffffffffffffffff8111156112dc576112db614534565b5b60405190808252806020026020018201604052801561131557816020015b611302612aaf565b8152602001906001900390816112fa5790505b5098508067ffffffffffffffff81111561133257611331614534565b5b60405190808252806020026020018201604052801561136b57816020015b611358612b36565b8152602001906001900390816113505790505b5097508067ffffffffffffffff81111561138857611387614534565b5b6040519080825280602002602001820160405280156113c157816020015b6113ae612bcf565b8152602001906001900390816113a65790505b5096508067ffffffffffffffff8111156113de576113dd614534565b5b60405190808252806020026020018201604052801561141757816020015b611404612caa565b8152602001906001900390816113fc5790505b5095508067ffffffffffffffff81111561143457611433614534565b5b6040519080825280602002602001820160405280156114625781602001602082028036833780820191505090505b5094508067ffffffffffffffff81111561147f5761147e614534565b5b6040519080825280602002602001820160405280156114ad5781602001602082028036833780820191505090505b50935060005b818110156115bc576114c483611b4f565b8a82815181106114d7576114d6614563565b5b60200260200101819052506114eb83611817565b8982815181106114fe576114fd614563565b5b6020026020010181905250611512836118c3565b88828151811061152557611524614563565b5b602002602001018190525061153983612229565b87828151811061154c5761154b614563565b5b602002602001018190525061156083610c2c565b86828151811061157357611572614563565b5b60200260200101818152505061158883611093565b85828151811061159b5761159a614563565b5b602002602001018181525050828060010193505080806001019150506114b3565b505050509295509295509295565b60008173ffffffffffffffffffffffffffffffffffffffff1663313ce5676040518163ffffffff1660e01b8152600401602060405180830381865afa158015611617573d6000803e3d6000fd5b505050506040513d601f19601f8201168201806040525081019061163b9190614c12565b9050919050565b60008061164f8385612150565b608001510361166157600090506116bb565b6116b861166d846118c3565b6000015161167a856118c3565b606001516116888587612150565b60800151611695876118c3565b608001516116a2886118c3565b60a001516116af896118c3565b60c001516122d9565b90505b92915050565b600260009054906101000a900473ffffffffffffffffffffffffffffffffffffffff1681565b60008060006116f63386612150565b6080015184111561173c576040517f08c379a000000000000000000000000000000000000000000000000000000000815260040161173390614c8b565b60405180910390fd5b61177b611748866118c3565b606001516117563388612150565b6020015186611765338a612150565b608001516117728a6118c3565b6080015161237d565b8093508194505050818361178f9190614375565b6fffffffffffffffffffffffffffffffff1690509250925092565b600061180e836117b986611bff565b60a00151846117c7886118c3565b600001516117d4896118c3565b604001516117e18a6118c3565b602001516117ef9190614375565b6117f88a6118c3565b60a001516118058b6118c3565b60c001516123e0565b90509392505050565b61181f612b36565b600060049054906101000a900473ffffffffffffffffffffffffffffffffffffffff1673ffffffffffffffffffffffffffffffffffffffff16633ec79193836040518263ffffffff1660e01b815260040161187a9190612f0f565b61010060405180830381865afa158015611898573d6000803e3d6000fd5b505050506040513d601f19601f820116820180604052508101906118bc9190614d8a565b9050919050565b6118cb612bcf565b600060049054906101000a900473ffffffffffffffffffffffffffffffffffffffff1673ffffffffffffffffffffffffffffffffffffffff1663d3432f8b836040518263ffffffff1660e01b81526004016119269190612f0f565b61010060405180830381865afa158015611944573d6000803e3d6000fd5b505050506040513d601f19601f820116820180604052508101906119689190614e97565b9050919050565b600080600085036119a957866fffffffffffffffffffffffffffffffff169150866fffffffffffffffffffffffffffffffff169050611a34565b60006119b789888787612002565b9050670de0b6b3a764000081896fffffffffffffffffffffffffffffffff166119e0919061445e565b6119ea9190614b4f565b9250670de0b6b3a764000081670de0b6b3a7640000611a099190614ec5565b896fffffffffffffffffffffffffffffffff16611a26919061445e565b611a309190614b4f565b9150505b965096945050505050565b6000808203611a6257836fffffffffffffffffffffffffffffffff169050611aa0565b826fffffffffffffffffffffffffffffffff1682856fffffffffffffffffffffffffffffffff16611a93919061445e565b611a9d9190614b4f565b90505b9392505050565b6000600160009054906101000a900473ffffffffffffffffffffffffffffffffffffffff1673ffffffffffffffffffffffffffffffffffffffff1663ab344b8184846040518363ffffffff1660e01b8152600401611b06929190614ef9565b602060405180830381865afa158015611b23573d6000803e3d6000fd5b505050506040513d601f19601f82011682018060405250810190611b479190614431565b905092915050565b611b57612aaf565b600160009054906101000a900473ffffffffffffffffffffffffffffffffffffffff1673ffffffffffffffffffffffffffffffffffffffff16632f380b35836040518263ffffffff1660e01b8152600401611bb29190612f0f565b600060405180830381865afa158015611bcf573d6000803e3d6000fd5b505050506040513d6000823e3d601f19601f82011682018060405250810190611bf89190614fca565b9050919050565b611c07612c5c565b600160009054906101000a900473ffffffffffffffffffffffffffffffffffffffff1673ffffffffffffffffffffffffffffffffffffffff1663aa64b6b683336040518363ffffffff1660e01b8152600401611c64929190615013565b60c060405180830381865afa158015611c81573d6000803e3d6000fd5b505050506040513d601f19601f82011682018060405250810190611ca591906150dc565b9050919050565b6000806000611cbb8989612527565b809350819250505060016003811115611cd757611cd66131d7565b5b8a6003811115611cea57611ce96131d7565b5b03611d0357611cfc8188888888612565565b9250611d40565b60026003811115611d1757611d166131d7565b5b8a6003811115611d2a57611d296131d7565b5b03611d3f57611d3c818888888861267d565b92505b5b5097509795505050505050565b6000816fffffffffffffffffffffffffffffffff16836fffffffffffffffffffffffffffffffff1603611d9a5783600a611d87919061523c565b600a611d93919061445e565b9050611e6f565b816fffffffffffffffffffffffffffffffff16836fffffffffffffffffffffffffffffffff16118015611de357506305f5e100836fffffffffffffffffffffffffffffffff1611155b15611e3c5783600a611df5919061523c565b60018385611e039190615287565b611e0d9190614375565b600a611e1991906152b8565b6fffffffffffffffffffffffffffffffff16611e35919061445e565b9050611e6e565b6040517fd049d34300000000000000000000000000000000000000000000000000000000815260040160405180910390fd5b5b9392505050565b60008060016003811115611e8d57611e8c6131d7565b5b8a6003811115611ea057611e9f6131d7565b5b03611ec157611eb489898989898989612795565b8092508193505050611f06565b60026003811115611ed557611ed46131d7565b5b8a6003811115611ee857611ee76131d7565b5b03611f0557611efc89898989898989612922565b80925081935050505b5b9850989650505050505050565b600080611f236000878787612002565b9050600060016003811115611f3b57611f3a6131d7565b5b886003811115611f4e57611f4d6131d7565b5b03611fa757611f6b6000888689611f659190614ec5565b88612002565b905080821115611fa25781670de0b6b3a76400008284611f8b9190614ec5565b611f95919061445e565b611f9f9190614b4f565b92505b611ff7565b611fbf600088888789611fba9190614ec5565b612002565b905080821115611ff65781670de0b6b3a76400008284611fdf9190614ec5565b611fe9919061445e565b611ff39190614b4f565b92505b5b505095945050505050565b600060016003811115612018576120176131d7565b5b85600381111561202b5761202a6131d7565b5b0361204057670de0b6b3a76400009050612147565b60026003811115612054576120536131d7565b5b856003811115612067576120666131d7565b5b036120755760009050612146565b60006003811115612089576120886131d7565b5b85600381111561209c5761209b6131d7565b5b03612145576000831480156120b15750600082145b156120d2576002670de0b6b3a76400006120cb9190614b4f565b9050612148565b8360026120df91906152b8565b6fffffffffffffffffffffffffffffffff1682846120fd91906144a0565b61210791906144a0565b670de0b6b3a7640000856fffffffffffffffffffffffffffffffff168561212e91906144a0565b612138919061445e565b6121429190614b4f565b90505b5b5b5b949350505050565b612158612d3c565b600060049054906101000a900473ffffffffffffffffffffffffffffffffffffffff1673ffffffffffffffffffffffffffffffffffffffff16631c88ef1e84846040518363ffffffff1660e01b81526004016121b5929190614ae2565b60c060405180830381865afa1580156121d2573d6000803e3d6000fd5b505050506040513d601f19601f820116820180604052508101906121f69190615395565b905092915050565b600061220c85858585612002565b670de0b6b3a764000061221f9190614ec5565b9050949350505050565b612231612caa565b600260009054906101000a900473ffffffffffffffffffffffffffffffffffffffff1673ffffffffffffffffffffffffffffffffffffffff16639276ade5836040518263ffffffff1660e01b815260040161228c9190612f0f565b600060405180830381865afa1580156122a9573d6000803e3d6000fd5b505050506040513d6000823e3d601f19601f820116820180604052508101906122d29190614a99565b9050919050565b6000806122e96000898686612002565b90506000851115612372578486886fffffffffffffffffffffffffffffffff16670de0b6b3a76400008685670de0b6b3a76400006123279190614ec5565b612331919061445e565b858961233d919061445e565b61234791906144a0565b6123519190614b4f565b61235b91906144a0565b612365919061445e565b61236f9190614b4f565b91505b509695505050505050565b60008083866fffffffffffffffffffffffffffffffff168661239f919061445e565b6123a99190614b4f565b915082876fffffffffffffffffffffffffffffffff16866123ca919061445e565b6123d49190614b4f565b90509550959350505050565b6000806000806123f08a8a612527565b50905060016003811115612407576124066131d7565b5b8b600381111561241a576124196131d7565b5b0361249e5761242c6000898888612002565b9250600061243d828a8a8a8a612565565b905060008111156124985761246060008a838a61245a91906144a0565b89612002565b9250838311156124975783670de0b6b3a764000085856124809190614ec5565b61248a919061445e565b6124949190614b4f565b94505b5b50612519565b6124ab60008988886121fe565b925060006124bc828a8a8a8a61267d565b90506000811115612517576124df60008a89848a6124da91906144a0565b6121fe565b9250838311156125165783670de0b6b3a764000085856124ff9190614ec5565b612509919061445e565b6125139190614b4f565b94505b5b505b505050979650505050505050565b600080620186a063ffffffff168461ffff168461254491906152b8565b61254e9190615287565b9050808361255c9190614b0b565b91509250929050565b6000806125756000878686612002565b90506000811461267357670de0b6b3a764000081036125a857866fffffffffffffffffffffffffffffffff169150612672565b60008688876125b79190614375565b6125c19190614375565b6fffffffffffffffffffffffffffffffff1690506000876fffffffffffffffffffffffffffffffff16856125f591906144a0565b905060008384670de0b6b3a764000061260e9190614ec5565b83612619919061445e565b84670de0b6b3a764000061262d919061445e565b6126379190614ec5565b6126419190614b4f565b9050886fffffffffffffffffffffffffffffffff1687826126629190614ec5565b61266c9190614ec5565b94505050505b5b5095945050505050565b60008061268d60008786866121fe565b90506000811461278b57670de0b6b3a764000081036126c057866fffffffffffffffffffffffffffffffff16915061278a565b60008688876126cf9190614375565b6126d99190614375565b6fffffffffffffffffffffffffffffffff1690506000876fffffffffffffffffffffffffffffffff168661270d91906144a0565b905060008384670de0b6b3a76400006127269190614ec5565b83612731919061445e565b84670de0b6b3a7640000612745919061445e565b61274f9190614ec5565b6127599190614b4f565b9050886fffffffffffffffffffffffffffffffff16868261277a9190614ec5565b6127849190614ec5565b94505050505b5b5095945050505050565b60008060006127a760008a8787612002565b905060008114612915576000868a6fffffffffffffffffffffffffffffffff16876127d291906144a0565b6127dc9190614ec5565b905060008a6fffffffffffffffffffffffffffffffff16866127fe91906144a0565b90506000670de0b6b3a764000084670de0b6b3a764000061281f9190614ec5565b8361282a919061445e565b8585612836919061445e565b61284091906144a0565b61284a9190614b4f565b90506000818d8c8e61285c9190614375565b6128669190614375565b6fffffffffffffffffffffffffffffffff166128829190614ec5565b905060008c6fffffffffffffffffffffffffffffffff168211156128ba578c6fffffffffffffffffffffffffffffffff1690506128be565b8190505b6103e88111156128ef57620186a063ffffffff168f61ffff16826128e2919061445e565b6128ec9190614b4f565b96505b866fffffffffffffffffffffffffffffffff168161290d9190614ec5565b975050505050505b5097509795505050505050565b600080600061293460008a87876121fe565b905060008114612aa2576000896fffffffffffffffffffffffffffffffff168661295e91906144a0565b90506000878b6fffffffffffffffffffffffffffffffff168761298191906144a0565b61298b9190614ec5565b90506000670de0b6b3a764000084836129a4919061445e565b85670de0b6b3a76400006129b89190614ec5565b856129c3919061445e565b6129cd91906144a0565b6129d79190614b4f565b90506000818d8c8e6129e99190614375565b6129f39190614375565b6fffffffffffffffffffffffffffffffff16612a0f9190614ec5565b905060008c6fffffffffffffffffffffffffffffffff16821115612a47578c6fffffffffffffffffffffffffffffffff169050612a4b565b8190505b6103e8811115612a7c57620186a063ffffffff168f61ffff1682612a6f919061445e565b612a799190614b4f565b96505b866fffffffffffffffffffffffffffffffff1681612a9a9190614ec5565b975050505050505b5097509795505050505050565b6040518060a00160405280600073ffffffffffffffffffffffffffffffffffffffff168152602001600073ffffffffffffffffffffffffffffffffffffffff168152602001600073ffffffffffffffffffffffffffffffffffffffff168152602001600073ffffffffffffffffffffffffffffffffffffffff168152602001606081525090565b60405180610100016040528060006003811115612b5657612b556131d7565b5b8152602001600015158152602001600015158152602001600067ffffffffffffffff168152602001600067ffffffffffffffff168152602001600067ffffffffffffffff168152602001600073ffffffffffffffffffffffffffffffffffffffff168152602001600067ffffffffffffffff1681525090565b60405180610100016040528060006fffffffffffffffffffffffffffffffff16815260200160006fffffffffffffffffffffffffffffffff16815260200160006fffffffffffffffffffffffffffffffff16815260200160006fffffffffffffffffffffffffffffffff168152602001600081526020016000815260200160008152602001600081525090565b6040518060c00160405280600061ffff168152602001600061ffff168152602001600061ffff168152602001600061ffff168152602001600061ffff168152602001600061ffff1681525090565b60405180610120016040528060006002811115612cca57612cc96131d7565b5b815260200160006002811115612ce357612ce26131d7565b5b8152602001600061ffff168152602001600061ffff168152602001600067ffffffffffffffff168152602001600067ffffffffffffffff1681526020016000815260200160608152602001612d36612d8e565b81525090565b6040518060c00160405280600067ffffffffffffffff16815260200160006fffffffffffffffffffffffffffffffff168152602001600081526020016000815260200160008152602001600081525090565b60405180610100016040528060006001811115612dae57612dad6131d7565b5b8152602001600015158152602001600061ffff168152602001600061ffff168152602001600073ffffffffffffffffffffffffffffffffffffffff1681526020016060815260200160608152602001606081525090565b6000604051905090565b600080fd5b600080fd5b6000819050919050565b612e2c81612e19565b8114612e3757600080fd5b50565b600081359050612e4981612e23565b92915050565b60006fffffffffffffffffffffffffffffffff82169050919050565b612e7481612e4f565b8114612e7f57600080fd5b50565b600081359050612e9181612e6b565b92915050565b60008060408385031215612eae57612ead612e0f565b5b6000612ebc85828601612e3a565b9250506020612ecd85828601612e82565b9150509250929050565b612ee081612e19565b82525050565b6000604082019050612efb6000830185612ed7565b612f086020830184612ed7565b9392505050565b6000602082019050612f246000830184612ed7565b92915050565b60088110612f3757600080fd5b50565b600081359050612f4981612f2a565b92915050565b600080600060608486031215612f6857612f67612e0f565b5b6000612f7686828701612f3a565b9350506020612f8786828701612e3a565b9250506040612f9886828701612e3a565b9150509250925092565b600081519050919050565b600082825260208201905092915050565b6000819050602082019050919050565b600073ffffffffffffffffffffffffffffffffffffffff82169050919050565b6000612ff982612fce565b9050919050565b61300981612fee565b82525050565b600081519050919050565b600082825260208201905092915050565b60005b8381101561304957808201518184015260208101905061302e565b60008484015250505050565b6000601f19601f8301169050919050565b60006130718261300f565b61307b818561301a565b935061308b81856020860161302b565b61309481613055565b840191505092915050565b600060a0830160008301516130b76000860182613000565b5060208301516130ca6020860182613000565b5060408301516130dd6040860182613000565b5060608301516130f06060860182613000565b50608083015184820360808601526131088282613066565b9150508091505092915050565b6000613121838361309f565b905092915050565b6000602082019050919050565b600061314182612fa2565b61314b8185612fad565b93508360208202850161315d85612fbe565b8060005b85811015613199578484038952815161317a8582613115565b945061318583613129565b925060208a01995050600181019050613161565b50829750879550505050505092915050565b600081519050919050565b600082825260208201905092915050565b6000819050602082019050919050565b7f4e487b7100000000000000000000000000000000000000000000000000000000600052602160045260246000fd5b60048110613217576132166131d7565b5b50565b600081905061322882613206565b919050565b60006132388261321a565b9050919050565b6132488161322d565b82525050565b60008115159050919050565b6132638161324e565b82525050565b600067ffffffffffffffff82169050919050565b61328681613269565b82525050565b610100820160008201516132a3600085018261323f565b5060208201516132b6602085018261325a565b5060408201516132c9604085018261325a565b5060608201516132dc606085018261327d565b5060808201516132ef608085018261327d565b5060a082015161330260a085018261327d565b5060c082015161331560c0850182613000565b5060e082015161332860e085018261327d565b50505050565b600061333a838361328c565b6101008301905092915050565b6000602082019050919050565b600061335f826131ab565b61336981856131b6565b9350613374836131c7565b8060005b838110156133a557815161338c888261332e565b975061339783613347565b925050600181019050613378565b5085935050505092915050565b600081519050919050565b600082825260208201905092915050565b6000819050602082019050919050565b6133e781612e4f565b82525050565b6133f681612e19565b82525050565b6101008201600082015161341360008501826133de565b50602082015161342660208501826133de565b50604082015161343960408501826133de565b50606082015161344c60608501826133de565b50608082015161345f60808501826133ed565b5060a082015161347260a08501826133ed565b5060c082015161348560c08501826133ed565b5060e082015161349860e08501826133ed565b50505050565b60006134aa83836133fc565b6101008301905092915050565b6000602082019050919050565b60006134cf826133b2565b6134d981856133bd565b93506134e4836133ce565b8060005b838110156135155781516134fc888261349e565b9750613507836134b7565b9250506001810190506134e8565b5085935050505092915050565b600081519050919050565b600082825260208201905092915050565b6000819050602082019050919050565b600061355a83836133ed565b60208301905092915050565b6000602082019050919050565b600061357e82613522565b613588818561352d565b93506135938361353e565b8060005b838110156135c45781516135ab888261354e565b97506135b683613566565b925050600181019050613597565b5085935050505092915050565b600060a08201905081810360008301526135eb8188613136565b905081810360208301526135ff8187613354565b9050818103604083015261361381866134c4565b905081810360608301526136278185613573565b9050818103608083015261363b8184613573565b90509695505050505050565b61365081612fee565b82525050565b600060208201905061366b6000830184613647565b92915050565b6004811061367e57600080fd5b50565b60008135905061369081613671565b92915050565b6000806000606084860312156136af576136ae612e0f565b5b60006136bd86828701613681565b93505060206136ce86828701612e82565b92505060406136df86828701612e3a565b9150509250925092565b6136f281612e4f565b82525050565b600060408201905061370d6000830185612ed7565b61371a60208301846136e9565b9392505050565b600060ff82169050919050565b61373781613721565b811461374257600080fd5b50565b6000813590506137548161372e565b92915050565b6000806040838503121561377157613770612e0f565b5b600061377f85828601612e82565b925050602061379085828601613745565b9150509250929050565b6000806000606084860312156137b3576137b2612e0f565b5b60006137c186828701612e3a565b93505060206137d286828701613681565b92505060406137e386828701612e82565b9150509250925092565b60006020828403121561380357613802612e0f565b5b600061381184828501612e3a565b91505092915050565b600060a0830160008301516138326000860182613000565b5060208301516138456020860182613000565b5060408301516138586040860182613000565b50606083015161386b6060860182613000565b50608083015184820360808601526138838282613066565b9150508091505092915050565b600061ffff82169050919050565b6138a781613890565b82525050565b60c0820160008201516138c3600085018261389e565b5060208201516138d6602085018261389e565b5060408201516138e9604085018261389e565b5060608201516138fc606085018261389e565b50608082015161390f608085018261389e565b5060a082015161392260a085018261389e565b50505050565b6101008201600082015161393f600085018261323f565b506020820151613952602085018261325a565b506040820151613965604085018261325a565b506060820151613978606085018261327d565b50608082015161398b608085018261327d565b5060a082015161399e60a085018261327d565b5060c08201516139b160c0850182613000565b5060e08201516139c460e085018261327d565b50505050565b610100820160008201516139e160008501826133de565b5060208201516139f460208501826133de565b506040820151613a0760408501826133de565b506060820151613a1a60608501826133de565b506080820151613a2d60808501826133ed565b5060a0820151613a4060a08501826133ed565b5060c0820151613a5360c08501826133ed565b5060e0820151613a6660e08501826133ed565b50505050565b60038110613a7d57613a7c6131d7565b5b50565b6000819050613a8e82613a6c565b919050565b6000613a9e82613a80565b9050919050565b613aae81613a93565b82525050565b60038110613ac557613ac46131d7565b5b50565b6000819050613ad682613ab4565b919050565b6000613ae682613ac8565b9050919050565b613af681613adb565b82525050565b60028110613b0d57613b0c6131d7565b5b50565b6000819050613b1e82613afc565b919050565b6000613b2e82613b10565b9050919050565b613b3e81613b23565b82525050565b600081519050919050565b600082825260208201905092915050565b6000819050602082019050919050565b6000613b7c8383613000565b60208301905092915050565b6000602082019050919050565b6000613ba082613b44565b613baa8185613b4f565b9350613bb583613b60565b8060005b83811015613be6578151613bcd8882613b70565b9750613bd883613b88565b925050600181019050613bb9565b5085935050505092915050565b600061010083016000830151613c0c6000860182613b35565b506020830151613c1f602086018261325a565b506040830151613c32604086018261389e565b506060830151613c45606086018261389e565b506080830151613c586080860182613000565b5060a083015184820360a0860152613c708282613066565b91505060c083015184820360c0860152613c8a8282613b95565b91505060e083015184820360e0860152613ca48282613b95565b9150508091505092915050565b600061012083016000830151613cca6000860182613aa5565b506020830151613cdd6020860182613aed565b506040830151613cf0604086018261389e565b506060830151613d03606086018261389e565b506080830151613d16608086018261327d565b5060a0830151613d2960a086018261327d565b5060c0830151613d3c60c08601826133ed565b5060e083015184820360e0860152613d548282613066565b915050610100830151848203610100860152613d708282613bf3565b9150508091505092915050565b6000610340820190508181036000830152613d98818a61381a565b9050613da760208301896138ad565b613db460e0830188613928565b613dc26101e08301876139ca565b8181036102e0830152613dd58186613cb1565b9050613de5610300830185612ed7565b613df3610320830184612ed7565b98975050505050505050565b613e0881612fee565b8114613e1357600080fd5b50565b600081359050613e2581613dff565b92915050565b600080600060608486031215613e4457613e43612e0f565b5b6000613e5286828701613e16565b9350506020613e6386828701612e3a565b9250506040613e7486828701612e3a565b9150509250925092565b600081519050919050565b600082825260208201905092915050565b6000819050602082019050919050565b60c082016000820151613ec0600085018261327d565b506020820151613ed360208501826133de565b506040820151613ee660408501826133ed565b506060820151613ef960608501826133ed565b506080820151613f0c60808501826133ed565b5060a0820151613f1f60a08501826133ed565b50505050565b6000613f318383613eaa565b60c08301905092915050565b6000602082019050919050565b6000613f5582613e7e565b613f5f8185613e89565b9350613f6a83613e9a565b8060005b83811015613f9b578151613f828882613f25565b9750613f8d83613f3d565b925050600181019050613f6e565b5085935050505092915050565b60006040820190508181036000830152613fc28185613573565b90508181036020830152613fd68184613f4a565b90509392505050565b60008060408385031215613ff657613ff5612e0f565b5b600061400485828601613e16565b925050602061401585828601613e16565b9150509250929050565b6000806040838503121561403657614035612e0f565b5b600061404485828601612e3a565b925050602061405585828601612e3a565b9150509250929050565b600081519050919050565b600082825260208201905092915050565b6000819050602082019050919050565b6000610120830160008301516140a46000860182613aa5565b5060208301516140b76020860182613aed565b5060408301516140ca604086018261389e565b5060608301516140dd606086018261389e565b5060808301516140f0608086018261327d565b5060a083015161410360a086018261327d565b5060c083015161411660c08601826133ed565b5060e083015184820360e086015261412e8282613066565b91505061010083015184820361010086015261414a8282613bf3565b9150508091505092915050565b6000614163838361408b565b905092915050565b6000602082019050919050565b60006141838261405f565b61418d818561406a565b93508360208202850161419f8561407b565b8060005b858110156141db57848403895281516141bc8582614157565b94506141c78361416b565b925060208a019950506001810190506141a3565b50829750879550505050505092915050565b600060c08201905081810360008301526142078189613136565b9050818103602083015261421b8188613354565b9050818103604083015261422f81876134c4565b905081810360608301526142438186614178565b905081810360808301526142578185613573565b905081810360a083015261426b8184613573565b9050979650505050505050565b60006020828403121561428e5761428d612e0f565b5b600061429c84828501613e16565b91505092915050565b6142ae81613721565b82525050565b60006020820190506142c960008301846142a5565b92915050565b600080604083850312156142e6576142e5612e0f565b5b60006142f485828601612e3a565b925050602061430585828601613e16565b9150509250929050565b600060608201905061432460008301866136e9565b61433160208301856136e9565b61433e6040830184612ed7565b949350505050565b7f4e487b7100000000000000000000000000000000000000000000000000000000600052601160045260246000fd5b600061438082612e4f565b915061438b83612e4f565b925082820190506fffffffffffffffffffffffffffffffff8111156143b3576143b2614346565b5b92915050565b600881106143ca576143c96131d7565b5b50565b60008190506143db826143b9565b919050565b60006143eb826143cd565b9050919050565b6143fb816143e0565b82525050565b600060208201905061441660008301846143f2565b92915050565b60008151905061442b81612e23565b92915050565b60006020828403121561444757614446612e0f565b5b60006144558482850161441c565b91505092915050565b600061446982612e19565b915061447483612e19565b925082820261448281612e19565b9150828204841483151761449957614498614346565b5b5092915050565b60006144ab82612e19565b91506144b683612e19565b92508282019050808211156144ce576144cd614346565b5b92915050565b7f4e487b7100000000000000000000000000000000000000000000000000000000600052601260045260246000fd5b600061450e82612e19565b915061451983612e19565b925082614529576145286144d4565b5b828206905092915050565b7f4e487b7100000000000000000000000000000000000000000000000000000000600052604160045260246000fd5b7f4e487b7100000000000000000000000000000000000000000000000000000000600052603260045260246000fd5b600080fd5b6145a082613055565b810181811067ffffffffffffffff821117156145bf576145be614534565b5b80604052505050565b60006145d2612e05565b90506145de8282614597565b919050565b600080fd5b600381106145f557600080fd5b50565b600081519050614607816145e8565b92915050565b6003811061461a57600080fd5b50565b60008151905061462c8161460d565b92915050565b61463b81613890565b811461464657600080fd5b50565b60008151905061465881614632565b92915050565b61466781613269565b811461467257600080fd5b50565b6000815190506146848161465e565b92915050565b600080fd5b600080fd5b600067ffffffffffffffff8211156146af576146ae614534565b5b6146b882613055565b9050602081019050919050565b60006146d86146d384614694565b6145c8565b9050828152602081018484840111156146f4576146f361468f565b5b6146ff84828561302b565b509392505050565b600082601f83011261471c5761471b61468a565b5b815161472c8482602086016146c5565b91505092915050565b6002811061474257600080fd5b50565b60008151905061475481614735565b92915050565b6147638161324e565b811461476e57600080fd5b50565b6000815190506147808161475a565b92915050565b60008151905061479581613dff565b92915050565b600067ffffffffffffffff8211156147b6576147b5614534565b5b602082029050602081019050919050565b600080fd5b60006147df6147da8461479b565b6145c8565b90508083825260208201905060208402830185811115614802576148016147c7565b5b835b8181101561482b57806148178882614786565b845260208401935050602081019050614804565b5050509392505050565b600082601f83011261484a5761484961468a565b5b815161485a8482602086016147cc565b91505092915050565b6000610100828403121561487a57614879614592565b5b6148856101006145c8565b9050600061489584828501614745565b60008301525060206148a984828501614771565b60208301525060406148bd84828501614649565b60408301525060606148d184828501614649565b60608301525060806148e584828501614786565b60808301525060a082015167ffffffffffffffff811115614909576149086145e3565b5b61491584828501614707565b60a08301525060c082015167ffffffffffffffff811115614939576149386145e3565b5b61494584828501614835565b60c08301525060e082015167ffffffffffffffff811115614969576149686145e3565b5b61497584828501614835565b60e08301525092915050565b6000610120828403121561499857614997614592565b5b6149a36101206145c8565b905060006149b3848285016145f8565b60008301525060206149c78482850161461d565b60208301525060406149db84828501614649565b60408301525060606149ef84828501614649565b6060830152506080614a0384828501614675565b60808301525060a0614a1784828501614675565b60a08301525060c0614a2b8482850161441c565b60c08301525060e082015167ffffffffffffffff811115614a4f57614a4e6145e3565b5b614a5b84828501614707565b60e08301525061010082015167ffffffffffffffff811115614a8057614a7f6145e3565b5b614a8c84828501614863565b6101008301525092915050565b600060208284031215614aaf57614aae612e0f565b5b600082015167ffffffffffffffff811115614acd57614acc612e14565b5b614ad984828501614981565b91505092915050565b6000604082019050614af76000830185613647565b614b046020830184612ed7565b9392505050565b6000614b1682612e4f565b9150614b2183612e4f565b925082820390506fffffffffffffffffffffffffffffffff811115614b4957614b48614346565b5b92915050565b6000614b5a82612e19565b9150614b6583612e19565b925082614b7557614b746144d4565b5b828204905092915050565b600082825260208201905092915050565b7f496e646578206f766572666c6f77000000000000000000000000000000000000600082015250565b6000614bc7600e83614b80565b9150614bd282614b91565b602082019050919050565b60006020820190508181036000830152614bf681614bba565b9050919050565b600081519050614c0c8161372e565b92915050565b600060208284031215614c2857614c27612e0f565b5b6000614c3684828501614bfd565b91505092915050565b7f496e76616c6964206c70416d6f756e7400000000000000000000000000000000600082015250565b6000614c75601083614b80565b9150614c8082614c3f565b602082019050919050565b60006020820190508181036000830152614ca481614c68565b9050919050565b600081519050614cba81613671565b92915050565b60006101008284031215614cd757614cd6614592565b5b614ce26101006145c8565b90506000614cf284828501614cab565b6000830152506020614d0684828501614771565b6020830152506040614d1a84828501614771565b6040830152506060614d2e84828501614675565b6060830152506080614d4284828501614675565b60808301525060a0614d5684828501614675565b60a08301525060c0614d6a84828501614786565b60c08301525060e0614d7e84828501614675565b60e08301525092915050565b60006101008284031215614da157614da0612e0f565b5b6000614daf84828501614cc0565b91505092915050565b600081519050614dc781612e6b565b92915050565b60006101008284031215614de457614de3614592565b5b614def6101006145c8565b90506000614dff84828501614db8565b6000830152506020614e1384828501614db8565b6020830152506040614e2784828501614db8565b6040830152506060614e3b84828501614db8565b6060830152506080614e4f8482850161441c565b60808301525060a0614e638482850161441c565b60a08301525060c0614e778482850161441c565b60c08301525060e0614e8b8482850161441c565b60e08301525092915050565b60006101008284031215614eae57614ead612e0f565b5b6000614ebc84828501614dcd565b91505092915050565b6000614ed082612e19565b9150614edb83612e19565b9250828203905081811115614ef357614ef2614346565b5b92915050565b6000604082019050614f0e60008301856143f2565b614f1b6020830184612ed7565b9392505050565b600060a08284031215614f3857614f37614592565b5b614f4260a06145c8565b90506000614f5284828501614786565b6000830152506020614f6684828501614786565b6020830152506040614f7a84828501614786565b6040830152506060614f8e84828501614786565b606083015250608082015167ffffffffffffffff811115614fb257614fb16145e3565b5b614fbe84828501614707565b60808301525092915050565b600060208284031215614fe057614fdf612e0f565b5b600082015167ffffffffffffffff811115614ffe57614ffd612e14565b5b61500a84828501614f22565b91505092915050565b60006040820190506150286000830185612ed7565b6150356020830184613647565b9392505050565b600060c0828403121561505257615051614592565b5b61505c60c06145c8565b9050600061506c84828501614649565b600083015250602061508084828501614649565b602083015250604061509484828501614649565b60408301525060606150a884828501614649565b60608301525060806150bc84828501614649565b60808301525060a06150d084828501614649565b60a08301525092915050565b600060c082840312156150f2576150f1612e0f565b5b60006151008482850161503c565b91505092915050565b60008160011c9050919050565b6000808291508390505b60018511156151605780860481111561513c5761513b614346565b5b600185161561514b5780820291505b808102905061515985615109565b9450615120565b94509492505050565b6000826151795760019050615235565b816151875760009050615235565b816001811461519d57600281146151a7576151d6565b6001915050615235565b60ff8411156151b9576151b8614346565b5b8360020a9150848211156151d0576151cf614346565b5b50615235565b5060208310610133831016604e8410600b841016171561520b5782820a90508381111561520657615205614346565b5b615235565b6152188484846001615116565b9250905081840481111561522f5761522e614346565b5b81810290505b9392505050565b600061524782612e19565b915061525283613721565b925061527f7fffffffffffffffffffffffffffffffffffffffffffffffffffffffffffffffff8484615169565b905092915050565b600061529282612e4f565b915061529d83612e4f565b9250826152ad576152ac6144d4565b5b828204905092915050565b60006152c382612e4f565b91506152ce83612e4f565b92508282026152dc81612e4f565b91508082146152ee576152ed614346565b5b5092915050565b600060c0828403121561530b5761530a614592565b5b61531560c06145c8565b9050600061532584828501614675565b600083015250602061533984828501614db8565b602083015250604061534d8482850161441c565b60408301525060606153618482850161441c565b60608301525060806153758482850161441c565b60808301525060a06153898482850161441c565b60a08301525092915050565b600060c082840312156153ab576153aa612e0f565b5b60006153b9848285016152f5565b9150509291505056fea26469706673582212200acbf7c37faab36c3816ee96d98bdb744360b94e9a8138dd2f4566a4fcc3534864736f6c634300081a0033",
        "linkReferences": {},
        "deployedLinkReferences": {}
}