{
  "_format": "hh-sol-artifact-1",
  "contractName": "AroundPool",
  "sourceName": "contracts/core/AroundPool.sol",
  "abi": [
    {
      "inputs": [
        {
          "internalType": "address",
          "name": "thisAroundMarket",
          "type": "address"
        },
        {
          "internalType": "address",
          "name": "thisToken",
          "type": "address"
        }
      ],
      "stateMutability": "nonpayable",
      "type": "constructor"
    },
    {
      "inputs": [],
      "name": "AlreadyAllot",
      "type": "error"
    },
    {
      "inputs": [
        {
          "internalType": "address",
          "name": "token",
          "type": "address"
        }
      ],
      "name": "SafeERC20FailedOperation",
      "type": "error"
    },
    {
      "anonymous": false,
      "inputs": [
        {
          "indexed": true,
          "internalType": "address",
          "name": "thisToken",
          "type": "address"
        },
        {
          "indexed": true,
          "internalType": "address",
          "name": "thisReceiver",
          "type": "address"
        },
        {
          "indexed": true,
          "internalType": "uint256",
          "name": "thisAmount",
          "type": "uint256"
        }
      ],
      "name": "Touch",
      "type": "event"
    },
    {
      "inputs": [
        {
          "internalType": "bool",
          "name": "inValidMarket",
          "type": "bool"
        },
        {
          "internalType": "bool",
          "name": "ifOpenAave",
          "type": "bool"
        }
      ],
      "name": "allot",
      "outputs": [],
      "stateMutability": "nonpayable",
      "type": "function"
    },
    {
      "inputs": [],
      "name": "aroundMarket",
      "outputs": [
        {
          "internalType": "address",
          "name": "",
          "type": "address"
        }
      ],
      "stateMutability": "view",
      "type": "function"
    },
    {
      "inputs": [],
      "name": "aroundPoolFactory",
      "outputs": [
        {
          "internalType": "address",
          "name": "",
          "type": "address"
        }
      ],
      "stateMutability": "view",
      "type": "function"
    },
    {
      "inputs": [
        {
          "internalType": "bool",
          "name": "ifOpenAave",
          "type": "bool"
        },
        {
          "internalType": "uint128",
          "name": "amountIn",
          "type": "uint128"
        }
      ],
      "name": "deposite",
      "outputs": [],
      "stateMutability": "nonpayable",
      "type": "function"
    },
    {
      "inputs": [],
      "name": "getAavePoolPaused",
      "outputs": [
        {
          "internalType": "bool",
          "name": "isPaused",
          "type": "bool"
        }
      ],
      "stateMutability": "view",
      "type": "function"
    },
    {
      "inputs": [],
      "name": "getReserveInfo",
      "outputs": [
        {
          "components": [
            {
              "internalType": "uint128",
              "name": "lentOut",
              "type": "uint128"
            },
            {
              "internalType": "uint128",
              "name": "totalCollateralAmount",
              "type": "uint128"
            }
          ],
          "internalType": "struct IAroundPool.ReserveInfo",
          "name": "thisReserveInfo",
          "type": "tuple"
        }
      ],
      "stateMutability": "view",
      "type": "function"
    },
    {
      "inputs": [],
      "name": "ifAllot",
      "outputs": [
        {
          "internalType": "bool",
          "name": "",
          "type": "bool"
        }
      ],
      "stateMutability": "view",
      "type": "function"
    },
    {
      "inputs": [],
      "name": "token",
      "outputs": [
        {
          "internalType": "address",
          "name": "",
          "type": "address"
        }
      ],
      "stateMutability": "view",
      "type": "function"
    },
    {
      "inputs": [
        {
          "internalType": "bool",
          "name": "ifEnd",
          "type": "bool"
        },
        {
          "internalType": "bool",
          "name": "ifOpenAave",
          "type": "bool"
        },
        {
          "internalType": "address",
          "name": "receiver",
          "type": "address"
        },
        {
          "internalType": "uint128",
          "name": "amountOut",
          "type": "uint128"
        }
      ],
      "name": "touch",
      "outputs": [],
      "stateMutability": "nonpayable",
      "type": "function"
    }
  ],
  "bytecode": "0x60806040526127106000806101000a81548167ffffffffffffffff021916908367ffffffffffffffff16021790555034801561003a57600080fd5b50604051611872380380611872833981810160405281019061005c9190610189565b33600060086101000a81548173ffffffffffffffffffffffffffffffffffffffff021916908373ffffffffffffffffffffffffffffffffffffffff16021790555081600160006101000a81548173ffffffffffffffffffffffffffffffffffffffff021916908373ffffffffffffffffffffffffffffffffffffffff16021790555080600260006101000a81548173ffffffffffffffffffffffffffffffffffffffff021916908373ffffffffffffffffffffffffffffffffffffffff16021790555050506101c9565b600080fd5b600073ffffffffffffffffffffffffffffffffffffffff82169050919050565b60006101568261012b565b9050919050565b6101668161014b565b811461017157600080fd5b50565b6000815190506101838161015d565b92915050565b600080604083850312156101a05761019f610126565b5b60006101ae85828601610174565b92505060206101bf85828601610174565b9150509250929050565b61169a806101d86000396000f3fe608060405234801561001057600080fd5b50600436106100935760003560e01c806397debec01161006657806397debec01461010c578063ba2f76df14610128578063f885d3a514610146578063fc0c546a14610164578063ffe777bd1461018257610093565b80631ef27dee146100985780632d2fb774146100b65780637be0fde0146100d257806389a40fb3146100f0575b600080fd5b6100a06101a0565b6040516100ad9190611012565b60405180910390f35b6100d060048036038101906100cb91906110bc565b6101c6565b005b6100da61030e565b6040516100e7919061110b565b60405180910390f35b61010a60048036038101906101059190611152565b610321565b005b610126600480360381019061012191906111b9565b6104f5565b005b61013061078e565b60405161013d9190611012565b60405180910390f35b61014e6107b4565b60405161015b919061110b565b60405180910390f35b61016c610862565b6040516101799190611012565b60405180910390f35b61018a610888565b6040516101979190611237565b60405180910390f35b600060089054906101000a900473ffffffffffffffffffffffffffffffffffffffff1681565b6101ce610936565b80600360000160108282829054906101000a90046fffffffffffffffffffffffffffffffff166101fe9190611281565b92506101000a8154816fffffffffffffffffffffffffffffffff02191690836fffffffffffffffffffffffffffffffff160217905550811561030a57610265600260009054906101000a900473ffffffffffffffffffffffffffffffffffffffff16610992565b600360000160008282829054906101000a90046fffffffffffffffffffffffffffffffff166102949190611281565b92506101000a8154816fffffffffffffffffffffffffffffffff02191690836fffffffffffffffffffffffffffffffff1602179055506103096102d5610a15565b60200151610304600260009054906101000a900473ffffffffffffffffffffffffffffffffffffffff16610992565b610ab3565b5b5050565b600260149054906101000a900460ff1681565b610329610936565b6000610333610a15565b60200151905081600360000160108282829054906101000a90046fffffffffffffffffffffffffffffffff1661036991906112c5565b92506101000a8154816fffffffffffffffffffffffffffffffff02191690836fffffffffffffffffffffffffffffffff16021790555083156103af576103ae81610bf6565b5b61040e83836fffffffffffffffffffffffffffffffff16600260009054906101000a900473ffffffffffffffffffffffffffffffffffffffff1673ffffffffffffffffffffffffffffffffffffffff16610e049092919063ffffffff16565b600061043b600260009054906101000a900473ffffffffffffffffffffffffffffffffffffffff16610992565b90506000151586151514801561044e5750845b1561045e5761045d8282610ab3565b5b826fffffffffffffffffffffffffffffffff168473ffffffffffffffffffffffffffffffffffffffff16600260009054906101000a900473ffffffffffffffffffffffffffffffffffffffff1673ffffffffffffffffffffffffffffffffffffffff167fa39f8c1887aff4b4dfaf2f8af59c176175edb7bcfe5a95736e017ce4342535c860405160405180910390a4505050505050565b6104fd610936565b600260149054906101000a900460ff1615610544576040517ff07acc8700000000000000000000000000000000000000000000000000000000815260040160405180910390fd5b801561055f5761055e610555610a15565b60200151610bf6565b5b60008061058d600260009054906101000a900473ffffffffffffffffffffffffffffffffffffffff16610992565b9050831561059d57809150610694565b600360000160109054906101000a90046fffffffffffffffffffffffffffffffff166fffffffffffffffffffffffffffffffff16816fffffffffffffffffffffffffffffffff16111561062c576000600360000160006101000a8154816fffffffffffffffffffffffffffffffff02191690836fffffffffffffffffffffffffffffffff160217905550610693565b80600360000160008282829054906101000a90046fffffffffffffffffffffffffffffffff1661065c91906112c5565b92506101000a8154816fffffffffffffffffffffffffffffffff02191690836fffffffffffffffffffffffffffffffff1602179055505b5b6000826fffffffffffffffffffffffffffffffff16111561073157610730600060089054906101000a900473ffffffffffffffffffffffffffffffffffffffff16836fffffffffffffffffffffffffffffffff16600260009054906101000a900473ffffffffffffffffffffffffffffffffffffffff1673ffffffffffffffffffffffffffffffffffffffff16610e049092919063ffffffff16565b5b80600360000160106101000a8154816fffffffffffffffffffffffffffffffff02191690836fffffffffffffffffffffffffffffffff1602179055506001600260146101000a81548160ff02191690831515021790555050505050565b600160009054906101000a900473ffffffffffffffffffffffffffffffffffffffff1681565b60006107be610a15565b6060015173ffffffffffffffffffffffffffffffffffffffff1663b55d9904600260009054906101000a900473ffffffffffffffffffffffffffffffffffffffff166040518263ffffffff1660e01b815260040161081c9190611012565b602060405180830381865afa158015610839573d6000803e3d6000fd5b505050506040513d601f19601f8201168201806040525081019061085d919061131e565b905090565b600260009054906101000a900473ffffffffffffffffffffffffffffffffffffffff1681565b610890610f25565b60036040518060400160405290816000820160009054906101000a90046fffffffffffffffffffffffffffffffff166fffffffffffffffffffffffffffffffff166fffffffffffffffffffffffffffffffff1681526020016000820160109054906101000a90046fffffffffffffffffffffffffffffffff166fffffffffffffffffffffffffffffffff166fffffffffffffffffffffffffffffffff1681525050905090565b600160009054906101000a900473ffffffffffffffffffffffffffffffffffffffff1673ffffffffffffffffffffffffffffffffffffffff163373ffffffffffffffffffffffffffffffffffffffff161461099057600080fd5b565b60008173ffffffffffffffffffffffffffffffffffffffff166370a08231306040518263ffffffff1660e01b81526004016109cd9190611012565b602060405180830381865afa1580156109ea573d6000803e3d6000fd5b505050506040513d601f19601f82011682018060405250810190610a0e9190611381565b9050919050565b610a1d610f63565b600060089054906101000a900473ffffffffffffffffffffffffffffffffffffffff1673ffffffffffffffffffffffffffffffffffffffff1663706ea1f96040518163ffffffff1660e01b8152600401608060405180830381865afa158015610a8a573d6000803e3d6000fd5b505050506040513d601f19601f82011682018060405250810190610aae9190611506565b905090565b600260009054906101000a900473ffffffffffffffffffffffffffffffffffffffff1673ffffffffffffffffffffffffffffffffffffffff1663095ea7b383836040518363ffffffff1660e01b8152600401610b10929190611542565b6020604051808303816000875af1158015610b2f573d6000803e3d6000fd5b505050506040513d601f19601f82011682018060405250810190610b53919061131e565b508173ffffffffffffffffffffffffffffffffffffffff1663e8eda9df600260009054906101000a900473ffffffffffffffffffffffffffffffffffffffff168330610b9d610a15565b600001516040518563ffffffff1660e01b8152600401610bc0949392919061157a565b600060405180830381600087803b158015610bda57600080fd5b505af1158015610bee573d6000803e3d6000fd5b505050505050565b6000610c00610a15565b6040015190506000610c1182610992565b90506000811115610dff578173ffffffffffffffffffffffffffffffffffffffff1663095ea7b3847fffffffffffffffffffffffffffffffffffffffffffffffffffffffffffffffff6040518363ffffffff1660e01b8152600401610c77929190611542565b6020604051808303816000875af1158015610c96573d6000803e3d6000fd5b505050506040513d601f19601f82011682018060405250810190610cba919061131e565b508273ffffffffffffffffffffffffffffffffffffffff166369328dec600260009054906101000a900473ffffffffffffffffffffffffffffffffffffffff167fffffffffffffffffffffffffffffffffffffffffffffffffffffffffffffffff306040518463ffffffff1660e01b8152600401610d3a939291906115bf565b6020604051808303816000875af1158015610d59573d6000803e3d6000fd5b505050506040513d601f19601f82011682018060405250810190610d7d9190611381565b508173ffffffffffffffffffffffffffffffffffffffff1663095ea7b38460006040518363ffffffff1660e01b8152600401610dba92919061163b565b6020604051808303816000875af1158015610dd9573d6000803e3d6000fd5b505050506040513d601f19601f82011682018060405250810190610dfd919061131e565b505b505050565b610e7e838473ffffffffffffffffffffffffffffffffffffffff1663a9059cbb8585604051602401610e37929190611542565b604051602081830303815290604052915060e01b6020820180517bffffffffffffffffffffffffffffffffffffffffffffffffffffffff8381831617835250505050610e83565b505050565b600080602060008451602086016000885af180610ea6576040513d6000823e3d81fd5b3d925060005191505060008214610ec1576001811415610edd565b60008473ffffffffffffffffffffffffffffffffffffffff163b145b15610f1f57836040517f5274afe7000000000000000000000000000000000000000000000000000000008152600401610f169190611012565b60405180910390fd5b50505050565b604051806040016040528060006fffffffffffffffffffffffffffffffff16815260200160006fffffffffffffffffffffffffffffffff1681525090565b6040518060800160405280600061ffff168152602001600073ffffffffffffffffffffffffffffffffffffffff168152602001600073ffffffffffffffffffffffffffffffffffffffff168152602001600073ffffffffffffffffffffffffffffffffffffffff1681525090565b600073ffffffffffffffffffffffffffffffffffffffff82169050919050565b6000610ffc82610fd1565b9050919050565b61100c81610ff1565b82525050565b60006020820190506110276000830184611003565b92915050565b6000604051905090565b600080fd5b60008115159050919050565b6110518161103c565b811461105c57600080fd5b50565b60008135905061106e81611048565b92915050565b60006fffffffffffffffffffffffffffffffff82169050919050565b61109981611074565b81146110a457600080fd5b50565b6000813590506110b681611090565b92915050565b600080604083850312156110d3576110d2611037565b5b60006110e18582860161105f565b92505060206110f2858286016110a7565b9150509250929050565b6111058161103c565b82525050565b600060208201905061112060008301846110fc565b92915050565b61112f81610ff1565b811461113a57600080fd5b50565b60008135905061114c81611126565b92915050565b6000806000806080858703121561116c5761116b611037565b5b600061117a8782880161105f565b945050602061118b8782880161105f565b935050604061119c8782880161113d565b92505060606111ad878288016110a7565b91505092959194509250565b600080604083850312156111d0576111cf611037565b5b60006111de8582860161105f565b92505060206111ef8582860161105f565b9150509250929050565b61120281611074565b82525050565b60408201600082015161121e60008501826111f9565b50602082015161123160208501826111f9565b50505050565b600060408201905061124c6000830184611208565b92915050565b7f4e487b7100000000000000000000000000000000000000000000000000000000600052601160045260246000fd5b600061128c82611074565b915061129783611074565b925082820190506fffffffffffffffffffffffffffffffff8111156112bf576112be611252565b5b92915050565b60006112d082611074565b91506112db83611074565b925082820390506fffffffffffffffffffffffffffffffff81111561130357611302611252565b5b92915050565b60008151905061131881611048565b92915050565b60006020828403121561133457611333611037565b5b600061134284828501611309565b91505092915050565b6000819050919050565b61135e8161134b565b811461136957600080fd5b50565b60008151905061137b81611355565b92915050565b60006020828403121561139757611396611037565b5b60006113a58482850161136c565b91505092915050565b600080fd5b6000601f19601f8301169050919050565b7f4e487b7100000000000000000000000000000000000000000000000000000000600052604160045260246000fd5b6113fc826113b3565b810181811067ffffffffffffffff8211171561141b5761141a6113c4565b5b80604052505050565b600061142e61102d565b905061143a82826113f3565b919050565b600061ffff82169050919050565b6114568161143f565b811461146157600080fd5b50565b6000815190506114738161144d565b92915050565b60008151905061148881611126565b92915050565b6000608082840312156114a4576114a36113ae565b5b6114ae6080611424565b905060006114be84828501611464565b60008301525060206114d284828501611479565b60208301525060406114e684828501611479565b60408301525060606114fa84828501611479565b60608301525092915050565b60006080828403121561151c5761151b611037565b5b600061152a8482850161148e565b91505092915050565b61153c8161134b565b82525050565b60006040820190506115576000830185611003565b6115646020830184611533565b9392505050565b6115748161143f565b82525050565b600060808201905061158f6000830187611003565b61159c6020830186611533565b6115a96040830185611003565b6115b6606083018461156b565b95945050505050565b60006060820190506115d46000830186611003565b6115e16020830185611533565b6115ee6040830184611003565b949350505050565b6000819050919050565b6000819050919050565b600061162561162061161b846115f6565b611600565b61134b565b9050919050565b6116358161160a565b82525050565b60006040820190506116506000830185611003565b61165d602083018461162c565b939250505056fea2646970667358221220bdc0aa86035e99a784ac83459a8736e1adc895fd1661ab5eb238ad9adfbdefd064736f6c634300081a0033",
  "linkReferences": {},
  "deployedLinkReferences": {}
}