{
  "_format": "hh-sol-artifact-1",
  "contractName": "EchoOptimisticOracle",
  "sourceName": "contracts/oracle/EchoOptimisticOracle.sol",
  "abi": [
    {
      "inputs": [
        {
          "internalType": "address",
          "name": "_usdc",
          "type": "address"
        }
      ],
      "stateMutability": "nonpayable",
      "type": "constructor"
    },
    {
      "inputs": [
        {
          "internalType": "address",
          "name": "owner",
          "type": "address"
        }
      ],
      "name": "OwnableInvalidOwner",
      "type": "error"
    },
    {
      "inputs": [
        {
          "internalType": "address",
          "name": "account",
          "type": "address"
        }
      ],
      "name": "OwnableUnauthorizedAccount",
      "type": "error"
    },
    {
      "inputs": [],
      "name": "ReentrancyGuardReentrantCall",
      "type": "error"
    },
    {
      "inputs": [
        {
          "internalType": "address",
          "name": "token",
          "type": "address"
        }
      ],
      "name": "SafeERC20FailedOperation",
      "type": "error"
    },
    {
      "anonymous": false,
      "inputs": [
        {
          "indexed": true,
          "internalType": "address",
          "name": "challenger",
          "type": "address"
        },
        {
          "indexed": true,
          "internalType": "uint256",
          "name": "thisMarketId",
          "type": "uint256"
        }
      ],
      "name": "Challenge",
      "type": "event"
    },
    {
      "anonymous": false,
      "inputs": [
        {
          "indexed": true,
          "internalType": "address",
          "name": "provider",
          "type": "address"
        }
      ],
      "name": "ExitProvider",
      "type": "event"
    },
    {
      "anonymous": false,
      "inputs": [
        {
          "indexed": true,
          "internalType": "uint256",
          "name": "thisMarketId",
          "type": "uint256"
        },
        {
          "indexed": true,
          "internalType": "uint256",
          "name": "value",
          "type": "uint256"
        }
      ],
      "name": "InjectFee",
      "type": "event"
    },
    {
      "anonymous": false,
      "inputs": [
        {
          "indexed": true,
          "internalType": "uint256",
          "name": "thisMarketId",
          "type": "uint256"
        },
        {
          "indexed": false,
          "internalType": "string",
          "name": "thisQuest",
          "type": "string"
        }
      ],
      "name": "InjectQuest",
      "type": "event"
    },
    {
      "anonymous": false,
      "inputs": [
        {
          "indexed": true,
          "internalType": "address",
          "name": "previousOwner",
          "type": "address"
        },
        {
          "indexed": true,
          "internalType": "address",
          "name": "newOwner",
          "type": "address"
        }
      ],
      "name": "OwnershipTransferred",
      "type": "event"
    },
    {
      "anonymous": false,
      "inputs": [
        {
          "indexed": true,
          "internalType": "address",
          "name": "newProvider",
          "type": "address"
        }
      ],
      "name": "RegisterProvider",
      "type": "event"
    },
    {
      "anonymous": false,
      "inputs": [
        {
          "indexed": false,
          "internalType": "address",
          "name": "user",
          "type": "address"
        },
        {
          "indexed": false,
          "internalType": "bool",
          "name": "state",
          "type": "bool"
        }
      ],
      "name": "SetWhitelist",
      "type": "event"
    },
    {
      "anonymous": false,
      "inputs": [
        {
          "indexed": true,
          "internalType": "address",
          "name": "provider",
          "type": "address"
        },
        {
          "indexed": true,
          "internalType": "uint256",
          "name": "thisMarketId",
          "type": "uint256"
        },
        {
          "indexed": false,
          "internalType": "enum IEchoOptimisticOracle.EventState",
          "name": "thisEventState",
          "type": "uint8"
        },
        {
          "indexed": false,
          "internalType": "uint64",
          "name": "thisRandomNumber",
          "type": "uint64"
        }
      ],
      "name": "SubmitData",
      "type": "event"
    },
    {
      "inputs": [],
      "name": "MAXRANDOM",
      "outputs": [
        {
          "internalType": "uint64",
          "name": "",
          "type": "uint64"
        }
      ],
      "stateMutability": "view",
      "type": "function"
    },
    {
      "inputs": [],
      "name": "MINRANDOM",
      "outputs": [
        {
          "internalType": "uint64",
          "name": "",
          "type": "uint64"
        }
      ],
      "stateMutability": "view",
      "type": "function"
    },
    {
      "inputs": [],
      "name": "Minimum_Reward",
      "outputs": [
        {
          "internalType": "uint64",
          "name": "",
          "type": "uint64"
        }
      ],
      "stateMutability": "view",
      "type": "function"
    },
    {
      "inputs": [],
      "name": "TroubleMakingTime",
      "outputs": [
        {
          "internalType": "uint256",
          "name": "",
          "type": "uint256"
        }
      ],
      "stateMutability": "view",
      "type": "function"
    },
    {
      "inputs": [],
      "name": "aroundMarket",
      "outputs": [
        {
          "internalType": "address",
          "name": "",
          "type": "address"
        }
      ],
      "stateMutability": "view",
      "type": "function"
    },
    {
      "inputs": [],
      "name": "aroundPoolFactory",
      "outputs": [
        {
          "internalType": "address",
          "name": "",
          "type": "address"
        }
      ],
      "stateMutability": "view",
      "type": "function"
    },
    {
      "inputs": [],
      "name": "challengRewardRate",
      "outputs": [
        {
          "internalType": "uint256",
          "name": "",
          "type": "uint256"
        }
      ],
      "stateMutability": "view",
      "type": "function"
    },
    {
      "inputs": [
        {
          "internalType": "uint256",
          "name": "id",
          "type": "uint256"
        },
        {
          "internalType": "string",
          "name": "evidence",
          "type": "string"
        }
      ],
      "name": "challenge",
      "outputs": [],
      "stateMutability": "nonpayable",
      "type": "function"
    },
    {
      "inputs": [],
      "name": "challengerFee",
      "outputs": [
        {
          "internalType": "uint256",
          "name": "",
          "type": "uint256"
        }
      ],
      "stateMutability": "view",
      "type": "function"
    },
    {
      "inputs": [],
      "name": "coolingTime",
      "outputs": [
        {
          "internalType": "uint32",
          "name": "",
          "type": "uint32"
        }
      ],
      "stateMutability": "view",
      "type": "function"
    },
    {
      "inputs": [
        {
          "internalType": "address",
          "name": "",
          "type": "address"
        }
      ],
      "name": "dataProviderInfo",
      "outputs": [
        {
          "internalType": "bool",
          "name": "valid",
          "type": "bool"
        },
        {
          "internalType": "uint64",
          "name": "latestSubmitTime",
          "type": "uint64"
        },
        {
          "internalType": "uint128",
          "name": "depositeAmount",
          "type": "uint128"
        }
      ],
      "stateMutability": "view",
      "type": "function"
    },
    {
      "inputs": [],
      "name": "disputePassThreshold",
      "outputs": [
        {
          "internalType": "uint16",
          "name": "",
          "type": "uint16"
        }
      ],
      "stateMutability": "view",
      "type": "function"
    },
    {
      "inputs": [
        {
          "internalType": "uint256",
          "name": "id",
          "type": "uint256"
        }
      ],
      "name": "disputeVote",
      "outputs": [],
      "stateMutability": "nonpayable",
      "type": "function"
    },
    {
      "inputs": [
        {
          "internalType": "uint256",
          "name": "id",
          "type": "uint256"
        }
      ],
      "name": "disruptRandom",
      "outputs": [],
      "stateMutability": "nonpayable",
      "type": "function"
    },
    {
      "inputs": [],
      "name": "exit",
      "outputs": [],
      "stateMutability": "nonpayable",
      "type": "function"
    },
    {
      "inputs": [
        {
          "internalType": "uint256",
          "name": "id",
          "type": "uint256"
        }
      ],
      "name": "getOnlyEventState",
      "outputs": [
        {
          "internalType": "enum IEchoOptimisticOracle.EventState",
          "name": "newEventState",
          "type": "uint8"
        }
      ],
      "stateMutability": "view",
      "type": "function"
    },
    {
      "inputs": [
        {
          "internalType": "uint256",
          "name": "id",
          "type": "uint256"
        }
      ],
      "name": "getOracleInfo",
      "outputs": [
        {
          "components": [
            {
              "internalType": "enum IEchoOptimisticOracle.EventState",
              "name": "eventState",
              "type": "uint8"
            },
            {
              "internalType": "enum IEchoOptimisticOracle.OracleWithdrawState",
              "name": "withdrawState",
              "type": "uint8"
            },
            {
              "internalType": "uint16",
              "name": "yesVote",
              "type": "uint16"
            },
            {
              "internalType": "uint16",
              "name": "noVote",
              "type": "uint16"
            },
            {
              "internalType": "uint64",
              "name": "randomNumber",
              "type": "uint64"
            },
            {
              "internalType": "uint64",
              "name": "updateTime",
              "type": "uint64"
            },
            {
              "internalType": "uint256",
              "name": "earn",
              "type": "uint256"
            },
            {
              "internalType": "string",
              "name": "quest",
              "type": "string"
            },
            {
              "components": [
                {
                  "internalType": "enum IEchoOptimisticOracle.OracleState",
                  "name": "state",
                  "type": "uint8"
                },
                {
                  "internalType": "bool",
                  "name": "isDisputePass",
                  "type": "bool"
                },
                {
                  "internalType": "uint16",
                  "name": "disputeVotes",
                  "type": "uint16"
                },
                {
                  "internalType": "uint16",
                  "name": "responseCount",
                  "type": "uint16"
                },
                {
                  "internalType": "address",
                  "name": "challenger",
                  "type": "address"
                },
                {
                  "internalType": "string",
                  "name": "evidence",
                  "type": "string"
                },
                {
                  "internalType": "address[]",
                  "name": "providers",
                  "type": "address[]"
                },
                {
                  "internalType": "address[]",
                  "name": "investigators",
                  "type": "address[]"
                }
              ],
              "internalType": "struct IEchoOptimisticOracle.OptimisticInfo",
              "name": "optimisticInfo",
              "type": "tuple"
            }
          ],
          "internalType": "struct IEchoOptimisticOracle.OracleInfo",
          "name": "thisOracleInfo",
          "type": "tuple"
        }
      ],
      "stateMutability": "view",
      "type": "function"
    },
    {
      "inputs": [
        {
          "internalType": "address",
          "name": "user",
          "type": "address"
        },
        {
          "internalType": "uint256",
          "name": "id",
          "type": "uint256"
        }
      ],
      "name": "getSubmitDataInfo",
      "outputs": [
        {
          "components": [
            {
              "internalType": "enum IEchoOptimisticOracle.EventState",
              "name": "eventState",
              "type": "uint8"
            },
            {
              "internalType": "bool",
              "name": "isSubmit",
              "type": "bool"
            },
            {
              "internalType": "uint256",
              "name": "randomNumber",
              "type": "uint256"
            },
            {
              "internalType": "string",
              "name": "dataSources",
              "type": "string"
            }
          ],
          "internalType": "struct IEchoOptimisticOracle.SubmitDataInfo",
          "name": "",
          "type": "tuple"
        }
      ],
      "stateMutability": "view",
      "type": "function"
    },
    {
      "inputs": [
        {
          "internalType": "address",
          "name": "_aroundMarket",
          "type": "address"
        },
        {
          "internalType": "address",
          "name": "_aroundPoolFactory",
          "type": "address"
        }
      ],
      "name": "initialize",
      "outputs": [],
      "stateMutability": "nonpayable",
      "type": "function"
    },
    {
      "inputs": [
        {
          "internalType": "uint256",
          "name": "id",
          "type": "uint256"
        },
        {
          "internalType": "uint256",
          "name": "value",
          "type": "uint256"
        }
      ],
      "name": "injectFee",
      "outputs": [],
      "stateMutability": "nonpayable",
      "type": "function"
    },
    {
      "inputs": [
        {
          "internalType": "uint256",
          "name": "id",
          "type": "uint256"
        },
        {
          "internalType": "string",
          "name": "thisQuest",
          "type": "string"
        }
      ],
      "name": "injectQuest",
      "outputs": [],
      "stateMutability": "nonpayable",
      "type": "function"
    },
    {
      "inputs": [
        {
          "internalType": "address",
          "name": "",
          "type": "address"
        }
      ],
      "name": "investigator",
      "outputs": [
        {
          "internalType": "bool",
          "name": "",
          "type": "bool"
        }
      ],
      "stateMutability": "view",
      "type": "function"
    },
    {
      "inputs": [],
      "name": "isInitialize",
      "outputs": [
        {
          "internalType": "bool",
          "name": "",
          "type": "bool"
        }
      ],
      "stateMutability": "view",
      "type": "function"
    },
    {
      "inputs": [],
      "name": "owner",
      "outputs": [
        {
          "internalType": "address",
          "name": "",
          "type": "address"
        }
      ],
      "stateMutability": "view",
      "type": "function"
    },
    {
      "inputs": [
        {
          "internalType": "address",
          "name": "",
          "type": "address"
        }
      ],
      "name": "providerPledgeAmount",
      "outputs": [
        {
          "internalType": "uint256",
          "name": "",
          "type": "uint256"
        }
      ],
      "stateMutability": "view",
      "type": "function"
    },
    {
      "inputs": [],
      "name": "registFee",
      "outputs": [
        {
          "internalType": "uint256",
          "name": "",
          "type": "uint256"
        }
      ],
      "stateMutability": "view",
      "type": "function"
    },
    {
      "inputs": [],
      "name": "registProvider",
      "outputs": [],
      "stateMutability": "nonpayable",
      "type": "function"
    },
    {
      "inputs": [],
      "name": "renounceOwnership",
      "outputs": [],
      "stateMutability": "nonpayable",
      "type": "function"
    },
    {
      "inputs": [
        {
          "internalType": "uint256",
          "name": "newChallengerFee",
          "type": "uint256"
        }
      ],
      "name": "setChallengerFee",
      "outputs": [],
      "stateMutability": "nonpayable",
      "type": "function"
    },
    {
      "inputs": [
        {
          "internalType": "uint32",
          "name": "newCoolingTime",
          "type": "uint32"
        }
      ],
      "name": "setCoolingTime",
      "outputs": [],
      "stateMutability": "nonpayable",
      "type": "function"
    },
    {
      "inputs": [
        {
          "internalType": "uint256",
          "name": "newRegistFee",
          "type": "uint256"
        }
      ],
      "name": "setRegistFee",
      "outputs": [],
      "stateMutability": "nonpayable",
      "type": "function"
    },
    {
      "inputs": [
        {
          "internalType": "address",
          "name": "user",
          "type": "address"
        },
        {
          "internalType": "bool",
          "name": "state",
          "type": "bool"
        }
      ],
      "name": "setTroublemaker",
      "outputs": [],
      "stateMutability": "nonpayable",
      "type": "function"
    },
    {
      "inputs": [
        {
          "internalType": "address",
          "name": "user",
          "type": "address"
        },
        {
          "internalType": "bool",
          "name": "state",
          "type": "bool"
        }
      ],
      "name": "setWhitelist",
      "outputs": [],
      "stateMutability": "nonpayable",
      "type": "function"
    },
    {
      "inputs": [
        {
          "internalType": "uint256",
          "name": "id",
          "type": "uint256"
        },
        {
          "internalType": "bool",
          "name": "isYes",
          "type": "bool"
        },
        {
          "internalType": "uint64",
          "name": "randomNumber",
          "type": "uint64"
        },
        {
          "internalType": "string",
          "name": "eventDataSources",
          "type": "string"
        }
      ],
      "name": "submitData",
      "outputs": [],
      "stateMutability": "nonpayable",
      "type": "function"
    },
    {
      "inputs": [],
      "name": "threshold",
      "outputs": [
        {
          "internalType": "uint16",
          "name": "",
          "type": "uint16"
        }
      ],
      "stateMutability": "view",
      "type": "function"
    },
    {
      "inputs": [
        {
          "internalType": "address",
          "name": "newOwner",
          "type": "address"
        }
      ],
      "name": "transferOwnership",
      "outputs": [],
      "stateMutability": "nonpayable",
      "type": "function"
    },
    {
      "inputs": [
        {
          "internalType": "address",
          "name": "",
          "type": "address"
        }
      ],
      "name": "troublemaker",
      "outputs": [
        {
          "internalType": "bool",
          "name": "",
          "type": "bool"
        }
      ],
      "stateMutability": "view",
      "type": "function"
    },
    {
      "inputs": [],
      "name": "usdc",
      "outputs": [
        {
          "internalType": "address",
          "name": "",
          "type": "address"
        }
      ],
      "stateMutability": "view",
      "type": "function"
    },
    {
      "inputs": [
        {
          "internalType": "address",
          "name": "",
          "type": "address"
        }
      ],
      "name": "validCollateral",
      "outputs": [
        {
          "internalType": "bool",
          "name": "",
          "type": "bool"
        }
      ],
      "stateMutability": "view",
      "type": "function"
    },
    {
      "inputs": [
        {
          "internalType": "address",
          "name": "",
          "type": "address"
        }
      ],
      "name": "whitelist",
      "outputs": [
        {
          "internalType": "bool",
          "name": "",
          "type": "bool"
        }
      ],
      "stateMutability": "view",
      "type": "function"
    },
    {
      "inputs": [
        {
          "internalType": "uint256",
          "name": "id",
          "type": "uint256"
        }
      ],
      "name": "withdrawDispute",
      "outputs": [],
      "stateMutability": "nonpayable",
      "type": "function"
    },
    {
      "inputs": [
        {
          "internalType": "uint256",
          "name": "id",
          "type": "uint256"
        }
      ],
      "name": "withdrawEarn",
      "outputs": [],
      "stateMutability": "nonpayable",
      "type": "function"
    }
  ],
  "bytecode": "0x60806040526003600260006101000a81548161ffff021916908361ffff16021790555060036002806101000a81548161ffff021916908361ffff160217905550611c20600260046101000a81548163ffffffff021916908363ffffffff1602179055506064600355604b60045561271060055561029a60065534801561008457600080fd5b506040516156d73803806156d783398181016040528101906100a6919061029e565b33600073ffffffffffffffffffffffffffffffffffffffff168173ffffffffffffffffffffffffffffffffffffffff16036101195760006040517f1e4fbdf700000000000000000000000000000000000000000000000000000000815260040161011091906102da565b60405180910390fd5b6101288161017760201b60201c565b506001808190555080600960006101000a81548173ffffffffffffffffffffffffffffffffffffffff021916908373ffffffffffffffffffffffffffffffffffffffff160217905550506102f5565b60008060009054906101000a900473ffffffffffffffffffffffffffffffffffffffff169050816000806101000a81548173ffffffffffffffffffffffffffffffffffffffff021916908373ffffffffffffffffffffffffffffffffffffffff1602179055508173ffffffffffffffffffffffffffffffffffffffff168173ffffffffffffffffffffffffffffffffffffffff167f8be0079c531659141344cd1fd0a4f28419497f9722a3daafe3b4186f6b6457e060405160405180910390a35050565b600080fd5b600073ffffffffffffffffffffffffffffffffffffffff82169050919050565b600061026b82610240565b9050919050565b61027b81610260565b811461028657600080fd5b50565b60008151905061029881610272565b92915050565b6000602082840312156102b4576102b361023b565b5b60006102c284828501610289565b91505092915050565b6102d481610260565b82525050565b60006020820190506102ef60008301846102cb565b92915050565b6153d3806103046000396000f3fe608060405234801561001057600080fd5b506004361061025e5760003560e01c8063715018a611610146578063b6c90e3c116100c3578063df24805d11610087578063df24805d146106eb578063e95d07fe14610709578063e9fad8ee14610713578063eea260781461071d578063f2fde38b1461074d578063f7d2d6f5146107695761025e565b8063b6c90e3c1461065b578063ba2f76df14610677578063c80091dd14610695578063d84b4f3d146106b3578063df05a752146106cf5761025e565b806399a55d661161010a57806399a55d66146105915780639b19251a146105c15780639e5786df146105f1578063ac26434b14610621578063ad40aa821461063d5761025e565b8063715018a61461050157806377bcf65c1461050b5780637d493a86146105275780638da5cb5b146105435780639276ade5146105615761025e565b80633cef8b8b116101df578063533ee2f1116101a3578063533ee2f11461045757806353d6fd591461047357806357f266f51461048f578063610ec18c146104ab578063615f248c146104c9578063617aeb97146104e55761025e565b80633cef8b8b146103c55780633e413bee146103e157806342cde4e8146103ff578063439c960d1461041d578063485cc9551461043b5761025e565b80632386c558116102265780632386c5581461030b57806323e5ff421461033b5780632d5087f414610359578063368c08911461037757806338975b96146103955761025e565b80630db2f718146102635780631019834114610281578063175fd0201461029f5780631b13b5f1146102d15780631ef27dee146102ed575b600080fd5b61026b610799565b604051610278919061396e565b60405180910390f35b61028961079f565b60405161029691906139ac565b60405180910390f35b6102b960048036038101906102b49190613a2f565b6107a5565b6040516102c893929190613aa2565b60405180910390f35b6102eb60048036038101906102e69190613b05565b61080c565b005b6102f561081e565b6040516103029190613b41565b60405180910390f35b61032560048036038101906103209190613a2f565b610844565b604051610332919061396e565b60405180910390f35b61034361085c565b604051610350919061396e565b60405180910390f35b610361610862565b60405161036e919061396e565b60405180910390f35b61037f610868565b60405161038c919061396e565b60405180910390f35b6103af60048036038101906103aa9190613a2f565b61086e565b6040516103bc9190613b5c565b60405180910390f35b6103df60048036038101906103da9190613b77565b61088e565b005b6103e961097d565b6040516103f69190613b41565b60405180910390f35b6104076109a3565b6040516104149190613bd4565b60405180910390f35b6104256109b7565b6040516104329190613c0e565b60405180910390f35b61045560048036038101906104509190613c29565b6109cd565b005b610471600480360381019061046c9190613b05565b610acc565b005b61048d60048036038101906104889190613c95565b610c65565b005b6104a960048036038101906104a49190613d66565b610d01565b005b6104b36114a4565b6040516104c091906139ac565b60405180910390f35b6104e360048036038101906104de9190613b05565b6114ad565b005b6104ff60048036038101906104fa9190613b05565b611a47565b005b610509611e45565b005b61052560048036038101906105209190613b05565b611e59565b005b610541600480360381019061053c9190613b05565b61226d565b005b61054b61227f565b6040516105589190613b41565b60405180910390f35b61057b60048036038101906105769190613b05565b6122a8565b6040516105889190614209565b60405180910390f35b6105ab60048036038101906105a69190613a2f565b61273b565b6040516105b89190613b5c565b60405180910390f35b6105db60048036038101906105d69190613a2f565b61275b565b6040516105e89190613b5c565b60405180910390f35b61060b60048036038101906106069190613b05565b61277b565b604051610618919061423a565b60405180910390f35b61063b60048036038101906106369190613c95565b6127a8565b005b61064561280b565b60405161065291906139ac565b60405180910390f35b61067560048036038101906106709190614281565b612815565b005b61067f61288b565b60405161068c9190613b41565b60405180910390f35b61069d6128b1565b6040516106aa9190613bd4565b60405180910390f35b6106cd60048036038101906106c891906142ae565b6128c3565b005b6106e960048036038101906106e491906142ae565b612ade565b005b6106f3612bd3565b6040516107009190613b5c565b60405180910390f35b610711612be6565b005b61071b612ef5565b005b61073760048036038101906107329190613a2f565b613230565b6040516107449190613b5c565b60405180910390f35b61076760048036038101906107629190613a2f565b613250565b005b610783600480360381019061077e919061430e565b6132d6565b60405161079091906143b1565b60405180910390f35b60035481565b6103e881565b600c6020528060005260406000206000915090508060000160009054906101000a900460ff16908060000160019054906101000a900467ffffffffffffffff16908060000160099054906101000a90046fffffffffffffffffffffffffffffffff16905083565b610814613433565b8060038190555050565b600860009054906101000a900473ffffffffffffffffffffffffffffffffffffffff1681565b600d6020528060005260406000206000915090505481565b60065481565b60045481565b60055481565b600b6020528060005260406000206000915054906101000a900460ff1681565b600760009054906101000a900473ffffffffffffffffffffffffffffffffffffffff1673ffffffffffffffffffffffffffffffffffffffff163373ffffffffffffffffffffffffffffffffffffffff161461091e576040517f08c379a000000000000000000000000000000000000000000000000000000000815260040161091590614430565b60405180910390fd5b80601060008481526020019081526020016000206001016000828254610944919061447f565b9250508190555080827f130c6ec9bec724a97ea178e5bc06fefc44cf8bd90fe73f58c6bfd60b2019480660405160405180910390a35050565b600960009054906101000a900473ffffffffffffffffffffffffffffffffffffffff1681565b600260009054906101000a900461ffff1681565b600260049054906101000a900463ffffffff1681565b6109d5613433565b60001515600960149054906101000a900460ff16151514610a2b576040517f08c379a0000000000000000000000000000000000000000000000000000000008152600401610a22906144ff565b60405180910390fd5b81600760006101000a81548173ffffffffffffffffffffffffffffffffffffffff021916908373ffffffffffffffffffffffffffffffffffffffff16021790555080600860006101000a81548173ffffffffffffffffffffffffffffffffffffffff021916908373ffffffffffffffffffffffffffffffffffffffff1602179055506001600960146101000a81548160ff0219169083151502179055505050565b600f60003373ffffffffffffffffffffffffffffffffffffffff1673ffffffffffffffffffffffffffffffffffffffff16815260200190815260200160002060009054906101000a900460ff16610b58576040517f08c379a0000000000000000000000000000000000000000000000000000000008152600401610b4f9061456b565b60405180910390fd5b60065460106000838152602001908152602001600020600001600e9054906101000a900467ffffffffffffffff1667ffffffffffffffff16610b9a919061447f565b421115610bdc576040517f08c379a0000000000000000000000000000000000000000000000000000000008152600401610bd3906145d7565b60405180910390fd5b60006010600083815260200190815260200160002060000160069054906101000a900467ffffffffffffffff16905061029a600282610c1b9190614626565b610c259190614657565b6010600084815260200190815260200160002060000160066101000a81548167ffffffffffffffff021916908367ffffffffffffffff1602179055505050565b610c6d613433565b80600e60008473ffffffffffffffffffffffffffffffffffffffff1673ffffffffffffffffffffffffffffffffffffffff16815260200190815260200160002060006101000a81548160ff0219169083151502179055507ff6019ec0a78d156d249a1ec7579e2321f6ac7521d6e1d2eacf90ba4a184dcceb8282604051610cf5929190614693565b60405180910390a15050565b610d096134ba565b60006002811115610d1d57610d1c613dee565b5b601160003373ffffffffffffffffffffffffffffffffffffffff1673ffffffffffffffffffffffffffffffffffffffff168152602001908152602001600020600087815260200190815260200160002060000160009054906101000a900460ff166002811115610d9057610d8f613dee565b5b14610dd0576040517f08c379a0000000000000000000000000000000000000000000000000000000008152600401610dc790614708565b60405180910390fd5b600c60003373ffffffffffffffffffffffffffffffffffffffff1673ffffffffffffffffffffffffffffffffffffffff16815260200190815260200160002060000160009054906101000a900460ff16610e5f576040517f08c379a0000000000000000000000000000000000000000000000000000000008152600401610e5690614774565b60405180910390fd5b64e8d4a5100067ffffffffffffffff168367ffffffffffffffff1610158015610ea257506509184e729fff67ffffffffffffffff168367ffffffffffffffff1611155b610ee1576040517f08c379a0000000000000000000000000000000000000000000000000000000008152600401610ed8906147e0565b60405180910390fd5b600060106000878152602001908152602001600020600301600001600481819054906101000a900461ffff1680929190610f1a90614800565b91906101000a81548161ffff021916908361ffff1602179055505060106000878152602001908152602001600020600301600201339080600181540180825580915050600190039060005260206000200160009091909190916101000a81548173ffffffffffffffffffffffffffffffffffffffff021916908373ffffffffffffffffffffffffffffffffffffffff160217905550841561100d576001905060106000878152602001908152602001600020600001600281819054906101000a900461ffff1680929190610fed90614800565b91906101000a81548161ffff021916908361ffff16021790555050611061565b6002905060106000878152602001908152602001600020600001600481819054906101000a900461ffff168092919061104590614800565b91906101000a81548161ffff021916908361ffff160217905550505b600260009054906101000a900461ffff1661ffff166010600088815260200190815260200160002060000160049054906101000a900461ffff166010600089815260200190815260200160002060000160029054906101000a900461ffff166110ca919061482a565b61ffff1610611283576010600087815260200190815260200160002060000160049054906101000a900461ffff1661ffff166010600088815260200190815260200160002060000160029054906101000a900461ffff1661ffff1611156111ac5760016010600088815260200190815260200160002060000160006101000a81548160ff0219169083600281111561116557611164613dee565b5b02179055504260106000888152602001908152602001600020600001600e6101000a81548167ffffffffffffffff021916908367ffffffffffffffff160217905550611282565b6010600087815260200190815260200160002060000160049054906101000a900461ffff1661ffff166010600088815260200190815260200160002060000160029054906101000a900461ffff1661ffff1610156112815760026010600088815260200190815260200160002060000160006101000a81548160ff0219169083600281111561123e5761123d613dee565b5b02179055504260106000888152602001908152602001600020600001600e6101000a81548167ffffffffffffffff021916908367ffffffffffffffff1602179055505b5b5b60006010600088815260200190815260200160002060000160069054906101000a900467ffffffffffffffff1690506000808267ffffffffffffffff16036112cd57859050611326565b600260009054906101000a900461ffff1661ffff16866112ed9190614626565b6001600260009054906101000a900461ffff1661ffff168461130f9190614626565b6113199190614860565b6113239190614657565b90505b80601060008a815260200190815260200160002060000160066101000a81548167ffffffffffffffff021916908367ffffffffffffffff16021790555082601160003373ffffffffffffffffffffffffffffffffffffffff1673ffffffffffffffffffffffffffffffffffffffff16815260200190815260200160002060008a815260200190815260200160002060000160006101000a81548160ff021916908360028111156113d9576113d8613dee565b5b02179055508484601160003373ffffffffffffffffffffffffffffffffffffffff1673ffffffffffffffffffffffffffffffffffffffff16815260200190815260200160002060008b81526020019081526020016000206002019182611440929190614ae2565b50873373ffffffffffffffffffffffffffffffffffffffff167fd2be64bf21eea11edbb1e86424e37c372875e8652e8267ac5f6efe6ca524aa61858460405161148a929190614bb2565b60405180910390a350505061149d613500565b5050505050565b64e8d4a5100081565b6114b56134ba565b6001808111156114c8576114c7613dee565b5b6010600083815260200190815260200160002060030160000160009054906101000a900460ff16600181111561150157611500613dee565b5b14611541576040517f08c379a000000000000000000000000000000000000000000000000000000000815260040161153890614c27565b60405180910390fd5b6000600281111561155557611554613dee565b5b6010600083815260200190815260200160002060000160019054906101000a900460ff16600281111561158b5761158a613dee565b5b146115cb576040517f08c379a00000000000000000000000000000000000000000000000000000000081526004016115c290614c93565b60405180910390fd5b600260049054906101000a900463ffffffff1663ffffffff1660106000838152602001908152602001600020600001600e9054906101000a900467ffffffffffffffff166116199190614657565b67ffffffffffffffff164211611664576040517f08c379a000000000000000000000000000000000000000000000000000000000815260040161165b90614cff565b60405180910390fd5b60026010600083815260200190815260200160002060000160016101000a81548160ff0219169083600281111561169e5761169d613dee565b5b02179055506010600082815260200190815260200160002060030160000160019054906101000a900460ff16156119185760006010600083815260200190815260200160002060030160000160069054906101000a900473ffffffffffffffffffffffffffffffffffffffff1690506000606460045461171c613509565b600a6117289190614e5f565b6005546117359190614eaa565b61173f9190614eaa565b6117499190614eec565b90506000611755613509565b600a6117619190614e5f565b60035461176e9190614eaa565b905060005b6010600086815260200190815260200160002060030160000160049054906101000a900461ffff1661ffff168110156118c25760006010600087815260200190815260200160002060030160020182815481106117d3576117d2614f1d565b5b9060005260206000200160009054906101000a900473ffffffffffffffffffffffffffffffffffffffff1690506010600087815260200190815260200160002060000160009054906101000a900460ff16600281111561183657611835613dee565b5b601160008373ffffffffffffffffffffffffffffffffffffffff1673ffffffffffffffffffffffffffffffffffffffff168152602001908152602001600020600088815260200190815260200160002060000160009054906101000a900460ff1660028111156118a9576118a8613dee565b5b146118b45783830192505b508080600101915050611773565b506119108382600960009054906101000a900473ffffffffffffffffffffffffffffffffffffffff1673ffffffffffffffffffffffffffffffffffffffff166135a19092919063ffffffff16565b505050611a3c565b60006010600083815260200190815260200160002060030160000160029054906101000a900461ffff1661ffff169050600081611953613509565b600a61195f9190614e5f565b60055461196c9190614eaa565b6119769190614eec565b905060005b82811015611a385760006010600086815260200190815260200160002060030160030182815481106119b0576119af614f1d565b5b9060005260206000200160009054906101000a900473ffffffffffffffffffffffffffffffffffffffff169050611a2a8184600960009054906101000a900473ffffffffffffffffffffffffffffffffffffffff1673ffffffffffffffffffffffffffffffffffffffff166135a19092919063ffffffff16565b50808060010191505061197b565b5050505b611a44613500565b50565b611a4f6134ba565b600260049054906101000a900463ffffffff1663ffffffff1660106000838152602001908152602001600020600001600e9054906101000a900467ffffffffffffffff16611a9d9190614657565b67ffffffffffffffff164211611ae8576040517f08c379a0000000000000000000000000000000000000000000000000000000008152600401611adf90614cff565b60405180910390fd5b600015156010600083815260200190815260200160002060030160000160019054906101000a900460ff16151514611b55576040517f08c379a0000000000000000000000000000000000000000000000000000000008152600401611b4c90614f98565b60405180910390fd5b60006002811115611b6957611b68613dee565b5b6010600083815260200190815260200160002060000160019054906101000a900460ff166002811115611b9f57611b9e613dee565b5b14611bdf576040517f08c379a0000000000000000000000000000000000000000000000000000000008152600401611bd690614c93565b60405180910390fd5b60006010600083815260200190815260200160002060030160000160049054906101000a900461ffff1661ffff1690506000601060008481526020019081526020016000206001015490506103e867ffffffffffffffff168111611c78576040517f08c379a0000000000000000000000000000000000000000000000000000000008152600401611c6f90615004565b60405180910390fd5b60008282611c869190614eec565b905060016010600086815260200190815260200160002060000160016101000a81548160ff02191690836002811115611cc257611cc1613dee565b5b021790555060005b83811015611e36576000601060008781526020019081526020016000206003016002018281548110611cff57611cfe614f1d565b5b9060005260206000200160009054906101000a900473ffffffffffffffffffffffffffffffffffffffff1690506010600087815260200190815260200160002060000160009054906101000a900460ff166002811115611d6257611d61613dee565b5b601160008373ffffffffffffffffffffffffffffffffffffffff1673ffffffffffffffffffffffffffffffffffffffff168152602001908152602001600020600088815260200190815260200160002060000160009054906101000a900460ff166002811115611dd557611dd4613dee565b5b03611e2857611e278184600960009054906101000a900473ffffffffffffffffffffffffffffffffffffffff1673ffffffffffffffffffffffffffffffffffffffff166135a19092919063ffffffff16565b5b508080600101915050611cca565b50505050611e42613500565b50565b611e4d613433565b611e576000613620565b565b600b60003373ffffffffffffffffffffffffffffffffffffffff1673ffffffffffffffffffffffffffffffffffffffff16815260200190815260200160002060009054906101000a900460ff16611ee5576040517f08c379a0000000000000000000000000000000000000000000000000000000008152600401611edc90615070565b60405180910390fd5b600015156010600083815260200190815260200160002060030160000160019054906101000a900460ff16151514611f52576040517f08c379a0000000000000000000000000000000000000000000000000000000008152600401611f4990614f98565b60405180910390fd5b600260049054906101000a900463ffffffff1663ffffffff1660106000838152602001908152602001600020600001600e9054906101000a900467ffffffffffffffff16611fa09190614657565b67ffffffffffffffff16421115611fec576040517f08c379a0000000000000000000000000000000000000000000000000000000008152600401611fe3906145d7565b60405180910390fd5b60106000828152602001908152602001600020600301600001600281819054906101000a900461ffff168092919061202390614800565b91906101000a81548161ffff021916908361ffff1602179055505060106000828152602001908152602001600020600301600301339080600181540180825580915050600190039060005260206000200160009091909190916101000a81548173ffffffffffffffffffffffffffffffffffffffff021916908373ffffffffffffffffffffffffffffffffffffffff16021790555060028054906101000a900461ffff1661ffff166010600083815260200190815260200160002060030160000160029054906101000a900461ffff1661ffff161061226a5760016010600083815260200190815260200160002060030160000160016101000a81548160ff0219169083151502179055506001600281111561214257612141613dee565b5b6010600083815260200190815260200160002060000160009054906101000a900460ff16600281111561217857612177613dee565b5b036121cd576002808111156121905761218f613dee565b5b6010600083815260200190815260200160002060000160009054906101000a900460ff1660028111156121c6576121c5613dee565b5b5050612269565b6002808111156121e0576121df613dee565b5b6010600083815260200190815260200160002060000160009054906101000a900460ff16600281111561221657612215613dee565b5b03612268576001600281111561222f5761222e613dee565b5b6010600083815260200190815260200160002060000160009054906101000a900460ff16600281111561226557612264613dee565b5b50505b5b5b50565b612275613433565b8060058190555050565b60008060009054906101000a900473ffffffffffffffffffffffffffffffffffffffff16905090565b6122b0613810565b60106000838152602001908152602001600020604051806101200160405290816000820160009054906101000a900460ff1660028111156122f4576122f3613dee565b5b600281111561230657612305613dee565b5b81526020016000820160019054906101000a900460ff16600281111561232f5761232e613dee565b5b600281111561234157612340613dee565b5b81526020016000820160029054906101000a900461ffff1661ffff1661ffff1681526020016000820160049054906101000a900461ffff1661ffff1661ffff1681526020016000820160069054906101000a900467ffffffffffffffff1667ffffffffffffffff1667ffffffffffffffff16815260200160008201600e9054906101000a900467ffffffffffffffff1667ffffffffffffffff1667ffffffffffffffff1681526020016001820154815260200160028201805461240390614905565b80601f016020809104026020016040519081016040528092919081815260200182805461242f90614905565b801561247c5780601f106124515761010080835404028352916020019161247c565b820191906000526020600020905b81548152906001019060200180831161245f57829003601f168201915b5050505050815260200160038201604051806101000160405290816000820160009054906101000a900460ff1660018111156124bb576124ba613dee565b5b60018111156124cd576124cc613dee565b5b81526020016000820160019054906101000a900460ff161515151581526020016000820160029054906101000a900461ffff1661ffff1661ffff1681526020016000820160049054906101000a900461ffff1661ffff1661ffff1681526020016000820160069054906101000a900473ffffffffffffffffffffffffffffffffffffffff1673ffffffffffffffffffffffffffffffffffffffff1673ffffffffffffffffffffffffffffffffffffffff16815260200160018201805461259290614905565b80601f01602080910402602001604051908101604052809291908181526020018280546125be90614905565b801561260b5780601f106125e05761010080835404028352916020019161260b565b820191906000526020600020905b8154815290600101906020018083116125ee57829003601f168201915b505050505081526020016002820180548060200260200160405190810160405280929190818152602001828054801561269957602002820191906000526020600020905b8160009054906101000a900473ffffffffffffffffffffffffffffffffffffffff1673ffffffffffffffffffffffffffffffffffffffff168152602001906001019080831161264f575b505050505081526020016003820180548060200260200160405190810160405280929190818152602001828054801561272757602002820191906000526020600020905b8160009054906101000a900473ffffffffffffffffffffffffffffffffffffffff1673ffffffffffffffffffffffffffffffffffffffff16815260200190600101908083116126dd575b505050505081525050815250509050919050565b600a6020528060005260406000206000915054906101000a900460ff1681565b600e6020528060005260406000206000915054906101000a900460ff1681565b60006010600083815260200190815260200160002060000160009054906101000a900460ff169050919050565b6127b0613433565b80600f60008473ffffffffffffffffffffffffffffffffffffffff1673ffffffffffffffffffffffffffffffffffffffff16815260200190815260200160002060006101000a81548160ff0219169083151502179055505050565b6509184e729fff81565b61281d613433565b603c8163ffffffff161015612867576040517f08c379a000000000000000000000000000000000000000000000000000000000815260040161285e90614c27565b60405180910390fd5b80600260046101000a81548163ffffffff021916908363ffffffff16021790555050565b600760009054906101000a900473ffffffffffffffffffffffffffffffffffffffff1681565b60028054906101000a900461ffff1681565b600260049054906101000a900463ffffffff1663ffffffff1660106000858152602001908152602001600020600001600e9054906101000a900467ffffffffffffffff166129119190614657565b67ffffffffffffffff1642111561295d576040517f08c379a0000000000000000000000000000000000000000000000000000000008152600401612954906145d7565b60405180910390fd5b6000612967613509565b600a6129739190614e5f565b6003546129809190614eaa565b90506129d1333083600960009054906101000a900473ffffffffffffffffffffffffffffffffffffffff1673ffffffffffffffffffffffffffffffffffffffff166136e4909392919063ffffffff16565b60016010600086815260200190815260200160002060030160000160006101000a81548160ff02191690836001811115612a0e57612a0d613dee565b5b02179055508282601060008781526020019081526020016000206003016001019182612a3b929190614ae2565b50336010600086815260200190815260200160002060030160000160066101000a81548173ffffffffffffffffffffffffffffffffffffffff021916908373ffffffffffffffffffffffffffffffffffffffff160217905550833373ffffffffffffffffffffffffffffffffffffffff167f4675ce26f2f7cc083b7d1c16aa73f3ed04807b1c82df6d2028c562fb06d9198060405160405180910390a350505050565b600860009054906101000a900473ffffffffffffffffffffffffffffffffffffffff1673ffffffffffffffffffffffffffffffffffffffff163373ffffffffffffffffffffffffffffffffffffffff1614612b6e576040517f08c379a0000000000000000000000000000000000000000000000000000000008152600401612b65906150dc565b60405180910390fd5b8181601060008681526020019081526020016000206002019182612b93929190614ae2565b50827f642637c35aa15361382c3fe35816f9fe0f8ff387ec16fcd86d49c311d7ad8d598383604051612bc6929190615138565b60405180910390a2505050565b600960149054906101000a900460ff1681565b60001515600c60003373ffffffffffffffffffffffffffffffffffffffff1673ffffffffffffffffffffffffffffffffffffffff16815260200190815260200160002060000160009054906101000a900460ff16151514612c7c576040517f08c379a0000000000000000000000000000000000000000000000000000000008152600401612c73906151a8565b60405180910390fd5b6000801515600e60003373ffffffffffffffffffffffffffffffffffffffff1673ffffffffffffffffffffffffffffffffffffffff16815260200190815260200160002060009054906101000a900460ff16151503612d4857612cdd613509565b600a612ce99190614e5f565b600554612cf69190614eaa565b9050612d47333083600960009054906101000a900473ffffffffffffffffffffffffffffffffffffffff1673ffffffffffffffffffffffffffffffffffffffff166136e4909392919063ffffffff16565b5b6001600c60003373ffffffffffffffffffffffffffffffffffffffff1673ffffffffffffffffffffffffffffffffffffffff16815260200190815260200160002060000160006101000a81548160ff02191690831515021790555042600c60003373ffffffffffffffffffffffffffffffffffffffff1673ffffffffffffffffffffffffffffffffffffffff16815260200190815260200160002060000160016101000a81548167ffffffffffffffff021916908367ffffffffffffffff16021790555080600c60003373ffffffffffffffffffffffffffffffffffffffff1673ffffffffffffffffffffffffffffffffffffffff16815260200190815260200160002060000160098282829054906101000a90046fffffffffffffffffffffffffffffffff16612e7991906151c8565b92506101000a8154816fffffffffffffffffffffffffffffffff02191690836fffffffffffffffffffffffffffffffff1602179055503373ffffffffffffffffffffffffffffffffffffffff167fe3d15bb008d7da902c34c6a5f6cbed8eee85c7f31fbf50561f95537b73cbb72a60405160405180910390a250565b600c60003373ffffffffffffffffffffffffffffffffffffffff1673ffffffffffffffffffffffffffffffffffffffff16815260200190815260200160002060000160009054906101000a900460ff16612f84576040517f08c379a0000000000000000000000000000000000000000000000000000000008152600401612f7b90615258565b60405180910390fd5b60001515600e60003373ffffffffffffffffffffffffffffffffffffffff1673ffffffffffffffffffffffffffffffffffffffff16815260200190815260200160002060009054906101000a900460ff16151514613017576040517f08c379a000000000000000000000000000000000000000000000000000000000815260040161300e906152c4565b60405180910390fd5b62093a80600c60003373ffffffffffffffffffffffffffffffffffffffff1673ffffffffffffffffffffffffffffffffffffffff16815260200190815260200160002060000160019054906101000a900467ffffffffffffffff1661307c9190614657565b67ffffffffffffffff1642101561309257600080fd5b6000600c60003373ffffffffffffffffffffffffffffffffffffffff1673ffffffffffffffffffffffffffffffffffffffff16815260200190815260200160002060000160099054906101000a90046fffffffffffffffffffffffffffffffff166fffffffffffffffffffffffffffffffff169050600c60003373ffffffffffffffffffffffffffffffffffffffff1673ffffffffffffffffffffffffffffffffffffffff168152602001908152602001600020600080820160006101000a81549060ff02191690556000820160016101000a81549067ffffffffffffffff02191690556000820160096101000a8154906fffffffffffffffffffffffffffffffff021916905550506131ea333083600960009054906101000a900473ffffffffffffffffffffffffffffffffffffffff1673ffffffffffffffffffffffffffffffffffffffff166136e4909392919063ffffffff16565b3373ffffffffffffffffffffffffffffffffffffffff167fec8066eec6218f0a9d2a93bf452cd1be156d67fe7d4f41b47ca0d8af0ee338c160405160405180910390a250565b600f6020528060005260406000206000915054906101000a900460ff1681565b613258613433565b600073ffffffffffffffffffffffffffffffffffffffff168173ffffffffffffffffffffffffffffffffffffffff16036132ca5760006040517f1e4fbdf70000000000000000000000000000000000000000000000000000000081526004016132c19190613b41565b60405180910390fd5b6132d381613620565b50565b6132de6138a2565b601160008473ffffffffffffffffffffffffffffffffffffffff1673ffffffffffffffffffffffffffffffffffffffff16815260200190815260200160002060008381526020019081526020016000206040518060800160405290816000820160009054906101000a900460ff16600281111561335e5761335d613dee565b5b60028111156133705761336f613dee565b5b81526020016000820160019054906101000a900460ff16151515158152602001600182015481526020016002820180546133a990614905565b80601f01602080910402602001604051908101604052809291908181526020018280546133d590614905565b80156134225780601f106133f757610100808354040283529160200191613422565b820191906000526020600020905b81548152906001019060200180831161340557829003601f168201915b505050505081525050905092915050565b61343b613766565b73ffffffffffffffffffffffffffffffffffffffff1661345961227f565b73ffffffffffffffffffffffffffffffffffffffff16146134b85761347c613766565b6040517f118cdaa70000000000000000000000000000000000000000000000000000000081526004016134af9190613b41565b60405180910390fd5b565b6002600154036134f6576040517f3ee5aeb500000000000000000000000000000000000000000000000000000000815260040160405180910390fd5b6002600181905550565b60018081905550565b6000600960009054906101000a900473ffffffffffffffffffffffffffffffffffffffff1673ffffffffffffffffffffffffffffffffffffffff1663313ce5676040518163ffffffff1660e01b8152600401602060405180830381865afa158015613578573d6000803e3d6000fd5b505050506040513d601f19601f8201168201806040525081019061359c9190615310565b905090565b61361b838473ffffffffffffffffffffffffffffffffffffffff1663a9059cbb85856040516024016135d492919061533d565b604051602081830303815290604052915060e01b6020820180517bffffffffffffffffffffffffffffffffffffffffffffffffffffffff838183161783525050505061376e565b505050565b60008060009054906101000a900473ffffffffffffffffffffffffffffffffffffffff169050816000806101000a81548173ffffffffffffffffffffffffffffffffffffffff021916908373ffffffffffffffffffffffffffffffffffffffff1602179055508173ffffffffffffffffffffffffffffffffffffffff168173ffffffffffffffffffffffffffffffffffffffff167f8be0079c531659141344cd1fd0a4f28419497f9722a3daafe3b4186f6b6457e060405160405180910390a35050565b613760848573ffffffffffffffffffffffffffffffffffffffff166323b872dd86868660405160240161371993929190615366565b604051602081830303815290604052915060e01b6020820180517bffffffffffffffffffffffffffffffffffffffffffffffffffffffff838183161783525050505061376e565b50505050565b600033905090565b600080602060008451602086016000885af180613791576040513d6000823e3d81fd5b3d9250600051915050600082146137ac5760018114156137c8565b60008473ffffffffffffffffffffffffffffffffffffffff163b145b1561380a57836040517f5274afe70000000000000000000000000000000000000000000000000000000081526004016138019190613b41565b60405180910390fd5b50505050565b604051806101200160405280600060028111156138305761382f613dee565b5b81526020016000600281111561384957613848613dee565b5b8152602001600061ffff168152602001600061ffff168152602001600067ffffffffffffffff168152602001600067ffffffffffffffff168152602001600081526020016060815260200161389c6138de565b81525090565b6040518060800160405280600060028111156138c1576138c0613dee565b5b815260200160001515815260200160008152602001606081525090565b604051806101000160405280600060018111156138fe576138fd613dee565b5b8152602001600015158152602001600061ffff168152602001600061ffff168152602001600073ffffffffffffffffffffffffffffffffffffffff1681526020016060815260200160608152602001606081525090565b6000819050919050565b61396881613955565b82525050565b6000602082019050613983600083018461395f565b92915050565b600067ffffffffffffffff82169050919050565b6139a681613989565b82525050565b60006020820190506139c1600083018461399d565b92915050565b600080fd5b600080fd5b600073ffffffffffffffffffffffffffffffffffffffff82169050919050565b60006139fc826139d1565b9050919050565b613a0c816139f1565b8114613a1757600080fd5b50565b600081359050613a2981613a03565b92915050565b600060208284031215613a4557613a446139c7565b5b6000613a5384828501613a1a565b91505092915050565b60008115159050919050565b613a7181613a5c565b82525050565b60006fffffffffffffffffffffffffffffffff82169050919050565b613a9c81613a77565b82525050565b6000606082019050613ab76000830186613a68565b613ac4602083018561399d565b613ad16040830184613a93565b949350505050565b613ae281613955565b8114613aed57600080fd5b50565b600081359050613aff81613ad9565b92915050565b600060208284031215613b1b57613b1a6139c7565b5b6000613b2984828501613af0565b91505092915050565b613b3b816139f1565b82525050565b6000602082019050613b566000830184613b32565b92915050565b6000602082019050613b716000830184613a68565b92915050565b60008060408385031215613b8e57613b8d6139c7565b5b6000613b9c85828601613af0565b9250506020613bad85828601613af0565b9150509250929050565b600061ffff82169050919050565b613bce81613bb7565b82525050565b6000602082019050613be96000830184613bc5565b92915050565b600063ffffffff82169050919050565b613c0881613bef565b82525050565b6000602082019050613c236000830184613bff565b92915050565b60008060408385031215613c4057613c3f6139c7565b5b6000613c4e85828601613a1a565b9250506020613c5f85828601613a1a565b9150509250929050565b613c7281613a5c565b8114613c7d57600080fd5b50565b600081359050613c8f81613c69565b92915050565b60008060408385031215613cac57613cab6139c7565b5b6000613cba85828601613a1a565b9250506020613ccb85828601613c80565b9150509250929050565b613cde81613989565b8114613ce957600080fd5b50565b600081359050613cfb81613cd5565b92915050565b600080fd5b600080fd5b600080fd5b60008083601f840112613d2657613d25613d01565b5b8235905067ffffffffffffffff811115613d4357613d42613d06565b5b602083019150836001820283011115613d5f57613d5e613d0b565b5b9250929050565b600080600080600060808688031215613d8257613d816139c7565b5b6000613d9088828901613af0565b9550506020613da188828901613c80565b9450506040613db288828901613cec565b935050606086013567ffffffffffffffff811115613dd357613dd26139cc565b5b613ddf88828901613d10565b92509250509295509295909350565b7f4e487b7100000000000000000000000000000000000000000000000000000000600052602160045260246000fd5b60038110613e2e57613e2d613dee565b5b50565b6000819050613e3f82613e1d565b919050565b6000613e4f82613e31565b9050919050565b613e5f81613e44565b82525050565b60038110613e7657613e75613dee565b5b50565b6000819050613e8782613e65565b919050565b6000613e9782613e79565b9050919050565b613ea781613e8c565b82525050565b613eb681613bb7565b82525050565b613ec581613989565b82525050565b613ed481613955565b82525050565b600081519050919050565b600082825260208201905092915050565b60005b83811015613f14578082015181840152602081019050613ef9565b60008484015250505050565b6000601f19601f8301169050919050565b6000613f3c82613eda565b613f468185613ee5565b9350613f56818560208601613ef6565b613f5f81613f20565b840191505092915050565b60028110613f7b57613f7a613dee565b5b50565b6000819050613f8c82613f6a565b919050565b6000613f9c82613f7e565b9050919050565b613fac81613f91565b82525050565b613fbb81613a5c565b82525050565b613fca816139f1565b82525050565b600081519050919050565b600082825260208201905092915050565b6000819050602082019050919050565b60006140088383613fc1565b60208301905092915050565b6000602082019050919050565b600061402c82613fd0565b6140368185613fdb565b935061404183613fec565b8060005b838110156140725781516140598882613ffc565b975061406483614014565b925050600181019050614045565b5085935050505092915050565b6000610100830160008301516140986000860182613fa3565b5060208301516140ab6020860182613fb2565b5060408301516140be6040860182613ead565b5060608301516140d16060860182613ead565b5060808301516140e46080860182613fc1565b5060a083015184820360a08601526140fc8282613f31565b91505060c083015184820360c08601526141168282614021565b91505060e083015184820360e08601526141308282614021565b9150508091505092915050565b6000610120830160008301516141566000860182613e56565b5060208301516141696020860182613e9e565b50604083015161417c6040860182613ead565b50606083015161418f6060860182613ead565b5060808301516141a26080860182613ebc565b5060a08301516141b560a0860182613ebc565b5060c08301516141c860c0860182613ecb565b5060e083015184820360e08601526141e08282613f31565b9150506101008301518482036101008601526141fc828261407f565b9150508091505092915050565b60006020820190508181036000830152614223818461413d565b905092915050565b61423481613e44565b82525050565b600060208201905061424f600083018461422b565b92915050565b61425e81613bef565b811461426957600080fd5b50565b60008135905061427b81614255565b92915050565b600060208284031215614297576142966139c7565b5b60006142a58482850161426c565b91505092915050565b6000806000604084860312156142c7576142c66139c7565b5b60006142d586828701613af0565b935050602084013567ffffffffffffffff8111156142f6576142f56139cc565b5b61430286828701613d10565b92509250509250925092565b60008060408385031215614325576143246139c7565b5b600061433385828601613a1a565b925050602061434485828601613af0565b9150509250929050565b60006080830160008301516143666000860182613e56565b5060208301516143796020860182613fb2565b50604083015161438c6040860182613ecb565b50606083015184820360608601526143a48282613f31565b9150508091505092915050565b600060208201905081810360008301526143cb818461434e565b905092915050565b600082825260208201905092915050565b7f4e6f6e2061726f756e644d61726b657400000000000000000000000000000000600082015250565b600061441a6010836143d3565b9150614425826143e4565b602082019050919050565b600060208201905081810360008301526144498161440d565b9050919050565b7f4e487b7100000000000000000000000000000000000000000000000000000000600052601160045260246000fd5b600061448a82613955565b915061449583613955565b92508282019050808211156144ad576144ac614450565b5b92915050565b7f416c726561647920696e697469616c697a650000000000000000000000000000600082015250565b60006144e96012836143d3565b91506144f4826144b3565b602082019050919050565b60006020820190508181036000830152614518816144dc565b9050919050565b7f4e6f6e2074726f75626c656d616b657200000000000000000000000000000000600082015250565b60006145556010836143d3565b91506145608261451f565b602082019050919050565b6000602082019050818103600083015261458481614548565b9050919050565b7f46696e6973686564000000000000000000000000000000000000000000000000600082015250565b60006145c16008836143d3565b91506145cc8261458b565b602082019050919050565b600060208201905081810360008301526145f0816145b4565b9050919050565b7f4e487b7100000000000000000000000000000000000000000000000000000000600052601260045260246000fd5b600061463182613989565b915061463c83613989565b92508261464c5761464b6145f7565b5b828204905092915050565b600061466282613989565b915061466d83613989565b9250828201905067ffffffffffffffff81111561468d5761468c614450565b5b92915050565b60006040820190506146a86000830185613b32565b6146b56020830184613a68565b9392505050565b7f416c7265616479207375626d6974000000000000000000000000000000000000600082015250565b60006146f2600e836143d3565b91506146fd826146bc565b602082019050919050565b60006020820190508181036000830152614721816146e5565b9050919050565b7f4e6f7420646174612070726f7669646572000000000000000000000000000000600082015250565b600061475e6011836143d3565b915061476982614728565b602082019050919050565b6000602082019050818103600083015261478d81614751565b9050919050565b7f496e76616c69642072616e646f6d206e756d6e65720000000000000000000000600082015250565b60006147ca6015836143d3565b91506147d582614794565b602082019050919050565b600060208201905081810360008301526147f9816147bd565b9050919050565b600061480b82613bb7565b915061ffff820361481f5761481e614450565b5b600182019050919050565b600061483582613bb7565b915061484083613bb7565b9250828201905061ffff81111561485a57614859614450565b5b92915050565b600061486b82613989565b915061487683613989565b9250828203905067ffffffffffffffff81111561489657614895614450565b5b92915050565b600082905092915050565b7f4e487b7100000000000000000000000000000000000000000000000000000000600052604160045260246000fd5b7f4e487b7100000000000000000000000000000000000000000000000000000000600052602260045260246000fd5b6000600282049050600182168061491d57607f821691505b6020821081036149305761492f6148d6565b5b50919050565b60008190508160005260206000209050919050565b60006020601f8301049050919050565b600082821b905092915050565b6000600883026149987fffffffffffffffffffffffffffffffffffffffffffffffffffffffffffffffff8261495b565b6149a2868361495b565b95508019841693508086168417925050509392505050565b6000819050919050565b60006149df6149da6149d584613955565b6149ba565b613955565b9050919050565b6000819050919050565b6149f9836149c4565b614a0d614a05826149e6565b848454614968565b825550505050565b600090565b614a22614a15565b614a2d8184846149f0565b505050565b5b81811015614a5157614a46600082614a1a565b600181019050614a33565b5050565b601f821115614a9657614a6781614936565b614a708461494b565b81016020851015614a7f578190505b614a93614a8b8561494b565b830182614a32565b50505b505050565b600082821c905092915050565b6000614ab960001984600802614a9b565b1980831691505092915050565b6000614ad28383614aa8565b9150826002028217905092915050565b614aec838361489c565b67ffffffffffffffff811115614b0557614b046148a7565b5b614b0f8254614905565b614b1a828285614a55565b6000601f831160018114614b495760008415614b37578287013590505b614b418582614ac6565b865550614ba9565b601f198416614b5786614936565b60005b82811015614b7f57848901358255600182019150602085019450602081019050614b5a565b86831015614b9c5784890135614b98601f891682614aa8565b8355505b6001600288020188555050505b50505050505050565b6000604082019050614bc7600083018561422b565b614bd4602083018461399d565b9392505050565b7f496e76616c696400000000000000000000000000000000000000000000000000600082015250565b6000614c116007836143d3565b9150614c1c82614bdb565b602082019050919050565b60006020820190508181036000830152614c4081614c04565b9050919050565b7f416c726561647920776974686472617700000000000000000000000000000000600082015250565b6000614c7d6010836143d3565b9150614c8882614c47565b602082019050919050565b60006020820190508181036000830152614cac81614c70565b9050919050565b7f4e6f742066696e69736800000000000000000000000000000000000000000000600082015250565b6000614ce9600a836143d3565b9150614cf482614cb3565b602082019050919050565b60006020820190508181036000830152614d1881614cdc565b9050919050565b60008160011c9050919050565b6000808291508390505b6001851115614d7657808604811115614d5257614d51614450565b5b6001851615614d615780820291505b8081029050614d6f85614d1f565b9450614d36565b94509492505050565b600082614d8f5760019050614e4b565b81614d9d5760009050614e4b565b8160018114614db35760028114614dbd57614dec565b6001915050614e4b565b60ff841115614dcf57614dce614450565b5b8360020a915084821115614de657614de5614450565b5b50614e4b565b5060208310610133831016604e8410600b8410161715614e215782820a905083811115614e1c57614e1b614450565b5b614e4b565b614e2e8484846001614d2c565b92509050818404811115614e4557614e44614450565b5b81810290505b9392505050565b600060ff82169050919050565b6000614e6a82613955565b9150614e7583614e52565b9250614ea27fffffffffffffffffffffffffffffffffffffffffffffffffffffffffffffffff8484614d7f565b905092915050565b6000614eb582613955565b9150614ec083613955565b9250828202614ece81613955565b91508282048414831517614ee557614ee4614450565b5b5092915050565b6000614ef782613955565b9150614f0283613955565b925082614f1257614f116145f7565b5b828204905092915050565b7f4e487b7100000000000000000000000000000000000000000000000000000000600052603260045260246000fd5b7f4469737075746520706173730000000000000000000000000000000000000000600082015250565b6000614f82600c836143d3565b9150614f8d82614f4c565b602082019050919050565b60006020820190508181036000830152614fb181614f75565b9050919050565b7f496e76616c696420616d6f756e74000000000000000000000000000000000000600082015250565b6000614fee600e836143d3565b9150614ff982614fb8565b602082019050919050565b6000602082019050818103600083015261501d81614fe1565b9050919050565b7f4e6f7420696e76657374696761746f7200000000000000000000000000000000600082015250565b600061505a6010836143d3565b915061506582615024565b602082019050919050565b600060208201905081810360008301526150898161504d565b9050919050565b7f4e6f6e2061726f756e64506f6f6c466163746f72790000000000000000000000600082015250565b60006150c66015836143d3565b91506150d182615090565b602082019050919050565b600060208201905081810360008301526150f5816150b9565b9050919050565b82818337600083830152505050565b600061511783856143d3565b93506151248385846150fc565b61512d83613f20565b840190509392505050565b6000602082019050818103600083015261515381848661510b565b90509392505050565b7f416c72656164792061206368616c6c656e676572000000000000000000000000600082015250565b60006151926014836143d3565b915061519d8261515c565b602082019050919050565b600060208201905081810360008301526151c181615185565b9050919050565b60006151d382613a77565b91506151de83613a77565b925082820190506fffffffffffffffffffffffffffffffff81111561520657615205614450565b5b92915050565b7f4e6f742061206368616c6c656e67657200000000000000000000000000000000600082015250565b60006152426010836143d3565b915061524d8261520c565b602082019050919050565b6000602082019050818103600083015261527181615235565b9050919050565b7f57686974656c6973742073746f70000000000000000000000000000000000000600082015250565b60006152ae600e836143d3565b91506152b982615278565b602082019050919050565b600060208201905081810360008301526152dd816152a1565b9050919050565b6152ed81614e52565b81146152f857600080fd5b50565b60008151905061530a816152e4565b92915050565b600060208284031215615326576153256139c7565b5b6000615334848285016152fb565b91505092915050565b60006040820190506153526000830185613b32565b61535f602083018461395f565b9392505050565b600060608201905061537b6000830186613b32565b6153886020830185613b32565b615395604083018461395f565b94935050505056fea2646970667358221220214644eb4190afc2a6451b9755dd33e3d5c558da8e8019da894cb56543c96a7264736f6c634300081a0033",
  "linkReferences": {},
  "deployedLinkReferences": {}
}