{
  "_format": "hh-sol-artifact-1",
  "contractName": "LuckyPool",
  "sourceName": "contracts/core/LuckyPool.sol",
  "abi": [
    {
      "inputs": [
        {
          "internalType": "address",
          "name": "thisAroundMarket",
          "type": "address"
        }
      ],
      "stateMutability": "nonpayable",
      "type": "constructor"
    },
    {
      "inputs": [],
      "name": "AlreadyInitialize",
      "type": "error"
    },
    {
      "inputs": [],
      "name": "AlreadyWithdraw",
      "type": "error"
    },
    {
      "inputs": [],
      "name": "InsufficientBalance",
      "type": "error"
    },
    {
      "inputs": [],
      "name": "InvalidLpShare",
      "type": "error"
    },
    {
      "inputs": [],
      "name": "InvalidMarketId",
      "type": "error"
    },
    {
      "inputs": [],
      "name": "InvalidOutput",
      "type": "error"
    },
    {
      "inputs": [],
      "name": "InvalidPeriod",
      "type": "error"
    },
    {
      "inputs": [],
      "name": "InvalidRandomNumber",
      "type": "error"
    },
    {
      "inputs": [],
      "name": "InvalidState",
      "type": "error"
    },
    {
      "inputs": [],
      "name": "LiquidityWayClosed",
      "type": "error"
    },
    {
      "inputs": [],
      "name": "MarketClosed",
      "type": "error"
    },
    {
      "inputs": [],
      "name": "NonMultiSig",
      "type": "error"
    },
    {
      "inputs": [],
      "name": "NotTimeYet",
      "type": "error"
    },
    {
      "inputs": [],
      "name": "NotWithdrawTime",
      "type": "error"
    },
    {
      "inputs": [
        {
          "internalType": "address",
          "name": "token",
          "type": "address"
        }
      ],
      "name": "SafeERC20FailedOperation",
      "type": "error"
    },
    {
      "inputs": [],
      "name": "TouchAroundErr",
      "type": "error"
    },
    {
      "inputs": [],
      "name": "TouchOracleErr",
      "type": "error"
    },
    {
      "inputs": [],
      "name": "ZeroAddress",
      "type": "error"
    },
    {
      "inputs": [],
      "name": "ZeroAmount",
      "type": "error"
    },
    {
      "inputs": [],
      "name": "ZeroParticipant",
      "type": "error"
    },
    {
      "anonymous": false,
      "inputs": [
        {
          "indexed": true,
          "internalType": "address",
          "name": "sender",
          "type": "address"
        },
        {
          "indexed": true,
          "internalType": "address",
          "name": "luckyUser",
          "type": "address"
        },
        {
          "indexed": true,
          "internalType": "uint256",
          "name": "value",
          "type": "uint256"
        }
      ],
      "name": "WithdrawReward",
      "type": "event"
    },
    {
      "inputs": [
        {
          "internalType": "uint256",
          "name": "thisMarketId",
          "type": "uint256"
        }
      ],
      "name": "bump",
      "outputs": [],
      "stateMutability": "nonpayable",
      "type": "function"
    },
    {
      "inputs": [],
      "name": "ifWithdraw",
      "outputs": [
        {
          "internalType": "bool",
          "name": "",
          "type": "bool"
        }
      ],
      "stateMutability": "view",
      "type": "function"
    },
    {
      "inputs": [],
      "name": "luckyNumber",
      "outputs": [
        {
          "internalType": "uint64",
          "name": "",
          "type": "uint64"
        }
      ],
      "stateMutability": "view",
      "type": "function"
    },
    {
      "inputs": [],
      "name": "luckyWinner",
      "outputs": [
        {
          "internalType": "address",
          "name": "",
          "type": "address"
        }
      ],
      "stateMutability": "view",
      "type": "function"
    }
  ],
  "bytecode": "0x608060405234801561001057600080fd5b506040516116c63803806116c68339818101604052810190610032919061011d565b33600160006101000a81548173ffffffffffffffffffffffffffffffffffffffff021916908373ffffffffffffffffffffffffffffffffffffffff16021790555080600260006101000a81548173ffffffffffffffffffffffffffffffffffffffff021916908373ffffffffffffffffffffffffffffffffffffffff1602179055505061014a565b600080fd5b600073ffffffffffffffffffffffffffffffffffffffff82169050919050565b60006100ea826100bf565b9050919050565b6100fa816100df565b811461010557600080fd5b50565b600081519050610117816100f1565b92915050565b600060208284031215610133576101326100ba565b5b600061014184828501610108565b91505092915050565b61156d806101596000396000f3fe608060405234801561001057600080fd5b506004361061004c5760003560e01c80635e93ea4f14610051578063b20eb4c41461006f578063bf205ebc1461008b578063fcf488a9146100a9575b600080fd5b6100596100c7565b6040516100669190610ac5565b60405180910390f35b61008960048036038101906100849190610b2a565b6100da565b005b61009361048d565b6040516100a09190610b7a565b60405180910390f35b6100b16104a5565b6040516100be9190610bd6565b60405180910390f35b600260149054906101000a900460ff1681565b600260149054906101000a900460ff1615610121576040517fa727014000000000000000000000000000000000000000000000000000000000815260040160405180910390fd5b6000600260009054906101000a900473ffffffffffffffffffffffffffffffffffffffff1673ffffffffffffffffffffffffffffffffffffffff16633ec79193836040518263ffffffff1660e01b815260040161017e9190610c00565b61010060405180830381865afa15801561019c573d6000803e3d6000fd5b505050506040513d601f19601f820116820180604052508101906101c09190610e5e565b60e0015190506000600260009054906101000a900473ffffffffffffffffffffffffffffffffffffffff1673ffffffffffffffffffffffffffffffffffffffff16633ec79193846040518263ffffffff1660e01b81526004016102239190610c00565b61010060405180830381865afa158015610241573d6000803e3d6000fd5b505050506040513d601f19601f820116820180604052508101906102659190610e5e565b60a001519050611c20816102799190610ebb565b67ffffffffffffffff164210156102bc576040517fb473605e00000000000000000000000000000000000000000000000000000000815260040160405180910390fd5b60008267ffffffffffffffff1603610300576040517f98f604ac00000000000000000000000000000000000000000000000000000000815260040160405180910390fd5b6000600260009054906101000a900473ffffffffffffffffffffffffffffffffffffffff1673ffffffffffffffffffffffffffffffffffffffff16637dc0d1d06040518163ffffffff1660e01b8152600401602060405180830381865afa15801561036f573d6000803e3d6000fd5b505050506040513d601f19601f820116820180604052508101906103939190610ef7565b905060008173ffffffffffffffffffffffffffffffffffffffff16639276ade5866040518263ffffffff1660e01b81526004016103d09190610c00565b600060405180830381865afa1580156103ed573d6000803e3d6000fd5b505050506040513d6000823e3d601f19601f82011682018060405250810190610416919061137b565b60800151905060008167ffffffffffffffff1603610460576040517f92a7f1ec00000000000000000000000000000000000000000000000000000000815260040160405180910390fd5b61046b8582866104cb565b6001600260146101000a81548160ff0219169083151502179055505050505050565b60008054906101000a900467ffffffffffffffff1681565b600060089054906101000a900473ffffffffffffffffffffffffffffffffffffffff1681565b6104d5828261090a565b6000806101000a81548167ffffffffffffffff021916908367ffffffffffffffff1602179055506000600260009054906101000a900473ffffffffffffffffffffffffffffffffffffffff1673ffffffffffffffffffffffffffffffffffffffff16633ec79193856040518263ffffffff1660e01b81526004016105599190610c00565b61010060405180830381865afa158015610577573d6000803e3d6000fd5b505050506040513d601f19601f8201168201806040525081019061059b9190610e5e565b60c001519050600073ffffffffffffffffffffffffffffffffffffffff168173ffffffffffffffffffffffffffffffffffffffff1603610607576040517fd92e233d00000000000000000000000000000000000000000000000000000000815260040160405180910390fd5b60008173ffffffffffffffffffffffffffffffffffffffff166370a08231306040518263ffffffff1660e01b81526004016106429190610bd6565b602060405180830381865afa15801561065f573d6000803e3d6000fd5b505050506040513d601f19601f8201168201806040525081019061068391906113c4565b9050600081036106bf576040517f1f2a200500000000000000000000000000000000000000000000000000000000815260040160405180910390fd5b600260009054906101000a900473ffffffffffffffffffffffffffffffffffffffff1673ffffffffffffffffffffffffffffffffffffffff1663318fe3128660008054906101000a900467ffffffffffffffff166040518363ffffffff1660e01b81526004016107309291906113f1565b602060405180830381865afa15801561074d573d6000803e3d6000fd5b505050506040513d601f19601f820116820180604052508101906107719190610ef7565b600060086101000a81548173ffffffffffffffffffffffffffffffffffffffff021916908373ffffffffffffffffffffffffffffffffffffffff160217905550600073ffffffffffffffffffffffffffffffffffffffff16600060089054906101000a900473ffffffffffffffffffffffffffffffffffffffff1673ffffffffffffffffffffffffffffffffffffffff1603610839576040517fd92e233d00000000000000000000000000000000000000000000000000000000815260040160405180910390fd5b610886600060089054906101000a900473ffffffffffffffffffffffffffffffffffffffff16828473ffffffffffffffffffffffffffffffffffffffff166109899092919063ffffffff16565b80600060089054906101000a900473ffffffffffffffffffffffffffffffffffffffff1673ffffffffffffffffffffffffffffffffffffffff163373ffffffffffffffffffffffffffffffffffffffff167fad71f93891cecc86a28a627d5495c28fabbd31cdd2e93851b16ce3421fdab2e560405160405180910390a45050505050565b600060018267ffffffffffffffff16036109275760019050610983565b8167ffffffffffffffff1683428460405160200161094793929190611471565b6040516020818303038152906040528051906020012060001c61096a91906114dd565b905060008103610982578167ffffffffffffffff1690505b5b92915050565b610a03838473ffffffffffffffffffffffffffffffffffffffff1663a9059cbb85856040516024016109bc92919061150e565b604051602081830303815290604052915060e01b6020820180517bffffffffffffffffffffffffffffffffffffffffffffffffffffffff8381831617835250505050610a08565b505050565b600080602060008451602086016000885af180610a2b576040513d6000823e3d81fd5b3d925060005191505060008214610a46576001811415610a62565b60008473ffffffffffffffffffffffffffffffffffffffff163b145b15610aa457836040517f5274afe7000000000000000000000000000000000000000000000000000000008152600401610a9b9190610bd6565b60405180910390fd5b50505050565b60008115159050919050565b610abf81610aaa565b82525050565b6000602082019050610ada6000830184610ab6565b92915050565b6000604051905090565b600080fd5b600080fd5b6000819050919050565b610b0781610af4565b8114610b1257600080fd5b50565b600081359050610b2481610afe565b92915050565b600060208284031215610b4057610b3f610aea565b5b6000610b4e84828501610b15565b91505092915050565b600067ffffffffffffffff82169050919050565b610b7481610b57565b82525050565b6000602082019050610b8f6000830184610b6b565b92915050565b600073ffffffffffffffffffffffffffffffffffffffff82169050919050565b6000610bc082610b95565b9050919050565b610bd081610bb5565b82525050565b6000602082019050610beb6000830184610bc7565b92915050565b610bfa81610af4565b82525050565b6000602082019050610c156000830184610bf1565b92915050565b600080fd5b6000601f19601f8301169050919050565b7f4e487b7100000000000000000000000000000000000000000000000000000000600052604160045260246000fd5b610c6982610c20565b810181811067ffffffffffffffff82111715610c8857610c87610c31565b5b80604052505050565b6000610c9b610ae0565b9050610ca78282610c60565b919050565b600080fd5b60048110610cbe57600080fd5b50565b600081519050610cd081610cb1565b92915050565b610cdf81610aaa565b8114610cea57600080fd5b50565b600081519050610cfc81610cd6565b92915050565b600061ffff82169050919050565b610d1981610d02565b8114610d2457600080fd5b50565b600081519050610d3681610d10565b92915050565b610d4581610b57565b8114610d5057600080fd5b50565b600081519050610d6281610d3c565b92915050565b610d7181610bb5565b8114610d7c57600080fd5b50565b600081519050610d8e81610d68565b92915050565b60006101008284031215610dab57610daa610c1b565b5b610db6610100610c91565b90506000610dc684828501610cc1565b6000830152506020610dda84828501610ced565b6020830152506040610dee84828501610ced565b6040830152506060610e0284828501610d27565b6060830152506080610e1684828501610d53565b60808301525060a0610e2a84828501610d53565b60a08301525060c0610e3e84828501610d7f565b60c08301525060e0610e5284828501610d53565b60e08301525092915050565b60006101008284031215610e7557610e74610aea565b5b6000610e8384828501610d94565b91505092915050565b7f4e487b7100000000000000000000000000000000000000000000000000000000600052601160045260246000fd5b6000610ec682610b57565b9150610ed183610b57565b9250828201905067ffffffffffffffff811115610ef157610ef0610e8c565b5b92915050565b600060208284031215610f0d57610f0c610aea565b5b6000610f1b84828501610d7f565b91505092915050565b60038110610f3157600080fd5b50565b600081519050610f4381610f24565b92915050565b60038110610f5657600080fd5b50565b600081519050610f6881610f49565b92915050565b600081519050610f7d81610afe565b92915050565b600080fd5b600080fd5b600067ffffffffffffffff821115610fa857610fa7610c31565b5b610fb182610c20565b9050602081019050919050565b60005b83811015610fdc578082015181840152602081019050610fc1565b60008484015250505050565b6000610ffb610ff684610f8d565b610c91565b90508281526020810184848401111561101757611016610f88565b5b611022848285610fbe565b509392505050565b600082601f83011261103f5761103e610f83565b5b815161104f848260208601610fe8565b91505092915050565b6002811061106557600080fd5b50565b60008151905061107781611058565b92915050565b600067ffffffffffffffff82111561109857611097610c31565b5b602082029050602081019050919050565b600080fd5b60006110c16110bc8461107d565b610c91565b905080838252602082019050602084028301858111156110e4576110e36110a9565b5b835b8181101561110d57806110f98882610d7f565b8452602084019350506020810190506110e6565b5050509392505050565b600082601f83011261112c5761112b610f83565b5b815161113c8482602086016110ae565b91505092915050565b6000610100828403121561115c5761115b610c1b565b5b611167610100610c91565b9050600061117784828501611068565b600083015250602061118b84828501610ced565b602083015250604061119f84828501610d27565b60408301525060606111b384828501610d27565b60608301525060806111c784828501610d7f565b60808301525060a082015167ffffffffffffffff8111156111eb576111ea610cac565b5b6111f78482850161102a565b60a08301525060c082015167ffffffffffffffff81111561121b5761121a610cac565b5b61122784828501611117565b60c08301525060e082015167ffffffffffffffff81111561124b5761124a610cac565b5b61125784828501611117565b60e08301525092915050565b6000610120828403121561127a57611279610c1b565b5b611285610120610c91565b9050600061129584828501610f34565b60008301525060206112a984828501610f59565b60208301525060406112bd84828501610d27565b60408301525060606112d184828501610d27565b60608301525060806112e584828501610d53565b60808301525060a06112f984828501610d53565b60a08301525060c061130d84828501610f6e565b60c08301525060e082015167ffffffffffffffff81111561133157611330610cac565b5b61133d8482850161102a565b60e08301525061010082015167ffffffffffffffff81111561136257611361610cac565b5b61136e84828501611145565b6101008301525092915050565b60006020828403121561139157611390610aea565b5b600082015167ffffffffffffffff8111156113af576113ae610aef565b5b6113bb84828501611263565b91505092915050565b6000602082840312156113da576113d9610aea565b5b60006113e884828501610f6e565b91505092915050565b60006040820190506114066000830185610bf1565b6114136020830184610b6b565b9392505050565b60008160c01b9050919050565b60006114328261141a565b9050919050565b61144a61144582610b57565b611427565b82525050565b6000819050919050565b61146b61146682610af4565b611450565b82525050565b600061147d8286611439565b60088201915061148d828561145a565b60208201915061149d8284611439565b600882019150819050949350505050565b7f4e487b7100000000000000000000000000000000000000000000000000000000600052601260045260246000fd5b60006114e882610af4565b91506114f383610af4565b925082611503576115026114ae565b5b828206905092915050565b60006040820190506115236000830185610bc7565b6115306020830184610bf1565b939250505056fea2646970667358221220007cdf9e809879a652292694eeec6862f7ba1811ac0d2c51b9a8951b06a24e9164736f6c634300081a0033",
  "linkReferences": {},
  "deployedLinkReferences": {}
}